:020000022000DC
:1060000000000120756302005D6302005F6302000F
:106010006163020063630200656302000000000028
:1060200000000000000000000000000067630200A4
:1060300069630200000000006B6302006D630200F0
:106040004D9D02006F63020055A102006F630200C4
:106050006F6302006F6302000DA00200BDAB02007F
:10606000C1B00200D1B002006F6302006F63020092
:106070006F6302006F6302006F6302006F630200D0
:106080006F630200D97602006F6302006F63020043
:106090006F6302006F630200591103006F63020017
:1060A0006F6302006F6302006F6302006F630200A0
:1060B0006F6302006F630200000000000000000038
:1060C0006F6302006F6302006F6302006F63020080
:1060D0006F6302006F6302006F6302000000000044
:1060E00000000000000000000000000000000000B0
:1060F00000000000000000000000000000000000A0
:10610000000000000000000000000000000000008F
:10611000000000000000000000000000000000007F
:10612000000000000000000000000000000000006F
:10613000000000000000000000000000000000005F
:10614000000000000000000000000000000000004F
:10615000000000000000000000000000000000003F
:10616000000000000000000000000000000000002F
:10617000000000000000000000000000000000001F
:10618000000000000000000000000000000000000F
:1061900000000000000000000000000000000000FF
:1061A00000000000000000000000000000000000EF
:1061B00000000000000000000000000000000000DF
:1061C00000000000000000000000000000000000CF
:1061D00000000000000000000000000000000000BF
:1061E00000000000000000000000000000000000AF
:1061F000000000000000000000000000000000009F
:10620000354936480A1A02D0072291438D4634494F
:1062100034480A1A06D00722914381F309880222E2
:1062200082F3148830483149314A00F044F831484B
:106230003149324A00F03FF831483249324A00F0E1
:106240003AF832483249334A00F035F83248334997
:10625000334A00F030F833483349344A00F02BF821
:1062600033483449344A00F026F83448344900228F
:1062700000F02CF833483449002200F027F8334866
:106280003349091A082902DB002202604160314AC1
:1062900090471F481F49884205D00268043003B464
:1062A000904703BCF7E700208646EC46002000211B
:1062B000294A9047FEE7884207D0521A05D0037852
:1062C00001300B700131013AF9D17047884202D098
:1062D00002700130FAE770470000012000E0002062
:1062E0000000012000000120084203006422002079
:1062F000E8220020D0630200D0630200941A030059
:10630000084203006422002064220020741C030061
:10631000741C0300741C0300741C0300741C030031
:10632000741C0300741C0300741C03000842030067
:106330008C420300E8220020E8220020E82200200E
:10634000163800201838002018380020183800208F
:10635000185800209D63020029BC0200FEE7FEE7FA
:10636000FEE7FEE7FEE7FEE7FEE7FEE7FEE7FEE705
:1063700000F002B8FFF7FCBF0F484FF00701884359
:1063800085460E4880470E48016841F4700101605F
:10639000BFF34F8FBFF36F8FFFF732BF09480A4932
:1063A0000A4A884207D0521A05D0037801300B7090
:1063B0000131013AF9D17047000001202197020014
:1063C00088ED00E0601C03005022002064220020C1
:1063D000F0B595B01C46164608460D4602F0B8FFCB
:1063E0001A9B0D93CDE9086400242346082205A9D1
:1063F00028460A948DF82C400C9402F0C6FF079BA7
:106400000293069B03939DF814308DF8114003F01E
:106410000302012A1DD1BDF81440059EC3F3C20337
:10642000C4F383148DF81030A20008230EA9284667
:1064300002F0ABFFC6F3952608AB0093224602ABF1
:106440000EA9304600F0C0FB284602F085FF15B0CB
:10645000F0BD022AF8D1BDF81640C3F3C203A40967
:106460008DF810300827082C264628BF08263B4602
:1064700032460EA9284602F088FFA41B08AB02AAE8
:1064800031460EA8374400F003FC002CEBD1DBE7CB
:10649000014B01221A707047292300207047000029
:1064A00070B50E4D06460FCD88B06C460FC495E80A
:1064B0000F00002E84E80F004FF00603084A094839
:1064C000009308BF0022694603F0C8FB08B100F042
:1064D000A5FD054B1E7008B070BD00BF741C030005
:1064E0009164020064220020E822002007B5044BDA
:1064F0000093044A4023FFF76BFF03B05DF804FBF1
:1065000009650200E922002038B50D4B0D4D002031
:1065100018700D4804782D5DD2B21C4665B1043068
:1065200004F08EFA08B100F079FD084B1A7812B128
:106530002378002BFBD038BD0C3004F03BF8F1E79A
:1065400029230020A42B002064220020E822002020
:1065500008B50848084A0378D35C3BB1043004F01E
:10656000DDF90020BDE80840FFF79ABF0C3003F0CA
:10657000B7FFF6E764220020A42B00200120FFF7DC
:106580008FBF000008B5FFF7F9FF0421034800F0B2
:106590008BFA034B01225A7108BD00BF501C030047
:1065A00078220020037813F0040216D003F00303CE
:1065B000012B03D0022B09D0012070470A68008804
:1065C0000232C0F3831002440A60F5E70B68428888
:1065D000023303EB92130B60EEE7104670470000A6
:1065E0002DE9F04F87B000230446851C0DF107000C
:1065F0000E4690468DF8073000F004FF404A506880
:106600003060936803F580731B1A924602F21C46B1
:1066100002F5836902F21447AB4219D30023B8F1A3
:10662000000F66D0052262F3070364F38913DAF8DA
:1066300004209DF80700D1B2033115444AF82130F7
:10664000CAF8045000F002FF012007B0BDE8F08F47
:106650000121304602F0FEF8484602F014F93846AF
:1066600002F011F9DAF808000290C0B203300AEB28
:10667000800002A9FFF796FF029B30BBDAB20AEB5B
:106680008202D16803919A1C0133DBB20AEB8303C7
:106690000292D3F80CB001F00303012B21D0022B9E
:1066A00015D08346384602F0F1F810B1029BCAF8C3
:1066B00008305946304602F0CDF8DAF80830DAF8FA
:1066C000042003F580739B1AA6E7D8B2CEE7BDF885
:1066D0000E309B0903334FEA1B4B02EB93030293EB
:1066E000E0E7BDF80C30C3F383134FEA1B4B1344B0
:1066F000F5E7062262F3070364F39F5397E700BFB1
:10670000FC230020064B074810B500221A7002F047
:10671000D8FD044610B9044802F03AFF204610BDE7
:10672000FC230020381B0300B41C030030B50A4CC6
:1067300071B10A4A0A49121BD20800239A4201D1B8
:10674000002030BD31F82350854202D00133F5E7F7
:10675000034654F83300F4E7601B0300501C0300A9
:1067600064220020094B013903EBC000032909D83A
:10677000DFE801F00A020406042070470079704740
:10678000407970470020704702207047601B03006B
:10679000034BD3E90130C31A58425841704700BF38
:1067A000FC2300202DE9F04186B0FFF7F1FF0546FC
:1067B000002840F0E680744CC4F81804BFF34F8FF3
:1067C000A0680290C0B2033004EB800002A9FFF77A
:1067D000E9FE029B18B1D4F81824002A53D0DAB28B
:1067E000991C013304EB8202DBB204EB8303D26811
:1067F000DB68049302F00303022B039202914FD152
:10680000BDF80E3061484FEA93184746502F28BF15
:10681000502767F38F1307F10801ADF80E3002F02F
:1068200068FD0546002800F0978002F091FD03A95D
:1068300000230822284602F09EFD0299CE43F6B2BC
:106840000136B600C9B20331B74204EB810124D945
:1068500008233246BF1B284602F08DFDFFB24C498B
:1068600006F108033A46284602F085FD029B08F12E
:10687000030803EB98030293D4F81834002B43D198
:10688000D4F8106453E062689A4204D8A2602846A3
:1068900006B0BDE8F081D8B295E708233A46E2E7B2
:1068A000012B59D1BDF80C303848C3F383110629A8
:1068B00028BF062161F3891302318900ADF80C303D
:1068C00002F017FD0546002846D002F041FD0023E6
:1068D000082203A9284602F04EFD0026BDF80C2030
:1068E000C2F38312B300964203F10803C4D20299A3
:1068F0004A1CC9B20331029204EB810104222846EA
:1069000002F039FD0136E9E7284602F025FDFFF7E0
:106910003FFF80F00100C5B2B9E7F3685B7923B1AE
:10692000336829461B6830469847F3681E68002E76
:10693000F3D1284602F010FD0DF107008DF8076035
:1069400000F060FDD4F818340BB9029BA3609DF8E9
:10695000070000F07BFDDAE7D4F8104454B90D4B82
:106960000D480E49C01AC008000440F0020000F0B3
:1069700069F8CCE7236820469B689847E3681C6861
:10698000ECE7002583E700BFFC230020381B030051
:1069900008240020601B0300A01B0300C01C030090
:1069A0002DE9F34780460F46924601A90122184679
:1069B0009946FFF715FE214D70B3019C0026A11CDE
:1069C0004E4506EB010230D100211D4801F001FFC8
:1069D00080F31000631CDBB205EB8303000440EA84
:1069E0001840D860E3B2033315F8232068F3C502DA
:1069F00005F8232035F8232066F3891225F8232093
:106A000055F8232067F39F2245F8232002F0F8026F
:106A100042F0010205F823202B781BB1FFF7C2FEDC
:106A20000028FBD102B0BDE8F087D2B205EB8202AC
:106A30005AF82630D3600136C2E700BFFC2300209D
:106A40001828002000231A46FFF7AABF07B5012324
:106A5000019201AAFFF7A4FF03B05DF804FB07B59C
:106A6000CDE9002302236A46FFF79AFF03B05DF8E1
:106A700004FB1FB5CDE90123069B039301AA032361
:106A8000FFF78EFF05B05DF804FB1FB5CDE90023CD
:106A9000069B0293079B03936A460423FFF780FF3C
:106AA00005B05DF804FB000030B50F49D1F81024A3
:106AB000002314463CB9C468237152B9C1F81004CC
:106AC0002260184630BDE46825799D4206D02468CE
:106AD000F0E7D268116821601060F2E701330A2BF9
:106AE000E7D14FF0FF33ECE7FC230020084A38B52C
:106AF0000123D2F8104413701D4604B938BDE36871
:106B00005D71236820465B689847E3681C68F4E77A
:106B1000FC230020037A052B10B50C460FD0437AD6
:106B200023B1084A0849204601F013FF07492046CF
:106B300001F00FFF2046BDE8104001F0FFBE002A23
:106B4000F8D0F3E70B1D03007B350300B0260300EC
:106B5000C38873B504460D4633B1144A00921449F4
:106B6000144A284601F0F5FE217A05291CD0637AE3
:106B70004BB1A088FFF7F6FD0F4B104953F82020CA
:106B8000284601F0E6FE227A0D4BA08853F82260D9
:106B90000021FFF7CBFD0B4903463246284602B0E1
:106BA000BDE8704001F0D5BE02B070BD0B1D030002
:106BB000181D0300101D0300D81C03007B350300C3
:106BC0003C1D0300301D03002DE9F04385B01F4636
:106BD0000C9D002306460C46904695F80C902B73AE
:106BE00029463846FFF7B4FFB8F1060F09D8DFE8A9
:106BF00008F00412181F283340003146284601F0DF
:106C0000A8FE002229463846FFF784FF85F80C903D
:106C100005B0BDE8F08322683146284601F099FEB0
:106C2000EFE7D4E900233146284601F092FEE8E779
:106C3000A36800933146D4E90023284601F089FE79
:106C4000DFE7E3680193A36800933146D4E90023AA
:106C5000284601F07EFED4E723690293E36801939E
:106C6000A36800933146D4E90023284601F071FE61
:106C7000C7E76369039323690293E3680193A368F9
:106C800000933146D4E90023284601F062FEB8E7BC
:106C900008292DE9F84F80460E4617461C463AD87B
:106CA000002593F80C901D7319461046FFF750FF0E
:106CB000DFF884A0DFF884B0AE422ED918F80520A2
:106CC0005946204601F045FE0135082DF4D11849FA
:106CD000DFF86CB0204601F03CFE4FF0000A56454C
:106CE00020D918F80A507E2D03D828460AF006FE4F
:106CF00000B92E252A465946204601F02AFE0AF1FF
:106D0000010ABAF1080FEAD1012221463846FFF7FD
:106D100001FF84F80C90BDE8F88F5146204601F041
:106D200018FED1E70349204601F013FEE7E700BF54
:106D3000061D0300041D0300021D0300FC1C0300CC
:106D4000081D0300C30710B507D4F0234008054A07
:106D5000145C23401943115410BD0901C9B20F231B
:106D6000F4E700BFE828002030B5094B1C78094B38
:106D7000196800239C4202DC0022104630BD11F845
:106D80003350854201EBC302F7D00133F2E700BF75
:106D9000B4280020F828002070B504460D46FFF7FF
:106DA000E3FF30B1436823B129462046BDE8704077
:106DB000184770BD034B044819680022490800F0C9
:106DC00032BA00BFB8280020C028002010B5C0B2D9
:106DD000FFF7CAFF0446007803F00EF963785A1EE5
:106DE00053425341834208D1044BD3E90023134358
:106DF00003D1BDE81040FFF7DDBF10BDE028002043
:106E000037B54308364AD35CC2074CBF1B0903F0B1
:106E10000F0304460D46042B36D8DFE803F00326A3
:106E20002D393D0081B30121FFF78CFF00230DF1C7
:106E300007008DF8073000F0E5FA0122A4F12003E5
:106E4000C4F12000274902FA03F322FA00F00343B9
:106E500002FA04F4D1E9002014430343C1E90043DA
:106E60009DF8070000F0F2FA0EE0002918BF022199
:106E70002046FFF767FF07E041B10321FFF762FFFC
:106E800001212046FFF788FF03B030BD0121EFE765
:106E90000029F9D10421EBE709B10321E8E7FFF765
:106EA00051FF29462046FFF777FF0DF107008DF8C7
:106EB000075000F0A7FA0122A4F12003C4F120003A
:106EC000084902FA03F322FA00F0034302FA04F439
:106ED000D1E9002022EA040420EA0303BEE700BF50
:106EE000E8280020E02800202DE9F041124E134F41
:106EF00000243378A34208DC114BD3E90023134369
:106F000018D0BDE8F041FFF755BF3D6805EBC40858
:106F100015F8340003F070F898F801104B1E594230
:106F200059410A1A514215F834005141FFF768FFE0
:106F30000134DEE7BDE8F081B4280020F828002005
:106F4000E0280020092AF7B505460C4616463DD92B
:106F500002F090FFD8B11E4B1E481D601E4B1F4F04
:106F60001C701F4B002110221E600AF030FD1D4BCB
:106F700000200021C3E90001013CE4B20326FF2CFC
:106F80000BD1194A1948002100F042F903E002F040
:106F900033FF0028DFD003B0F0BD20B29DF80630EB
:106FA0008DF8046005EBC00223F007038DF806306E
:106FB00001A9937815F830008DF805303A4602F0B3
:106FC00063FF013CE4B20028D9D0E4E70720E2E700
:106FD000F8280020E8280020B4280020CD6D020009
:106FE000B8280020E0280020E96E02009C1D030064
:106FF00070B5084D084E00242B789C4201D3002028
:1070000070BD3368012113F8340002F0B1FF013480
:10701000F2E700BFB4280020F82800201FB50021A7
:10702000039001AA44F20100CDE9011100F004F837
:1070300005B05DF804FB000010B572B6FFF756FD11
:10704000FFF7B0FB0028FBD1104B114C1149E41A9B
:10705000E408240444F00100FFF7F4FC0E4B1B6825
:10706000DB0700D500BE0D4944F00200FFF7EAFC43
:10707000BFF34F8F0A490B4BCA6802F4E062134317
:10708000CB60BFF34F8F00BFFDE700BF601B030065
:10709000A01B0300AB1D0300F0ED00E0B71D0300D3
:1070A00000ED00E00400FA05D0E90223D1E9020175
:1070B000994208BF90422CBF012000207047000079
:1070C0002DE900480C4800F0F0FA0C4BD3E90023FE
:1070D00012EB000B43F1000C094BD3E900239C4554
:1070E00008BF93455846614603D21BF180704CF1AE
:1070F0000001BDE8008800BF802200200029002098
:107100007829002037B505460C460A4801A901F048
:1071100094FA60B10570446001A9064801F0B7FA1D
:1071200018B1054800F0C6FA002003B030BD0420B5
:10713000FBE700BF6429002080220020194B1B7848
:107140002DE9304804461BB900252846BDE83088A3
:107150000028F9D0037F03F0FF05002BF4D0FFF7E0
:10716000AFFFD4E90223994208BF904215D32369A7
:1071700003B92377D4E90530984721690029E3D082
:10718000237F03F0FF05002BDED0D4E9022312EBAE
:10719000010B43F1000CC4E902BC2146024802F095
:1071A00016FAD2E708290020C41D030013B50023F6
:1071B000ADF8043006238DF80630582208230E4916
:1071C0000E4801F005FA044698B90D4A0D4801A988
:1071D00000F060F9044660B901210A4800F048FA5D
:1071E0000123094A0748194600F0AEF9074B01226E
:1071F0001A70204602B010BD0C290020642900201E
:107200007172020080220020FFFF7F000829002009
:107210003AB103685A614A1E514251411961002036
:1072200070470720704738B5037F04460D4683B981
:107230008261FFF745FF421941F10003C4E90223CF
:10724000236903B1256121460020BDE83840FFF7DE
:1072500059BF002038BD0023014603770120FFF706
:1072600051BF0000014800F020BA00BF802200207A
:107270002DE9F04F85B0074600F002FA40B1594AB7
:10728000D2E9003113F1807341F10001C2E900310C
:107290000021384600F003FA38B1534C236823B17B
:1072A0002068FFF74BFF002323600121384600F0E0
:1072B000F6F920B1FFF704FF4C4BC3E9000103A925
:1072C0004B48494D4B4C4C4E01F0F1F9002845D14B
:1072D000DFF820A1444CDFF828B1504602F08DF9C8
:1072E0002368002875D07BB12368D0E90201D3E977
:1072F0000223994208BF90422DD223681B7F1BB105
:107300002168504602F063F9504602F070F9D0E966
:10731000026305460193FFF7D3FE019BB6EB00081D
:1073200063EB0109B8F1010F79F1000344DB334E3F
:10733000B0453FD9FFF796FF82194FF4160300219D
:10734000584600F021F900283ED1236813B9384689
:1073500000F0F2F8256005B0BDE8F08F0378012B4E
:107360001DD05BB1022B11D14FF0000A204602F074
:107370003EF9002833D080F81CA0F7E741680B7F66
:1073800023B901230B77204602F021F903A91848FD
:1073900001F0B8F903A9164801F089F996E74168A8
:1073A0002B68994202D100232B60EFE7204602F0C0
:1073B00027F9EBE7AA68C0E70021584600F065F915
:1073C0002846FFF7BBFE01E00D28F9D0002323601B
:1073D00083E7002BBFD1384600F0B2F8BBE70123AA
:1073E0003370D3E70029002080290020782900206D
:1073F00064290020C41D030008290020FFFF690044
:107400008022002070B5EFF3108672B60C4A9468A3
:1074100001239CB993600B4B0B4DD3F8801029408E
:107420001160C3F88050D3F8841051604FF0FF32E0
:10743000C3F88420047006B962B670BD0370FAE721
:107440008429002000E100E0FC06FFBD084B9A689B
:1074500010B55AB150B9EFF3108172B6054A1C68E5
:1074600014605C685460986001B962B610BD00BFDA
:107470008429002000E100E0435882B03BB10023A2
:10748000435043580193019B012002B070471846B6
:10749000FBE70000F8B5204B4479204E43F8242048
:1074A0001F4A204B06EBC4049B1A2279DB081B04FD
:1074B00032B143F002001C49FFF7C4FA0820F8BDBE
:1074C00002680C88C2F8084590F904508A78002DAB
:1074D0004FEA4212ECB2D2B219DB14494F1987F8C5
:1074E000002301226D0904F01F0402FA04F441F89C
:1074F0002540427906EBC20101240C7146F83200A6
:107500000B4943F00300FFF79DFA0020D7E704F092
:107510000F0408490A55ECE798290020902900201B
:10752000601B0300B01B0300E61D030000E100E048
:10753000081E030014ED00E0036801221A60704782
:10754000036801225A60704773B501F15005AD0020
:107550000068ADB24FF480348C400026C0F8084378
:10756000C0F84843465101F5A8714559019522F0EC
:107570007F42019D40F82120C0F844430BB1C0F880
:10758000044302B070BD00002DE9F74F88469946CC
:107590004FF48036036808F150058E404FEA880AA0
:1075A000AD00C3F84863ADB2C3F80863074603EB08
:1075B0000A00D3F804154FF0000B22F07F44D0F8F6
:1075C0004025C0F8401543F805B05B590093009B77
:1075D000531A23F07F43012B0BD1244B4FF48060CF
:1075E00043F0010398473B6843F805B05B590193AA
:1075F000019B3868D0F80455C0F84463631B23F03E
:107600007F43012B1AD108F5A878184B013440F8B4
:10761000284043F001034FF4806098473B68D3F85B
:1076200004359D4208D13B680020C3F84463C3F889
:10763000046303B0BDE8F08F0D20FAE78244C9F17E
:10764000FF19CAF84045D0F80435E21A013A22F091
:107650007F4209F57F499145EED3002AE3D10134F9
:10766000CAF84045D0F804259342DBE7E01D03004B
:1076700003680222C3F8442309B1C3F80423704706
:107680004FF482710068FFF7F7BE4FF4803303FABE
:1076900001F10368C3F84813C3F808137047503169
:1076A000890089B20068FFF7E7BE0368D3F80405D4
:1076B0007047000090F90430002B09DB5A090121C2
:1076C00003F01F0301FA03F34032024941F822306C
:1076D000704700BF00E100E0024B034A1B681068DE
:1076E000184700BF982900209029002070B5064D4A
:1076F0000646002455F8043B0BB130469847013448
:10770000042CF7D170BD00BFA8290020033080B23F
:1077100040F2FE33984230B51FD8134B1A783AB96D
:107720001C895D892C440444A4B2B4F5806F0AD945
:107730001A7DAAB99A8BDC8B2244024492B2B2F52C
:10774000806F0DD801220A801446142202FB0433F4
:107750005A8910445881002030BD48F20860FBE788
:1077600048F20660F8E700BFDC2900200B4A0C4B0A
:107770005188142000FB0131CB6833B904204968DB
:1077800010700122074801F067BB052306491370FA
:1077900002238B80012200230968F3E7C02900201F
:1077A000DC29002050220020A42A002007B5002355
:1077B00005490093054A09680548082301F0B6FA0F
:1077C00003B05DF804FB00BFA42A0020281E0300BC
:1077D0005022002007B50023009301460823034AE6
:1077E000034801F0A3FA03B05DF804FB201E030078
:1077F0005022002013B500230C46009301460423B9
:10780000074A084801F092FA38B9074B142202FBE4
:1078100004340123237402B010BD48F20D60FAE76E
:107820001C1E030050220020DC29002037B50A4826
:107830000A4B42689C8819685388032503330570F6
:107840009BB2002000909B0001EB8401044801F0F2
:107850006DFA03B030BD00BFC0290020A42A00206B
:107860005022002010B50146044800F0E6FE1C221C
:10787000044600210AF0ABF8204610BD902A0020F3
:1078800068B10268084B9A4209D14068074B984298
:1078900007D0013398420CBF01200320704703201A
:1078A00070470020704700BFDEC0ADDEFE011EF154
:1078B0004388033300EB830399420BD382884FF64E
:1078C000FF739A4208D0038833B18068431C584242
:1078D0005841704702207047012070472DE9F84356
:1078E0000223DFF860800B800D46174600F58056B6
:1078F00000F108044FF00109B4420FD223680133AC
:107900000CD031462046FFF7D3FF48B10FB187F8BE
:10791000009002280BD14FF480632B80BDE8F883E0
:10792000A368D8F80020934201D9C8F800302B880A
:107930006288033313442B806388033304EB83048E
:10794000DAE700BFD4290020154A142303FB0020E6
:1079500070B50B6844680D4604F58056ABB15C8881
:10796000033403EB8404B4420DD2236801330AD0FC
:1079700031462046FFF79CFF01280BD010F0FF0F87
:1079800005D00228EFD1002003E00834EBE72C609B
:10799000012070BD6388033304EB8304E3E700BF79
:1079A000DC290020436873B504460D466BB3244AB6
:1079B000D1688B4229D31269934226D813F0030071
:1079C00023D1204A2189128991421ED121689A68C7
:1079D00091421AD11C4A51688B4203D901F580515A
:1079E0008B420DD3926993420CD902F58052934297
:1079F00008D201232B80B0FA80F0400902B070BD9C
:107A00000346F7E748F20960F5E700232B801E469E
:107A1000019601A92888FFF797FF30B92B88013319
:107A20009BB2012B2B80F3D9E8E7019B2268996870
:107A30009142EED16360034B1B892381DEE700BFD7
:107A400050220020C0290020DC2900202DE9F84325
:107A50001C461D4B1B7806460F46154673B382B372
:107A60007CB3DFF86C804FF01409A388012B02D996
:107A700048F2096020E009FB03F318F803302BB942
:107A80002146A088FFF760FF20B92060A38801335A
:107A9000A380EAE723681EB1998832889142EFD12A
:107AA0001FB119883A889142EAD19A68C5E9002342
:107AB000064B1B892B810020BDE8F88348F201604A
:107AC000FAE748F20460F7E7B8290020C02900204F
:107AD000DC29002008B5074B191D5888FFF734FF33
:107AE00018B1BDE80840FFF7A1BEBDE80840FFF7A8
:107AF0003DBE00BFC02900202DE9F04FA34FDFF8A5
:107B0000B09289B00646B8463B6823B94946A048BA
:107B100000F0CDFD3860D8F8005029784B1E052BB9
:107B200000F2FE80DFE813F0060060006000F20063
:107B3000F20064012EB1974B00225A604FF40644C4
:107B4000F0E02B79032B1DD8DFE803F015022B366C
:107B500091490B78022B08461AD00B7D022B4FF06F
:107B6000010317D114225343C2180020C85450688F
:107B7000FFF730FE03E001232B71FFF717FE00280B
:107B800000F0BE80834B00225A6048F20D64C9E0C9
:107B90000023E7E77F4A13700023536041F61D542A
:107BA000C0E07E497E48002302222B718A80012298
:107BB000096801F051F9E2E7784C00262E7120683F
:107BC000754DFFF707FE774BD4F800C05A88142391
:107BD0005343EA18EE5451682160A188C2F804C0EA
:107BE00011810222A280CAE7B5F814A0AA7DDFF8AD
:107BF000A8B1AEB1022AEB8806D9142101FB0AB163
:107C0000DA1C088902440A81142202FB0ABAC3F56D
:107C10007F43BAF80A20FD331344AAF80A308DE7EF
:107C2000142303FB0AB318895C6804EB8004062A5A
:107C300069D8DFE802F0274E36441D5A040041F6A9
:107C40001D54AA7DEB88022A06D9142101FB0AB132
:107C5000DA1C088902440A81142202FB0ABAC3F51D
:107C60007F43BAF80A20FD331344AAF80A3059E0DA
:107C70004D484E4900234360AB690360FFF792FE15
:107C8000002874D00223AB75002300930423EA1864
:107C90002146434801F04AF8002831D048F20D64EB
:107CA000CFE72B69002B14BF03230123AB750023FF
:107CB000009305F10C02042304F10801E9E7012314
:107CC000AB750022EB8800929B002A6904F10C013D
:107CD000DFE703290CBF05230623AB7500230093C0
:107CE000042305F10802E118D3E70623AB752F4BF7
:107CF00019882D4B5868FFF77DFD04460028A0D158
:107D000009B0BDE8F08F48F20E649AE7002E7FF4C8
:107D100015AF2B79012B4DD0EBB1022B3FF43EAFC9
:107D200048F20E641422002103A809F050FE41F627
:107D30001D539C4208BF0024D8F8003004941A78E0
:107D4000023A042A00F20A81DFE812F0EB00F700A1
:107D50001A012201290102232B710DF10A01EB689E
:107D6000039303A8CDE90466FFF71CFE10B948F29F
:107D70000964D7E70498BDF80A108388EB8003886C
:107D80002B81FFF737FD044629E000BFD8290020EA
:107D9000902A0020B8290020DC290020A42A0020F5
:107DA00050220020C02900209C290020B02A002059
:107DB000D0290020DFF804A203AA53463146A81DAB
:107DC000FFF744FE044668B9BAF804100498FFF7B8
:107DD00011FD044648F209639C423FF4DFAE002CDB
:107DE000A0D18DE708223146504609F0F0FDF1E7B9
:107DF000002E7FF4A3AE6C4B1A7BAAB11E731A78C7
:107E0000013A062A8CD801A151F822F0B77E02006F
:107E1000DD7E0200FB7E0200017F0200217D020068
:107E2000077F0200197F02001A78072AE7D801A10C
:107E300051F822F0557E0200FF7D0200FF7D020016
:107E40007B7E02008F7E0200B37E0200B37E0200C2
:107E5000777E02001A89554901321A8100225A8020
:107E60001A730A78B2FA82F252099A720A7DB2FA49
:107E700082F25209DA72012207E04D4958688A8875
:107E80004088033202448A8002221A70B7E7474CC6
:107E90005A884749142505FB024208685468506017
:107EA0008888108102200C608880002111740622CD
:107EB000EBE70722E9E79A7A32B9DA7A8AB900223F
:107EC0001A705A805A6069E6384900229A72CA6864
:107ED000002AF2D1097C0029EFD05A80FFF7FAFD81
:107EE00051E70022DA72314A116A0029E7D192F88B
:107EF0002420002AE3D00122EFE7FFF797FC42E7B6
:107F0000FFF734FC3FE7294A5B88142101FB032378
:107F10005868FFF75FFC36E700225A60FFF746FC1F
:107F200031E701228DF80C201A89ADF818209A88C3
:107F3000DB68ADF81A20059310E002228DF80C20C2
:107F40001A89ADF818209A88ADF81A20DA689B7D56
:107F500005929A1F534253418DF81C3003A8FFF736
:107F6000C5FB002649461348C8F8006000F0CAFB6C
:107F70000121114800F079FC00287FF4C5ADBFE66F
:107F800003228DF80C20DA88ADF818201A89CFE783
:107F90000422DB888DF80C20ADF81830DEE70523CD
:107FA0008DF80C30DAE700BFC0290020DC29002062
:107FB000A42A0020902A0020A02A0020B42A002011
:107FC0004068FFF799BD000008B50121044800F0A2
:107FD00036FC18B9BDE80840FFF78EBD08BD00BFEC
:107FE000A02A00202DE9F3419846374B1B7806461E
:107FF0000D46002B5CD000295DD009884FF6FF7339
:1080000099425BD06B88002B58D06B689B0758D186
:108010004AB92F890DF102013846FFF777FB30B1DD
:1080200002B0BDE8F08113885788ADF8023001A88E
:10803000FFF718FC044660B9BDF80230234A14214A
:1080400001FB032358890338C01B588148F207609D
:10805000E6E700238375BDF8023083826B68036115
:1080600080F8008001211A4800F0F4FB2B8823815E
:10807000B8F1030F6B88A38004BF0423A3754FF0EE
:10808000000508BF3368E06008BFA361E780658131
:1080900001A9104800F0FBFA36B1E36833600E4BDB
:1080A00075601B89B5723381FFF78EFF0020B7E73B
:1080B00048F20160B4E748F20460B1E748F20360B7
:1080C000AEE748F20260ABE7B8290020DC290020C7
:1080D000D4290020902A0020C029002008B5084B90
:1080E0001A68042A09D01968064A42F821000121B9
:1080F000184600F0AFFB002008BD48F20B60FBE71C
:10810000AC2A0020A82900202DE9F04F89B01422C4
:10811000002103A809F05BFC784A137803F0FF0103
:10812000009190463BB103A8FFF7E0FA00273846DC
:1081300009B0BDE8F08F101D00F0A2FB0028F5D1BA
:1081400040F6F8734FF080521B685C1C08BF6C4B04
:108150006C4C08BF1B6811695269581C08BF02FBB0
:1081600001F323610022A3F540536749E3602046F1
:1081700000F0A8FD019407460028D8D11C238C22CA
:1081800062496348DFF89CB100F022FABA463D46E6
:108190004FF003093C46019BDE6856443046FFF72A
:1081A0006FFB012860D042B2002A4AD0032827D1B1
:1081B0003268531C02D0574B9A4234D1321D06F517
:1081C0008051106801302ED104329142F9D1DBF890
:1081D00000203AB902220123CBF80060ABF804205A
:1081E00000930BE0142262434B4B022099189854E1
:1081F0004A4A4E60548001340881A4B245F001051A
:108200000AF5805ABAF5405FC5D1B9F1010F98BFA0
:108210000025EDB2022D03D0062D44D0002D4CD107
:1082200048F20A6783E73C4914226243881809F13F
:10823000FF394660032088541FFA89F90134A4B23B
:10824000DEE735491420604301EB000C0A5400F1CD
:10825000100208300A44CCF8046001443046FFF7AD
:108260003DFB45F00205E9E7009B6BB12A4B142268
:108270006243991802209854DBF800204A60274A8C
:10828000088154800134A4B200222549CBF8006053
:108290003046FFF723FBBBF80420022A0CBF042260
:1082A00008221543ACE7012388F8003003A8002317
:1082B000C8F80430FFF71AFA39E702A8FFF7D2FA34
:1082C000C8B10123013D03700A2D09D8DFE805F08C
:1082D00006080608070807080F110F00002303719E
:1082E00002A90B4800F0D3F9FFF76EFE1FE7032346
:1082F000F5E70223F3E748F2076718E7B8290020FB
:1083000014100010502200201C200300042A00201A
:10831000902A0020DEC0ADDEDC290020C02900202C
:10832000A82A0020A42A002073B50D460446C8B12F
:10833000C1B10DF10601FFF735FBB0B10C4BBDF833
:1083400006006668142202FB003001210C3000F0A8
:1083500081FA63682E600C336B600123A3720020E6
:1083600002B070BD48F20460FAE748F20960F7E72E
:10837000DC29002013B50446A8B10DF10601FFF772
:1083800011FB98B10C4ABDF80630142101FB032300
:10839000DA6872B1A27A62B1DA680020013ADA6072
:1083A000A07202B010BD48F20460FAE748F209601A
:1083B000F7E748F20560F4E7DC29002002230022F9
:1083C000FFF710BE18B103230022FFF70BBE48F2DF
:1083D00004607047114B1B7813B50446ABB14FF6E0
:1083E000FF73984214D001A8FFF73CFA98B1052317
:1083F000037001230371C48001A9094800F047F903
:10840000FFF7E2FD002002B010BD48F20160FAE77C
:1084100048F20360F7E748F20760F4E7B829002064
:10842000902A00200F4B1B7807B5A3B101A8FFF7D6
:1084300019FA98B10623037001A90B4800F027F937
:108440000A4B1A780AB101221A73FFF7BDFD00200A
:1084500003B05DF804FB48F20160F9E748F20760F9
:10846000F6E700BFB8290020902A0020C02900208C
:1084700007B5ADF80600ADF804100DF1060001A92E
:10848000FFF7E4FA03B05DF804FB07B51346ADF857
:1084900006000A4600200DF10601FFF7D7FA03B0E7
:1084A0005DF804FB07B51346ADF806000A460DF16A
:1084B00006000021FFF7CAFA03B05DF804FB20B103
:1084C00019B103680B600020704748F204607047E0
:1084D0002DE9F84F3C4B1B780446002B6ED000284A
:1084E0006FD012220021DFF8E4A009F070FA032314
:1084F00023804FF0000BD04614274FF00109DAF823
:108500000410BAF80A50BAF808600846FFF7B8F93C
:10851000032808BF2388628804BF03F1FF33238048
:1085200007FB0B832E44DB681344638023891D44BF
:1085300063892581B6B233446381C6F58066A38919
:10854000B6B2B34238BFA68101F1080501F58056E5
:10855000AE4217D92B68013314D031462846FFF7B5
:10856000A7F9012819D010F0FF0F23D00228EFD16E
:10857000E38884F81090761BE589013305EBA605A6
:10858000E380E5810AF1140ABBF1000F02D000205C
:10859000BDE8F88F4FF0010BB1E7E3880133E380CA
:1085A000E3896A8803331344E3816B88033305EB63
:1085B0008305CDE7A3880133A380F6E748F2016085
:1085C000E6E748F20460E3E7B8290020DC29002050
:1085D00010B561B1B2FBF3F403FB1424A4B244B9A7
:1085E000C0E9001484608281C381204610BD0E2042
:1085F000FCE70920FAE782B050E8022FC188B2EB0D
:10860000324F4FF0000317BF92B241EA014142EAF4
:10861000014104E04268B2EB324F08BF012340E859
:108620000212002AE8D18DF807309DF80730002BA0
:108630000CBF1120002002B0704737B550E8013F51
:108640009DB2C48925448489A54228BF2D1B048975
:10865000A54202BFBFF32F8F002207E0C5EA030542
:1086600040E80154002CE9D14FF001028DF80320BD
:108670000193019B9DF803200B6002F0FF0322B1E0
:108680000B880068184403B030BD1846FBE70A8821
:108690004B889A4209D150E8012FC2EA024240E8D1
:1086A0000123002BF7D1012070470020704737B518
:1086B00050E8023F1FFAA3F5C488A54202BFBFF3EA
:1086C0002F8F00220DE0C48925448489A54228BF4C
:1086D0002D1BC3EA054540E80254002CE8D14FF0B9
:1086E00001028DF803200193019B9DF803200B608C
:1086F00002F0FF0322B14B880068184403B030BD7C
:108700001846FBE70A884B889A4209D150E8022FA5
:10871000C2EA224240E80223002BF7D10120704731
:108720000020704701F01F024B090121914000EB2E
:10873000830000F063B84B0910B501F01F0401215C
:10874000A14000EB830000F04EF8E04000F0010093
:1087500010BD01F01F0301229A404B0900EB83007A
:10876000D14300F061B84B0901F01F0150F823001C
:10877000C84000F0010070472DE9F0474E1E760911
:1087800080460F460136002558F8254008EB85093C
:10879000E44394FAA4F4B4FA84F44FEA451A202C82
:1087A00006D10135AE42EFD83C462046BDE8F08701
:1087B0005444A742F5D921464046FFF7BCFF0028A4
:1087C000F3D0D9F80040E44394FAA4F4B4FA84F462
:1087D000E5E750E8002F0B4640E8003C9CF0000F16
:1087E000F7D11046704750E8002F42EA010340E8F5
:1087F000003C9CF0000FF6D11046704750E8003F57
:1088000043EA010240E8002C9CF0000FF6D110462C
:10881000704750E8002F02EA010340E8003C9CF05A
:10882000000FF6D11046704750E8003F03EA0102FE
:1088300040E8002C9CF0000FF6D11046704750E83D
:10884000002F02EB010340E8003C9CF0000FF6D142
:108850001046704750E8003F03EB010240E8002C4F
:108860009CF0000FF6D11046704750E8003FA3EB94
:10887000010240E8002C9CF0000FF6D11046704732
:108880000121FFF7B0BF0121FFF7B8BF0021FFF7BB
:10889000C0BF10B590B1D0E9012301689B1ADBB2CB
:1088A0000A60013BDBB2FF2B026802D1002010718D
:1088B00010BD11684C1C14600B70F2E70E20F7E736
:1088C00037B5054600240DF107008DF80740FEF787
:1088D00099FD2A686B68116899420ED9481E10608C
:1088E00011F8014CEB68298A01FB0434AB6811795B
:1088F0001B1ADBB2994238BF13719DF80700FEF7CF
:10890000A5FD204603B030BD37B5054600230DF167
:1089100007000C468DF80730FEF774FD2A681368CF
:10892000591C1160E968641A298AB4FBF1F41C70BF
:108930009DF80700FEF78AFD03B030BD826810B5D0
:1089400004462AB143690168006998470023A3607F
:1089500010BD0EB403B5039921B104AB01AA019374
:1089600000F074F802B05DF804EB03B070470A2918
:1089700038B504460D4602D10D21FFF7F8FFA36874
:108980002268591CA160D554D4E901329A4204D31B
:108990002046BDE83840FFF7D1BF38BD2DE9F84F7C
:1089A0009946DDE90A431746824688460A4601266B
:1089B000BA420FD24E4538BF4E4613F0010B01D1DB
:1089C00064B900240125B9F1010F1AD909F1FF3961
:1089D0007D43F8E7B2FBF7F20136E9E79B070ED5D6
:1089E000B9F1000F0CBF30252025A642EAD2013C88
:1089F00029465046FFF7BBFF002CF6D1E1E72025C2
:108A0000F3E7B8FBF5F39F42E2D9DFF83C90B8FBFF
:108A1000F5F3504619F8031005FB1388FFF7A7FF7D
:108A2000B5FBF7F3BD4207D2BBF1000F02D00CB18A
:108A3000A64203D3BDE8F88F1D46E8E72021504643
:108A4000013CFFF794FFF2E7301E03002DE9F74FDA
:108A5000054617468846002900F0308118F8011BAA
:108A600049B92B7B002B00F02981284603B0BDE8D3
:108A7000F04FFFF763BF252940F0C080002698F82B
:108A800000302D2B424608F1010823D0302B24D092
:108A90002B2B25D000242A2B02F1010123D13B6886
:108AA0001A1D1B683A601C440A4613782E2B26D1E7
:108AB00001324FF00009104610F8011BA1F1300CF3
:108AC000BCF1090F1DD80A2303FB0913A3F13009D8
:108AD0000246F0E746F00106D1E746F00206CEE78F
:108AE00046F00406CBE711F8013CA3F13000092859
:108AF000DBD80A2202FB0434303C0A46CBE74FF0B5
:108B0000000912F8011B01F0FB0068289046F8D01C
:108B100069290ED04AD8582964D006D825296DD0A5
:108B200098F80030002B99D19BE7632962D0642923
:108B3000F6D13A68D2F800A0111D8AEAEA723960CB
:108B4000A2EBEA724FF0010B092A5BDCCB4538BF80
:108B5000CB462CB1BAF1000F01DB720700D5013C06
:108B6000B30702D5B9F1000F04D0F00702D4002CEE
:108B70004ED10024BAF1000F52DACAF1000A2D21B9
:108B80002846FFF7F4FE06F00302022A05D1B9F1E8
:108B9000000F02D1002C47D10024CDE900464B46FE
:108BA0000A2251462846FFF7F9FEB9E773294CD04F
:108BB00014D87029B4D13B681A1D3A603021284678
:108BC0001C68FFF7D4FE78212846FFF7D0FE00226C
:108BD0000823CDE9003221461022E3E775292BD086
:108BE00078299DD139680A1D3A60CDE900464B4687
:108BF000102228E03B681A1D19783A602846FFF7D2
:108C0000B6FE8DE70A230BF1010BB2FBF3F29BE7F3
:108C1000A345AFD220212846013CFFF7A8FEA6E7D6
:108C20007107B0D52B21ABE7A345B6D2302128463A
:108C3000013CFFF79CFEADE73968CDE900460A1D0F
:108C40003A604B460A220968ACE73B681A1D3A6055
:108C500016F00106D3F800A020D1BAF1000F03D01E
:108C6000504608F0E7FE0646B44200D9C4B90AF1FE
:108C7000FF3A1EE028460136FFF779FE1AF8061083
:108C80000029F7D1A642BFF44BAF002C3FF448AF08
:108C900020212846013CFFF76AFEF3E70026EDE7B6
:108CA00020212846013CFFF762FEDDE72846FFF75A
:108CB0005EFE1AF8011F0029F8D131E703B0BDE8C4
:108CC000F08F000007B50B4688B9124B1248134AC3
:108CD000C01A0E23C0080093114B0004114940F044
:108CE0000100FDF7C6FE0E2003B05DF804FB4BB992
:108CF000084B09480C4AC01AC0080E230093000410
:108D0000074BEBE703601B68114603B05DF804EB0B
:108D1000184700BF601B0300D81B0300ED1E0300B3
:108D2000401E0300F21E0300691F03002DE9F341FA
:108D300088B93D4B3D483E4AC01AC0080E243D4B01
:108D4000009400043C4940F00100FDF792FE2046EB
:108D500002B0BDE8F0814AB9334B3448374AC01AF3
:108D6000C0080E2400040094324BEBE7D0F800C09A
:108D7000BCF1000F09D12C4B2C48314AC01AC00855
:108D80000824000400942B4BDCE74BB9264B274802
:108D90002C4AC01AC008092400040094254BD1E7CE
:108DA0004768D7F80480B3FBF8F708FB17374FB1D3
:108DB0001D4B1E48244AC01AC00809240004009410
:108DC0001C4BBFE78F0709D0174B18481F4AC01A22
:108DD000C008102400040094164BB3E712F0030FF0
:108DE00009D0114B11481A4AC01AC00810240004B7
:108DF0000094104BA6E7C768B9420BD34C1E056917
:108E00001C44AC4206D8DCF80C40A44602B0BDE8D5
:108E1000F0416047044B05480E4AC01AC0081024B0
:108E200000040094034B8DE7601B0300D81B030074
:108E3000ED1E0300521E0300F21E03006F1F03000D
:108E4000631F0300221F0300751F03009F1F030001
:108E5000B71F0300DA1F0300F7B580B92A4B2B4870
:108E60002B4AC01AC0080E242A4B009400042A4939
:108E700040F00100FDF7FDFD204603B0F0BDD0F845
:108E800000C0BCF1000F09D11F4B2048234AC01A73
:108E9000C0080824000400941E4BE8E74AB91A4BA6
:108EA0001A481F4AC01AC008092400040094194B2C
:108EB000DDE74768D7F800E00EF1FF370F4209D031
:108EC000114B1248174AC01AC0081024000400941D
:108ED000104BCCE7C768B9420CD34C1E05690EFB9A
:108EE0000244AC4206D8DCF81040A44603B0BDE80A
:108EF000F0406047044B05480B4AC01AC0081024D4
:108F000000040094034BB2E7601B0300D81B03006E
:108F1000ED1E0300651E0300F21E0300631F030025
:108F2000221F0300781E03009E1E030029DF7047E6
:108F300028DF704770B503689D6886B004460E460A
:108F40006DB114220021684608F041FDA368059325
:108F5000237901962BB1012B0DD06846A84706B0A6
:108F600070BD01238DF8003023690293E3680393F9
:108F700063690493F1E702238DF80030E3681B0373
:108F80000293F5E70846704700207047024B187AB5
:108F9000003018BF01207047582B0020034B187A6F
:108FA0000122B0FA80F05A7440097047582B002013
:108FB00008B510461A4608F0E1FC002008BD000084
:108FC00008B514220021044808F001FD0348FFF70A
:108FD00012FB002008BD00BF582B0020482B0020AA
:108FE00010B5094C094B43602046FFF749FC40B9D6
:108FF00008F098F81C2320748C2205490548FFF7D7
:10900000E7FA002010BD00BF582B002010200300FD
:10901000BC2A0020482B002070B5244C244E237A13
:1090200025463BB923492448FFF741FB306008B986
:10903000606070BD346802232B72237973B1012BF9
:1090400024D020460321FFF775FF00232B726B60AD
:1090500018491948BDE87040FFF754BBD4E905230F
:10906000D21AB2F5805F28BF4FF48052D4E90310C2
:109070009208012A38BF012219441844FFF756FF0D
:1090800050B11128DDD101232B72D2E7D4E90303BB
:109090001844FFF74DFFF3E72B7C002BC9D10146A5
:1090A000BDE87040022000F009B800BF582B002036
:1090B000702B00206C2B0020482B002038B5831E1D
:1090C000012B45D8234C237A002B41D0022B09D108
:1090D000032830D0204B1B680022E2601A793AB195
:1090E000012A22D0637C7BBBBDE83840FFF794BFE8
:1090F000D3E905128D1AB5F5805F94BF521902F5B8
:1091000080529A619142EDD102284FF0000308BFCE
:1091100019462372104B18BF0D211868FFF70AFF7C
:109120000E490F48FFF7EEFADCE71A6901321A61BF
:109130005B699A42E7E7E3680133082B01D8E360F3
:10914000D0E70023E360DFE7BDE8384007F0DABF8F
:1091500038BD00BF582B0020702B00206C2B002046
:10916000482B002000F0FD03012B08D1044B002206
:109170005A74421E504250411874FFF74DBF704759
:10918000582B002010B5064C201DFFF779FB28B99D
:10919000637C1BB9BDE81040FFF73EBF10BD00BFA8
:1091A000582B00202DE9F34180460D460F4801A9B8
:1091B00016461F46FFF741FA0446A8B11C220021BB
:1091C00008F005FC2D0B0123237101A9C4F80080D0
:1091D000A760E56066610548FFF759FAFFF7D2FF1F
:1091E000002002B0BDE8F0810420FAE7482B0020FF
:1091F0002DE9F74381468846104801A917461E46C7
:10920000FFF71BFA0446B0B11C22002108F0DFFB77
:1092100000250A9BA36001A92571C4F80090C4E948
:10922000037866610548FFF732FAFFF7ABFF28467F
:1092300003B0BDE8F0830420FAE700BF482B00200C
:109240002DE9F047B0F806904479D2F800A09DF8D7
:10925000208009FB04F4043C06460AEB0300A0420C
:109260000F4688BFA4EB030A191DC2F800A0B1FB8A
:10927000F9F509FB15114DB9A9EB0104544528BFB7
:109280005446BAF1000F04D1BDE8F0873668013DBD
:10929000F1E704317B1970182246B8F1000F0ED0A7
:1092A00001461846AAEB040A08F068FBD14525449C
:1092B00036684C464FF0000128BF5446E1E7194696
:1092C000F0E7FFF7E6BAF8B546790146721E0546A3
:1092D000002393422D6803D30024A64202D8F8BD90
:1092E0000133F6E70F682846FFF70EFB01343946D5
:1092F000F3E72DE9F843068ACD1C0746FFF7E0FAAD
:10930000043E35440446B5FBF6F5F0B14FF48073E6
:10931000EDB28380C680013D076081464FF00008B2
:10932000A84512D23846FFF7CBFA064648B1637912
:109330000133637108F10108C9F800000760814634
:10934000EEE72046FFF7BFFF34462046BDE8F8832E
:1093500001210430FFF77EBA10B501210446043024
:10936000FFF783FA10F0FF0F04D12046BDE810404C
:10937000FFF7A9BF10BD1FB503920022009203AAF8
:10938000FFF75EFF05B05DF804FB1FB503920122F5
:10939000009203AAFFF754FF05B05DF804FB41DF1C
:1093A00070470000064B10B500241C70054B1C6074
:1093B000BFF35F8F0449054800F0F3F8204610BD65
:1093C0007C2B0020802B00203C200300742B0020ED
:1093D00007B500230DF107008DF80730FEF712F8EE
:1093E000F1EE103A23F09F03E1EE103ABFF35F8FE6
:1093F000094B4022C3F884219DF80700FEF726F8A8
:1094000007F090FE20B1FFF7CAFF03B05DF804FB40
:1094100020BF40BF20BFF8E700E100E0026813680A
:109420005268934291BFD01A80680130801888BF7B
:10943000C01A7047036881681A685B688B4234BF42
:1094400001330023D31A584258417047F7B500231F
:1094500004460DF107000D468DF80730FDF7D2FFE9
:109460002046FFF7E7FF10B1237C002B3CD1226898
:10947000A66853685168B14234BF01310021516080
:1094800030B11168A068814234BF01310021116000
:10949000E2686068511E072920D8DFE801F0041057
:1094A0001F141F1F1F182A78C2542046FFF7B6FF4B
:1094B00023689A68824200D29860002415E02A88C6
:1094C00020F81320F1E72A6840F82320EDE7D5E9DA
:1094D000006700EBC300C0E90067E6E7294602FB2E
:1094E000030008F04BFAE0E704249DF80700FDF7BD
:1094F000ADFF204603B0F0BD036818685B68C31A6F
:1095000058425841704773B5002305460DF10700D6
:109510000C4616468DF80730FDF774FF2846FFF716
:10952000EBFF002832D129680B682EB90A68A868B9
:10953000824238BF561C0E60EA686968501E0728D0
:109540001ED8DFE800F0040E1D121D1D1D16CB5C99
:10955000237000249DF80700FDF778FF204602B035
:1095600070BD31F813302380F3E751F823302360C6
:10957000EFE701EBC301D1E90023C4E90023E8E7E9
:1095800003FB0211204608F0F9F9E2E70524E1E7C0
:10959000836800225A609A60C3E90422DA601A6084
:1095A00070470B684A684360934208BF002301601C
:1095B00008BF43607047436843B1026891685268CE
:1095C0000B449342436004BF00234360704770B56F
:1095D000446806460D46206818B1B3682946984786
:1095E00018B923682B60256070BD2468F3E74368D1
:1095F000186808B102681A607047436818687047B5
:109600004368186800B97047884203D102681A603D
:109610000120704703460068F4E7000010B50D49CB
:10962000A1F59472914201D800200FE08B1ADB1053
:1096300003EBD3735B1002EBC30452F83330834265
:1096400005D802D204F10802ECE7606810BD21469B
:10965000E8E700BF9821030008B5FFF7DFFF024BE2
:10966000002808BF184608BD5A2003000B7B23B111
:109670004B6803600023037170470B68036001238C
:10968000F9E703684A68896810B5D41A8C428BBF21
:109690005B1800230360026098BF037110BD03686C
:1096A0000A68896810B59C1A8C428BBF5B1A01232B
:1096B0000360026098BF037110BD037910B50446C2
:1096C0001BB1FFF7DEFF206810BDFFF7E8FFFAE7E8
:1096D000034B187810B901221A7070478520704723
:1096E000842B0020044B1868421C04BF034B1878DD
:1096F000831F58425841704730010010E00F00F0BE
:10970000064B1868083B1B78062B05D1C0F30310E5
:10971000C31E58425841704700207047E80F00F0C0
:1097200008B5FFF7DFFF28B1804B814A1B68C3F300
:1097300004231360FFF7E4FF10B17E4B7E4A1A60EA
:10974000FFF7D0FF28B17D4B7D4A1B68C3F342333E
:109750001360FFF7D5FF20B17A4AD36823F08073F6
:10976000D360FFF7BFFF40B14FF080430022C3F842
:109770000C21C3F81021C3F83825FFF7C1FF10B141
:10978000714B03221A60FFF7BBFF40B16F4B0522FC
:109790001A6001229A6700229A603F225A606C4B3D
:1097A0001A68511C0BBF6B4B6B4B1A781B6802BFBE
:1097B00008331B68C3F30313062A49D1033B012B6B
:1097C00046D94FF08052654BD2F80414C3F82015E7
:1097D000D2F80814C3F82415D2F80C14C3F82815CD
:1097E000D2F81014C3F82C15D2F81414C3F830159D
:1097F000D2F81814C3F83415D2F81C14C3F8401565
:10980000D2F82014C3F84415D2F82414C3F848152C
:10981000D2F82814C3F84C15D2F82C14C3F85015FC
:10982000D2F83014C3F85415D2F83414C3F86015C4
:10983000D2F83814C3F86415D2F83C14C3F868158C
:10984000D2F84014C3F86C15D2F84424C3F870253C
:10985000FFF748FF28B1424B424A1B6803F04F0311
:109860001360FFF73FFF48B14FF08043D3F8002467
:10987000D20744BF6FF00102C3F80024344B1B68C9
:10988000062B09D1344B1B68033B022B81BF364AA0
:10989000136843F480631360344AD2F8883043F489
:1098A0007003C2F88830BFF34F8FBFF36F8F4FF054
:1098B0001023D3F80022002A03DBD3F80432002B54
:1098C0002FDA2B4B0122C3F80425D3F80024002AF9
:1098D000FBD04FF010221521C2F80012D3F800245B
:1098E000002AFBD04FF010231522C3F80422204B8E
:1098F0001A46D3F800140029FBD00021C3F8041540
:10990000D2F80034002BFBD0BFF34F8F1749194B0F
:10991000CA6802F4E0621343CB60BFF34F8F00BF0D
:10992000FDE7154B154A1A6008BD00BF240300105F
:109930004035014074C007400DF0ADBA440200103C
:109940003C050040F0ED00E0A0050040105600404E
:1099500030010010E00F00F03401001000C00040A2
:1099600058020010E40E00403C17004000ED00E0FB
:1099700000E001400400FA05882200200090D00396
:10998000054A4FF0A043105CD3F8043523FA00F0E9
:10999000C04300F00100704756250300044B1A5CD9
:1099A000012393404FF0A042C2F80C35704700BF2E
:1099B00056250300044B1A5C012393404FF0A0424C
:1099C000C2F80835704700BF5625030008B50020CF
:1099D000FFF7F0FF0120FFF7EDFF0220FFF7EAFF9E
:1099E0000320BDE80840FFF7E5BF08B50020FFF7FA
:1099F000D5FF0120FFF7D2FF0220FFF7CFFF0320A2
:109A0000BDE80840FFF7CABF074A4FF0A041105C0D
:109A1000D1F804350122824022EA03001340C1F844
:109A20000805C1F80C35704756250300054A4FF06C
:109A3000A043105CD3F8103523FA00F0C04300F0C7
:109A400001007047522503000D2809D00E2809D0C7
:109A50000F2809D010280CBF03204FF0FF307047AB
:109A6000002070470120704702207047014B185CAE
:109A7000704700BF52250300C20708B501460CD548
:109A80004FF0A0430322C3F84427C3F84827C3F884
:109A90004C27C3F85027FFF799FF8B070AD54FF0E3
:109AA000A0430C22C3F83427C3F83827C3F83C2757
:109AB000C3F8402708BD000038B5074C051E04F167
:109AC000080318BF1C4623682BB11A6822605B6824
:109AD00028469847F7E738BD902B002020B9054B62
:109AE00001225A70FFF7E8BF012802D1014A9070A5
:109AF000F8E77047882B002020B9034B01225A70E9
:109B0000FFF7DABF704700BF882B002038B50E4C36
:109B10002378B3B90D486360A3602361E36000F06C
:109B2000E3F8054607F0FEFA08B900F0E9F801236A
:109B30002370074BD3F800340BB10123A3702846E0
:109B400038BD8525F5E700BF882B0020DD9A02008F
:109B50000000014037B50D4C00230DF107008DF8D2
:109B60000730FDF74FFCE368013BE360E36833B97E
:109B7000074BD3F8005415B900F0D4F8A5709DF840
:109B80000700FDF763FC03B030BD00BF882B002049
:109B900000000140012813B50DD018B1032820D0D2
:109BA00002B010BD114B0122C3F88020BFF34F8FCC
:109BB000BFF36F8FF4E70E4C00230DF107008DF813
:109BC0000730FDF71FFC23780BB9FFF79FFFE36811
:109BD0009DF807000133E3600123A370FDF736FC15
:109BE000DEE700F08DF8FFF7B5FFD9E700E100E010
:109BF000882B00201FB503788DF80030436801934F
:109C000083688DF80830C3680393054A054B68469E
:109C100053F8213052F82110984705B05DF804FB45
:109C20009C2B0020A02B00201FB503788DF800305E
:109C30004368019383688DF80830C3680393054A2D
:109C4000054B684653F8213052F82110984705B06B
:109C50005DF804FB9C2B0020A02B0020F0B5184BD6
:109C6000077891F81DE043F82720164B16460A693D
:109C700043F82720144B03F807E00C4684460FCC2A
:109C800089B06D460FC594E80F0085E80F00049772
:109C9000BEF1000F0AD0002E0C4A694608BF3246BA
:109CA0000CF1040000F078FD09B0F0BD002E084A68
:109CB000694608BF32460CF10C0000F05DFBF3E78B
:109CC000A02B00209C2B0020A42B0020F59B020041
:109CD000299C020000F18040002382B003600368E9
:109CE0000193019B02B07047044A137923B9012103
:109CF000106091801846704785207047A82B00207F
:109D0000074B1A68D20704D4C02283F8002301222B
:109D10001A604FF080430122C3F81825704700BF36
:109D200000E100E04FF0804208B50223C2F808339A
:109D30004FF48270FFF7CEFF034B01211960D2F878
:109D40001834DB03FBD408BD0C000040124B1B6829
:109D500010B573B14FF48070FFF7BCFF4FF0804334
:109D60000122C3F808230D4B587910B95A711B68AA
:109D700098470B4B1B6873B14FF48270FFF7AAFF33
:109D80004FF080430222C3F80823044B01201B68D4
:109D9000BDE81040184710BD00010040A82B00206E
:109DA0000401004000F1804000F5C040002382B073
:109DB000036003680193019B02B07047800000F1CB
:109DC000A040D0F8003723F44033C0F80037D0F873
:109DD000003743EA0141C0F800177047054B4FF0C8
:109DE000FF32072843F8202084BF1B1883F848203F
:109DF000704700BFB02B002010B51A4C94F85830B3
:109E00006BBB4FF0FF3222FA03F1C90748BFE118DC
:109E100003F1010348BF81F83020202BF3D100214A
:109E2000C8B2FFF7DBFF01310C29F9D10422002170
:109E30000D4807F0CCFD0D4BC02283F806234022CD
:109E40001A604FF4BE70FFF7ADFF094B4FF00042B0
:109E5000C3F80423012384F85830002010BD0820E3
:109E6000FCE700BFB02B0020042C002000E100E044
:109E700000600040034B93F85800003018BF0120E9
:109E8000704700BFB02B0020F0B5374B1C1894F979
:109E90003040002C1C4664DA8D78C5F34005002D57
:109EA0000BBF082300230C260826B34201D104204F
:109EB000F0BD54F8237001373FD1261844F8232011
:109EC00086F8303015B9E21882F848008A785507CC
:109ED00013D4D60733D5820002F1A042D2F800573E
:109EE00025F00205C2F80057204EC50800F007070C
:109EF0000122BA40775D3A4372558A780D7812F0A4
:109F0000020225D09B0003F1804303F5C043020207
:109F1000D3F8101521F4473121F44071C3F810151E
:109F20002D04D3F8101502F4F85205F440352A43F5
:109F30000A43C3F810250020BAE70133B5E74D788E
:109F400000F5E0724FF0A046AD0046F82250CBE796
:109F5000083B234493F8501041EA851583F850508C
:109F6000E9E70820A4E700BFB02B0020042C002064
:109F700038B51F4C251895F93020072A17DD2244E3
:109F800092F84810890903290CD14FF0A043D3F867
:109F90001035C34013F0010F08BF0221BDE838405F
:109FA000FFF70CBF012914BF03210221F6E7D3B24A
:109FB000072B1CD8930003F1804303F5C043D3F86B
:109FC000100540F00100C3F8100502F140008000C8
:109FD00080B2FFF7E7FE51B195F9303054F82330E5
:109FE0002BB1012303FA02F2024BC3F8042338BD5C
:109FF000B02B0020006000404FF0A043D3F8103594
:10A0000023FA00F000F00100704700002DE9F3474B
:10A0100000244C4D01944FF48072012102F18043E1
:10A0200003F5C04390B21B68012B06D1D5F8043369
:10A030000B4202D0FFF7B6FE0C430432B2F5907F1C
:10A040004FEA4101EAD1404B1B68012B0CD14FF480
:10A05000BE70FFF7A7FE4FF0A04344F00044D3F8D2
:10A0600020250192C3F8202514F0FF0F1AD0374F96
:10A0700000250126344210D0AB0003F1804303F5E4
:10A08000C043D3F81005D3F8101557F8253023B185
:10A09000C1F30141C0F3042098470135082D4FEA70
:10A0A0004606E7D1002C46DA284F4FF0A046DFF8ED
:10A0B000A0804FF0000A4FF0010918F9011B4B1C5A
:10A0C0002DD0CAB222F0C00402AB03EBD40313F8C4
:10A0D000041C02F0070309FA03F319421FD004F528
:10A0E000E073204656F82350C5F30145022D0CBFFE
:10A0F00003210221FFF762FE09FA04F3C6F82035B6
:10A100003B1993F9303057F8233043B191090329B3
:10A1100003D0022D12D1012901D1204698470AF11E
:10A12000010ABAF1040FC8D1D6F820350193C6F858
:10A130002035002BBBD102B0BDE8F087032DEED156
:10A140000229E9E7006000407C610040B02B00205C
:10A15000002C0020014B1B68184700BF0C2C00206E
:10A160000E4B984237B50D4602D0002003B030BDEB
:10A1700000230DF107008DF80730FDF743F9084B78
:10A180001C7914B901221D601A719DF80700FDF7B2
:10A190005DF9002CE9D01120E8E700BF0020004065
:10A1A0000C2C0020034B984201BF034B00221A6085
:10A1B0001A717047002000400C2C002000234350EF
:10A1C00082B043580193019B02B070470A4610B514
:10A1D0004FF48E71FFF7F2FF136A9168C95C136A3E
:10A1E00001331362C0F81C1510BD8B690A4610B507
:10A1F0004FF4847123B9FFF7E1FFD0F8183510BD93
:10A20000FFF7DCFF536AD168D0F81805C854536AC9
:10A2100001335362F3E700001FB501238DF80030CE
:10A22000044BCDE90110D3E900126846904705B010
:10A230005DF804FB142C002030B54D4AD2F80433ED
:10A2400013F4007F85B015464FD0D2F82431002B8F
:10A250004BD04FF492711046FFF7B0FF4FF40173EB
:10A26000C2F80833434B93F8291009B90121516012
:10A270003F4902228DF80020D1F88024C1F88024C3
:10A2800003929A690292DA6801920022C3E90622D7
:10A290006846D3E9001290473548D0F81C315BB1CD
:10A2A00034494A690B6A9A420A464BD991F82830D8
:10A2B000002B47D1FFF78AFF2D4AD2F8443193B1E2
:10A2C0004FF4A2711046FFF779FF2A4B93F829103B
:10A2D00009B1012111609A692AB100229A61586A74
:10A2E000D968FFF799FF05B030BDD5F804335B0797
:10A2F000D2D5D5F80831002BCED01E4C1C482146B3
:10A30000FFF773FF636AA2699A422346C4D1E269E8
:10A31000E1684AB12369E3600023606AA261E361F6
:10A320006362FFF779FFB7E794F829200AB90122A1
:10A330006A600F4A4FF40170C2F8080300229A6164
:10A34000586AEEE74FF48E710948FFF737FF5369FB
:10A35000002BB1D051690291002391688DF8003033
:10A36000019153616846D2E900139847A4E700BF02
:10A3700000200040142C00202DE9F843534F0479AD
:10A3800091462C2202FB0472064692F82A200D46C2
:10A39000002A40F095804E490068FFF7E1FE8046B4
:10A3A000002840F0908029683368481C0BD04FF09B
:10A3B000A04001228A40C0F8082501F5E0724FF064
:10A3C000030C40F822C06868421C1FBF00F5E07211
:10A3D0004FF0A04C4FF0000E4CF822E0AA6995F81F
:10A3E00014C0C3F824256A7DBCF1010F4CEA0202B7
:10A3F000C3F86C25C3F81405C3F80C151DD1AA6861
:10A40000511C1FBF02F5E0714FF0A0404FF0000C4F
:10A4100040F821C0E968481C0BD04FF0A04C012047
:10A420008840CCF8080501F5E0704FF0030E4CF8B9
:10A4300020E0C3F80815C3F810252C236343FA184D
:10A44000C2F804902A69FA50B9F1000F20D04FF4F5
:10A450008E7130682A7FFFF7B1FE4FF4A271306829
:10A46000FFF7ACFE33681B49C3F804131B0B59B24A
:10A4700052010029D2B21EDB1748451885F8002387
:10A480000122490903F01F0302FA03F340F82130C7
:10A4900033680422C3F800252C2303FB0473002235
:10A4A000C3E9062283F829205A61012283F82A2071
:10A4B0004046BDE8F88303F00F030849CA54E7E7B4
:10A4C0004FF00808F4E74FF01108F1E7142C0020D2
:10A4D00039A202008000020000E100E014ED00E07B
:10A4E000F8B503680479304D0022C3F800252C220A
:10A4F00002FB04525268A2B12C4AC3F808231B0B7A
:10A500005AB2002A0DDB0121520903F01F0301FAA0
:10A5100003F32032264941F82230BFF34F8FBFF3B7
:10A520006F8F0068D0F80C65D0F81415D0F8083596
:10A53000D0F810254FF0FF37BE42C0F8147518BF91
:10A5400006F5E076C0F80C75C0F80875C0F810750F
:10A550001EBF4FF0A0474FF0020C47F826C04E1C1C
:10A560001FBF4FF0A04601F5E071022746F82170A9
:10A57000511C1FBF4FF0A04102F5E072022641F8C6
:10A5800022605A1C1FBF03F5E0734FF0A042022166
:10A5900042F82310FFF706FE2C2303FB045400238C
:10A5A00084F82A306360F8BD142C00208402020075
:10A5B00000E100E02DE9F84F224F06794FF02C0919
:10A5C00009FB067480466569002D38D16261A1607F
:10A5D00025624FF48E71006884F82850FFF7EEFD75
:10A5E000D8F80000012383602146FFF7EFFD636880
:10A5F000A1469BB9D8F800A0D4F814B0236A9B45B3
:10A6000012D8D8F80020D2F81C31002BFBD001233F
:10A61000D3602C2303FB067300225A612846BDE851
:10A62000F88F94F8283043B9DAF81C31002BF8D0B1
:10A6300049465046FFF7CAFDE0E70F25E9E7112537
:10A64000ECE700BF142C00200023435082B0435895
:10A650000193019B02B070471FB501238DF80030B4
:10A66000044BCDE90110D3E900126846904705B0CC
:10A670005DF804FB402C00207FB5454AD2F82461E8
:10A68000002E63D010464FF49271FFF7DDFF0223D6
:10A690008DF80030D2F88034C2F880340393D2F8B9
:10A6A0003C3502933B4BDA6801920022C3E9062253
:10A6B0006846D3E900129047354AD2F844317BB15D
:10A6C0004FF4A2711046FFF7BFFF324B996939B1C1
:10A6D0000021C3E90611D968D2F83C05FFF7BCFF99
:10A6E0002B4AD2F82031B3B14FF490711046FFF7E6
:10A6F000ABFF0123D360274B596961B1D2F84C15E8
:10A700000291002299688DF8002001915A616846F3
:10A71000D3E9001290471E4AD2F85831A3B14FF442
:10A72000AC711046FFF790FF1A4B596961B1D2F82E
:10A730004C150291002299688DF8002001915A6110
:10A740006846D3E90012904704B070BDD2F81031CA
:10A75000002BB1D04FF488711046FFF775FF0D4BF9
:10A76000D2F83C0599698842A6D1DC69D96864B100
:10A77000D2F8005225F02005C2F800521A699C61F7
:10A78000DA60DE61FFF768FF96E79C61FAE700BFD9
:10A7900000200040402C00202DE9F8435A4F067954
:10A7A0009146242202FB0672044692F820200D46B0
:10A7B000002A40F0A28055490068FFF7D1FC80468E
:10A7C000002840F09D8029682368481C0BD04FF07A
:10A7D000A04001228A40C0F8082501F5E0724FF040
:10A7E000030C40F822C06868421C1FBF00F5E072ED
:10A7F0004FF0A04C4FF0000E4CF822E0AA6995F8FB
:10A8000014C0C3F824256A7DBCF1010F4CEA020292
:10A81000C3F86C25C3F80C15C3F814051DD1AA683C
:10A82000511C1FBF02F5E0714FF0A0404FF0000C2B
:10A8300040F821C0E968481C0BD04FF0A04C012023
:10A840008840CCF8080501F5E0704FF0030E4CF895
:10A8500020E0C3F80815C3F8102524237343FA1821
:10A86000C2F804902A69FA50B9F1000F2FD04FF4C2
:10A87000887120682A7FFFF7E7FE4FF49071206807
:10A88000FFF7E2FE4FF492712068FFF7DDFE4FF410
:10A89000A2712068FFF7D8FE4FF4AC712068FFF773
:10A8A000D3FE23681A49C3F804131B0B59B2520193
:10A8B0000029D2B21CDB1748451885F80023012275
:10A8C000490903F01F0302FA03F340F8213023681B
:10A8D0000822C3F80025242303FB06730022C3E9E2
:10A8E00006225A61012283F820204046BDE8F88301
:10A8F00003F00F030849CA54E9E74FF00808F4E7EA
:10A900004FF01108F1E700BF402C002079A60200AB
:10A910001003420000E100E014ED00E0F8B5454D01
:10A9200004790268242303FB045306465B68A3B141
:10A93000414BC2F80833110B4BB2002B0DDB012049
:10A940005B0901F01F0100FA01F120333B4840F898
:10A950002310BFF34F8FBFF36F8FD2F8003223F075
:10A960002003C2F80032242303FB04539B6933B154
:10A970004FF4A2711046FFF767FE012353604FF4B6
:10A98000AC711046FFF760FE0123D360242303FB64
:10A990000453D2F858110029FBD0996919B1D2F8A3
:10A9A00044110029F5D00023C2F800353368D3F8EC
:10A9B0000C75D3F81465D3F80815D3F810054FF0CB
:10A9C000FF3C6745C3F80CC518BF07F5E077C3F82F
:10A9D00014C5C3F808C5C3F810C51EBF4FF0A04387
:10A9E0004FF0020C43F827C0771C1FBF4FF0A04365
:10A9F00006F5E076022743F82670461C1FBF00F5D7
:10AA0000E0704FF0A043022643F820604B1C1FBFAC
:10AA10004FF0A04301F5E071022043F821001046F9
:10AA2000FFF7C0FB242303FB0454002384F82030E9
:10AA30006360F8BD402C00201003420000E100E0FC
:10AA400001F06043B3F1005F2DE9F041074638D1D2
:10AA50001E4B0679242505FB063598466C69002CAB
:10AA600031D16A61A96000684FF49071FFF7ECFD85
:10AA70004FF4AC713868FFF7E7FD3B686A69A96875
:10AA8000C3F84415C3F8482501229A606A68AAB938
:10AA9000D3F82021D3F858411AB9002CF8D00F244C
:10AAA00007E0002CFBD10122DA60D3F85821002AFC
:10AAB000FBD0242303FB0686002373612046BDE8F8
:10AAC000F0811024FAE71124F8E700BF402C0020A1
:10AAD0002DE9F74F4FF00009154D164E07464FF080
:10AAE000040AC8465FFA89FB01240DF1070004FA45
:10AAF0000BF48DF80780FCF785FC2C4208D03368F6
:10AB000014EA030201BF2343336087F800B0924682
:10AB10009DF80700FCF79AFCBAF1000F03D0A5439B
:10AB200009F10109DED1504603B0BDE8F08F00BF46
:10AB3000FFFF0100642C002010B5A1B19AB10123E0
:10AB40008340C3F3100484B10A4C246823420ED01E
:10AB5000C00000F1804000F5F830C0F81015C0F8D2
:10AB60001425002010BD0E20FCE70720FAE708207E
:10AB7000F8E700BF642C002001238340580C4004F8
:10AB800040B91BB1054A1268134205D0044AC2F805
:10AB9000043570470720704708207047642C002058
:10ABA00000F0014000F1804000F5E040002382B059
:10ABB000036003680193019B02B07047F0B5534BEB
:10ABC000534C1B6885B0002B3DD04FF4827094F835
:10ABD0002E20FFF7E7FF2AB394F82F3013BB4D4B1D
:10ABE0001B68002B33D04FF48070FFF7DBFF94F825
:10ABF0002D20638B91B28B424ED95B1A21899BB277
:10AC00006383CB1A616801EB4301434BC3F82C16F5
:10AC1000C3F830264FF48270FFF7C4FF3F4B012288
:10AC20001A6014E0636802932389ADF80C30E3687E
:10AC300000218DF8041023BB2374236801A89847D2
:10AC4000002384F82F3094F82E30002BC7D1344BDA
:10AC50001B685BB14FF48870FFF7A4FF00232374D7
:10AC600002238DF8043001A8236898472D4B1B68F8
:10AC700013B34FF48A70FFF795FF0023237405B0D8
:10AC8000F0BD208B608363602081E160002AD4D115
:10AC9000214B01221A60D0E7BCD1E368012184F87E
:10ACA0002F103BB1002161831B49C1F82C36C1F83C
:10ACB0003026AFE76383ADE766694FF000470125B3
:10ACC000002EDCD0B6FA86F227FA02F34632920062
:10ACD00026EA030602F1804303F5E0431B68002BDC
:10ACE000EED01046FFF75EFFA2F58C72D30882F01B
:10ACF0000402C2F380028DF808308DF804508DF8FC
:10AD00000920236801A89847DAE700BF04710040D2
:10AD1000682C00200071004000700040047000406A
:10AD20001071004014710040204A38B592F82C3060
:10AD30000546002B37D111601D490078C1F8F00598
:10AD40006878C1F8F4050124137482F82D3053613A
:10AD500082F82F30E87882F82E006FF0004382F8F6
:10AD60002C404FF48270C1F80833FFF71BFF4FF4FB
:10AD70008070FFF717FF4FF48A70FFF713FFAB786F
:10AD80000C485B01DBB280F80733802303600223A9
:10AD9000C1F8043392F82E300BB1C1F80443C1F866
:10ADA0000045002038BD0820FCE700BF682C0020CB
:10ADB0000070004000E100E02A4B1A7C70B502F000
:10ADC000FF05002A4BD10A79012A9CBF264CC4F802
:10ADD000005500F10C0503EB4504247924B993F8E0
:10ADE0002D40013483F82D4003EB4503CC790D7AD7
:10ADF0008E781C715D714B7836021B0106F4E0669B
:10AE000003F0300333430E7806F003063343CE7865
:10AE1000360306F480563343160406F4E026334323
:10AE20004E798979360506F480160906334301F018
:10AE300080710B430C4901EB0016000100F18040CA
:10AE400000F5E040012AC6F81835C0F81455C0F8DE
:10AE5000104502D80123C1F80035002000E0112080
:10AE600070BD00BF682C002000700040054B93F8B7
:10AE70002E30002B14BF0020042000F1804000F58C
:10AE8000E0407047682C0020264A274B70B50546E5
:10AE90001220C2F808031C7C022C03D1C2F8040360
:10AEA000112070BD187C01281DD1D86818B102236B
:10AEB000C2F80433F4E7DD60198393F82E3063B9E8
:10AEC0001A4A1368002BFCD04FF48070FFF76AFE1B
:10AED000144BC3F82C56C3F83016124B0222C3F899
:10AEE00004230020DDE7022093F82E40C2F804037B
:10AEF000012600201E745D601981D8603CB1598321
:10AF000093F82D30C2F82C56C2F83036C9E7C2F893
:10AF10002C564FF48070C2F83016FFF743FE2046DF
:10AF20001660BEE700700040682C002000710040F1
:10AF30002DE9F743002406460F4600F5A0754FF4AF
:10AF40008038A1462B688BB1D6F8043308FA04F296
:10AF50001A420BD0C5F800902B680193A00000F5B1
:10AF6000A070019B80B2D7E9003198470134042CCE
:10AF700005F10405E6D103B0BDE8F083F7B5067925
:10AF80002E4D0C237343EF183C7A002C53D1EA501A
:10AF90004B687B60477903682246A446D4B2A74237
:10AFA0003AD81B0BCA785CB25201002CD2B23DDBFE
:10AFB000234F07EB040C8CF800230122640903F0F3
:10AFC0001F0302FA03F347F8243003684A78D3F8E2
:10AFD000040502F0030220F003000243C3F8042535
:10AFE000D3F808058A7820F0030002F00302024338
:10AFF000C3F80825D3F810050A7820F00F0002F0F6
:10B000000F020243C3F810250C2303FB065501234E
:10B010002B72002003B0F0BD940004F5A07401323F
:10B0200043F804C01C590194019CB7E703F00F03D7
:10B03000044CE254C9E70820ECE700BF982C00203C
:10B0400000E100E014ED00E0036801221A600379DA
:10B05000034A0C2101FB032302221A72704700BF2E
:10B06000982C002037B54FF480348C4000687BB1B9
:10B070008B0003F5A0730025C550C3580193019BB5
:10B08000C0F8044301F5A87140F8212003B030BD99
:10B09000C0F80843F6E770B4046840F20116D4F82B
:10B0A00000528E4025EA0605C4F80052D4F800523A
:10B0B0002B43C4F800329DF80C3070BCFFF7D2BFB0
:10B0C00001490248FFF734BF982C0020008000405F
:10B0D00001490248FFF72CBFA42C0020009000403B
:10B0E0000220FEF791BC00002DE9F04781460D4695
:10B0F000FEF7AAFC0328044604D8012D04D025B38A
:10B10000022D2FD0BDE8F087194D47003A18A91835
:10B11000AE5C4A7852B1DFF86880164842464FF478
:10B120000041FCF780F808B988F800903B192B44DF
:10B130009A78114B1A55002EE4D0104B1B68002B47
:10B14000E0D03046BDE8F04718470A48FCF783F8DE
:10B15000074B04EB440213449E78074B1B5DB3423C
:10B16000D0D1E8E7024B00EB40041C446678E2E7EC
:10B17000182D0020D82C0020312D00202C2D00204F
:10B18000B02C002002210078FFF7AEBF08B5094BB4
:10B190001B7853B10020FEF70DFC0120FEF70AFCDE
:10B1A0000320BDE80840FEF705BCBDE80840FEF7F7
:10B1B0000DBC00BFB12C0020F8B57B4C23780546B0
:10B1C0001BB100232370FFF7E1FF172D00F28880E9
:10B1D000DFE805F00C17174354657680888D888D5D
:10B1E000959A9A9A9A9AC4C9D1D9E4E4FFF7CEFF06
:10B1F0006E48FCF730F86E4B002204461A70204669
:10B20000F8BD0020FEF7BCFBF8B10020FEF7D2FB32
:10B21000022D0CBF4FF4E1614FF47A61644B1D7055
:10B220004FF400404FF4FA740025E0FB01454FF461
:10B230007A7200232046294606F0A0FA0022014631
:10B240005A48BDE8F840FBF7EEBFFEF7A7FB022D1A
:10B250000CBFC8214FF4C871E0E70020FEF790FB57
:10B2600040B10020FEF7A6FB4FF44871504B03227B
:10B270001A70D5E7FEF792FBC821F7E70020FEF72A
:10B280007FFB38B10020FEF795FB4FF47A61484B05
:10B290000422EDE7FEF782FB4FF4C871F7E70020C8
:10B2A000FEF76EFB48B10020FEF784FB404B052201
:10B2B0001A7041F69A110022C2E7FEF76FFBF5E71C
:10B2C0000020FEF7A1FB3A4B06221A70002240F63E
:10B2D000CD41B5E70020FEF761FB354B07221A7020
:10B2E00000248CE701202070FEF78EFBEEE70120A2
:10B2F0002070FEF789FB00224FF48041A0E7FEF7A3
:10B3000074FB2B4B0C22EAE72A482B4EFBF7A3FFDA
:10B31000D5F1110504461CD0D8B9012D13D0C8238E
:10B320005D434FF400474FF4FA7000214FF47A72F6
:10B330000023C7FB050106F021FA224601461D48FD
:10B34000FBF771FF04460220FEF728FB0123337050
:10B3500055E70220FEF72EFB0023F8E7FFF716FF64
:10B36000134B1222BBE7FFF711FF0020FEF716FB7D
:10B370000F4B1322B3E7FFF709FF0120FEF70EFB87
:10B380000B4B1422ABE7FFF701FF0020FEF706FB93
:10B390000120FEF703FB064B1522A0E7FEF725FB75
:10B3A000034B1D709CE700BF282D0020F82C0020C7
:10B3B000302D0020B82C0020B12C0020044B1B683D
:10B3C000DB0703D5034B1878FFF7F6BE704700BFC5
:10B3D000242D0020302D0020032801D8FEF726BBA5
:10B3E00000207047044B1B6813F0010301D0FFF7E6
:10B3F000E3BE1846704700BF242D002038B51C4B13
:10B4000018601C4B10F00204054619601AD01A4B44
:10B410001A480E221A700F22DA7010229A71112225
:10B420005A72042140F26662FBF78CFD044648B96B
:10B43000FBF7DEFD044628B90146114A1148FBF727
:10B44000E7FE0446EB0711D50120FEF715FB6CB9AA
:10B4500021460D4A0D48FBF7DBFE044630B90C4A85
:10B460000C480121BDE83840FBF7D2BE204638BD6C
:10B47000242D00202C2D0020182D00208C250300C9
:10B4800085B10200B0250300BDB30200B42503005E
:10B49000E1B00200AC250300032813D8012A0BD128
:10B4A000012908D100F10E02D2B200EB40000C4B92
:10B4B0001A540020704700220129F6D04BB24BB13C
:10B4C000022901D007207047054B00EB40001844CB
:10B4D0004270EEE7024900EB400008448270E8E762
:10B4E000182D0020032808B512D8FEF7BFFA8000F7
:10B4F00000F1A040D0F8003723F44033C0F8003703
:10B50000D0F8003743F44033C0F80037002008BDBE
:10B510000620FCE708B5012202210020FFF7BCFF4E
:10B5200008B1072810D1072202210120FFF7B4FF3C
:10B5300008B1072808D100210A220846FFF7ACFF0E
:10B5400010B1072808BF002008BD00000388102B99
:10B5500010B502D0112B1ED010BD1A4C2168B1B904
:10B5600001220846FFF798FF08B1072824D10722D7
:10B5700002210120FFF790FF08B107281CD1042207
:10B5800002210020FFF788FF08B1072814D12368A3
:10B5900001332360E0E70B4A1368013B1360002B83
:10B5A000DAD1FFF7B7FF0028D6D0074B1B68002B76
:10B5B000D2D0BDE810401847034B1B68002BE6D0E3
:10B5C0009847E4E73C2D0020382D002008B50020E6
:10B5D000FFF788FF08B1062806D10120FFF782FF98
:10B5E00010B1062808BF002008BD00000D4B10B5A3
:10B5F00018600C4629B10120FFF7EEFE40B102238E
:10B600002370094B1B6853B9BDE81040FFF782BF98
:10B61000FFF7E2FE08B10B23F2E72070F1E700200C
:10B6200010BD00BF382D00203C2D002076DF704774
:10B6300078DF70477ADF70477CDF70478FDF7047B5
:10B6400033DF70477047FBF7E9BC000008B50D49D0
:10B650000D48FEF732F84FF6FE72C1B20B4805F006
:10B66000D9F930F008020BD020F00202112A07D0DD
:10B6700043F20142904203D0BDE80840FBF7CEBC44
:10B6800008BD00BF8C3100209C31002078310020A3
:10B6900008B50020FFF7A6FE08B1FBF7BFFCFFF7D7
:10B6A00095FF08B1FBF7BAFCFFF7CAFF18B1BDE878
:10B6B0000840FBF7B3BC08BD0388212B13B5044633
:10B6C0003CD005D8102B0CD0112B25D002B010BDCA
:10B6D0003B2B01D0562BF9D11321A088FFF7A6FFF1
:10B6E00015E01A4B1A481B49C01AC008000440F064
:10B6F0000300FBF7A7F90720FFF774FE08B1FBF77B
:10B700008DFC154BA1881548198002F0EDFE00282C
:10B71000DCD0FBF783FCD9E70C4B0D481049C01A6D
:10B72000C008000440F00300FBF78CF90A4B4FF609
:10B73000FF721A800B4B00221A70C7E7002301A981
:10B740008088ADF80430FFF779FFE0E7601B030065
:10B75000A01B0300C5250300AE220020A433002057
:10B76000D0250300A033002008B503784BB9054B62
:10B770003B211888FFF75AFF18B1BDE80840FBF7D6
:10B780004DBC08BDAE2200202DE9F0432DED028B0B
:10B79000037883B00746002B40F0AD800521406858
:10B7A000FFF772FB08B1FBF739FC5B4B5B4C5C4D60
:10B7B0005C492A68DFF89491E41AE408240444F010
:10B7C00003042046FBF742F94FF0000846467B6829
:10B7D00033F908204946204608F102081644FBF7D1
:10B7E00035F9B8F10A0FF2D107EE906AF8EE677AF0
:10B7F000B1EE047AC7EE877A17EE900A05F07AFF69
:10B8000041A3D3E9002305F0F3FD0022464B05F0E8
:10B81000EFFD05F089FF08EE100AB5EEC08AF1EEE3
:10B8200010FA6DD5FFEE007AB4EEE78AF1EE10FA69
:10B8300066DD3E4ADFED3E8A3E49FDEEC87AB5EE52
:10B84000C08AF8EEE76AF1EE10FACCBF78EE666ACD
:10B8500076EEC86A17EE903A66EEA86A2046FDEECC
:10B86000E66ACDED006AFBF704F99FED337ADFED70
:10B87000337AE8EE077AF1EE677A17EE900A05F070
:10B8800039FF23A3D3E9002305F04EFE05F04CFF5A
:10B8900008EE100AB5EEC08AF1EE10FA32D5FFEECE
:10B8A000007AB4EEE78AF1EE10FA2BDD1F4A244944
:10B8B000FDEEC86AB5EEC08AB8EEE67AF1EE10FA8F
:10B8C000CCBF78EE477A77EE487A16EE903A67EE7C
:10B8D000A87A2046FDEEE77ACDED007AFBF7C9F8AD
:10B8E000BCEEC88A642318EE102A5343154A13602D
:10B8F0002B6801332B6003B0BDEC028BBDE8F083F5
:10B90000114A97E7104AD2E76666666666660A409D
:10B91000666666666666F23F601B0300A01B030056
:10B92000402D0020712603000000103F86260300F2
:10B930000000C8428826030000000C43000052C3E8
:10B9400098260300B0330020B22603007C2F0300AA
:10B9500008B598B1032815D10B4B0C480C49C01AF7
:10B96000C008000440F00300FBF76CF80220FFF76A
:10B9700039FD38B1BDE80840FBF750BBBDE80840D1
:10B98000FFF786BE08BD00BF601B0300A01B0300BD
:10B990005F26030030B5214C257889B0002D3BD1BE
:10B9A0004FF48073ADF8003001238DF802301C4B4A
:10B9B0001B680293FE228DF804208DF80C2003EB07
:10B9C000C3030522B3FBF2F303F548630493154B5D
:10B9D0005968186805AA03C204228DF81C209A79B8
:10B9E00002F11B01C9B23B290AD8997169460E4878
:10B9F00005F064FA70B108280ED0FBF70FFB0BE0DE
:10BA0000213A9A715A790132D2B23B2A94BF5A71C3
:10BA10005D71EBE70123237009B030BDA033002036
:10BA2000B0330020B02200207C3300200B7813B10B
:10BA3000022B02D07047FFF7ADBF024B00221A70F5
:10BA4000704700BFA0330020043808B50A282BD85F
:10BA5000DFE800F00A2A2A162A2A062A2A2A2000C3
:10BA6000BDE80840FFF714BE104B13211888FFF7FC
:10BA7000DDFD30F0080317D0BDE80840FBF7CEBA73
:10BA80000A4B1A884FF6FF739A420DD1084800F00E
:10BA9000D9FEEEE7054B1A884FF6FF739A4203D0A2
:10BAA000BDE80840FFF776BF08BD00BFAE2200200A
:10BAB000442D002008B50321044800F082FD18B190
:10BAC000BDE80840FBF7AABA08BD00BF442D00201E
:10BAD00013B5044604F026F8204603F009FE237847
