:1000000000000120750300005D0300005F03000095
:1000100061030000630300006503000000000000AE
:100020000000000000000000000000006703000066
:1000300069030000000000006B0300006D03000076
:10004000B53900006F0300006F0300006F0300006C
:100050006F0300006F030000F53700006F0300001E
:10006000113A0000253A0000393A00006F03000001
:100070006F0300006F0300006F0300006F030000B8
:10008000753A0000412500006F0300006F03000077
:100090006F0300006F0300006F0300006F03000098
:1000A0006F0300006F0300004D3A0000613A00004A
:1000B0006F0300006F03000000000000000000005C
:1000C0006F0300006F0300006F0300006F03000068
:1000D0006F0300006F0300006F03000000000000CA
:1000E0000000000000000000000000000000000010
:1000F0000000000000000000000000000000000000
:1001000000000000000000000000000000000000EF
:1001100000000000000000000000000000000000DF
:1001200000000000000000000000000000000000CF
:1001300000000000000000000000000000000000BF
:1001400000000000000000000000000000000000AF
:10015000000000000000000000000000000000009F
:10016000000000000000000000000000000000008F
:10017000000000000000000000000000000000007F
:10018000000000000000000000000000000000006F
:10019000000000000000000000000000000000005F
:1001A000000000000000000000000000000000004F
:1001B000000000000000000000000000000000003F
:1001C000000000000000000000000000000000002F
:1001D000000000000000000000000000000000001F
:1001E000000000000000000000000000000000000F
:1001F00000000000000000000000000000000000FF
:10020000354936480A1A02D0072291438D463449AF
:1002100034480A1A06D00722914381F30988022242
:1002200082F3148830483149314A00F044F83148AB
:100230003149324A00F03FF831483249324A00F041
:100240003AF832483249334A00F035F832483349F7
:10025000334A00F030F833483349344A00F02BF881
:1002600033483449344A00F026F8344834490022EF
:1002700000F02CF833483449002200F027F83348C6
:100280003349091A082902DB002202604160314A21
:1002900090471F481F49884205D00268043003B4C4
:1002A000904703BCF7E700208646EC46002000217B
:1002B000294A9047FEE7884207D0521A05D00378B2
:1002C00001300B700131013AF9D17047884202D0F8
:1002D00002700130FAE770470000012000E00020C2
:1002E000000001200000012024570000B40000207D
:1002F00094010020D0030000D0030000224300003E
:1003000024570000B4000020B4000020D4440000B2
:10031000D4440000D4440000D4440000D44400007D
:10032000D4440000D4440000D4440000245700000A
:100330000458000094010020940100209401002042
:100340007C0B00207C0B00207C0B00207C0B002011
:100350007C2B00209D0300002D3B0000FEE7FEE704
:10036000FEE7FEE7FEE7FEE7FEE7FEE7FEE7FEE765
:1003700000F002B8FFF7FCBF0F484FF007018843B9
:1003800085460E4880470E48016841F470010160BF
:10039000BFF34F8FBFF36F8FFFF732BF09480A4992
:1003A0000A4A884207D0521A05D0037801300B70F0
:1003B0000131013AF9D1704700000120D53B00001E
:1003C00088ED00E02044000000000020B400002080
:1003D000022000F00BBA00002DE9F04781460D46DF
:1003E00000F016FA0328044604D8012D04D025B3E2
:1003F000022D2FD0BDE8F087194D47003A18A918F3
:10040000AE5C4A7852B1DFF86880164842464FF435
:10041000804100F064FC08B988F800903B192B4437
:100420009A78114B1A55002EE4D0104B1B68002B04
:10043000E0D03046BDE8F04718470A4800F068FCB5
:10044000074B04EB440213449E78074B1B5DB342F9
:10045000D0D1E8E7024B00EB40041C446678E2E7A9
:1004600096010020E0000020B1010020AC01002036
:100470009401002002210078FFF7AEBF08B5094BB8
:100480001B7853B1002000F087F9012000F084F9B7
:100490000320BDE8084000F07FB9BDE8084000F047
:1004A00087B900BF95010020F8B57B4C237805463D
:1004B0001BB100232370FFF7E1FF172D00F28880A6
:1004C000DFE805F00C17174354657680888D888D1A
:1004D000959A9A9A9A9AC4C9D1D9E4E4FFF7CEFFC3
:1004E0006E4800F015FC6E4B002204461A70204640
:1004F000F8BD002000F036F9F8B1002000F04CF90A
:10050000022D0CBF4FF4E1614FF47A61644B1D7012
:100510004FF400404FF47A740025E0FB01454FF49E
:10052000FA6200232046294603F03CFD00220146E2
:100530005A48BDE8F84000F0D2BB00F021F9022D86
:100540000CBFC8214FF4C871E0E7002000F00AF9A1
:1005500040B1002000F020F94FF44871504B0322C5
:100560001A70D5E700F00CF9C821F7E7002000F079
:10057000F9F838B1002000F00FF94FF47A61484BD8
:100580000422EDE700F0FCF84FF4C871F7E7002013
:1005900000F0E8F848B1002000F0FEF8404B0522DA
:1005A0001A7040F6CD410022C2E700F0E9F8F5E705
:1005B000002000F01BF93A4B06221A70002240F28C
:1005C0006661B5E7002000F0DBF8354B07221A70B2
:1005D00000248CE70120207000F008F9EEE70120EC
:1005E000207000F003F900224FF40051A0E700F062
:1005F000EEF82B4B0C22EAE72A482B4E00F088FB42
:10060000D5F1110504461CD0D8B9012D13D0C8234B
:100610005D434FF400474FF47A7000214FF4FA62C3
:100620000023C7FB050103F0BDFC224601461D481F
:1006300000F055FB0446022000F0A2F801233370BD
:1006400055E7022000F0A8F80023F8E7FFF716FFAF
:10065000134B1222BBE7FFF711FF002000F090F8C8
:100660000F4B1322B3E7FFF709FF012000F088F8D2
:100670000B4B1422ABE7FFF701FF002000F080F8DE
:10068000012000F07DF8064B1522A0E700F09FF84E
:10069000034B1D709CE700BFA8010020080100204B
:1006A000B0010020B800002095010020044B1B6819
:1006B000DB0703D5034B1878FFF7F6BE704700BF82
:1006C000A4010020B001002038B51C4B18601C4B61
:1006D00010F00204054619601AD01A4B1A480E226F
:1006E0001A700F22DA7010229A7111225A720421A4
:1006F00040F2333200F0B8F9044648B900F00AFA83
:10070000044628B90146114A114800F0DDFA0446B2
:10071000EB0711D5012000F08DF86CB921460D4A88
:100720000D4800F0D1FA044630B90C4A0C480121BA
:10073000BDE8384000F0C8BA204638BDA40100200A
:10074000AC01002096010020D44400007504000094
:10075000F8440000AD060000FC440000D103000096
:10076000F4440000054A4FF0A043105CD3F8043570
:1007700023FA00F0C04300F0010070474E4500002E
:10078000044B1A5C012393404FF0A042C2F80C3591
:10079000704700BF4E450000044B1A5C0123934094
:1007A0004FF0A042C2F80835704700BF4E45000028
:1007B00008B50020FFF7F0FF0120FFF7EDFF022052
:1007C000FFF7EAFF0320BDE80840FFF7E5BF08B5E3
:1007D0000020FFF7D5FF0120FFF7D2FF0220FFF72F
:1007E000CFFF0320BDE80840FFF7CABF074A4FF01C
:1007F000A041105CD1F804350122824022EA0300B6
:100800001340C1F80805C1F80C3570474E4500008B
:100810000D2809D00E2809D00F2809D010280CBFA8
:1008200003204FF0FF3070470020704701207047D1
:1008300002207047C20708B501460CD54FF0A0430F
:100840000322C3F84427C3F84827C3F84C27C3F84A
:100850005027FFF7ADFF8B070AD54FF0A0430C22BE
:10086000C3F83427C3F83827C3F83C27C3F8402718
:1008700008BD0000C30710B507D4F0234008054A9F
:10088000145C23401943115410BD0901C9B20F2350
:10089000F4E700BFC801002030B5094B1C78094BB4
:1008A000196800239C4202DC0022104630BD11F87A
:1008B0003350854201EBC302F7D00133F2E700BFAA
:1008C000B5010020D801002070B504460D46FFF7A1
:1008D000E3FF30B1436823B129462046BDE87040AC
:1008E000184770BD034B044819680022490800F0FE
:1008F000F6B900BFB80100203001002010B5C0B229
:10090000FFF7CAFF0446007802F06AFF63785A1EB8
:1009100053425341834208D1044BD3E9002313438C
:1009200003D1BDE81040FFF7DDBF10BDC0010020BE
:1009300038B5344A43080446D35CC2074CBF1B0990
:1009400003F00F030D46042B5BD8DFE803F003230D
:100950002B373A00002954D00121FFF78BFF0020EC
:1009600000F0C4FA0122A4F12003C4F120002649BA
:1009700002FA03F322FA00F0034302FA04F4D1E985
:10098000002014430343C1E900430020BDE8384080
:1009900000F0AEBA002918BF02212046BDE8384059
:1009A000FFF768BF41B10321FFF764FF2046012133
:1009B000BDE83840FFF788BF0121EEE709BB0421FD
:1009C000EBE709B10321E8E7FFF754FF294620468A
:1009D000FFF77AFF284600F089FA0122A4F12003EC
:1009E000C4F12000084902FA03F322FA00F003439D
:1009F00002FA04F4D1E9002022EA040420EA030305
:100A0000C1E738BDC8010020C00100202DE9F04138
:100A1000124E134F00243378A34208DC114BD3E964
:100A20000023134318D0BDE8F041FFF75BBF3D68DA
:100A300005EBC40815F8340002F0D2FE98F8011056
:100A40004B1E594259410A1A514215F8340051417E
:100A5000FFF76EFF0134DEE7BDE8F081B50100204D
:100A6000D8010020C0010020092AF7B505460C4630
:100A700016463DD902F0F2FDD8B11E4B1E481D604E
:100A80001E4B1F4F1C701F4B002110221E6003F0D5
:100A90009CFB1D4B00200021C3E90001013CE4B296
:100AA0000326FF2C0BD1194A1948002100F00CF93C
:100AB00003E002F095FD0028DFD003B0F0BD20B2C6
:100AC0009DF806308DF8046005EBC00223F00703A3
:100AD0008DF8063001A9937815F830008DF80530AF
:100AE0003A4602F0C5FD013CE4B20028D9D0E4E763
:100AF0000720E2E7D8010020C8010020B50100204E
:100B0000FD080000B8010020C00100200D0A00000F
:100B10005445000070B5084D084E00242B789C42C7
:100B200001D3002070BD3368012113F8340002F0B6
:100B300013FE0134F2E700BFB5010020D801002008
:100B40001FB50021039001AA44F20100CDE9011173
:100B500001F074FB05B05DF804FBD0E90223D1E994
:100B60000201994208BF90422CBF0120002070472B
:100B70002DE900480C4801F0CCFC0C4BD3E90023D4
:100B800012EB000B43F1000C094BD3E900239C4509
:100B900008BF93455846614603D21BF180704CF163
:100BA0000001BDE8008800BF6C010020E0010020CA
:100BB0004802002037B505460C460A4801A900F056
:100BC000ACF960B10570446001A9064800F0CFF9A6
:100BD00018B1054801F0A2FC002003B030BD04208C
:100BE000FBE700BF580100206C0100201B4B1B7865
:100BF0002DE9304804461BB900252846BDE8308859
:100C00000028F9D090F8203003F0FF05002BF3D036
:100C1000FFF7AEFFD4E90223994208BF904217D3F1
:100C200023690BB984F82030D4E90530984721694D
:100C30000029E1D094F8203003F0FF05002BDBD031
:100C4000D4E9022312EB010B43F1000CC4E902BC0E
:100C50002146034801F0B2FACFE700BFE8010020C7
:100C60008C45000013B5114B1149186801900823F9
:100C70005822104800F03EF9044698B90E4A0F4831
:100C800001A901F02DFB044660B901210B4801F0D8
:100C900023FC01230A4A0948194601F089FB094B44
:100CA00001221A70204602B010BD00BF8845000026
:100CB000EC010020580100202D0D00006C010020E7
:100CC000FFFF7F00E80100203AB103685A614A1E25
:100CD000514251411961002070470720704738B5D3
:100CE00090F8203004460D4683B98261FFF740FF3B
:100CF000421941F10003C4E90223236903B12561CC
:100D000021460020BDE83840FFF754BF002038BD21
:100D10000023014680F820300120FFF74BBF000080
:100D2000014801F0F6BB00BF6C0100202DE9F04F37
:100D300085B0074601F0D8FB40B15B4AD2E90031EB
:100D400013F1807341F10001C2E9003100213846FE
:100D500001F0D9FB38B1554C236823B12068FFF767
:100D600045FF002323600121384601F0CCFB20B170
:100D7000FFF7FEFE4E4BC3E9000103A94D484B4D62
:100D80004D4C4E4E00F003F9002846D1DFF828A163
:100D9000464CDFF830B1504601F026FA23680028AF
:100DA00078D083B12368D0E90201D3E902239942C4
:100DB00008BF90422ED2236893F820301BB12168DF
:100DC000504601F0FBF9504601F008FAD0E9026301
:100DD00005460193FFF7CCFE019BB6EB000863EBE1
:100DE0000109B8F1010F79F1000346DB344EB0453B
:100DF00041D9FFF795FF82194FF496030021584619
:100E000001F0F6FA002840D1236813B9384601F002
:100E1000C7FA256005B0BDE8F08F0378012B1FD01D
:100E20005BB1022B13D14FF0000A204601F0D6F936
:100E3000002835D080F820A0F7E7416891F82030ED
:100E40002BB9012381F82030204601F0B7F903A91E
:100E5000184800F0C7F803A9164800F098F893E77F
:100E600041682B68994202D100232B60EFE72046AE
:100E700001F0BDF9EBE7AA68BEE70021584601F092
:100E800038FB2846FFF7B2FE01E00D28F9D0002319
:100E9000236080E7002BBDD1384601F085FAB9E721
:100EA00001233370D3E700BFE0010020500200208F
:100EB00048020020580100208C450000E801002075
:100EC000FFFFB4006C01002072B6024A13680133C0
:100ED0001360704754020020034A1368013B1360FB
:100EE00003B962B6704700BF54020020FFF7ECBFA1
:100EF000FFF7F2BF10B561B1B2FBF3F403FB1424AA
:100F0000A4B244B9C0E9001484608281C381204640
:100F100010BD0E20FCE70920FAE737B550E8013F85
:100F20009DB2C48925448489A54228BF2D1B04890C
:100F3000A54202BFBFF32F8F002207E0C5EA0305D9
:100F400040E80154002CE9D14FF001028DF8032054
:100F50000193019B9DF803200B6002F0FF0322B177
:100F60000B880068184403B030BD1846FBE70A88B8
:100F70004B889A4209D150E8012FC2EA024240E868
:100F80000123002BF7D1012070470020704737B5AF
:100F900050E8023F1FFAA3F5C488A54202BFBFF381
:100FA0002F8F00220DE0C48925448489A54228BFE3
:100FB0002D1BC3EA054540E80254002CE8D14FF050
:100FC00001028DF803200193019B9DF803200B6023
:100FD00002F0FF0322B14B880068184403B030BD13
:100FE0001846FBE70A884B889A4209D150E8022F3D
:100FF000C2EA224240E80223002BF7D101207047C9
:101000000020704750E8002F0B4640E8003C9CF061
:10101000000FF7D11046704750E8003F43EA010245
:1010200040E8002C9CF0000FF6D11046704750E8C5
:10103000002F02EA010340E8003C9CF0000FF6D1CB
:101040001046704750E8003F03EB010240E8002CD7
:101050009CF0000FF6D11046704750E8003FA3EB1C
:10106000010240E8002C9CF0000FF6D110467047BA
:101070000121FFF7D1BF0021FFF7D9BF2DE9F047CC
:101080008368D3F84841C4F3400488B0074634B1BC
:101090000022114608B0BDE8F04700F0A1BA0129CE
:1010A00006D91E4A022108B0BDE8F04700F064BA34
:1010B0001B4D1C4EDFF870A04FF06408A146761B54
:1010C0001C23B6FBF3F6A64205F11C0502D108B0BD
:1010D000BDE8F08755F81C0C55E906230179006836
:1010E0009A1A1B1ADBB2039308FB03F3B3FBF2F368
:1010F000CDE9019335F8043C0093CDE9061255F88B
:10110000083C11FB08F13846B1FBF2F1CDE90421AE
:101110005246082100F030FA0134D4E7DC450000E3
:10112000BC430000D8430000EF45000010B590B16B
:10113000D0E9012301689B1ADBB20A60013BDBB2F4
:10114000FF2B026802D10020107110BD11684C1CE9
:1011500014600B70F2E70E20F7E738B50446002064
:10116000FFF7C4FE226863681168994213D9481ECC
:10117000106011F8015CE368218B01FB0535A36861
:1011800011791B1ADBB2994200D213710020FFF7CC
:10119000AFFE284638BD0025F8E738B505460020E3
:1011A0000C46FFF7A3FE2A681368591C1160E96812
:1011B000641A298BB4FBF1F41C700020BDE83840A0
:1011C000FFF796BE08B103F07CB870472DE9F843ED
:1011D000089C1E460F46E1B9184D194C641BE408E3
:1011E000944204D9174800EB8208BC4201D1002385
:1011F0000AE06B68D8F80000196803F03BF8A946CC
:10120000083520B9D9F804303360BDE8F8830137D8
:10121000EBE70028EBD00178436839B1214610464E
:1012200098472368002BE2D03460EEE7120199184A
:101230009B58002BDBD03160E7E700BFD8430000AC
:10124000104400009800002007B58368B9B1DA7E29
:101250008A4211D00B4A009233228DF8042001F10A
:101260002F028DF805206D22ADF80620D9766A464A
:101270000549006900F0D3FF03B05DF804FBD9769F
:10128000024AF5E71B5B313BF7490000DB460000F3
:10129000836807B51A7F8A4213D045F61B32ADF832
:1012A000002034228DF8022001F12F028DF8032056
:1012B0006D22ADF8042019776A460349006900F0F1
:1012C000AEFF03B05DF804FBF7490000014900F0F0
:1012D000A6BF00BF7B4600000A460068014900F037
:1012E0009EBF00BF0347000009B1FFF7F5BF70477D
:1012F0002DE9F34106460F461446002514B902B005
:10130000BDE8F081706803682246D3F80C80791933
:1013100001ABC047019B1D44E41A002BEED1B3681A
:101320001A78032AEAD0D3F848219206FBD5B3F8FD
:1013300048216FF34512A3F84821DFE72DE9F04F6C
:10134000054685B090460F46002971D00024385DCF
:1013500002F0E8FE40BB5FFA88FB05F1100A384650
:10136000FFF730FFAB685B7E001BA3EB08039842DE
:1013700007EB04091AD94A46002612F8010B02931A
:101380000192039202F0CEFEDDE9012320B112F8B2
:10139000013C0A2B35D03346A968487E08EB06018C
:1013A00088422DD90136E8E70134D0E74B460026C4
:1013B000B04219D013F8012B0A2A04EB060A1DD1FA
:1013C000286900F021FF32462E4649462846FFF79D
:1013D0008FFF56F8100FFFF779FF5FFA88F130465C
:1013E0000AF10104FFF780FF2869391900F017FF9F
:1013F000286905B0BDE8F04FFFF768BF0136D7E7B1
:101400001E46286900F000FF324649462846FFF78D
:101410006FFF3444385D02F085FE38B92869FFF764
:1014200055FF59465046FFF75FFF98E70134F1E753
:1014300005B0BDE8F08F00000A4619B10249006806
:1014400000F0EDBE704700BF094700000A4619B121
:101450000249006800F0E3BE704700BFFD4600008F
:101460002DE9F34106468068414F00248022214641
:10147000A0308DF8034002F0A8FE3E49306900F02C
:10148000CEFE306900F0C0FE4FF47A7547F00107D8
:10149000706803680122D3F810800DF1030101ABDD
:1014A000C047019B5BB94FF6C010B847019B002BAA
:1014B000EED1013DADB2002DEAD10D2033E09DF813
:1014C0000330B1681B2B46D091F8A0201B2AEDD128
:1014D000522B40D10C44002384F8A03091F8A12075
:1014E0005B2A1DD101F1A200022510F8012B013564
:1014F000EDB23B2A6CB219D1002C1FDB05F1A00420
:101500000C44002214F8010BD0B9FA2A28BFFA22A1
:10151000FA2B28BFFA230A758B7581F8A00002E028
:1015200081F8A0300B2002B0BDE8F08103EB83030B
:1015300002EB4303303B802D9BB2D6D10C20F2E767
:1015400002EB820200EB420001353038EDB282B28C
:101550002806F3D4D6E70A190134E4B2092C82F83C
:10156000A030A3D9002381F8A0300420DBE700BF1E
:1015700010470000EE4600000CB473B506AB0E46F3
:1015800053F8045B81680193D1F848315B07044646
:1015900020D5CB7EB3421DD002221B31684602F01B
:1015A000EBFD31462046FFF74FFE01AA2946206990
:1015B00000F08CFB9DF800102046FFF745FE9DF8DB
:1015C000011011B12046FFF763FE02B0BDE8704084
:1015D00002B0704701AA2946206900F077FBF4E7C2
:1015E0002DE9F04F044689B07E48DFF81C9217467B
:1015F0000E4602F066FE05467B4802F062FEA368D6
:10160000CDF80090794A5B6808212D1A2046FFF733
:10161000B3FFA3685868FFF7D5FD8046484602F03F
:1016200050FEA36808EB000292B299682046FFF7CB
:1016300085FE6F4A00212046ADB2FFF79DFF3FB106
:1016400036B14FF00C09B04609FB0769C84527D1F0
:10165000654802F036FE02300544ADB2614B00939E
:1016600005F10308634A082120462B461FFA88F833
:10167000FFF782FF424660492046FFF75FFE36B122
:101680000C23DFF8709103FB0767BE4222D1A368E9
:10169000D3F80C80B8F1000F5AD109B0BDE8F08F33
:1016A000D8F80400FFF78EFD8246D8F80000FFF757
:1016B00089FD5044A8420AD9D8F80400FFF782FDFA
:1016C0000546D8F80000FFF77DFD0544ADB208F1EE
:1016D0000C08BBE7D6E9002393B34AB30192424A10
:1016E00000920821454A2046FFF746FF7068FFF741
:1016F00069FD83463068FFF765FD82463A4802F08F
:10170000E0FDA5EB0B03A3EB0A031B1AD9B204F10E
:101710001000FFF7E9FD3A223949206900F07FFD0A
:10172000B16889B142462046FFF708FE0C36ACE7A7
:1017300000932B464A4608212046FFF71DFFEFE79E
:10174000002AEDD00092F4E72069FFF7BFFDEDE736
:1017500000220392174604AE009603AB01214046D7
:1017600002F10109FFF732FD039D5DB12868FFF723
:1017700029FDB84204D9039B1868FFF723FD87B2FF
:101780004A46E9E7B9F1010F87D01E4ADFF864A0A5
:1017900029462046FFF7F0FE2A46BD1CADB203AB3A
:1017A00000960121404602F10109FFF70FFD039B5E
:1017B000002B3FF472AF1B68009308212B46524662
:1017C0002046FFF7D9FE039B596831B17A1D92B2CA
:1017D0002046FFF7B3FD4A46E1E72069FFF776FDB3
:1017E000F9E700BF164700000C4A0000F14900006D
:1017F0002649000030490000384900004B490000EC
:10180000D846000054490000F3460000002211466B
:10181000FFF7E6BE022910B5044608D18368D3F865
:1018200048319B0703D5BDE81040FFF7EFBF2069A3
:10183000054A064900F0F3FC2069054A0349BDE862
:10184000104000F0ECBC00BFDF460000F74900008C
:10185000E3460000012906D0022906D18368D3F8A7
:1018600048319B0701D5FFF7D1BF024A0221FFF79C
:1018700083BE00BFA649000038B58368D3F848414D
:10188000C4F340040D4634B100221146FFF7A8FE10
:101890002546284638BD0029FBD05B68024A022154
:1018A000FFF76AFEF5E700BF3C480000012937B5A5
:1018B0000546144604D103B0BDE83040FFF7A6BF8B
:1018C000023918BF0121FFF7D7FF48B963680193B8
:1018D000044B0093044A236802212846FFF74CFE7C
:1018E00003B030BDB8480000AF480000012907B57B
:1018F00004D103B05DF804EBFFF788BF02290AD1D9
:1019000053680193084B00931368084AFFF734FEAD
:1019100003B05DF804FB8CBF0121002103B05DF82A
:1019200004EBFFF7A9BF00BFB8480000AF480000B4
:1019300011F1FF3110B518BF01210446FFF79CFFDC
:1019400040B9054A0549206900F069FCA36845F2E1
:1019500018021A8310BD00BFE8460000F7490000D6
:1019600001292DE9F3410446154637D18668FFF772
:1019700077FD38BBA36804F11005FA21284693F8D7
:1019800014809F7DFFF7A8FC20691E49FA2200F011
:1019900046FC2046FFF764FDA0B9A368197D717667
:1019A000A368A1EB08019B7D33762846C9B2FFF7F7
:1019B0004DFD317EC91BC9B2284602B0BDE8F041D9
:1019C000FFF73ABDA36845F218021A830E4A0421B4
:1019D000204602B0BDE8F041FFF7CEBD022994BF1A
:1019E00000210121FFF748FF48B96B680193074BBD
:1019F00000932B68064A02212046FFF7BDFD02B086
:101A0000BDE8F081F7460000EC480000B84800004F
:101A1000AF4800002DE9F04111F1FF3186B018BF49
:101A200001210546FFF728FF40BBAB68DFF8548073
:101A3000D3F840610446EEB1082C1BD03046002399
:101A4000092203A900F022FB9DF81420A968304662
:101A500009230132A03100F019FBAB68049EA033CA
:101A60000093671C2346424600212846FFF784FD69
:101A70003C46E0E7AB68002283F8A02006B0BDE852
:101A8000F08100BFE248000011F1FF3110B518BF2E
:101A900001210446FFF7F0FE30B9A368B3F84821EE
:101AA00060F38202A3F8482110BD11F1FF3110B597
:101AB00018BF01210446FFF7DFFE30B9A268B2F873
:101AC000483143F00403A2F8483110BD11F1FF3151
:101AD00010B518BF01210446FFF7CEFE30B9A36848
:101AE000B3F8482160F3C302A3F8482110BD11F1F7
:101AF000FF3110B518BF01210446FFF7BDFE30B914
:101B0000A268B2F8483143F00803A2F8483110BD8A
:101B1000022973B50D4694BF0021012104461646E3
:101B2000FFF7AAFE014658B9022D0BD17368019345
:101B30000C4B00930C4A336829462046FFF71CFDE6
:101B400002B070BDA368094AD3F8483113F0080FFA
:101B5000074B18BF1346074A204602B0BDE8704045
:101B6000FFF70ABDB8480000AF480000B3510000BD
:101B7000CD480000D148000011F1FF3110B518BF69
:101B800001210446FFF778FE48B9A368C3F838017D
:101B9000E3685B68BDE81040186800F002BB10BD48
:101BA0007FB511F1FF3118BF01210446FFF764FE34
:101BB0000546B8B9E3685B681E68304600F0EEFA87
:101BC000B268A168C0B2CDE9010264234343B3FB0C
:101BD000F2F3DBB20093D1F83831034A29462046AC
:101BE000FFF7CAFC04B070BD784800000A2938B578
:101BF00004460D4602D10D21FFF7F8FFA3682268C5
:101C0000591CA160D554D4E901329A4204D320462C
:101C1000BDE8384000F0F8BA38BD00002DE9F84FB3
:101C20009946DDE90A431746824688460A46012658
:101C3000BA420FD24E4538BF4E4613F0010B01D1C8
:101C400064B900240125B9F1010F1AD909F1FF394E
:101C50007D43F8E7B2FBF7F20136E9E79B070ED5C3
:101C6000B9F1000F0CBF30252025A642EAD2013C75
:101C700029465046FFF7BAFF002CF6D1E1E72025B0
:101C8000F3E7B8FBF5F39F42E2D9DFF83C90B8FBED
:101C9000F5F3504619F8031005FB1388FFF7A6FF6C
:101CA000B5FBF7F3BD4207D2BBF1000F02D00CB178
:101CB000A64203D3BDE8F88F1D46E8E72021504631
:101CC000013CFFF793FFF2E7A14C00002DE9F74F2D
:101CD000054617468846002900F0308118F8011B98
:101CE00049B92B7B002B00F02981284603B0BDE8C1
:101CF000F04F00F089BA252940F0C080002698F8FE
:101D000000302D2B424608F1010823D0302B24D07F
:101D10002B2B25D000242A2B02F1010123D13B6873
:101D20001A1D1B683A601C440A4613782E2B26D1D4
:101D300001324FF00009104610F8011BA1F1300CE0
:101D4000BCF1090F1DD80A2303FB0913A3F13009C5
:101D50000246F0E746F00106D1E746F00206CEE77C
:101D600046F00406CBE711F8013CA3F13000092846
:101D7000DBD80A2202FB0434303C0A46CBE74FF0A2
:101D8000000912F8011B01F0FB0068289046F8D00A
:101D900069290ED04AD8582964D006D825296DD093
:101DA00098F80030002B99D19BE7632962D0642911
:101DB000F6D13A68D2F800A0111D8AEAEA723960B9
:101DC000A2EBEA724FF0010B092A5BDCCB4538BF6E
:101DD000CB462CB1BAF1000F01DB720700D5013CF4
:101DE000B30702D5B9F1000F04D0F00702D4002CDC
:101DF0004ED10024BAF1000F52DACAF1000A2D21A7
:101E00002846FFF7F3FE06F00302022A05D1B9F1D6
:101E1000000F02D1002C47D10024CDE900464B46EB
:101E20000A2251462846FFF7F9FEB9E773294CD03C
:101E300014D87029B4D13B681A1D3A603021284665
:101E40001C68FFF7D3FE78212846FFF7CFFE00225B
:101E50000823CDE9003221461022E3E775292BD073
:101E600078299DD139680A1D3A60CDE900464B4674
:101E7000102228E03B681A1D19783A602846FFF7BF
:101E8000B5FE8DE70A230BF1010BB2FBF3F29BE7E2
:101E9000A345AFD220212846013CFFF7A7FEA6E7C5
:101EA0007107B0D52B21ABE7A345B6D23021284628
:101EB000013CFFF79BFEADE73968CDE900460A1DFE
:101EC0003A604B460A220968ACE73B681A1D3A6043
:101ED00016F00106D3F800A020D1BAF1000F03D00C
:101EE000504602F0EEF90646B44200D9C4B90AF1F0
:101EF000FF3A1EE028460136FFF778FE1AF8061072
:101F00000029F7D1A642BFF44BAF002C3FF448AFF5
:101F100020212846013CFFF769FEF3E70026EDE7A4
:101F200020212846013CFFF761FEDDE72846FFF748
:101F30005DFE1AF8011F0029F8D131E703B0BDE8B2
:101F4000F08F2DE9F047B0F806904479D2F800A060
:101F50009DF8208009FB04F4043C06460AEB0300CC
:101F6000A0420F4688BFA4EB030A191DC2F800A0C7
:101F7000B1FBF9F509FB15114DB9A9EB0104544565
:101F800028BF5446BAF1000F04D1BDE8F087366887
:101F9000013DF1E704317B1970182246B8F1000FBA
:101FA0000ED001461846AAEB040A02F0E5F8D14526
:101FB000254436684C464FF0000128BF5446E1E7FF
:101FC0001946F0E7FFF7B2B8F8B546790146721E38
:101FD0000546002393422D6803D30024A64202D86D
:101FE000F8BD0133F6E70F682846FFF7D6F801344D
:101FF0003946F3E72DE9F843068BCD1C0746FFF77A
:10200000ACF8043E35440446B5FBF6F5F0B14FF4A8
:102010008073EDB28380C680013D076081464FF03A
:102020000008A84512D23846FFF797F8064648B18F
:1020300063790133637108F10108C9F80000076092
:102040008146EEE72046FFF7BFFF34462046BDE855
:10205000F88301210430FEF7F5BF10B501210446D5
:102060000430FEF7FAFF10F0FF0F04D12046BDE860
:102070001040FFF7A9BF10BD1FB5039200220092C8
:1020800003AAFFF75EFF05B05DF804FB1FB50392DE
:102090000122009203AAFFF754FF05B05DF804FB8C
:1020A000026813685268934291BFD01A8068013069
:1020B000801888BFC01A704710B504460020FEF78C
:1020C00015FF2046FFF7ECFF04460020FEF710FF47
:1020D000204610BD2DE9F04F8368D3F84851C5F371
:1020E00040058BB0074635B1002211460BB0BDE864
:1020F000F04FFFF775BA012906D9224A02210BB029
:10210000BDE8F04FFFF738BA1F4C204EDFF8808053
:10211000DFF88090DFF880A0361B1C23B6FBF3F6B7
:10212000AE4202D10BB0BDE8F08FE368089323689C
:10213000D4F808B09A6809922046FFF7BDFF099AC3
:1021400094F810E0642303FB00FCBEF1000F0CBF09
:10215000C646CE465343B3FBFBF3CDE90432BCFB8A
:10216000FBF1089B0191CDE9020B0093CDE906BE7E
:102170006369524608213846FFF7FEF901351C34E1
:10218000CEE700BFDC4500002443000024430000EC
:10219000F44C0000FD4C0000094D000003689868F5
:1021A0007047036800229A607047836800225A6073
:1021B0009A60C3E90422DA601A60704770B5446817
:1021C00006460D46206818B1B3682946984718B9E5
:1021D00023682B60256070BD2468F3E743681868A6
:1021E00008B102681A60704743681868704743680E
:1021F000186800B97047884203D102681A6001204C
:10220000704703460068F4E7826810B504462AB1B7
:1022100043690168006998470023A36010BD0EB4AC
:1022200003B5039921B104AB01AA0193FFF74EFD59
:1022300002B05DF804EB03B07047000010B572B651
:1022400000F034FF00F070FD0028FBD1154C6288CF
:102250004AB11548154B1649C01AC008000440F091
:10226000010000F0D5FE134B1B68DB0700D500BE54
:102270006388012B09D90C480C4B0F49C01AC008C0
:10228000000440F0020000F0C3FEBFF34F8F0B4983
:102290000B4BCA6802F4E0621343CB60BFF34F8F6D
:1022A00000BFFDE718000020544300002443000055
:1022B000B54D0000F0ED00E0C14D000000ED00E084
:1022C0000400FA05435882B03BB100234350435801
:1022D0000193019B012002B070471846FBE7000004
:1022E000F8B5264C4379264D44F8232005EBC3036B
:1022F000244E1B7973B17388012B09D92248234BD3
:102300002349C01AC008000440F0020000F080FE1B
:102310000820F8BD03680A88C3F8082590F904402E
:102320008B78002C4FEA4313E2B2DBB221DB194970
:102330000F1987F800330123640902F01F0203FA22
:1023400002F241F82420437905EBC30245F833003B
:1023500073880121022B117109D90B480B4B0E49CF
:10236000C01AC008000440F0030000F051FE002035
:10237000CFE702F00F0209498B54E4E76002002026
:102380005802002020000020644300002443000085
:10239000D64D000000E100E0F84D000014ED00E033
:1023A000036801221A607047036801225A6070476F
:1023B00073B501F15005AD000068ADB24FF4803443
:1023C0008C400026C0F80843C0F84843465101F548
:1023D000A8714559019522F07F42019D40F82120C6
:1023E000C0F844430BB1C0F8044302B070BD000014
:1023F0002DE9F74F884699464FF48036036808F177
:1024000050058E404FEA880AAD00C3F84863ADB26C
:10241000C3F80863074603EB0A00D3F804154FF02E
:10242000000B22F07F44D0F84025C0F8401543F857
:1024300005B05B590093009B531A23F07F43012B97
:102440000BD1244B4FF4806043F0010398473B6865
:1024500043F805B05B590193019B3868D0F80455E7
:10246000C0F84463631B23F07F43012B1AD108F5A6
:10247000A878184B013440F8284043F001034FF48A
:10248000806098473B68D3F804359D4208D13B688B
:102490000020C3F84463C3F8046303B0BDE8F08FC1
:1024A0000D20FAE78244C9F1FF19CAF84045D0F877
:1024B0000435E21A013A22F07F4209F57F4991453D
:1024C000EED3002AE3D10134CAF84045D0F8042500
:1024D0009342DBE7D04D000003680222C3F8442397
:1024E00009B1C3F8042370474FF482710068FFF705
:1024F000E9BE4FF4803303FA01F10368C3F84813CF
:10250000C3F8081370475031890089B20068FFF79B
:10251000D9BE0368D3F804057047000090F9043071
:10252000002B09DB5A09012103F01F0301FA03F311
:102530004032024941F82230704700BF00E100E01C
:10254000024B034A1B681068184700BF6002002056
:102550005802002000230428CB604B6098BF044B36
:10256000044A98BF53F820308A600B60704700BF60
:10257000D04F0000AC4F0000CB6800225A7170476A
:10258000C368DB6800225A717047CB6801225A7118
:102590007047C368DB6801225A7170470D4A8A6030
:1025A00070B50D4A0D4C0023121BCB604B600B60C5
:1025B00012091D469A4207D0E6683679FF2E05D0EB
:1025C000854202D1A3680B6070BD01350133103420
:1025D000F0E700BFE44F000020440000104400007A
:1025E0002DE9F74F164D174C52F8047C0193641BEC
:1025F00006468946924624094FF00008444508D112
:10260000114A3B460221304603B0BDE8F04FFEF7C9
:10261000B3BFA968384601F02DFEAB46103510B1A6
:1026200008F10108EAE7DDED017A17EE90CA53469A
:102630004A465946304603B0BDE8F04F604700BFF8
:1026400010440000204400001C510000014BFFF723
:10265000C7BF00BF3D2C0000014BFFF7C1BF00BF4B
:1026600079250000014BFFF7BBBF00BF8B250000A1
:10267000014BFFF7B5BF00BF752A0000037813F0C8
:10268000040216D003F00303012B03D0022B09D060
:10269000012070470A6800880232C0F383100244A8
:1026A0000A60F5E70B684288023303EB92130B6074
:1026B000EEE71046704700002DE9F04F044685B064
:1026C000851C00200E469046FEF710FC3F4A5068DD
:1026D0003060936803F580731B1A924602F21C4621
:1026E00002F5836902F21447AB4218D30023B8F114
:1026F000000F65D0052262F3070364F38913DAF84B
:102700000420D1B2033115444AF821300020CAF820
:102710000450FEF7EDFB012005B0BDE8F08F01216C
:102720003046FEF78FFC4846FEF7A2FC3846FEF71F
:102730009FFCDAF808000090C0B203300AEB80007A
:102740006946FFF79BFF009B30BBDAB20AEB8202BF
:10275000D16801919A1C0133DBB20AEB830300922A
:10276000D3F80CB001F00303012B21D0022B15D0BC
:1027700083463846FEF77FFC10B1009BCAF808304C
:1027800059463046FEF75EFCDAF80830DAF80420E5
:1027900003F580739B1AA7E7D8B2CEE7BDF80630E1
:1027A0009B0903334FEA1B4B02EB93030093E0E7D3
:1027B000BDF80430C3F383134FEA1B4B1344F5E712
:1027C000062262F3070364F39F5398E73403002063
:1027D000012907B5034604D08168D1F8481189075B
:1027E00007D500221146184603B05DF804EBFEF74A
:1027F000F7BE53680193054B00931368044A022106
:10280000FEF7BAFE03B05DF804FB00BFB848000055
:102810000A4E00002DE9F3478368D3F84841C4F31A
:102820004004074634B10022114602B0BDE8F0472B
:10283000FEF7D6BE144E154DDFF85880DFF85890DD
:10284000DFF858A0AD1B2D09AC4202D102B0BDE8A3
:10285000F087F268B3681179FF2907D10C4A082183
:102860003846FEF789FE01341036EDE75279002A2A
:1028700014BF42464A46CDE9002138465246082157
:10288000FEF77AFEEFE700BF10440000204400008E
:10289000254E0000144E00001C4E0000444E000067
:1028A00030B50A4B0A4A0B49D21AD20800239A4281
:1028B00001D1052006E031F823500468A54202D179
:1028C0000360002030BD0133F1E700BF2443000066
:1028D000BC430000000000208368D3F848319B0708
:1028E00003D500221146FEF77BBE024A0221FEF705
:1028F00043BE00BF654E00008368D3F848319B0794
:1029000003D500221146FEF76BBE024A0221FEF7F4
:1029100033BE00BF654E00002DE9F84F1D4B1E4829
:1029200000221A70FFF74EFB814688B91B481C4EE7
:102930001C4CDFF87CA0FFF738FCA41BE4084D46D4
:10294000A54208D10023184A18481946A3421BD1B2
:102950004846BDE8F88F4FF00008474606EBC50B28
:10296000BD420AD0142256F83710DBF8000001F0FF
:10297000E3FB0028C8BF08F101080137BC42EFD1D2
:102980002AF825800135DBE720F8231042F8041BE4
:102990000133DBE734030020BC430000A04F0000FC
:1029A00024430000BC4300004C0000200200002033
:1029B0000000002007B5019031B9019A064B53F889
:1029C000320003B05DF804FB01A8FFF769FF00289F
:1029D000F3D00020F5E700BF24430000002310B52A
:1029E000CB604B60034B8B600C460121FFF7E2FF8D
:1029F000206010BDAC4F0000094B013903EBC00053
:102A0000032909D8DFE801F00A0204060420704710
:102A10000079704740797047002070470220704766
:102A20002443000030B5114C00EB400054F8215015
:102A30008240072383406A401A400D4B6A40C2F32C
:102A4000821044F8212003EB8101C2F3C2038342C8
:102A500038BF0346C2F34220834202F0070238BF68
:102A600003469A4238BF1A464A8030BD4C000020C7
:102A7000000000202DE9F74F06461D469046002A2B
:102A80004FD0CB6828684B4993F80490072201F097
:102A900053FBD0B9B8F1010F07D1474A02213046A4
:102AA00003B0BDE8F04FFEF767BD444F04460A226D
:102AB00057F8041B686801F03FFB002873D001340D
:102AC000052CF4D16B683E4A13E008223D49286882
:102AD00001F032FB58B9B8F1010F04462AD00127A2
:102AE000394A3A4B9B1A4FEAD30A934645E02B6882
:102AF000374A0221304603B0BDE8F04FFEF73CBD37
:102B000018F83530A3420FD200212846FFF752FFB4
:102B10005246034602213046FEF72EFD0135BD42E6
:102B2000EED103B0BDE8F08F224629464846FFF7B4
:102B300079FFF3E7244B254FDFF89CA0FF1AFF082D
:102B4000002503F10608EAE7184600210193FFF784
:102B500031FF0099202201F0EFFA019B014608B1F4
:102B6000013310E00BEBC3029279A24215D3224647
:102B700019464846FFF756FF01374745D1D255F869
:102B80002730009300239A45DED155F82730114AAB
:102B900002213046FEF7F0FCEEE71846FFF70AFF89
:102BA0000D4A0346F4E7B8F1020FE4B2C2D002279F
:102BB00096E700BF764E00007D4E0000BC4F00003F
:102BC000E84E0000944E000024430000BC43000087
:102BD0009C4E0000D44E0000B14E000013460A4641
:102BE000C168FFF747BF000013B504460191A3B1C8
:102BF00062B9019A0F4B04EB4404072053F82230CA
:102C0000A0401840E040C0B202B010BD01A8FFF7DC
:102C100047FE0028EDD00020F6E72AB9019A064BBE
:102C200003EBC2039879EFE701A8FFF739FE00280C
:102C3000F1D1F3E74C00002024430000284B294A3F
:102C40002DE9F04F9B1A4FEAD309CB685B7985B029
:102C500005460E461BB9244A0221FEF78DFC234B84
:102C6000234A244F08212846FEF786FC224A0821E1
:102C70002846FEF781FC00244C4502D105B0BDE892
:102C8000F08FF36893F8048001231A4621464046EA
:102C9000FFF7AAFF01222146834600234046FFF7A3
:102CA000A3FF0328034628BF03235FFA83FA804665
:102CB00001212046FFF77EFE57F82A3001930F4A84
:102CC0000F4B57F82B100091D04598BF1346029335
:102CD0000C4A034608212846FEF74EFC0134CBE798
:102CE000BC43000024430000074F00001A4F0000BF
:102CF000264F0000BC4F0000444F00007C460000FF
:102D0000054F0000814F000013460A46C168FFF7D7
:102D100095BF0000034BD3E90130C31A5842584114
:102D2000704700BF340300202DE9F04385B0FFF762
:102D3000F1FF0546002840F00681844CC4F81804D1
:102D4000BFF34F8FA0680090C0B2033004EB800047
:102D50006946FFF793FC009B18B1D4F81824002AA9
:102D60005FD0DAB2991C013304EB8202DBB204EBD0
:102D70008303D268DB68029302F00303022B019203
:102D800000915BD1BDF8063071489DF804504FEAC0
:102D90009318B8F1500FC14628BF4FF0500969F39E
:102DA0008F1309F10801ADF80630FFF723F9C5F3D9
:102DB000C2050646002800F0AD80FFF74AF901A9D8
:102DC000002308223046FFF757F90099CF43FFB29E
:102DD0000137BF00C9B20331B94504EB81012AD9DB
:102DE00008233A46A9EB07093046FFF745F95FFA91
:102DF00089F9584907F108034A463046FFF73CF97C
:102E0000009B08F1030803EB98030093D4F81834EF
:102E1000002B49D1D4F81074DFF84C914FF007081B
:102E200067E062689A4204D8A260284605B0BDE80F
:102E3000F083D8B289E708234A46DEE7012B69D13F
:102E4000BDF804504248C5F38311062928BF062166
:102E500061F3891502318900ADF80450FFF7CAF813
:102E6000C5F3C2050646002854D0FFF7F2F8002348
:102E7000082201A93046FFF7FFF80027BDF804201B
:102E8000C2F38312BB00974203F10803BED200993C
:102E90004A1CC9B20331009204EB8101042230467E
:102EA000FFF7EAF80137E9E73046FFF7D6F8FFF712
:102EB00031FF80F00100C5B2B7E7FB685A79B2B1C3
:102EC0001B79BDF8081003EB430259F8211008FAEA
:102ED00002F3052D03EA010323FA02F308BF0325D9
:102EE000AB4204D33B6831461B6838469847FB68C1
:102EF0001F68002FE1D13046FFF7AFF83846FDF7E5
:102F0000F5FFD4F818340BB9009BA3600020FDF73F
:102F1000EFFFCCE7D4F8104474B90F4B5B88012B5A
:102F2000C5D90E4B0E480F49C01AC008000440F026
:102F3000020000F06DF8BAE7236820469B689847C6
:102F4000E3681C68E8E700256FE700BF3403002052
:102F5000BC43000040030020180000202443000070
:102F600054430000445100004C0000202DE9F34779
:102F700080460F46924601A9012218469946FFF75E
:102F80009BFB214D70B3019C0026A11C4E4506EB16
:102F9000010230D100211D48FEF734F880F3100003
:102FA000631CDBB205EB8303000440EA1840D860E1
:102FB000E3B2033315F8232068F3C50205F8232094
:102FC00035F8232066F3891225F8232055F82320AD
:102FD00067F39F2245F8232002F0F80242F0010235
:102FE00005F823202B781BB1FFF79EFE0028FBD1AC
:102FF00002B0BDE8F087D2B205EB82025AF8263063
:10300000D3600136C2E700BF340300205007002020
:1030100000231A46FFF7AABF07B50123019201AAB0
:10302000FFF7A4FF03B05DF804FB00001C4A2DE984
:10303000F843D2F81034074688460024194689B967
:10304000F9680C71A3B9C2F810740B60154B164DDA
:10305000ED1AED08002603F10709AE420DD1204616
:10306000BDE8F883C9680879A04212D00968E6E78C
:10307000DB681A680A601F60E8E719F83620FB6809
:103080004245314628BF42461879FFF7CBFC01364E
:10309000E3E701340A2CD1D14FF0FF34DFE700BF62
:1030A0003403002024430000BC430000084A38B524
:1030B0000123D2F8104413701D4604B938BDE368EB
:1030C0005D71236820465B689847E3681C68F4E7F5
:1030D00034030020037A052B10B50C460FD0437A39
:1030E00023B1084A08492046FFF799F807492046C6
:1030F000FFF795F82046BDE81040FFF785B8002A95
:10310000F8D0F3E7CC530000F74900007A460000FE
:10311000C38873B504460D4633B1144A009214496E
:10312000144A2846FFF77BF8217A05291CD0637AD8
:103130004BB1A088FFF760FC0F4B104953F82020DB
:103140002846FFF76CF8227A0D4BA08853F82260CE
:103150000021FFF72FFC0B4903463246284602B0F8
:10316000BDE87040FFF75BB802B070BDCC53000003
:10317000D9530000D15300009C530000F7490000D0
:10318000FC530000F15300002DE9F04385B01F46C9
:103190000C9D002306460C46904695F80C902B7328
:1031A00029463846FFF7B4FFB8F1060F09D8DFE823
:1031B00008F00412181F2833400031462846FFF754
:1031C0002EF8002229463846FFF784FF85F80C9038
:1031D00005B0BDE8F083226831462846FFF71FF8A6
:1031E000EFE7D4E9002331462846FFF718F8E8E76F
:1031F000A36800933146D4E900232846FFF70FF86F
:10320000DFE7E3680193A36800933146D4E9002324
:103210002846FFF704F8D4E723690293E368019393
:10322000A36800933146D4E900232846FEF7F7FF50
:10323000C7E76369039323690293E3680193A36873
:1032400000933146D4E900232846FEF7E8FFB8E7AB
:1032500008292DE9F84F80460E4617461C463AD8F5
:10326000002593F80C901D7319461046FFF750FF88
:10327000DFF884A0DFF884B0AE422ED918F805201C
:1032800059462046FEF7CBFF0135082DF4D11849E9
:10329000DFF86CB02046FEF7C2FF4FF0000A56453B
:1032A00020D918F80A507E2D03D8284600F03FFF99
:1032B00000B92E252A4659462046FEF7B0FF0AF1EE
:1032C000010ABAF1080FEAD1012221463846FFF778
:1032D00001FF84F80C90BDE8F88F51462046FEF7B8
:1032E0009EFFD1E703492046FEF799FFE7E700BFBD
:1032F000CA530000C8530000C6530000C05300006A
:10330000D846000008B500F0A6F804210348FFF7EE
:103310008DFE034B01225A7108BD00BF104400000E
:1033200074010020F0B595B01C46164608460D46BF
:10333000FEF78FFE1A9B0D93CDE908640024234607
:10334000082205A928460A948DF82C400C94FEF713
:103350009DFE079B0293069B03939DF814308DF806
:10336000114003F00302012A1DD1BDF81440059E4F
:10337000C3F3C203C4F383148DF81030A2000823F2
:103380000EA92846FEF782FEC6F3952608AB0093E9
:10339000224602AB0EA93046FFF7F6FE2846FEF79E
:1033A0005CFE15B0F0BD022AF8D1BDF81640C3F39B
:1033B000C203A4098DF810300827082C264628BF20
:1033C00008263B4632460EA92846FEF75FFEA41BA0
:1033D00008AB02AA31460EA83744FFF739FF002C8C
:1033E000EBD1DBE77047000007B5044B0093044ABC
:1033F0004023FFF797FF03B05DF804FB053400009E
:10340000ED0700202DE9F84389461446B2B10F4B71
:103410000F4E0325002743F00108224609EB070160
:10342000002000F089FD0744241A48B933782BB1F5
:103430004FF47A40C047013D02D13570BDE8F883B2
:1034400001233370002CE8D1F8E700BF605400007E
:10345000EC070020704700F0A3BD000038B5074C12
:10346000051E04F1080318BF1C4623682BB11A6817
:1034700022605B6828469847F7E738BD3808002087
:1034800020B9054B01225A70FFF7E8BF012802D18D
:10349000014A9070F8E770473008002038B50C4CAE
:1034A00023789BB90B486360A3602361E36000F05D
:1034B0001FF8054600F028F801232370064BD3F8C7
:1034C00000340BB10123A370284638BD8525F5E7EC
:1034D00030080020813400000000014000F18040ED
:1034E000002382B0036003680193019B02B0704720
:1034F000044A137923B9012110609180184670475E
:103500008520704744080020084B1A68D20704D46D
:10351000C02283F8002301221A604FF08042012369
:10352000C2F81835024A1370704700BF00E100E08E
:103530004C080020124B1B6810B573B14FF480701B
:10354000FFF7CCFF4FF080430122C3F808230D4B57
:10355000587910B95A711B6898470B4B1B6873B1A7
:103560004FF48270FFF7BAFF4FF080430222C3F896
:103570000823044B01201B68BDE81040184710BD0C
:1035800000010040440800200401004000F1804098
:1035900000F5C040002382B0036003680193019BE3
:1035A00002B07047800000F1A040D0F8003723F44B
:1035B0004033C0F80037D0F8003743EA0141C0F883
:1035C00000177047054B4FF0FF32072843F82020C3
:1035D00084BF1B1883F84820704700BF50080020A4
:1035E00010B51A4C94F858306BBB4FF0FF3222FAEA
:1035F00003F1C90748BFE11803F1010348BF81F88F
:103600003020202BF3D10021C8B2FFF7DBFF0131BE
:103610000C29F9D1042200210D4800F0D6FD0D4BF4
:10362000C02283F8062340221A604FF4BE70FFF7D1
:10363000ADFF094B4FF00042C3F80423012384F887
:103640005830002010BD0820FCE700BF50080020C3
:10365000A408002000E100E000600040034B93F864
:103660005800003018BF0120704700BF50080020EC
:10367000F0B5374B1C1894F93040002C1C4664DA26
:103680008D78C5F34005002D0BBF082300230C26C1
:103690000826B34201D10420F0BD54F8237001374D
:1036A0003FD1261844F8232086F8303015B9E218A7
:1036B00082F848008A78550713D4D60733D582009C
:1036C00002F1A042D2F8005725F00205C2F80057D7
:1036D000204EC50800F007070122BA40775D3A4343
:1036E00072558A780D7812F0020225D09B0003F102
:1036F000804303F5C0430202D3F8101521F447318B
:1037000021F44071C3F810152D04D3F8101502F4FC
:10371000F85205F440352A430A43C3F81025002027
:10372000BAE70133B5E74D7800F5E0724FF0A046F7
:10373000AD0046F82250CBE7083B234493F85010E5
:1037400041EA851583F85050E9E70820A4E700BF57
:1037500050080020A408002038B51F4C251895F902
:103760003020072A17DD224492F8481089090329DE
:103770000CD14FF0A043D3F81035C34013F0010F24
:1037800008BF0221BDE83840FFF70CBF012914BF74
:1037900003210221F6E7D3B2072B1CD8930003F1D3
:1037A000804303F5C043D3F8100540F00100C3F88F
:1037B000100502F14000800080B2FFF7E7FE51B132
:1037C00095F9303054F823302BB1012303FA02F27B
:1037D000024BC3F8042338BD5008002000600040AD
:1037E0004FF0A043D3F8103523FA00F000F00100A9
:1037F000704700002DE9F34700244C4D01944FF42D
:103800008072012102F1804303F5C04390B21B682E
:10381000012B06D1D5F804330B4202D0FFF7B6FED8
:103820000C430432B2F5907F4FEA4101EAD1404B9C
:103830001B68012B0CD14FF4BE70FFF7A7FE4FF0B1
:10384000A04344F00044D3F820250192C3F820257A
:1038500014F0FF0F1AD0374F01260025344210D044
:10386000AB0003F1804303F5C043D3F81005D3F850
:10387000101557F8253023B1C1F30141C0F30420DE
:1038800098470135082D4FEA4606E7D1002C46DA65
:10389000284F4FF0A046DFF8A0804FF0000A4FF00D
:1038A000010918F9011B4B1C2DD0CAB222F0C0042B
:1038B00002AB03EBD40313F8041C02F0070309FA6C
:1038C00003F319421FD004F5E073204656F8235045
:1038D000C5F30145022D0CBF03210221FFF762FE53
:1038E00009FA04F3C6F820353B1993F9303057F83C
:1038F000233043B19109032903D0022D12D10129AC
:1039000001D1204698470AF1010ABAF1040FC8D143
:10391000D6F820350193C6F82035002BBBD102B074
:10392000BDE8F087032DEED10229E9E700600040F1
:103930007C61004050080020A008002000F1804376
:1039400082B01A68002A14BF0120002004D000228F
:103950001A601B680193019B02B070474FF08043CF
:1039600010B5D3F80443610707D54FF48470FFF70F
:10397000E5FF10B10D4B1B689847A20608D54FF420
:103980008A70FFF7DBFF18B1094B00201B689847CE
:1039900063060AD54FF48C70FFF7D0FF28B1044BB3
:1039A00001201B68BDE81040184710BDAC0800207E
:1039B000B008002008B5FFF7D1FFBDE80840FFF7C9
:1039C000B9BD2DE9F347002406460F46904600F5A1
:1039D000A0754FF48039A2462B688BB1D6F804331A
:1039E00009FA04F21A420BD0C5F800A02B68019323
:1039F000A00000F5A070019B80B2D7E90031984784
:103A00000134A04505F10405E6D102B0BDE8F08718
:103A1000042202490248FFF7D4BF00BFB4080020C7
:103A200000800040042202490248FFF7CABF00BFDD
:103A3000C008002000900040042202490248FFF71D
:103A4000C0BF00BFCC08002000A0004006220249F1
:103A50000248FFF7B6BF00BFD808002000A0014011
:103A6000062202490248FFF7ACBF00BFE40800206D
:103A700000B0014013B5064C23683BB1054B1B68F1
:103A800098470023236023680193019B02B010BD77
:103A900000010140F00800200B2808B512D10A4BA4
:103AA0005B88022B09D90948094B0A49C01AC0088A
:103AB000000440F00300FFF7ABFA0320BDE8084024
:103AC000FCF794BE08BD00BF18000020544300005E
:103AD000244300009F54000008B5FFF7DFFC18B135
:103AE000BDE80840FDF72CB808BD000008B5FFF799
:103AF000B5FD90B9FFF774FD084B5B88022B0246B9
:103B00000BD90748074B08491B1ADB081B0443F075
:103B10000300BDE80840FFF77FBA08BD1800002089
:103B20002443000054430000BC54000007B54FF488
:103B300080410020FEF7F0FE08B1FDF701F8FFF725
:103B4000E1FBFDF78FF808B1FCF7FAFFFFF7C4FFC0
:103B5000FFF7CCFF00210120FCF7B6FD08B1FCF710
:103B6000EFFF0B4B1A889B78ADF804208DF80630D8
:103B7000084A012301A90B208DF80530FFF778FDD5
:103B800008B1FCF7DDFF01210B20FFF7E5FDFEE7A3
:103B90009C540000993A0000044B1868421C04BF72
:103BA000034B1878831F584258417047300100106A
:103BB000E00F00F0064B1868083B1B78062B05D178
:103BC000C0F30310C31E584258417047002070478D
:103BD000E80F00F008B5FFF7DFFF28B1804B814AFE
:103BE0001B68C3F304231360FFF7E4FF10B17E4B9F
:103BF0007E4A1A60FFF7D0FF28B17D4B7D4A1B68D3
:103C0000C3F342331360FFF7D5FF20B17A4AD3687C
:103C100023F08073D360FFF7BFFF40B14FF08043C4
:103C20000022C3F80C21C3F81021C3F83825FFF790
:103C3000C1FF10B1714B03221A60FFF7BBFF40B107
:103C40006F4B05221A6001229A6700229A603F2278
:103C50005A606C4B1A68511C0BBF6B4B6B4B1A783C
:103C60001B6802BF08331B68C3F30313062A49D13C
:103C7000033B012B46D94FF08052654BD2F8041418
:103C8000C3F82015D2F80814C3F82415D2F80C1480
:103C9000C3F82815D2F81014C3F82C15D2F8141450
:103CA000C3F83015D2F81814C3F83415D2F81C1420
:103CB000C3F84015D2F82014C3F84415D2F82414E0
:103CC000C3F84815D2F82814C3F84C15D2F82C14B0
:103CD000C3F85015D2F83014C3F85415D2F8341480
:103CE000C3F86015D2F83814C3F86415D2F83C1440
:103CF000C3F86815D2F84014C3F86C15D2F8442400
:103D0000C3F87025FFF748FF28B1424B424A1B68B1
:103D100003F04F031360FFF73FFF48B14FF08043BC
:103D2000D3F80024D20744BF6FF00102C3F8002487
:103D3000344B1B68062B09D1344B1B68033B022B09
:103D400081BF364A136843F480631360344AD2F863
:103D5000883043F47003C2F88830BFF34F8FBFF34D
:103D60006F8F4FF01023D3F80022002A03DBD3F823
:103D70000432002B2FDA2B4B0122C3F80425D3F891
:103D80000024002AFBD04FF010221521C2F80012A7
:103D9000D3F80024002AFBD04FF010231522C3F8DB
:103DA0000422204B1A46D3F800140029FBD000212E
:103DB000C3F80415D2F80034002BFBD0BFF34F8FAB
:103DC0001749194BCA6802F4E0621343CB60BFF392
:103DD0004F8F00BFFDE7154B154A1A6008BD00BFA5
:103DE000240300104035014074C007400DF0ADBA07
:103DF000440200103C050040F0ED00E0A00500404A
:103E00001056004030010010E00F00F034010010A7
:103E100000C0004058020010E40E00403C17004073
:103E200000ED00E000E001400400FA057C01002004
:103E30000090D0030369C1688B429DBF8268D2188D
:103E400002F1FF3203F1FF3394BF501A581A704742
:103E50002DE9F041D0E9027405463E1B40689642C8
:103E600020448846144404D900F086F9EC60BDE88B
:103E7000F0813246E41B00F07FF9224608EB060190
:103E80006868F1E72DE9F843C56806468946174694
:103E90004FF000083469B3687068A54228BFE41881
:103EA000013C621B5C1BBC4228BF3C46944228BFBD
:103EB000144649462844224600F05EF9B36825447A
:103EC000AB4208BF00253F1BA044A144F560E1D1EF
:103ED0004046BDE8F883000010B5114C114AA261BC
:103EE0000223C4E90433104BE361A2644FF400736E
:103EF0000E4A2362E264002310220D49A362E01DF2
:103F00006362E362A3656365E365226500F090F98F
:103F10000849204600F08CF92023A37110BD00BF92
:103F2000F4080020CD5400007C0900206C0900201A
:103F3000D6540000DA540000F8B5184C182300FBE2
:103F4000033503FB00402544C46A012C0F46164686
:103F500011D024B1022C1BD000242046F8BD2846E5
:103F6000FFF768FFB042F8D3324639462846FFF7DC
:103F70006FFF3446F1E72846FFF75CFF8642344680
:103F800028BF0446224639462846FFF761FFE4E78A
:103F90002846BDE8F840FFF775BF00BFF4080020D1
:103FA000FFF79ABF53EA020C61D02DE9F04BB3FA48
:103FB00083F51E0007BFB2FA82F502FA05F403FA90
:103FC00005F41646C5F120051EBF22FA05F73C434D
:103FD000203556EA044C4FEA144418BF0134A34676
:103FE0004FF00009C846904271EB030C39D30942E7
:103FF00007BFB0FA80F700FA07F6B1FA81F701FAC5
:1040000007F6C7F120071EBF20FA07FC46EA0C0698
:104010002037B6FBFBFC7F1B103F07F01F04C4F1E9
:1040200020060CFA04F42CFA06F644BF34460026A7
:10403000202FA4BF2646002454EA060C08BF012402
:1040400018EB040849EB0609A4FB027CC01B06FB25
:1040500002CC04FB03CC71EB0C01904271EB030C1E
:10406000C5D20B46024649464046BDE8F08BB2FB3E
:10407000F3F200007F2805D8034B185C034B5B5C10
:104080001840704700207047E45400006455000059
:10409000A0F16103192B98BF20387047A0F14103AC
:1040A000192B98BF203070477F2805D8034B185C28
:1040B000034B5B5C1840704700207047E4540000DD
:1040C00064550000A0F16103192B98BF2038704798
:1040D000A0F14103192B98BF203070477F299ABF68
:1040E000017001206FF02E0070475AB10A787F2AC4
:1040F0000AD800B10260002119605960501A18BF37
:1041000001207047002070476FF02E0070470000BC
:1041100008B5034B5B689B681B68984708BD00BFE8
:104120008001002008B50821FFF7F2FF08BD08B59F
:104130000921FFF7EDFF08BDE2B170B41546012A71
:1041400013D003788BB10A789A420ED14B1C441CD1
:1041500001394A1920461946934206D014F8015BEA
:104160001DB101330E78AE42F4D000780B78C01A3E
:1041700070BC704700207047844640EA010313F08A
:10418000030F18D18446202A0BD32DE9F007B1E89C
:10419000F807A0E8F807A2F12002202AF7D2BDE82C
:1041A000F007042A07D351F8043B40F8043BA2F17E
:1041B0000402042AF7D2002A05D011F8013B00F8C6
:1041C000013B013AF9D1604670478446002A2DD060
:1041D00010F0030F04D000F8011B013A26D0F7E7D6
:1041E000C9B241EA012141EA0141202A12D3A2F1D8
:1041F00020022DE9F0030B460C460D460E460F46F5
:1042000088468946A0E8FA03203AFBD2BDE8F003CD
:1042100020320BD0042A05D340F8041B043A05D001
:10422000042AF9D200F8011B013AFBD1604670471D
:10423000024610F0030F16D111F0030F13D12DE930
:10424000F0004FF001374FF0803351F8044BA4EBEE
:10425000070525EA04051D4002D142F8044BF4E7A6
:10426000A1F10401F0BC11F8013B02F8013B002B65
:10427000F9D1704710F0030F19D111F0030F16D1C7
:104280002DE970004FF001364FF0803350F8044BA9
:1042900051F8045BAC4205D1A4EB060525EA040500
:1042A0001D40F3D0A0F10400A1F1040170BC10F88E
:1042B000012B11F8013BD21A01D1002BF7D1104686
:1042C000704700F1010110F0030F11D010F8012B1D
:1042D000002A23D010F0030F0AD010F8012B002A77
:1042E0001CD010F0030F03D010F8012B002A15D0BA
:1042F0002DE970004FF001324FF0803350F8044B3D
:10430000A4EB020525EA04051D4000D1F6E7A0F163
:10431000040070BC10F8012B002AFBD1A0EB0100B7
:024320007047E4
:104324007A540000000000008054000000000000E7
:1043340087540000000000008D54000000000000BD
:104344009254000000000000985400000000000097
:1043540082530000000003037D45000000000000BC
:10436400AA450000000000001B45000000000003F7
:104374000045000000000003354500000000000374
:1043840058450000000000039845000000000003A9
:104394008653000000000003984C00000000000059
:1043A4007454000000000000B14C00000000000044
:0843B400AC4D00000000000008
:1043BC00640200202C030020340300206C02002037
:0C43CC00380000208D5300001800000095
:1043D800000000008046000000000000FC490000CA
:1043E8000000000064490000000000006848000068
:1043F800000000005848000000000000BC4C00000D
:08440800000000003451000027
:1044100068540000000000004854000074010020AF
:10442000000000000000000000000000000000008C
:10443000000000000000000000000000000000007C
:10444000000000000000000000000000000000006C
:10445000000000000000000000000000000000005C
:0C44600000000000000000000000000050
:10446C000000000000000000000000000000000040
:10447C000000000000000000000000000000000030
:10448C000000000000000000000000000000000020
:10449C000000000000000000000000000000000010
:0C44AC0000000000000000000000000004
:1044B80000000000000000000000000000000000F4
:0C44C800000000000000000000000000E8
:1044D4000D000300D90300000E000300D9030000FF
:1044E4000F000300D903000010000300D9030000EB
:1044F400B8000020E0000020080100206170705F17
:1045040074696D65722E6D5F6273705F6275747429
:104514006F6E5F746D72006170705F74696D657247
:104524002E6D5F6273705F616C6572745F746D721F
:10453400006170705F74696D65722E6D5F62737077
:104544005F6C6564735F746D720011121314000064
:10455400300100206170705F74696D65722E6D5F4B
:10456400646574656374696F6E5F64656C61795FBB
:1045740074696D65725F6964006170705F627574FF
:10458400746F6E000100060000000000DC010020D2
:104594005B0B000061746669666F2E6D5F726571F6
:1045A4005F6669666F006170705F74696D65720043
:1045B40000000000BC450000F2520000B6460000B6
:1045C400000000007D10000000000000000000005A
:1045D4000000000000000000426164206172677501
:1045E4006D656E7420636F756E740025730D0A0912
:1045F4002D20456C656D656E742073697A653A0982
:104604002564202B202564206279746573206F66ED
:1046140020646562756720696E666F726D61746986
:104624006F6E0D0A092D2055736167653A0925756A
:10463400252520282575206F7574206F6620257523
:1046440020656C656D656E7473290D0A092D204D06
:104654006178696D756D3A092575252520282575BC
:10466400206F7574206F6620257520656C656D65F7
:104674006E7473290D0A0D0A0000000090460000B4
:1046840097460000B44500007D10000062616C6C28
:104694006F6300436F6D6D616E647320666F72208B
:1046A40042414C4C4F43206D616E6167656D656E90
:1046B40074005072696E7420737461747573206F22
:1046C400662062616C6C6F6320696E7374616E63E3
:1046D40065732E002563001B5B6D001B5B48001B8C
:1046E4005B324A001B5B3F336C001B5B366E002061
:1046F4002D20001B5B256442001B5B256444001BCA
:104704005B256443001B5B25644100000338FDD82E
:1047140070472D682C202D2D68656C7000000000FA
:10472400000000002C470000574B00005E4B0000C7
:10473400A4470000AD180000754B00007A4B000040
:10474400DC470000111B00008B4B0000914B000064
:104754006C470000ED18000000000000000000009D
:10476400000000000000000000000000744700008A
:10477400C84D0000A14B000000000000791B0000A0
:10478400CD4B0000D24B000000000000A11B000034
:104794000000000000000000000000000000000015
:1047A40000000000AC470000CD480000694C000048
:1047B40000000000891A0000B3510000814C000081
:1047C40000000000AB1A0000000000000000000020
:1047D400000000000000000000000000E4470000AA
:1047E400CD480000FC4B000000000000CD1A000082
:1047F400B3510000584C000000000000EF1A000004
:1048040000000000000000000000000000000000A4
:10481400000000001C4800000B4B0000134B00007C
:10482400000000003119000000000000000000003A
:10483400000000000000000025733A2077726F6EBC
:104844006720706172616D6574657220636F756E47
:10485400740A0000F74A0000FD4A0000000000004E
:1048640015180000CF4A0000D34A00002447000076
:10487400551800004C6F7374206C6F67733A2025D1
:10488400750A4D6178206C6F6720717565756520B8
:104894007574696C697A6174696F6E3A202575253F
:1048A40025205B25752F25755D0A0025733A257330
:1048B40025730A0020756E6B6E6F776E20706172BF
:1048C400616D657465723A20006F666600456368C1
:1048D4006F207374617475733A2025730A005B2525
:1048E40033645D2025730A004E6F20726573706F08
:1048F4006E73652066726F6D2074686520746572CE
:104904006D696E616C2C20617373756D65642038FC
:10491400307832342073637265656E2073697A650A
:104924000A004F7074696F6E733A0A002020252DB7
:104934002A733A0053686F7720636F6D6D616E64FC
:104944002068656C702E0020202573257325730064
:10495400537562636F6D6D616E64733A0A00000093
:10496400B64A0000BE4A000000000000151A00000C
:104974006E6F74207465726D696E617465643A203B
:1049840025630A003A20636F6D6D616E64206E6F5B
:104994007420666F756E64002D68002D2D68656C3B
:1049A4007000506C65617365207370656369667926
:1049B400206120737562636F6D6D616E642E0A00F1
:1049C4005461622066756E6374696F6E3A20636F1A
:1049D4006D6D616E647320636F756E746572206FA4
:1049E400766572666C6F7765642E0A000A257325F6
:1049F40073000A25730000000F4A0000164A0000E5
:104A040014480000611900002C2000726573697A53
:104A14006500436F6E736F6C6520676574732074F3
:104A240065726D696E616C2073637265656E207367
:104A3400697A65206F7220617373756D65732038B0
:104A44003020696E20636173652074686520726527
:104A540061646F7574206661696C732E20497420DB
:104A64006D7573742062652065786563757465641B
:104A74002061667465722065616368207465726D77
:104A8400696E616C207769647468206368616E671D
:104A94006520746F20656E7375726520636F727222
:104AA400656374207465787420646973706C6179CB
:104AB4002E00686973746F727900436F6D6D616E57
:104AC4006420686973746F72792E00636C69005591
:104AD400736566756C2C206E6F7420556E69782D25
:104AE4006C696B6520434C4920636F6D6D616E6426
:104AF400732E00636C65617200436C656172207390
:104B0400637265656E2E0064656661756C74004140
:104B14007373756D65203830206368617273207318
:104B2400637265656E20776964746820616E6420C1
:104B340073656E6420746869732073657474696E38
:104B44006720746F20746865207465726D696E6186
:104B54006C2E00636F6C6F727300546F67676C65C3
:104B640020636F6C6F7265642073796E7461782E44
:104B7400006563686F00546F67676C6520434C4938
:104B8400206563686F2E00737461747300434C492D
:104B940020737461746973746963732E005265734E
:104BA400657420434C492073746174697374696338
:104BB4007320666F7220746865204C6F6767657236
:104BC400206D6F64756C652E0073686F77004765A0
:104BD4007420434C492073746174697374696373FA
:104BE40020666F7220746865204C6F676765722059
:104BF4006D6F64756C652E0044697361626C652029
:104C0400434C49206563686F2E204172726F77733D
:104C140020616E6420627574746F6E733A20426111
:104C2400636B73706163652C2044656C6574652CDB
:104C340020456E642C20486F6D652C20496E736589
:104C4400727420617265206E6F742068616E646C8A
:104C540065642E00456E61626C6520434C49206595
:104C640063686F2E0044697361626C6520636F6CC6
:104C74006F7265642073796E7461782E00456E617D
:104C8400626C6520636F6C6F7265642073796E74F7
:104C940061782E00636C695F756172740030313223
:104CA4003334353637383941424344454670777298
:104CB4005F6D676D74000000854D0000974600002D
:104CC400CC4C0000D520000000000000D44C0000B3
:104CD400F25200008B4D000000000000D5200000BF
:104CE40000000000000000000000000000000000C0
:104CF4004F766572666C6F77004E6F206F766572C3
:104D0400666C6F770025730D0A092D20456C656D5F
:104D1400656E742073697A653A0925640D0A092D54
:104D24002055736167653A09257525252028257561
:104D3400206F7574206F6620257520656C656D6520
:104D44006E7473290D0A092D204D6178696D756D96
:104D54003A092575252520282575206F7574206F3F
:104D64006620257520656C656D656E7473290D0A62
:104D7400092D204D6F64653A090925730D0A0D0A42
:104D8400007175657565005072696E742073746185
:104D9400747573206F6620717565756520696E730F
:104DA40074616E6365732E00736F72746C697374CF
:104DB40000466174616C206572726F72005379737E
:104DC40074656D2072657365740000000338FDD846
:104DD400704752544320696E7374616E6365206139
:104DE4006C726561647920696E697469616C697A51
:104DF40065642E005254433A20696E697469616C8B
:104E0400697A65642E0025733A257325730D0A00AB
:104E1400656E61626C65640064697361626C65648B
:104E24000025730D0A092D205374617475733A209B
:104E340064656163746976617465640D0A0D0A00C2
:104E440025730D0A092D205374617475733A202556
:104E5400730D0A092D2049443A2025640D0A0D0AD0
:104E6400004E6F7420737570706F727465642E0DCC
:104E74000A00656E61626C65004261642070617253
:104E8400616D6574657220636F756E742E0D0A0012
:104E940064697361626C6500556E6B6E6F776E202A
:104EA4006F7074696F6E3A2025730D0A004C657635
:104EB400656C20756E617661696C61626C652066F3
:104EC4006F72206D6F64756C653A2025730D0A004E
:104ED400556E6B6E6F776E206D6F64756C653A25D9
:104EE400730D0A00556E6B6E6F776E207365766571
:104EF40072697479206C6576656C3A2025730D0AA5
:104F0400002A004C6F6773206172652068616C74BD
:104F14006564210D0A006D6F64756C655F6E616D6B
:104F24006500252D343073207C2063757272656EA4
:104F340074207C206275696C742D696E200D0A00E2
:104F44002D2D2D2D2D2D2D2D2D2D2D2D2D2D2D2D8D
:104F54002D2D2D2D2D2D2D2D2D2D2D2D2D2D2D2D7D
:104F64002D2D2D2D2D2D2D2D2D2D2D2D2D2D2D2D6D
:104F74002D2D2D2D2D2D2D2D2D2D0D0A00252D34CE
:104F84003073207C20252D3773207C2025732573D6
:104F94000D0A0000010000009D25000054070020B8
:104FA4007F000000D407002001000000DD2900007C
:104FB400010000005525000075530000BB4D0000A2
:104FC4007A530000705300006A5300006A530000D3
:104FD400BB4D000070530000755300007A5300006D
:104FE40000000000EC4F0000944E0000B651000099
:104FF400AC4F000071260000764E00001F520000E6
:10500400B44F000071260000A2520000A552000017
:105014000000000065260000B4520000B9520000F0
:105024000000000059260000F2520000EB5200007C
:10503400000000004D2600000000000000000000F9
:1050440000000000000000000000000054500000B8
:10505400F9520000FE52000000000000D9280000B0
:10506400305300003653000000000000F92800000F
:10507400000000000000000000000000000000002C
:10508400000000008C5000005054000079510000D2
:10509400984F000000000000935100009A51000056
:1050A4004C50000000000000944E0000B651000077
:1050B400AC4F0000DD2B0000764E00001F520000B4
:1050C400B44F0000DD2B0000A2520000A5520000E6
:1050D4000000000093250000B4520000B952000003
:1050E4000000000081250000C6520000D4520000D8
:1050F4000000000015280000F2520000EB520000EE
:1051040000000000092D0000000000000000000065
:105114000000000000000000496E76616C696420A4
:105124006261636B656E643A2025730D0A000000AA
:10513400555100005951000084500000D12700004F
:105144004261636B656E647320666C757368656435
:10515400006C6F6700436F6D6D616E647320666FE2
:105164007220636F6E74726F6C6C696E67206C6F03
:1051740067676572004C6F67676572206261636B75
:10518400656E647320636F6D6D616E64732E00636E
:105194006F6E666967004D616E616765206C6F674D
:1051A40067657220636F6E66696775726174696F93
:1051B4006E00276C6F672064697361626C65203CC4
:1051C4006D6F64756C655F303E202E2E203C6D6FD4
:1051D40064756C655F6E3E272064697361626C65FB
:1051E40073206C6F677320696E20737065636966E2
:1051F400696564206D6F64756C65732028616C6CDF
:10520400206966206E6F206D6F64756C6573207302
:105214007065636966696564292E00276C6F672071
:10522400656E61626C65203C6C6576656C3E203C05
:105234006D6F64756C655F303E202E2E2E20203CF1
:105244006D6F64756C655F6E3E2720656E61626C80
:105254006573206C6F677320757020746F206769A5
:1052640076656E206C6576656C20696E207370655A
:10527400636966696564206D6F64756C6573202865
:10528400616C6C206966206E6F206D6F64756C654F
:105294007320737065636966696564292E00676F9E
:1052A40000526573756D65206C6F6767696E670082
:1052B40068616C740048616C74206C6F6767696E18
:1052C40067006C6973745F6261636B656E6473001D
:1052D4004C69737473206C6F6767657220626163D5
:1052E4006B656E64732E004C6F6767657220737410
:1052F40061747573006C6F6164004C6F616420634A
:105304006F6E66696775726174696F6E2073746F0E
:1053140072656420696E206E6F6E2D766F6C617499
:10532400696C65206D656D6F72792E0073746F7290
:10533400650053746F72652063757272656E7420B4
:10534400636F6E66696775726174696F6E20696EEA
:10535400206E6F6E2D766F6C6174696C65206D655F
:105364006D6F72792E00646562756700696E666F91
:10537400006E6F6E65007761726E696E67006170B2
:10538400700062616C6C6F632E6C6F675F6D656D2E
:10539400706F6F6C00000000CC53000010540000CC
:1053A400D153000018540000205400002854000079
:1053B400305400003854000040540000202530329E
:1053C4007800202020007C001B5B306D001B5B31CB
:1053D4003B33316D0025734C6F67732064726F70BB
:1053E400706564202825642925730D0A003C257303
:1053F4003E2025733A20000000000000BB4D000051
:105404007A530000705300006A5300001B5B313B69
:1054140033306D001B5B313B33326D001B5B313B22
:1054240033336D001B5B313B33346D001B5B313B0D
:1054340033356D001B5B313B33366D001B5B313BF9
:1054440033376D007274745F6C6F675F6261636B96
:10545400656E640000000000000000000338FDD801
:1054640070470000E933000055340000E5330000C4
:10547400636C6F636B00434C4F434B004750494F81
:1054840054450054494D455200554152540055412C
:105494005254450057445400010002424437343109
:1054A4003147204D61676E6574206669656C6420C0
:1054B40044657465637421006770696F74655F691E
:1054C4006E69742025640D0A005465726D696E61FD
:1054D4006C005254540053454747455200000000A5
:1054E4002020202020202020206828282828202050
:1054F40020202020202020202020202020202020A8
:10550400481010101010101010101010101010105F
:1055140084848484848484848484101010101010FF
:105524001081818181818101010101010101010158
:10553400010101010101010101010110101010100C
:105544001082828282828202020202020202020229
:1055540002020202020202020202021010101020D1
:1055640000070320041702010857104080000000C0
:1055740018570000DC550000F056000053756E000B
:105584004D6F6E005475650057656400546875006E
:105594004672690053617400000000004A616E00A5
:1055A400466562004D617200417072004D61790080
:1055B4004A756E004A756C0041756700536570004A
:1055C4004F6374004E6F7600446563000000000072
:1055D400414D00504D0000001457000010570000CA
:1055E400105700001057000010570000105700001B
:1055F400105700001057000010570000105700000B
:10560400FFFFFFFFFFFFFFFFFFFFFFFFFFFF0000A4
:1056140050560000805500008C560000A055000034
:10562400D455000034560000E456000040560000F3
:10563400256D2F25642F2579000000002561202584
:1056440062202565202554202559000053756E6479
:105654006179004D6F6E646179005475657364619E
:1056640079005765646E6573646179005468757276
:105674007364617900467269646179005361747579
:1056840072646179000000004A616E75617279008C
:105694004665627275617279004D6172636800419A
:1056A4007072696C004D6179004A756E65004A75C7
:1056B4006C79004175677573740053657074656D1A
:1056C400626572004F63746F626572004E6F766537
:1056D4006D62657200446563656D62657200000009
:1056E40025483A254D3A2553000000007540000036
:1056F400914000009D400000A9400000C54000000A
:10570400D1400000DD400000EB400000000000003C
:105714002E00000043000000504F53495800000081
:105724000000000000000000000000000000000075
:105734000000000000000000000000000000000065
:105744002400002000000000000000000000000011
:105754000000000000000000000000000000000045
:1057640000000000000000002800002000000000ED
:105774000000000000000000000000000000000025
:105784000000000000000000000000000000000015
:105794002C000020000000000000000000000000B9
:1057A40000000000000000000000000000000000F5
:1057B4000000000000000000300000200000000095
:1057C40000000000000000000000000000000000D5
:1057D400000000003400002000100140110004000B
:1057E40000000000FF0000000090D003745500008A
:1057F4007455000074550000745500007455000081
:040000030000037581
:00000001FF
