:020000022000DC
:1060000000000120756302005D6302005F6302000F
:106010006163020063630200656302000000000028
:1060200000000000000000000000000067630200A4
:1060300069630200000000006B6302006D630200F0
:10604000019802006F630200099C0200E1A60200B1
:106050006F6302006F630200C19A02006F63020067
:106060006F6302006F6302006F6302006F630200E0
:106070006F630200319D02006F6302006F630200D4
:106080006F630200CD6E02006F6302006F63020057
:10609000696F02006F630200E12A03006F63020070
:1060A0006F6302006F6302006F6302006F630200A0
:1060B0006F6302006F630200000000000000000038
:1060C0006F6302006F6302006F6302006F63020080
:1060D0006F6302006F6302006F6302000000000044
:1060E00000000000000000000000000000000000B0
:1060F00000000000000000000000000000000000A0
:10610000000000000000000000000000000000008F
:10611000000000000000000000000000000000007F
:10612000000000000000000000000000000000006F
:10613000000000000000000000000000000000005F
:10614000000000000000000000000000000000004F
:10615000000000000000000000000000000000003F
:10616000000000000000000000000000000000002F
:10617000000000000000000000000000000000001F
:10618000000000000000000000000000000000000F
:1061900000000000000000000000000000000000FF
:1061A00000000000000000000000000000000000EF
:1061B00000000000000000000000000000000000DF
:1061C00000000000000000000000000000000000CF
:1061D00000000000000000000000000000000000BF
:1061E00000000000000000000000000000000000AF
:1061F000000000000000000000000000000000009F
:10620000354936480A1A02D0072291438D4634494F
:1062100034480A1A06D00722914381F309880222E2
:1062200082F3148830483149314A00F044F831484B
:106230003149324A00F03FF831483249324A00F0E1
:106240003AF832483249334A00F035F83248334997
:10625000334A00F030F833483349344A00F02BF821
:1062600033483449344A00F026F83448344900228F
:1062700000F02CF833483449002200F027F8334866
:106280003349091A082902DB002202604160314AC1
:1062900090471F481F49884205D00268043003B464
:1062A000904703BCF7E700208646EC46002000211B
:1062B000294A9047FEE7884207D0521A05D0037852
:1062C00001300B700131013AF9D17047884202D098
:1062D00002700130FAE770470000012000E0002062
:1062E0000000012000000120D8C60300E42B00209C
:1062F0005C2C0020D0630200D0630200386E0300E3
:10630000D8C60300E42B0020E42B00201C700300FF
:106310001C7003001C7003001C7003001C70030041
:106320001C7003001C7003001C700300D8C603001F
:1063300050C703005C2C00205C2C00205C2C00204B
:106340002849002028490020284900202849002009
:10635000286900209D630200E5CE0200FEE7FEE70B
:10636000FEE7FEE7FEE7FEE7FEE7FEE7FEE7FEE705
:1063700000F002B8FFF7FCBF0F484FF00701884359
:1063800085460E4880470E48016841F4700101605F
:10639000BFF34F8FBFF36F8FFFF732BF09480A4932
:1063A0000A4A884207D0521A05D0037801300B7090
:1063B0000131013AF9D170470000012015D50200E2
:1063C00088ED00E008700300D02B0020E42B0020B3
:1063D000022004F099BC00002DE9F04781460D46EB
:1063E00004F0B2FC0328044604D8012D04D025B3E0
:1063F000022D2FD0BDE8F087194D47003A18A91893
:10640000AE5C4A7852B1DFF86880164842464FF4D5
:10641000004100F047FF08B988F800903B192B4471
:106420009A78114B1A55002EE4D0104B1B68002BA4
:10643000E0D03046BDE8F04718470A4800F07CFF3E
:10644000074B04EB440213449E78074B1B5DB34299
:10645000D0D1E8E7024B00EB40041C446678E2E749
:10646000C02C0020802C0020D92C0020D42C00200F
:106470005C2C002002210078FFF7AEBF08B5094B65
:106480001B7853B1002004F015FC012004F012FC2D
:106490000320BDE8084004F00DBCBDE8084004F04E
:1064A00015BC00BF5D2C0020F8B57B4C2378054659
:1064B0001BB100232370FFF7E1FF172D00F2888046
:1064C000DFE805F00C17174354657680888D888DBA
:1064D000959A9A9A9A9AC4C9D1D9E4E4FFF7CEFF63
:1064E0006E4800F029FF6E4B002204461A702046C9
:1064F000F8BD002004F0C4FBF8B1002004F0DAFB82
:10650000022D0CBF4FF4E1614FF47A61644B1D70B2
:106510004FF400404FF4FA740025E0FB01454FF4BE
:106520007A720023204629460DF042FE00220146E1
:106530005A48BDE8F84000F0B5BE04F0AFFB022DAC
:106540000CBFC8214FF4C871E0E7002004F098FBAD
:1065500040B1002004F0AEFB4FF44871504B0322D1
:106560001A70D5E704F09AFBC821F7E7002004F081
:1065700087FB38B1002004F09DFB4FF47A61484B53
:106580000422EDE704F08AFB4FF4C871F7E700201E
:1065900004F076FB48B1002004F08CFB404B052250
:1065A0001A7041F69A110022C2E704F077FBF5E772
:1065B000002004F0A9FB3A4B06221A70002240F694
:1065C000CD41B5E7002004F069FB354B07221A7076
:1065D00000248CE70120207004F096FBEEE70120F8
:1065E000207004F091FB00224FF48041A0E704F0FA
:1065F0007CFB2B4B0C22EAE72A482B4E00F09CFE3A
:10660000D5F1110504461CD0D8B9012D13D0C823EB
:106610005D434FF400474FF4FA7000214FF47A7253
:106620000023C7FB05010DF0C3FD224601461D48AE
:1066300000F038FE0446022004F030FB01233370E2
:1066400055E7022004F036FB0023F8E7FFF716FFBA
:10665000134B1222BBE7FFF711FF002004F01EFBD3
:106660000F4B1322B3E7FFF709FF012004F016FBDD
:106670000B4B1422ABE7FFF701FF002004F00EFBE9
:10668000012004F00BFB064B1522A0E704F02DFBC4
:10669000034B1D709CE700BFD02C0020A02C0020D5
:1066A000D82C0020602C00205D2C0020044B1B689F
:1066B000DB0703D5034B1878FFF7F6BE704700BF22
:1066C000CC2C0020D82C0020032801D804F02EBBAD
:1066D00000207047044B1B6813F0010301D0FFF743
:1066E000E3BE1846704700BFCC2C002038B51C4BC9
:1066F00018601C4B10F00204054619601AD01A4BA2
:106700001A480E221A700F22DA7010229A71112282
:106710005A72042140F2666200F054FA044648B905
:1067200000F0A6FA044628B90146114A114800F0C3
:10673000A7FD0446EB0711D5012004F01DFB6CB941
:1067400021460D4A0D4800F09BFD044630B90C4A25
:106750000C480121BDE8384000F092BD204638BD0C
:10676000CC2C0020D42C0020C02C00201C70030056
:106770007564020040700300AD66020044700300BF
:10678000D16302003C700300032813D8012A0BD107
:10679000012908D100F10E02D2B200EB40000C4BEF
:1067A0001A540020704700220129F6D04BB24BB199
:1067B000022901D007207047054B00EB4000184428
:1067C0004270EEE7024900EB400008448270E8E7BF
:1067D000C02C0020032808B512D804F0C7FA8000A6
:1067E00000F1A040D0F8003723F44033C0F8003760
:1067F000D0F8003743F44033C0F80037002008BD1C
:106800000620FCE708B5012202210020FFF7BCFFAB
:1068100008B1072810D1072202210120FFF7B4FF99
:1068200008B1072808D100210A220846FFF7ACFF6B
:1068300010B1072808BF002008BD00000388102BF6
:1068400010B502D0112B1ED010BD1A4C2168B1B961
:1068500001220846FFF798FF08B1072824D1072234
:1068600002210120FFF790FF08B107281CD1042264
:1068700002210020FFF788FF08B1072814D1236800
:1068800001332360E0E70B4A1368013B1360002BE0
:10689000DAD1FFF7B7FF0028D6D0074B1B68002BD3
:1068A000D2D0BDE810401847034B1B68002BE6D040
:1068B0009847E4E7E42C0020E02C002008B50020F5
:1068C000FFF788FF08B1062806D10120FFF782FFF5
:1068D00010B1062808BF002008BD00000D4B10B500
:1068E00018600C4629B10120FFF7EEFE40B10223EB
:1068F0002370094B1B6853B9BDE81040FFF782BFF6
:10690000FFF7E2FE08B10B23F2E72070F1E7002069
:1069100010BD00BFE02C0020E42C002006F02CB8B5
:106920000021084605F0DCBF10F1360F0AD058B13F
:1069300048F2115248F2165310F1380F0CBF1046AE
:106940001846704748F21450704708B5084611467B
:1069500002F096FE002008BD37B50446002002F084
:1069600011FE054678B90434204605F0F9FC00957F
:106970002B462A460549204605F047FD03B0BDE8F1
:106980003040FFF7D1BF03B030BD00BF4B690200FC
:1069900008B5043005F0E9FC02F020FE002008BD37
:1069A00008B5043005F0CAFDBDE80840FFF7BCBFDC
:1069B00008B5114604301A4605F0E5FCBDE808406C
:1069C000FFF7B2BFC30710B507D4F0234008054A4C
:1069D000145C23401943115410BD0901C9B20F239F
:1069E000F4E700BF182D002030B5094B1C78094B87
:1069F000196800239C4202DC0022104630BD11F8C9
:106A00003350854201EBC302F7D00133F2E700BFF8
:106A1000E82C0020282D002070B504460D46FFF715
:106A2000E3FF30B1436823B129462046BDE87040FA
:106A3000184770BD034B044819680022490800F04C
:106A400031BC00BFEC2C0020F02C002010B5C0B2EF
:106A5000FFF7CAFF0446007803F028F863785A1E4F
:106A600053425341834208D1044BD3E900231343DB
:106A700003D1BDE81040FFF7DDBF10BD102D002091
:106A800037B54308364AD35CC2074CBF1B0903F035
:106A90000F0304460D46042B36D8DFE803F0032627
:106AA0002D393D0081B30121FFF78CFF00230DF14B
:106AB00007008DF8073000F059FC0122A4F12003F3
:106AC000C4F12000274902FA03F322FA00F003433D
:106AD00002FA04F4D1E9002014430343C1E900435E
:106AE0009DF8070000F066FC0EE0002918BF0221A7
:106AF0002046FFF767FF07E041B10321FFF762FF80
:106B000001212046FFF788FF03B030BD0121EFE7E8
:106B10000029F9D10421EBE709B10321E8E7FFF7E8
:106B200051FF29462046FFF777FF0DF107008DF84A
:106B3000075000F01BFC0122A4F12003C4F1200047
:106B4000084902FA03F322FA00F0034302FA04F4BC
:106B5000D1E9002022EA040420EA0303BEE700BFD3
:106B6000182D0020102D00202DE9F041124E134F5A
:106B700000243378A34208DC114BD3E900231343EC
:106B800018D0BDE8F041FFF755BF3D6805EBC408DC
:106B900015F8340002F08AFF98F801104B1E594294
:106BA00059410A1A514215F834005141FFF768FF64
:106BB0000134DEE7BDE8F081E82C0020282D00201C
:106BC000102D0020092AF7B505460C4616463DD97A
:106BD00002F0AAFED8B11E4B1E481D601E4B1F4F6F
:106BE0001C701F4B002110221E600DF027FC1D4B56
:106BF00000200021C3E90001013CE4B20326FF2C80
:106C00000BD1194A1948002100F03AFB03E002F0C9
:106C10004DFE0028DFD003B0F0BD20B29DF8063055
:106C20008DF8046005EBC00223F007038DF80630F1
:106C300001A9937815F830008DF805303A4602F036
:106C40007DFE013CE4B20028D9D0E4E70720E2E76A
:106C5000282D0020182D0020E82C00204D6A02006D
:106C6000EC2C0020102D0020696B020048700300FE
:106C700070B5084D084E00242B789C4201D30020AB
:106C800070BD3368012113F8340002F0CBFE0134EB
:106C9000F2E700BFE82C0020282D00201FB50021BE
:106CA000039001AA44F20100CDE9011100F004F8BB
:106CB00005B05DF804FB000010B572B604F060FC8E
:106CC00004F0AAFA0028FBD1104B114C1149E41A28
:106CD000E408240444F0010004F0EEFB0E4B1B68B2
:106CE000DB0700D500BE0D4944F0020004F0E4FBD0
:106CF000BFF34F8F0A490B4BCA6802F4E06213439B
:106D0000CB60BFF34F8F00BFFDE700BFF86E0300FD
:106D1000306F030057700300F0ED00E06370030074
:106D200000ED00E00400FA052DE9F3472B4D2B8818
:106D30008B4206460C4617464CD34FF000080DF127
:106D400007008DF8078000F011FB254B254A1878C5
:106D50001178CBB2244909888B4238BF0133C0B2C5
:106D600038BF5FFA83F840452ED092F80080137840
:106D7000DBB2994286BF0133DBB2002313709DF86A
:106D8000070000F017FB4FF6FF73984524D0DFF89B
:106D900060A0DAF800304FEAC80903EB090243F8B3
:106DA0003870A6B19CB1114B28881B68224608FB9D
:106DB000003031460DF019FBDAF800304B4400206A
:106DC0009C8002B0BDE8F0874FF6FF78D7E700203F
:106DD0009080F6E70920F4E70420F2E7382D002040
:106DE0003C2D00202C2D00203A2D0020302D00209D
:106DF000342D0020094A537891780133DBB299424F
:106E000008BF0023117899421FBF037050781823E0
:106E100003FB002014BF043000207047402D0020E9
:106E200073B5054600240DF107000E468DF80740A6
:106E300000F09CFA0DF10600FFF7DCFF90B1067040
:106E4000094B9DF8062045605A709DF8070000F038
:106E5000B1FA24B9054B4FF48012C3F80021204643
:106E600002B070BD0424F0E7402D002000E100E0F6
:106E7000024B4FF43C6043F001031847707003006D
:106E800038B50E4B4FF40032C3F88020BFF34F8F5C
:106E9000BFF36F8F0A4C4FF480330125C4F8483399
:106EA000C4F808336560FFF7E3FF064BA5600024D4
:106EB0001C60FFF7DDFF044B1C7038BD00E100E0F3
:106EC000001001405C2E00204D2E0020F8B51F4B15
:106ED0001F491B680025C1F84051C1F84451C1F851
:106EE0004851C1F84C51C1F80051C1F804514BB39D
:106EF000D1F8044517490968641A24F07F442F46E5
:106F00001A68A24209D8A41A15441A7CDE691AB17B
:106F10001F74D3E905209047AEB90F4A0F4B117883
:106F20001B788B4205D10133DBB2022B08BF002353
:106F3000137012780A4B43F822500A4B4FF4801218
:106F4000C3F80021F8BD3346DAE700BF602E002009
:106F5000001001405C2E0020592E0020582E0020E9
:106F6000502E002000E100E02DE9F04FA14AA24997
:106F700013780978A14D994285B03CD00133DBB23A
:106F8000022B08BF002313709D4912789D4B0F6898
:106F900053F822003B1823F07F4300220B602B683C
:106FA00016461446944613B942B12B6006E01968A0
:106FB00081420ED902B12B60091A196001272B6892
:106FC000DFF848A201934FF00008BEB9DFF844B2E1
:106FD00066E0401A0C44D968C3F800C0D3F81CE03E
:106FE00031B13A1922F07F42C3E90121DE611E4628
:106FF00001227346D7E700263746E0E73446F669B4
:107000007F4A63681268DFF810C2A068991A21F0FD
:107010007F41614500F2A680014421600122227473
:107020002A680023C4E90133E361002A40F0A38009
:107030002C60CAE75A1C9BF80210D2B291428BF81E
:10704000002004BF00228BF80020182202FB03B3AB
:107050001A799C68022A1CD0032A12D0012A1FD157
:10706000207CE8B9D3E90312A2605A69E2609A6908
:10707000654BA2611B78002B0CBF0B460346636077
:10708000BEE700222B681146002B67D142B12B606E
:1070900006E029680A468946002A5AD1002323744B
:1070A0009BF800309BF801209A42C3D12B68B8F1BD
:1070B000000F04D1019A9A4201D1002F43D0002B36
:1070C00073D0D3F800A0514D4D4BD5F804751C6812
:1070D000DFF848813E1B98F8003026F07F460336E3
:1070E0009BB94FF48033C5F84433C5F80433484B9B
:1070F0004FF40032C3F880211A604FF00109C5F83F
:107100000090FFF7B5FE88F80090B2452CBF5444BC
:10711000A41924F07F44C5F84045D5F80435DB1B9D
:1071200023F07F43E41B033324F07F44A3420AD9B6
:10713000D5F80435C5F84035FFF79AFE344B4FF4C7
:107140000032C3F80021304B00221A7005B0BDE8B0
:10715000F08F94422CD09146D2699DE71974012298
:10716000DB6991E7D31A23F07F43834234BFC31A0C
:107170000023236052E721681368994213D8591AF3
:107180001160E26154E7091AD8691A4638B103461A
:1071900018688842F7D3401A1860184613462160D1
:1071A000E061DC6111E71346F2E7FFF769FECAE729
:1071B0004C4511D1CB692B6073B9DFF844E0012055
:1071C000CDE90212CAF80800CEF800300E4B187054
:1071D000FFF74EFEDDE902121368D269C9F81C20E0
:1071E00012B11068034413602B68994218BF4FF026
:1071F000010853E7582E0020592E0020602E002051
:107200005C2E0020502E00204C2E0020001001404B
:1072100000E100E0402D0020FEFF7F004D2E002009
:1072200008B5FFF72DFE104B00200B2218809A7036
:107230000E4B18600E4B18700E4B18700E4B4FF41F
:107240008012C021C3F8802183F814131A6002F160
:107250008042A2F56F22C2F8080583F81113074B8C
:10726000D2F804251A6008BD402D0020602E0020B1
:10727000582E0020592E002000E100E05C2E002056
:10728000074B9B784BB132B128B10368187C20B909
:1072900059745A617047072070470820704700BF33
:1072A000402D00202DE9F7431F4FBB7805460E46C1
:1072B0009046B3B3A8B31D4B4A1F9A422FD84369D7
:1072C0007BB3437C0024012B0DF107000CBF8946E2
:1072D000A1468DF8074000F049F80DF10600FFF7D0
:1072E00089FDD0B101230370114B4560D3F80435FB
:1072F000C0E90498C0E902369DF806307B709DF81D
:10730000070000F057F824B90A4B4FF48012C3F875
:107310000021204603B0BDE8F0830424EFE70724F2
:10732000F7E70824F5E700BF402D0020FAFFFF0033
:107330000010014000E100E0064A92783AB130B115
:10734000426922B1002202740221FFF769BD0820C0
:10735000704700BF402D0020014BD3F80405704753
:1073600000100140401A20F07F40704770B5EFF3E5
:10737000108672B60C4A946801239CB993600B4B3B
:107380000B4DD3F8801029401160C3F88050D3F81A
:10739000841051604FF0FF32C3F88420047006B9A6
:1073A00062B670BD0370FAE7642E002000E100E0D1
:1073B000FC06FFBD084B9A6810B55AB150B9EFF3FF
:1073C000108172B6054A1C6814605C68546098604D
:1073D00001B962B610BD00BF642E002000E100E0DC
:1073E00070B5064D0646002455F8043B0BB13046F7
:1073F00098470134042CF7D170BD00BF7C2E0020CB
:10740000033080B240F2FE33984230B51FD8134BA0
:107410001A783AB91C895D892C440444A4B2B4F5A5
:10742000806F0AD91A7DAAB99A8BDC8B2244024458
:1074300092B2B2F5806F0DD801220A801446142250
:1074400002FB04335A8910445881002030BD48F2B1
:107450000860FBE748F20660F8E700BFB02E0020A6
:107460000B4A0C4B5188142000FB0131CB6833B917
:107470000420496810700122074801F067BB05230A
:107480000649137002238B80012200230968F3E769
:10749000942E0020B02E0020D02B0020782F00202A
:1074A00007B5002305490093054A096805480823E4
:1074B00001F0B6FA03B05DF804FB00BF782F00209E
:1074C00084700300D02B002007B5002300930146F1
:1074D0000823034A034801F0A3FA03B05DF804FB54
:1074E0007C700300D02B002013B500230C460093C2
:1074F00001460423074A084801F092FA38B9074BBD
:10750000142202FB04340123237402B010BD48F29C
:107510000D60FAE778700300D02B0020B02E002019
:1075200037B50A480A4B42689C8819685388032576
:10753000033305709BB2002000909B0001EB840197
:10754000044801F06DFA03B030BD00BF942E002056
:10755000782F0020D02B002010B50146044800F001
:10756000E6FE1C22044600210CF068FF204610BDF8
:10757000642F002068B10268084B9A4209D1406824
:10758000074B984207D0013398420CBF01200320DB
:107590007047032070470020704700BFDEC0ADDE9B
:1075A000FE011EF14388033300EB830399420BD3A2
:1075B00082884FF6FF739A4208D0038833B18068FF
:1075C000431C5842584170470220704701207047C1
:1075D0002DE9F8430223DFF860800B800D46174643
:1075E00000F5805600F108044FF00109B4420FD2B3
:1075F000236801330CD031462046FFF7D3FF48B152
:107600000FB187F8009002280BD14FF480632B80D4
:10761000BDE8F883A368D8F80020934201D9C8F8E0
:1076200000302B886288033313442B806388033334
:1076300004EB8304DAE700BFA82E0020154A1423C8
:1076400003FB002070B50B6844680D4604F58056B6
:10765000ABB15C88033403EB8404B4420DD22368DD
:1076600001330AD031462046FFF79CFF01280BD09A
:1076700010F0FF0F05D00228EFD1002003E00834FE
:10768000EBE72C60012070BD6388033304EB8304B7
:10769000E3E700BFB02E0020436873B504460D46F3
:1076A0006BB3244AD1688B4229D31269934226D8FE
:1076B00013F0030023D1204A2189128991421ED15F
:1076C00021689A6891421AD11C4A51688B4203D9A9
:1076D00001F580518B420DD3926993420CD902F58A
:1076E0008052934208D201232B80B0FA80F04009E7
:1076F00002B070BD0346F7E748F20960F5E70023E2
:107700002B801E46019601A92888FFF797FF30B904
:107710002B8801339BB2012B2B80F3D9E8E7019B27
:10772000226899689142EED16360034B1B892381E3
:10773000DEE700BFD02B0020942E0020B02E0020CA
:107740002DE9F8431C461D4B1B7806460F4615468F
:1077500073B382B37CB3DFF86C804FF01409A38855
:10776000012B02D948F2096020E009FB03F318F865
:1077700003302BB92146A088FFF760FF20B92060B5
:10778000A3880133A380EAE723681EB19988328871
:107790009142EFD11FB119883A889142EAD19A6893
:1077A000C5E90023064B1B892B810020BDE8F88327
:1077B00048F20160FAE748F20460F7E78C2E0020F7
:1077C000942E0020B02E002008B5074B191D5888B4
:1077D000FFF734FF18B1BDE80840FFF7A1BEBDE8D0
:1077E0000840FFF73DBE00BF942E00202DE9F04F6A
:1077F000A34FDFF8B09289B00646B8463B6823B97C
:107800004946A04800F0CDFD3860D8F800502978EE
:107810004B1E052B00F2FE80DFE813F0060060002F
:107820006000F200F20064012EB1974B00225A6012
:107830004FF40644F0E02B79032B1DD8DFE803F06A
:1078400015022B3691490B78022B08461AD00B7D76
:10785000022B4FF0010317D114225343C21800200A
:10786000C8545068FFF730FE03E001232B71FFF787
:1078700017FE002800F0BE80834B00225A6048F2B9
:107880000D64C9E00023E7E77F4A137000235360CB
:1078900041F61D54C0E07E497E48002302222B7130
:1078A0008A800122096801F051F9E2E7784C00264C
:1078B0002E712068754DFFF707FE774BD4F800C096
:1078C0005A8814235343EA18EE5451682160A18862
:1078D000C2F804C011810222A280CAE7B5F814A040
:1078E000AA7DDFF8A8B1AEB1022AEB8806D914212F
:1078F00001FB0AB1DA1C088902440A81142202FB46
:107900000ABAC3F57F43BAF80A20FD331344AAF834
:107910000A308DE7142303FB0AB318895C6804EB73
:107920008004062A69D8DFE802F0274E36441D5A43
:10793000040041F61D54AA7DEB88022A06D91421C1
:1079400001FB0AB1DA1C088902440A81142202FBF5
:107950000ABAC3F57F43BAF80A20FD331344AAF8E4
:107960000A3059E04D484E4900234360AB6903603B
:10797000FFF792FE002874D00223AB75002300931A
:107980000423EA182146434801F04AF8002831D080
:1079900048F20D64CFE72B69002B14BF03230123AA
:1079A000AB750023009305F10C02042304F10801D8
:1079B000E9E70123AB750022EB8800929B002A695E
:1079C00004F10C01DFE703290CBF05230623AB7587
:1079D00000230093042305F10802E118D3E70623EE
:1079E000AB752F4B19882D4B5868FFF77DFD04466A
:1079F0000028A0D109B0BDE8F08F48F20E649AE7E4
:107A0000002E7FF415AF2B79012B4DD0EBB1022B5B
:107A10003FF43EAF48F20E641422002103A80CF09C
:107A20000DFD41F61D539C4208BF0024D8F80030DC
:107A300004941A78023A042A00F20A81DFE812F06C
:107A4000EB00F7001A012201290102232B710DF12D
:107A50000A01EB68039303A8CDE90466FFF71CFE57
:107A600010B948F20964D7E70498BDF80A10838872
:107A7000EB8003882B81FFF737FD044629E000BF28
:107A8000AC2E0020642F00208C2E0020B02E002071
:107A9000782F0020D02B0020942E0020702E002064
:107AA000842F0020A42E0020DFF804A203AA53464E
:107AB0003146A81DFFF744FE044668B9BAF8041021
:107AC0000498FFF711FD044648F209639C423FF415
:107AD000DFAE002CA0D18DE70822314650460CF0D5
:107AE000ADFCF1E7002E7FF4A3AE6C4B1A7BAAB17C
:107AF0001E731A78013A062A8CD801A151F822F097
:107B0000AB7B0200D17B0200EF7B0200F57B020021
:107B1000157A0200FB7B02000D7C02001A78072A0E
:107B2000E7D801A151F822F0497B0200F37A020064
:107B3000F37A02006F7B0200837B0200A77B0200C6
:107B4000A77B02006B7B02001A89554901321A811A
:107B500000225A801A730A78B2FA82F252099A7293
:107B60000A7DB2FA82F25209DA72012207E04D4927
:107B700058688A884088033202448A8002221A7038
:107B8000B7E7474C5A884749142505FB0242086865
:107B9000546850608888108102200C608880002121
:107BA00011740622EBE70722E9E79A7A32B9DA7A0A
:107BB0008AB900221A705A805A6069E63849002250
:107BC0009A72CA68002AF2D1097C0029EFD05A8043
:107BD000FFF7FAFD51E70022DA72314A116A0029F3
:107BE000E7D192F82420002AE3D00122EFE7FFF743
:107BF00097FC42E7FFF734FC3FE7294A5B881421F2
:107C000001FB03235868FFF75FFC36E700225A6048
:107C1000FFF746FC31E701228DF80C201A89ADF8F8
:107C200018209A88DB68ADF81A20059310E002222C
:107C30008DF80C201A89ADF818209A88ADF81A2012
:107C4000DA689B7D05929A1F534253418DF81C3090
:107C500003A8FFF7C5FB002649461348C8F8006093
:107C600000F0CAFB0121114800F079FC00287FF4E4
:107C7000C5ADBFE603228DF80C20DA88ADF81820D8
:107C80001A89CFE70422DB888DF80C20ADF8183074
:107C9000DEE705238DF80C30DAE700BF942E0020D4
:107CA000B02E0020782F0020642F0020742F002099
:107CB000882F00204068FFF799BD000008B501211A
:107CC000044800F036FC18B9BDE80840FFF78EBD47
:107CD00008BD00BF742F00202DE9F3419846374BB3
:107CE0001B7806460D46002B5CD000295DD0098824
:107CF0004FF6FF7399425BD06B88002B58D06B68AE
:107D00009B0758D14AB92F890DF102013846FFF778
:107D100077FB30B102B0BDE8F08113885788ADF829
:107D2000023001A8FFF718FC044660B9BDF8023024
:107D3000234A142101FB032358890338C01B5881AF
:107D400048F20760E6E700238375BDF802308382BE
:107D50006B68036180F8008001211A4800F0F4FB91
:107D60002B882381B8F1030F6B88A38004BF042301
:107D7000A3754FF0000508BF3368E06008BFA3613A
:107D8000E780658101A9104800F0FBFA36B1E3688D
:107D900033600E4B75601B89B5723381FFF78EFF20
:107DA0000020B7E748F20160B4E748F20460B1E7A9
:107DB00048F20360AEE748F20260ABE78C2E002089
:107DC000B02E0020A82E0020642F0020942E00202A
:107DD00008B5084B1A68042A09D01968064A42F8FF
:107DE00021000121184600F0AFFB002008BD48F239
:107DF0000B60FBE7802F00207C2E00202DE9F04F48
:107E000089B01422002103A80CF018FB784A1378DB
:107E100003F0FF01009190463BB103A8FFF7E0FAA1
:107E20000027384609B0BDE8F08F101D00F0A2FB16
:107E30000028F5D140F6F8734FF080521B685C1CA7
:107E400008BF6C4B6C4C08BF1B6811695269581C09
:107E500008BF02FB01F323610022A3F540536749E9
:107E6000E360204600F0A8FD019407460028D8D121
:107E70001C238C2262496348DFF89CB100F022FA8F
:107E8000BA463D464FF003093C46019BDE68564426
:107E90003046FFF76FFB012860D042B2002A4AD07B
:107EA000032827D13268531C02D0574B9A4234D151
:107EB000321D06F58051106801302ED104329142F6
:107EC000F9D1DBF800203AB902220123CBF8006097
:107ED000ABF8042000930BE0142262434B4B0220CA
:107EE000991898544A4A4E60548001340881A4B2CB
:107EF00045F001050AF5805ABAF5405FC5D1B9F1E0
:107F0000010F98BF0025EDB2022D03D0062D44D0FD
:107F1000002D4CD148F20A6783E73C4914226243A2
:107F2000881809F1FF394660032088541FFA89F93F
:107F30000134A4B2DEE735491420604301EB000CA4
:107F40000A5400F1100208300A44CCF804600144DD
:107F50003046FFF73DFB45F00205E9E7009B6BB1BA
:107F60002A4B14226243991802209854DBF800200F
:107F70004A60274A088154800134A4B2002225496E
:107F8000CBF800603046FFF723FBBBF80420022A41
:107F90000CBF042208221543ACE7012388F8003007
:107FA00003A80023C8F80430FFF71AFA39E702A83B
:107FB000FFF7D2FAC8B10123013D03700A2D09D899
:107FC000DFE805F006080608070807080F110F008C
:107FD0000023037102A90B4800F0D3F9FFF76EFEEE
:107FE0001FE70323F5E70223F3E748F2076718E7E3
:107FF0008C2E002014100010D02B00208072030063
:10800000D82E0020642F0020DEC0ADDEB02E002070
:10801000942E00207C2F0020782F002073B50D4671
:108020000446C8B1C1B10DF10601FFF735FBB0B18F
:108030000C4BBDF806006668142202FB00300121DB
:108040000C3000F081FA63682E600C336B60012302
:10805000A372002002B070BD48F20460FAE748F253
:108060000960F7E7B02E002013B50446A8B10DF162
:108070000601FFF711FB98B10C4ABDF80630142138
:1080800001FB0323DA6872B1A27A62B1DA680020D8
:10809000013ADA60A07202B010BD48F20460FAE75B
:1080A00048F20960F7E748F20560F4E7B02E0020D7
:1080B00002230022FFF710BE18B103230022FFF7AE
:1080C0000BBE48F204607047114B1B7813B5044691
:1080D000ABB14FF6FF73984214D001A8FFF73CFAFA
:1080E00098B10523037001230371C48001A90948D5
:1080F00000F047F9FFF7E2FD002002B010BD48F2A2
:108100000160FAE748F20360F7E748F20760F4E736
:108110008C2E0020642F00200F4B1B7807B5A3B1D5
:1081200001A8FFF719FA98B10623037001A90B48BB
:1081300000F027F90A4B1A780AB101221A73FFF7E7
:10814000BDFD002003B05DF804FB48F20160F9E7D3
:1081500048F20760F6E700BF8C2E0020642F002055
:10816000942E002007B5ADF80600ADF804100DF10F
:10817000060001A9FFF7E4FA03B05DF804FB07B5B8
:108180001346ADF806000A4600200DF10601FFF780
:10819000D7FA03B05DF804FB07B51346ADF8060047
:1081A0000A460DF106000021FFF7CAFA03B05DF898
:1081B00004FB20B119B103680B600020704748F23E
:1081C000046070472DE9F84F3C4B1B780446002BA8
:1081D0006ED000286FD012220021DFF8E4A00CF04E
:1081E0002DF9032323804FF0000BD04614274FF0C6
:1081F0000109DAF80410BAF80A50BAF8086008461B
:10820000FFF7B8F9032808BF2388628804BF03F189
:10821000FF33238007FB0B832E44DB68134463800A
:1082200023891D4463892581B6B233446381C6F531
:108230008066A389B6B2B34238BFA68101F10805B2
:1082400001F58056AE4217D92B68013314D0314660
:108250002846FFF7A7F9012819D010F0FF0F23D007
:108260000228EFD1E38884F81090761BE58901336A
:1082700005EBA605E380E5810AF1140ABBF1000FC6
:1082800002D00020BDE8F88F4FF0010BB1E7E38882
:108290000133E380E3896A8803331344E3816B8805
:1082A000033305EB8305CDE7A3880133A380F6E70D
:1082B00048F20160E6E748F20460E3E78C2E002014
:1082C000B02E002010B561B1B2FBF3F403FB14240F
:1082D000A4B244B9C0E9001484608281C3812046FD
:1082E00010BD0E20FCE70920FAE782B050E8022F0B
:1082F000C188B2EB324F4FF0000317BF92B241EA90
:10830000014142EA014104E04268B2EB324F08BF4A
:10831000012340E80212002AE8D18DF807309DF8C9
:108320000730002B0CBF1120002002B0704737B57A
:1083300050E8013F9DB2C48925448489A54228BFE5
:108340002D1B0489A54202BFBFF32F8F002207E037
:10835000C5EA030540E80154002CE9D14FF00102C1
:108360008DF803200193019B9DF803200B6002F020
:10837000FF0322B10B880068184403B030BD1846D3
:10838000FBE70A884B889A4209D150E8012FC2EADC
:10839000024240E80123002BF7D101207047002062
:1083A000704737B550E8023F1FFAA3F5C488A542CD
:1083B00002BFBFF32F8F00220DE0C48925448489BA
:1083C000A54228BF2D1BC3EA054540E80254002CF6
:1083D000E8D14FF001028DF803200193019B9DF835
:1083E00003200B6002F0FF0322B14B8800681844A1
:1083F00003B030BD1846FBE70A884B889A4209D182
:1084000050E8022FC2EA224240E80223002BF7D1B3
:10841000012070470020704701F01F024B09012125
:10842000914000EB830000F063B84B0910B501F0F8
:108430001F040121A14000EB830000F04EF8E04052
:1084400000F0010010BD01F01F0301229A404B090A
:1084500000EB8300D14300F061B84B0901F01F012C
:1084600050F82300C84000F0010070472DE9F047A4
:108470004E1E760980460F460136002558F82540E5
:1084800008EB8509E44394FAA4F4B4FA84F44FEABF
:10849000451A202C06D10135AE42EFD83C46204685
:1084A000BDE8F0875444A742F5D921464046FFF77E
:1084B000BCFF0028F3D0D9F80040E44394FAA4F4B8
:1084C000B4FA84F4E5E750E8002F0B4640E8003C9E
:1084D0009CF0000FF7D11046704750E8002F42EA99
:1084E000010340E8003C9CF0000FF6D110467047B5
:1084F00050E8003F43EA010240E8002C9CF0000FE6
:10850000F6D11046704750E8002F02EA010340E818
:10851000003C9CF0000FF6D11046704750E8003F39
:1085200003EA010240E8002C9CF0000FF6D110464F
:10853000704750E8002F02EB010340E8003C9CF03C
:10854000000FF6D11046704750E8003F03EB0102E0
:1085500040E8002C9CF0000FF6D11046704750E820
:10856000003FA3EB010240E8002C9CF0000FF6D185
:10857000104670470121FFF7B0BF0121FFF7B8BFD8
:108580000021FFF7C0BF10B590B1D0E90123016809
:108590009B1ADBB20A60013BDBB2FF2B026802D1FF
:1085A0000020107110BD11684C1C14600B70F2E7B4
:1085B0000E20F7E737B5054600240DF107008DF8CA
:1085C0000740FEF7D3FE2A686B68116899420ED9FE
:1085D000481E106011F8014CEB68298A01FB043435
:1085E000AB6811791B1ADBB2994238BF13719DF841
:1085F0000700FEF7DFFE204603B030BD37B5054665
:1086000000230DF107000C468DF80730FEF7AEFE93
:108610002A681368591C1160E968641A298AB4FB36
:10862000F1F41C709DF80700FEF7C4FE03B030BDE6
:10863000826810B504462AB1436901680069984709
:108640000023A36010BD0EB403B5039921B104ABA0
:1086500001AA019300F074F802B05DF804EB03B0D6
:1086600070470A2938B504460D4602D10D21FFF79F
:10867000F8FFA3682268591CA160D554D4E90132DF
:108680009A4204D32046BDE83840FFF7D1BF38BD39
:108690002DE9F84F9946DDE90A4317468246884698
:1086A0000A460126BA420FD24E4538BF4E4613F055
:1086B000010B01D164B900240125B9F1010F1AD9C8
:1086C00009F1FF397D43F8E7B2FBF7F20136E9E73C
:1086D0009B070ED5B9F1000F0CBF30252025A6420F
:1086E000EAD2013C29465046FFF7BBFF002CF6D1E9
:1086F000E1E72025F3E7B8FBF5F39F42E2D9DFF885
:108700003C90B8FBF5F3504619F8031005FB1388AD
:10871000FFF7A7FFB5FBF7F3BD4207D2BBF1000F90
:1087200002D00CB1A64203D3BDE8F88F1D46E8E79E
:1087300020215046013CFFF794FFF2E795700300BB
:108740002DE9F74F054617468846002900F030818D
:1087500018F8011B49B92B7B002B00F02981284612
:1087600003B0BDE8F04FFFF763BF252940F0C0809C
:10877000002698F800302D2B424608F1010823D03E
:10878000302B24D02B2B25D000242A2B02F10101E1
:1087900023D13B681A1D1B683A601C440A461378B3
:1087A0002E2B26D101324FF00009104610F8011B84
:1087B000A1F1300CBCF1090F1DD80A2303FB0913EA
:1087C000A3F130090246F0E746F00106D1E746F092
:1087D0000206CEE746F00406CBE711F8013CA3F110
:1087E00030000928DBD80A2202FB0434303C0A4658
:1087F000CBE74FF0000912F8011B01F0FB006828DD
:108800009046F8D069290ED04AD8582964D006D8A5
:1088100025296DD098F80030002B99D19BE763296A
:1088200062D06429F6D13A68D2F800A0111D8AEA14
:10883000EA723960A2EBEA724FF0010B092A5BDCA5
:10884000CB4538BFCB462CB1BAF1000F01DB720724
:1088500000D5013CB30702D5B9F1000F04D0F007F1
:1088600002D4002C4ED10024BAF1000F52DACAF122
:10887000000A2D212846FFF7F4FE06F00302022A23
:1088800005D1B9F1000F02D1002C47D10024CDE968
:1088900000464B460A2251462846FFF7F9FEB9E743
:1088A00073294CD014D87029B4D13B681A1D3A6092
:1088B000302128461C68FFF7D4FE78212846FFF7B0
:1088C000D0FE00220823CDE9003221461022E3E742
:1088D00075292BD078299DD139680A1D3A60CDE9D8
:1088E00000464B46102228E03B681A1D19783A6072
:1088F0002846FFF7B6FE8DE70A230BF1010BB2FB0A
:10890000F3F29BE7A345AFD220212846013CFFF7B5
:10891000A8FEA6E77107B0D52B21ABE7A345B6D2D9
:1089200030212846013CFFF79CFEADE73968CDE9D0
:1089300000460A1D3A604B460A220968ACE73B68CC
:108940001A1D3A6016F00106D3F800A020D1BAF142
:10895000000F03D050460BF0C6FD0646B44200D9C6
:10896000C4B90AF1FF3A1EE028460136FFF779FE46
:108970001AF806100029F7D1A642BFF44BAF002C1D
:108980003FF448AF20212846013CFFF76AFEF3E799
:108990000026EDE720212846013CFFF762FEDDE7D7
:1089A0002846FFF75EFE1AF8011F0029F8D131E7CB
:1089B00003B0BDE8F08F000007B50B4688B9124B35
:1089C0001248134AC01A0E23C0080093114B00042A
:1089D000114940F0010002F086FD0E2003B05DF861
:1089E00004FB4BB9084B09480C4AC01AC0080E23B7
:1089F00000930004074BEBE703601B68114603B0CC
:108A00005DF804EB184700BFF86E0300686F0300C1
:108A100052710300A570030057710300CE7103006B
:108A20002DE9F34188B93D4B3D483E4AC01AC00884
:108A30000E243D4B009400043C4940F0010002F03C
:108A400052FD204602B0BDE8F0814AB9334B3448AC
:108A5000374AC01AC0080E2400040094324BEBE7DA
:108A6000D0F800C0BCF1000F09D12C4B2C48314A82
:108A7000C01AC0080824000400942B4BDCE74BB953
:108A8000264B27482C4AC01AC00809240004009429
:108A9000254BD1E74768D7F80480B3FBF8F708FB0C
:108AA00017374FB11D4B1E48244AC01AC00809246D
:108AB000000400941C4BBFE78F0709D0174B1848E0
:108AC0001F4AC01AC008102400040094164BB3E7D4
:108AD00012F0030F09D0114B11481A4AC01AC008EE
:108AE000102400040094104BA6E7C768B9420BD3CA
:108AF0004C1E05691C44AC4206D8DCF80C40A44668
:108B000002B0BDE8F0416047044B05480E4AC01A68
:108B1000C008102400040094034B8DE7F86E030096
:108B2000686F030052710300B770030057710300B0
:108B3000D4710300C871030087710300DA71030068
:108B4000047203001C7203003F720300F7B580B982
:108B50002A4B2B482B4AC01AC0080E242A4B0094DB
:108B600000042A4940F0010002F0BDFC204603B099
:108B7000F0BDD0F800C0BCF1000F09D11F4B204858
:108B8000234AC01AC0080824000400941E4BE8E7DA
:108B90004AB91A4B1A481F4AC01AC00809240004CF
:108BA0000094194BDDE74768D7F800E00EF1FF3776
:108BB0000F4209D0114B1248174AC01AC00810249E
:108BC00000040094104BCCE7C768B9420CD34C1E8C
:108BD00005690EFB0244AC4206D8DCF81040A446FE
:108BE00003B0BDE8F0406047044B05480B4AC01A8B
:108BF000C008102400040094034BB2E7F86E030091
:108C0000686F030052710300CA70030057710300BC
:108C1000C871030087710300DD7003000371030056
:108C200029DF704728DF704770B503689D6886B0FC
:108C300004460E466DB11422002168460BF0FEFB7F
:108C4000A3680593237901962BB1012B0DD06846BB
:108C5000A84706B070BD01238DF800302369029348
:108C6000E368039363690493F1E702238DF800300E
:108C7000E3681B030293F5E708467047002070473E
:108C8000024B187A003018BF012070472C300020AA
:108C9000034B187A0122B0FA80F05A7440097047E9
:108CA0002C30002008B510461A460BF09EFB002021
:108CB00008BD000008B51422002104480BF0BEFBDB
:108CC0000348FFF712FB002008BD00BF2C30002036
:108CD0001C30002010B5094C094B43602046FFF7BB
:108CE00049FC40B909F0E2FE1C2320748C2205499E
:108CF0000548FFF7E7FA002010BD00BF2C30002028
:108D000074720300902F00201C30002070B5244C9A
:108D1000244E237A25463BB923492448FFF741FBDB
:108D2000306008B9606070BD346802232B7223790B
:108D300073B1012B24D020460321FFF775FF0023D8
:108D40002B726B6018491948BDE87040FFF754BB9F
:108D5000D4E90523D21AB2F5805F28BF4FF48052C0
:108D6000D4E903109208012A38BF0122194418449B
:108D7000FFF756FF50B11128DDD101232B72D2E746
:108D8000D4E903031844FFF74DFFF3E72B7C002BD6
:108D9000C9D10146BDE87040022000F009B800BF0B
:108DA0002C30002044300020403000201C300020B7
:108DB00038B5831E012B45D8234C237A002B41D094
:108DC000022B09D1032830D0204B1B680022E2601F
:108DD0001A793AB1012A22D0637C7BBBBDE83840C6
:108DE000FFF794BFD3E905128D1AB5F5805F94BFE4
:108DF000521902F580529A619142EDD102284FF04A
:108E0000000308BF19462372104B18BF0D211868C4
:108E1000FFF70AFF0E490F48FFF7EEFADCE71A6981
:108E200001321A615B699A42E7E7E3680133082B74
:108E300001D8E360D0E70023E360DFE7BDE8384016
:108E400009F024BE38BD00BF2C3000204430002083
:108E5000403000201C30002000F0FD03012B08D121
:108E6000044B00225A74421E504250411874FFF7BE
:108E70004DBF70472C30002010B5064C201DFFF769
:108E800079FB28B9637C1BB9BDE81040FFF73EBFF2
:108E900010BD00BF2C3000202DE9F34180460D4667
:108EA0000F4801A916461F46FFF741FA0446A8B12C
:108EB0001C2200210BF0C2FA2D0B0123237101A902
:108EC000C4F80080A760E56066610548FFF759FABD
:108ED000FFF7D2FF002002B0BDE8F0810420FAE7DE
:108EE0001C3000202DE9F74381468846104801A92F
:108EF00017461E46FFF71BFA0446B0B11C2200219C
:108F00000BF09CFA00250A9BA36001A92571C4F807
:108F10000090C4E9037866610548FFF732FAFFF76D
:108F2000ABFF284603B0BDE8F0830420FAE700BF9A
:108F30001C3000202DE9F047B0F806904479D2F8B3
:108F400000A09DF8208009FB04F4043C06460AEBCF
:108F50000300A0420F4688BFA4EB030A191DC2F804
:108F600000A0B1FBF9F509FB15114DB9A9EB0104FE
:108F7000544528BF5446BAF1000F04D1BDE8F0872C
:108F80003668013DF1E704317B1970182246B8F1CB
:108F9000000F0ED001461846AAEB040A0BF025FA82
:108FA000D145254436684C464FF0000128BF544651
:108FB000E1E71946F0E7FFF7E6BAF8B5467901466A
:108FC000721E0546002393422D6803D30024A64257
:108FD00002D8F8BD0133F6E70F682846FFF70EFB0D
:108FE00001343946F3E72DE9F843068ACD1C0746DC
:108FF000FFF7E0FA043E35440446B5FBF6F5F0B160
:109000004FF48073EDB28380C680013D07608146D6
:109010004FF00008A84512D23846FFF7CBFA0646B3
:1090200048B163790133637108F10108C9F80000A0
:1090300007608146EEE72046FFF7BFFF3446204633
:10904000BDE8F88301210430FFF77EBA10B5012195
:1090500004460430FFF783FA10F0FF0F04D12046D6
:10906000BDE81040FFF7A9BF10BD1FB50392002255
:10907000009203AAFFF75EFF05B05DF804FB1FB581
:1090800003920122009203AAFFF754FF05B05DF896
:1090900004FB41DF70470000064B10B500241C7034
:1090A000054B1C60BFF35F8F0449054800F00DF9C4
:1090B000204610BD5030002054300020A072030024
:1090C0004830002007B500230DF107008DF8073068
:1090D000FEF74CF9F1EE103A23F09F03E1EE103A5F
:1090E000BFF35F8F094B4022C3F884219DF807002E
:1090F000FEF760F909F0DAFC20B1FFF7CAFF03B010
:109100005DF804FB20BF40BF20BFF8E700E100E0AE
:10911000026813685268934291BFD01A8068013088
:10912000801888BFC01A704703682DE9F0411F6896
:109130001D685B689D4284BF83680133164688467C
:109140005D1BC2684168AE42044607FB02110CD8A1
:10915000724340460BF049F9A3683E449E4288BFE3
:10916000002623681E60BDE8F08105FB02F73A4641
:1091700040460BF03AF9E2686168751B6A4308EBF8
:1091800007000BF032F923681D60ECE70368816883
:109190001A685B688B4234BF01330023D31A5842EC
:1091A00058417047F7B5002304460DF107000D46FE
:1091B0008DF80730FEF7DAF82046FFF7E7FF10B129
:1091C000237C002B3CD12268A66853685168B142C9
:1091D00034BF01310021516030B11168A068814273
:1091E00034BF013100211160E2686068511E072917
:1091F00020D8DFE801F004101F141F1F1F182A7861
:10920000C2542046FFF784FF23689A68824200D246
:109210009860002415E02A8820F81320F1E72A68D6
:1092200040F82320EDE7D5E9006700EBC300C0E973
:109230000067E6E7294602FB03000BF0D6F8E0E7FB
:1092400004249DF80700FEF7B5F8204603B0F0BDF2
:10925000F7B506460F461446AAB10DF107000025E2
:109260008DF80750FEF782F83046FFF751FFA04215
:109270000CD3224639463046FFF756FF2C469DF860
:109280000700FEF797F8204603B0F0BD0524F6E787
:1092900037B5054600240DF107008DF80740FEF7AD
:1092A00065F80C22214628680BF0C8F89DF80700E5
:1092B000FEF780F803B030BD836800225A609A60E0
:1092C000C3E90422DA601A6070470B684A68436099
:1092D000934208BF0023016008BF436070474368A2
:1092E00043B10268916852680B449342436004BFE3
:1092F000002343607047000010B50D49A1F594723A
:10930000914201D800200FE08B1ADB1003EBD373DE
:109310005B1002EBC30452F83330834205D802D20B
:1093200004F10802ECE7606810BD2146E8E700BFE1
:10933000F073030008B5FFF7DFFF024B002808BFFA
:10934000184608BDB57203000B7B23B14B68036060
:109350000023037170470B6803600123F9E703687A
:109360004A68896810B5D41A8C428BBF5B180023F9
:109370000360026098BF037110BD03680A688968C2
:1093800010B59C1A8C428BBF5B1A012303600260EC
:1093900098BF037110BD037910B504461BB1FFF7E8
:1093A000DEFF206810BDFFF7E8FFFAE738B5074C8D
:1093B000051E04F1080318BF1C4623682BB11A6868
:1093C00022605B6828469847F7E738BD6030002088
:1093D00020B9054B01225A70FFF7E8BF012802D1DE
:1093E000014A9070F8E770475830002020B9034BCD
:1093F00001225A70FFF7DABF704700BF58300020D3
:1094000038B50E4C2378B3B90D486360A36023616F
:10941000E36000F0C3F9054609F048FB08B900F025
:10942000C9F901232370074BD3F800340BB1012392
:10943000A370284638BD8525F5E700BF58300020C9
:10944000D19302000000014037B50D4C00230DF10F
:1094500007008DF80730FDF789FFE368013BE36003
:10946000E36833B9074BD3F8005415B900F0B4F9E9
:10947000A5709DF80700FDF79DFF03B030BD00BF4C
:109480005830002000000140012813B50DD018B15C
:10949000032820D002B010BD114B0122C3F8802058
:1094A000BFF34F8FBFF36F8FF4E70E4C00230DF126
:1094B00007008DF80730FDF759FF23780BB9FFF748
:1094C0009FFFE3689DF807000133E3600123A37069
:1094D000FDF770FFDEE700F06DF9FFF7B5FFD9E7A4
:1094E00000E100E05830002031DF70471FB5002355
:1094F0008DF807000DF10F008DF80F30FDF736FFE6
:1095000009F0D4FA50B90DF107010848FFF74AFEF7
:109510000648FFF73BFE08B100F0EAFB9DF80F009C
:10952000FDF748FF05B05DF804FB00BF986E03002F
:1095300007B520B103280BD003B05DF804FB0F4B37
:109540001B78012BF8D100F0D3FB00F0D9FBF3E737
:1095500000230DF107008DF80730FDF707FF0748DE
:109560000378012B05D10649013000F081FB00F0A2
:10957000ADFB9DF80700FDF71DFFDDE7BC300020C7
:10958000ED94020013B5124C2378FBB9114A8DF803
:109590000730002808BF10460288A4F801200DF10A
:1095A0000700FDF7E3FE09F081FA30B90A49601CB3
:1095B00000F05EFB40B900F089FB01239DF8070035
:1095C0002370FDF7F7FE002002B010BD8520FBE7F9
:1095D000BC300020B0770300ED94020007B50023F3
:1095E0000DF107008DF80730FDF7C0FE09F05EFAB7
:1095F00018B900F07DFB00F083FB9DF80700FDF734
:10960000D9FE0448FFF744FE034B00221A7003B052
:109610005DF804FB986E0300BC3000202DE9F74391
:109620000024DFF8589005460E46A0460DF10700CD
:109630008DF80780FDF79AFE09F038FA074638B929
:10964000324629464846FFF703FE044600F03EFB3B
:109650009DF80700FDF7AEFE47B131462846FFF7FB
:1096600043FF42F207039842044605D0022CDDD0A6
:10967000204603B0BDE8F0830524F9E7986E0300A7
:10968000F8B505460C4604B9F8BD402C264628BF5F
:109690004026F7B239462846FFF7C0FF0028F9D127
:1096A000A41B3544EFE700001FB503788DF80030A8
:1096B0004368019383688DF80830C3680393054AB3
:1096C000054B684653F8213052F82110984705B0F1
:1096D0005DF804FBC0300020C43000201FB50378C3
:1096E0008DF800304368019383688DF80830C368B3
:1096F0000393054A054B684653F8213052F8211070
:10970000984705B05DF804FBC0300020C43000204D
:10971000F0B5184B077891F81DE043F82720164B59
:1097200016460A6943F82720144B03F807E00C4655
:1097300084460FCC89B06D460FC594E80F0085E8CC
:109740000F000497BEF1000F0AD0002E0C4A6946A4
:1097500008BF32460CF1040000F0EEFD09B0F0BD88
:10976000002E084A694608BF32460CF10C0000F092
:10977000D3FBF3E7C4300020C0300020C830002005
:10978000A9960200DD96020000F18040002382B01D
:10979000036003680193019B02B07047044A137988
:1097A00023B90121106091801846704785207047C9
:1097B000CC300020074B1A68D20704D4C02283F8AB
:1097C000002301221A604FF080430122C3F81825BC
:1097D000704700BF00E100E04FF0804208B502236F
:1097E000C2F808334FF48270FFF7CEFF034B01211C
:1097F0001960D2F81834DB03FBD408BD0C0000401C
:10980000124B1B6810B573B14FF48070FFF7BCFFAB
:109810004FF080430122C3F808230D4B587910B94B
:109820005A711B6898470B4B1B6873B14FF48270D9
:10983000FFF7AAFF4FF080430222C3F80823044B2E
:1098400001201B68BDE81040184710BD0001004012
:10985000CC3000200401004000F1804000F5C04001
:10986000002382B0036003680193019B02B070473C
:10987000800000F1A040D0F8003723F44033C0F856
:109880000037D0F8003743EA0141C0F800177047AD
:10989000054B4FF0FF32072843F8202084BF1B18E8
:1098A00083F84820704700BFD430002010B51A4C10
:1098B00094F858306BBB4FF0FF3222FA03F1C9071E
:1098C00048BFE11803F1010348BF81F83020202B85
:1098D000F3D10021C8B2FFF7DBFF01310C29F9D128
:1098E000042200210D480AF0A9FD0D4BC02283F887
:1098F000062340221A604FF4BE70FFF7ADFF094BFC
:109900004FF00042C3F80423012384F858300020AC
:1099100010BD0820FCE700BFD43000202831002013
:1099200000E100E000600040034B93F85800003075
:1099300018BF0120704700BFD4300020F0B5374B6E
:109940001C1894F93040002C1C4664DA8D78C5F35D
:109950004005002D0BBF082300230C260826B34228
:1099600001D10420F0BD54F8237001373FD12618EF
:1099700044F8232086F8303015B9E21882F8480000
:109980008A78550713D4D60733D5820002F1A04256
:10999000D2F8005725F00205C2F80057204EC5083E
:1099A00000F007070122BA40775D3A4372558A7882
:1099B0000D7812F0020225D09B0003F1804303F5DD
:1099C000C0430202D3F8101521F4473121F440714D
:1099D000C3F810152D04D3F8101502F4F85205F44D
:1099E00040352A430A43C3F810250020BAE7013363
:1099F000B5E74D7800F5E0724FF0A046AD0046F8AF
:109A00002250CBE7083B234493F8501041EA8515D8
:109A100083F85050E9E70820A4E700BFD4300020C5
:109A20002831002038B51F4C251895F93020072A19
:109A300017DD224492F84810890903290CD14FF010
:109A4000A043D3F81035C34013F0010F08BF022123
:109A5000BDE83840FFF70CBF012914BF03210221E4
:109A6000F6E7D3B2072B1CD8930003F1804303F52C
:109A7000C043D3F8100540F00100C3F8100502F10F
:109A80004000800080B2FFF7E7FE51B195F9303019
:109A900054F823302BB1012303FA02F2024BC3F82E
:109AA000042338BDD4300020006000404FF0A043B4
:109AB000D3F8103523FA00F000F0010070470000E1
:109AC0002DE9F34700244C4D01944FF4807201219D
:109AD00002F1804303F5C04390B21B68012B06D10D
:109AE000D5F804330B4202D0FFF7B6FE0C43043224
:109AF000B2F5907F4FEA4101EAD1404B1B68012B40
:109B00000CD14FF4BE70FFF7A7FE4FF0A04344F016
:109B10000044D3F820250192C3F8202514F0FF0F4C
:109B20001AD0374F00250126344210D0AB0003F184
:109B3000804303F5C043D3F81005D3F8101557F848
:109B4000253023B1C1F30141C0F30420984701350A
:109B5000082D4FEA4606E7D1002C46DA284F4FF091
:109B6000A046DFF8A0804FF0000A4FF0010918F975
:109B7000011B4B1C2DD0CAB222F0C00402AB03EB78
:109B8000D40313F8041C02F0070309FA03F3194283
:109B90001FD004F5E073204656F82350C5F3014565
:109BA000022D0CBF03210221FFF762FE09FA04F324
:109BB000C6F820353B1993F9303057F8233043B1BC
:109BC0009109032903D0022D12D1012901D1204688
:109BD00098470AF1010ABAF1040FC8D1D6F8203526
:109BE0000193C6F82035002BBBD102B0BDE8F08749
:109BF000032DEED10229E9E7006000407C610040BE
:109C0000D430002024310020014B1B68184700BFCE
:109C1000303100200E4B984237B50D4602D000205F
:109C200003B030BD00230DF107008DF80730FDF7BC
:109C30009DFB084B1C7914B901221D601A719DF817
:109C40000700FDF7B7FB002CE9D01120E8E700BFC3
:109C50000020004030310020034B984201BF034BED
:109C600000221A601A717047002000403031002035
:109C700010B5124C2278FAB9114B1960037813F021
:109C8000010F104B1EBFD3F8042542F00102C3F8A8
:109C90000425D3F8002222F00102C3F80022437801
:109CA000094A5B01DBB282F80D334FF400531360B5
:109CB00001232370002010BD8520FCE73C310020EB
:109CC0003831002000D0004000E100E0064B0022C7
:109CD0001A6082B01B680193019B044B0122C3F8F8
:109CE00004231A6002B0704700D1004000D0004049
:109CF000024A0123C2F808335360704700D0004085
:109D0000084A0123C2F808335360074B4FF400524E
:109D1000C3F88020BFF34F8FBFF36F8F034B002238
:109D20001A70704700D0004000E100E03C31002094
:109D3000074B00221A6082B01B680193019B054B00
:109D4000D3F80805044B1B68C0B202B0184700BF27
:109D500000D1004000D000403831002000234350A3
:109D600082B043580193019B02B070470A4610B578
:109D70004FF48E71FFF7F2FF136A9168C95C136AA2
:109D800001331362C0F81C1510BD8B690A4610B56B
:109D90004FF4847123B9FFF7E1FFD0F8183510BDF7
:109DA000FFF7DCFF536AD168D0F81805C854536A2E
:109DB00001335362F3E700001FB501238DF8003033
:109DC000044BCDE90110D3E900126846904705B075
:109DD0005DF804FB4031002030B54D4AD2F8043321
:109DE00013F4007F85B015464FD0D2F82431002BF4
:109DF0004BD04FF492711046FFF7B0FF4FF4017350
:109E0000C2F80833434B93F8291009B90121516076
:109E10003F4902228DF80020D1F88024C1F8802427
:109E200003929A690292DA6801920022C3E906223B
:109E30006846D3E9001290473548D0F81C315BB131
:109E400034494A690B6A9A420A464BD991F828303C
:109E5000002B47D1FFF78AFF2D4AD2F8443193B146
:109E60004FF4A2711046FFF779FF2A4B93F829109F
:109E700009B1012111609A692AB100229A61586AD8
:109E8000D968FFF799FF05B030BDD5F804335B07FB
:109E9000D2D5D5F80831002BCED01E4C1C48214617
:109EA000FFF773FF636AA2699A422346C4D1E2694D
:109EB000E1684AB12369E3600023606AA261E3615B
:109EC0006362FFF779FFB7E794F829200AB9012206
:109ED0006A600F4A4FF40170C2F8080300229A61C9
:109EE000586AEEE74FF48E710948FFF737FF536960
:109EF000002BB1D051690291002391688DF8003098
:109F0000019153616846D2E900139847A4E700BF66
:109F100000200040403100202DE9F843534F0479E0
:109F200091462C2202FB0472064692F82A200D4626
:109F3000002A40F095804E490068FFF76BFE80468E
:109F4000002840F0908029683368481C0BD04FF0FF
:109F5000A04001228A40C0F8082501F5E0724FF0C8
:109F6000030C40F822C06868421C1FBF00F5E07275
:109F70004FF0A04C4FF0000E4CF822E0AA6995F883
:109F800014C0C3F824256A7DBCF1010F4CEA02021B
:109F9000C3F86C25C3F81405C3F80C151DD1AA68C5
:109FA000511C1FBF02F5E0714FF0A0404FF0000CB4
:109FB00040F821C0E968481C0BD04FF0A04C0120AC
:109FC0008840CCF8080501F5E0704FF0030E4CF81E
:109FD00020E0C3F80815C3F810252C236343FA18B2
:109FE000C2F804902A69FA50B9F1000F20D04FF45A
:109FF0008E7130682A7FFFF7B1FE4FF4A27130688E
:10A00000FFF7ACFE33681B49C3F804131B0B59B2AE
:10A0100052010029D2B21EDB1748451885F80023EB
:10A020000122490903F01F0302FA03F340F821302B
:10A0300033680422C3F800252C2303FB0473002299
:10A04000C3E9062283F829205A61012283F82A20D5
:10A050004046BDE8F88303F00F030849CA54E7E718
:10A060004FF00808F4E74FF01108F1E74031002005
:10A07000D99D02008000020000E100E014ED00E044
:10A08000F8B503680479304D0022C3F800252C226E
:10A0900002FB04525268A2B12C4AC3F808231B0BDE
:10A0A0005AB2002A0DDB0121520903F01F0301FA05
:10A0B00003F32032264941F82230BFF34F8FBFF31C
:10A0C0006F8F0068D0F80C65D0F81415D0F80835FB
:10A0D000D0F810254FF0FF37BE42C0F8147518BFF6
:10A0E00006F5E076C0F80C75C0F80875C0F8107574
:10A0F0001EBF4FF0A0474FF0020C47F826C04E1C81
:10A100001FBF4FF0A04601F5E071022746F821700D
:10A11000511C1FBF4FF0A04102F5E072022641F82A
:10A1200022605A1C1FBF03F5E0734FF0A0420221CA
:10A1300042F82310FFF790FD2C2303FB0454002367
:10A1400084F82A306360F8BD4031002084020200A8
:10A1500000E100E02DE9F84F224F06794FF02C097D
:10A1600009FB067480466569002D38D16261A160E3
:10A1700025624FF48E71006884F82850FFF7EEFDD9
:10A18000D8F80000012383602146FFF7EFFD6368E4
:10A19000A1469BB9D8F800A0D4F814B0236A9B4517
:10A1A00012D8D8F80020D2F81C31002BFBD00123A4
:10A1B000D3602C2303FB067300225A612846BDE8B6
:10A1C000F88F94F8283043B9DAF81C31002BF8D016
:10A1D00049465046FFF7CAFDE0E70F25E9E711259C
:10A1E000ECE700BF403100200023435082B04358C9
:10A1F0000193019B02B070471FB501238DF8003019
:10A20000044BCDE90110D3E900126846904705B030
:10A210005DF804FB6C3100207FB5454AD2F824611B
:10A22000002E63D010464FF49271FFF7DDFF02233A
:10A230008DF80030D2F88034C2F880340393D2F81D
:10A240003C3502933B4BDA6801920022C3E90622B7
:10A250006846D3E900129047354AD2F844317BB1C1
:10A260004FF4A2711046FFF7BFFF324B996939B125
:10A270000021C3E90611D968D2F83C05FFF7BCFFFD
:10A280002B4AD2F82031B3B14FF490711046FFF74A
:10A29000ABFF0123D360274B596961B1D2F84C154C
:10A2A0000291002299688DF8002001915A61684658
:10A2B000D3E9001290471E4AD2F85831A3B14FF4A7
:10A2C000AC711046FFF790FF1A4B596961B1D2F893
:10A2D0004C150291002299688DF8002001915A6175
:10A2E0006846D3E90012904704B070BDD2F810312F
:10A2F000002BB1D04FF488711046FFF775FF0D4B5E
:10A30000D2F83C0599698842A6D1DC69D96864B164
:10A31000D2F8005225F02005C2F800521A699C615B
:10A32000DA60DE61FFF768FF96E79C61FAE700BF3D
:10A33000002000406C3100202DE9F8435A4F067987
:10A340009146242202FB0672044692F820200D4614
:10A35000002A40F0A28055490068FFF75BFC804668
:10A36000002840F09D8029682368481C0BD04FF0DE
:10A37000A04001228A40C0F8082501F5E0724FF0A4
:10A38000030C40F822C06868421C1FBF00F5E07251
:10A390004FF0A04C4FF0000E4CF822E0AA6995F85F
:10A3A00014C0C3F824256A7DBCF1010F4CEA0202F7
:10A3B000C3F86C25C3F80C15C3F814051DD1AA68A1
:10A3C000511C1FBF02F5E0714FF0A0404FF0000C90
:10A3D00040F821C0E968481C0BD04FF0A04C012088
:10A3E0008840CCF8080501F5E0704FF0030E4CF8FA
:10A3F00020E0C3F80815C3F8102524237343FA1886
:10A40000C2F804902A69FA50B9F1000F2FD04FF426
:10A41000887120682A7FFFF7E7FE4FF4907120686B
:10A42000FFF7E2FE4FF492712068FFF7DDFE4FF474
:10A43000A2712068FFF7D8FE4FF4AC712068FFF7D7
:10A44000D3FE23681A49C3F804131B0B59B25201F7
:10A450000029D2B21CDB1748451885F800230122D9
:10A46000490903F01F0302FA03F340F8213023687F
:10A470000822C3F80025242303FB06730022C3E946
:10A4800006225A61012283F820204046BDE8F88365
:10A4900003F00F030849CA54E9E74FF00808F4E74E
:10A4A0004FF01108F1E700BF6C31002019A2020043
:10A4B0001003420000E100E014ED00E0F8B5454D66
:10A4C00004790268242303FB045306465B68A3B1A6
:10A4D000414BC2F80833110B4BB2002B0DDB0120AE
:10A4E0005B0901F01F0100FA01F120333B4840F8FD
:10A4F0002310BFF34F8FBFF36F8FD2F8003223F0DA
:10A500002003C2F80032242303FB04539B6933B1B8
:10A510004FF4A2711046FFF767FE012353604FF41A
:10A52000AC711046FFF760FE0123D360242303FBC8
:10A530000453D2F858110029FBD0996919B1D2F807
:10A5400044110029F5D00023C2F800353368D3F850
:10A550000C75D3F81465D3F80815D3F810054FF02F
:10A56000FF3C6745C3F80CC518BF07F5E077C3F893
:10A5700014C5C3F808C5C3F810C51EBF4FF0A043EB
:10A580004FF0020C43F827C0771C1FBF4FF0A043C9
:10A5900006F5E076022743F82670461C1FBF00F53B
:10A5A000E0704FF0A043022643F820604B1C1FBF11
:10A5B0004FF0A04301F5E071022043F8210010465E
:10A5C000FFF74AFB242303FB0454002384F82030C4
:10A5D0006360F8BD6C3100201003420000E100E030
:10A5E00001F06043B3F1005F2DE9F041074638D137
:10A5F0001E4B0679242505FB063598466C69002C10
:10A6000031D16A61A96000684FF49071FFF7ECFDE9
:10A610004FF4AC713868FFF7E7FD3B686A69A968D9
:10A62000C3F84415C3F8482501229A606A68AAB99C
:10A63000D3F82021D3F858411AB9002CF8D00F24B0
:10A6400007E0002CFBD10122DA60D3F85821002A60
:10A65000FBD0242303FB0686002373612046BDE85C
:10A66000F0811024FAE71124F8E700BF6C310020D4
:10A670000023435082B043580193019B02B07047BE
:10A680000B7B032B2AD8DFE803F022261A028B6803
:10A690005A0304D5D0F84C350A699A4207D18B6821
:10A6A0005B031BD4D0F84C354A699A4216D000237C
:10A6B0000622C0F80035C0F8002518467047D0F8CB
:10A6C0004C350A699A42F2D1D0F83C35ECE7D0F823
:10A6D0004C350A69E9E7D0F83C35FAE701207047C4
:10A6E000F0B55B4A5B4CD2F8243187B01546FBB11C
:10A6F0004FF492711046FFF7BBFFD2F80431BBB99B
:10A70000A368C2F808330223A360A368C2F8043325
:10A71000D2F860311BB1D2F800329F0503D44C4B04
:10A7200001221A625A61012384F82E3007B0F0BD6D
:10A73000D5F80431002B52D04FF482714448FFF712
:10A7400097FF236A5E060AD494F82E303BB941493C
:10A750003F48FFF795FF80F0010084F82E00236A40
:10A760005D0721D43C4E0FCE01AD0FC5336838488C
:10A770002B604FF4B071FFF77BFF4FF4AE7134489C
:10A78000FFF776FF94F8303013B194F82E305BB1B8
:10A790002F4B0022C3F80022A260304AC3F80823DE
:10A7A0002F4B0822C3F88021294AD2F8C434C2F8BA
:10A7B000C43498073DD501238DF8003094F830302B
:10A7C0000BB984F82F30236A5B0703D594F82E3039
:10A7D000002BABD0D4E9003168469847A6E74FF488
:10A7E000A4711B48FFF744FF237B83B91A4F0FCF97
:10A7F00001AE0FC63B68336094F83030002BD3D1E4
:10A80000C5F80032A360154BC5F80833C8E74FF40C
:10A810000073C5F8003240F20223A36003F1CE7347
:10A82000C5F80833A368C5F804330123AB602B6275
:10A830007CE7590701D50223BEE7DA0701D50323D8
:10A84000BAE794F82E30002BB6D00423B4E700BF4B
:10A8500000300040903100209C31002002029C0119
:10A8600000E100E02DE9F84F0579304C4FF0340855
:10A8700008FB05F804EB08069B4696F82D30814648
:10A880000F469246002B4CD129490068FFF7C2F9C8
:10A89000002848D139687B7B86F8323001F5E072B8
:10A8A0004FF0A043B060C6F804B086F82F0086F8D9
:10A8B000300040F20C6644F808A043F822607A6841
:10A8C00002F5E07C43F82C60D9F80030C3F8081595
:10A8D000C3F80C25BA68C3F82425BAF1000F13D0C9
:10A8E0001B0B3A7B59B252010029DBB2D2B213DB07
:10A8F000104E771887F800230122490903F01F033F
:10A9000002FA03F346F82130342303FB0544012304
:10A9100084F82D30BDE8F88F03F00F030649CA54C0
:10A92000F2E70820F6E71120F4E700BF903100209D
:10A93000E1A6020000E100E014ED00E00268037906
:10A940000621C2F80015044A342101FB0323022228
:10A9500083F82D20704700BF903100202DE9F84387
:10A96000B14F90F804900468342606FB0976002362
:10A9700086F82E30CB6803F06043B3F1005F0D46DC
:10A98000904603D010263046BDE8F883A74BC4F8A4
:10A99000083396F82F3023B1B368C4F80433112676
:10A9A000F1E712F0140F0CBF0123002386F82F30BB
:10A9B0008E46BEE80F0006F10C0CACE80F00DEF886
:10A9C0000030CCF80030C8F3001386F83030C6F8F9
:10A9D00020806B78C4F8883520464FF48271FFF7E9
:10A9E00047FE4FF49271FFF743FE4FF4B071FFF74B
:10A9F0003FFE4FF4A471FFF73BFE18F0010318BFB0
:10AA00000123C4F8503518F0020318BF0123C4F81D
:10AA100040352B78032B00F2B480DFE803F0839FEE
:10AA200068022B6903F06043B3F1005FAAD14FF4D1
:10AA30008073C4F80032EA686B68C4F844254FF4A8
:10AA4000A871C4F84835FFF713FE01232362A36001
:10AA5000D4F85031002BFBD04FF4A8712046FFF7FB
:10AA600007FEAB682A69C4F84425C4F84835342386
:10AA700003FB09734FF480229A600823002618F024
:10AA8000080F04D12A78032A1CBF0122E250342384
:10AA900003FB09F3FA18FB58002B75D10125D4F8F4
:10AAA0004821D4F80431002B40F08880003218BFD0
:10AAB0000122D4F82431002B00F087804FF49271EA
:10AAC0002046FFF7D5FDD4F86011D4F8003209B163
:10AAD000980504D4256265610029E0D00022DB05D9
:10AAE00073D54FF4A4712046FFF7C2FDD7E76B681A
:10AAF000EA68C4F84425C4F848352B6903F060427D
:10AB0000B2F1005F7FF43EAFAA68C4F834354FF469
:10AB10008453C4F83825C4F80032342303FB097386
:10AB2000022212E06B68EA68C4F8442518F0200F8E
:10AB3000C4F848354FF034030BD04FF48072C4F89A
:10AB4000002203FB09734FF480229A6001232362E1
:10AB500093E74FF40072C4F80022DFE76B68EA68FD
:10AB6000C4F83425C4F838354FF48053C4F80032A3
:10AB7000342303FB097302229A600123236200231A
:10AB80007CE7082307267AE718F0040F1CBF002390
:10AB9000936018F0400F06D1342303FB09739A68C1
:10ABA00042F002029A60342303FB0977BB6843F446
:10ABB0000073BB60BB68C4F80433E4E64FF48271F1
:10ABC0002046FFF755FD012273E7002A3FF467AFE7
:10ABD0003421D4F8C434C4F8C43401FB0972002011
:10ABE00082F82F0093B113F0010F14BF4FF4024607
:10ABF000032648F2012213F0020F18BF164613F085
:10AC0000040F48F2022318BF1E46BCE618F0400F9E
:10AC10007FF4B9AE09FB01712046FFF731FD002832
:10AC200008BF0326AFE600BF9031002002029C015E
:10AC300010B586B00024CDE902349DF820308DF89F
:10AC40000510A342CDE9042401A914BF2022224605
:10AC50008DF80440FFF782FE06B010BD10B586B037
:10AC60000124029300238DF80510CDE9033201A9D8
:10AC70001A468DF804400593FFF770FE06B010BD2C
:10AC8000054A4FF0A043105CD3F8043523FA00F0D6
:10AC9000C04300F001007047DF770300044B1A5CEB
:10ACA000012393404FF0A042C2F80C35704700BF1B
:10ACB000DF770300044B1A5C012393404FF0A0425E
:10ACC000C2F80835704700BFDF77030008B50020E1
:10ACD000FFF7F0FF0120FFF7EDFF0220FFF7EAFF8B
:10ACE0000320BDE80840FFF7E5BF08B50020FFF7E7
:10ACF000D5FF0120FFF7D2FF0220FFF7CFFF03208F
:10AD0000BDE80840FFF7CABF074A4FF0A041105CFA
:10AD1000D1F804350122824022EA03001340C1F831
:10AD20000805C1F80C357047DF770300054A4FF07E
:10AD3000A043105CD3F8103523FA00F0C04300F0B4
:10AD400001007047DB7703000D2809D00E2809D0D9
:10AD50000F2809D010280CBF03204FF0FF30704798
:10AD6000002070470120704702207047014B185C9B
:10AD7000704700BFDB770300C20708B501460CD55A
:10AD80004FF0A0430322C3F84427C3F84827C3F871
:10AD90004C27C3F85027FFF799FF8B070AD54FF0D0
:10ADA000A0430C22C3F83427C3F83827C3F83C2744
:10ADB000C3F8402708BD704707B5044B0093044A09
:10ADC000402300F032F803B05DF804FBD5AD02007B
:10ADD000C53100202DE9F84389461446B2B10F4B26
:10ADE0000F4E0325002743F00108224609EB070117
:10ADF000002002F03BFB0744241A48B933782BB1FA
:10AE00004FF47A40C047013D02D13570BDE8F88368
:10AE100001233370002CE8D1F8E700BFF07703007E
:10AE2000C4310020704702F055BBF0B595B01C4608
:10AE3000164608460D46FEF705F91A9B0D93CDE917
:10AE4000086400242346082205A928460A948DF8A0
:10AE50002C400C94FEF713F9079B0293069B039377
:10AE60009DF814308DF8114003F00302012A1DD122
:10AE7000BDF81440059EC3F3C203C4F383148DF8D8
:10AE80001030A20008230EA92846FEF7F8F8C6F3F2
:10AE9000952608AB0093224602AB0EA9304600F07F
:10AEA000DDFB2846FEF7D2F815B0F0BD022AF8D136
:10AEB000BDF81640C3F3C203A4098DF8103008276B
:10AEC000082C264628BF08263B4632460EA92846AF
:10AED000FEF7D5F8A41B08AB02AA31460EA83744EA
:10AEE00000F020FC002CEBD1DBE70000014B01223D
:10AEF0001A707047463200207047000070B50E4D42
:10AF000006460FCD88B06C460FC495E80F00002EA2
:10AF100084E80F004FF00603084A0948009308BF71
:10AF200000226946FEF7F4FB08B1FBF7B7FE054BBC
:10AF30001E7008B070BD00BF04780300EDAE0200C3
:10AF4000E42B00200532002007B5044B0093044A8F
:10AF50004023FFF76AFF03B05DF804FB65AF020012
:10AF60000632002038B50D4B0D4D002018700D48ED
:10AF700004782D5DD2B21C4665B10430FFF730FB7A
:10AF800008B1FBF78BFE084B1A7812B12378002B1F
:10AF9000FBD038BD0C30FFF7DDF8F1E7463200207A
:10AFA000C8300020E42B00200532002008B50848F6
:10AFB000084A0378D35C3BB10430FFF77FFA0020E6
:10AFC000BDE80840FFF79ABF0C30FFF759F8F6E7E5
:10AFD000E42B0020C83000200120FFF78FBF0000C5
:10AFE00038B50A4DFFF71FFF0421284600F0A6FAE6
:10AFF000074B01245C71FFF7EFFF042105F11000FE
:10B0000000F09CFA034B5C7138BD00BFE86F030091
:10B01000F82B0020002C0020037813F0040216D037
:10B0200003F00303012B03D0022B09D0012070474A
:10B030000A6800880232C0F3831002440A60F5E710
:10B040000B684288023303EB92130B60EEE7104665
:10B05000704700002DE9F04F87B000230446851C9F
:10B060000DF107000E4690468DF80730FCF77EF98B
:10B07000404A50683060936803F580731B1A92460B
:10B0800002F21C4602F5836902F21447AB4219D35F
:10B090000023B8F1000F66D0052262F3070364F3C2
:10B0A0008913DAF804209DF80700D1B20331154462
:10B0B0004AF82130CAF80450FCF77CF9012007B0A7
:10B0C000BDE8F08F01213046FDF73EFA4846FDF716
:10B0D00054FA3846FDF751FADAF808000290C0B287
:10B0E00003300AEB800002A9FFF796FF029B30BBFA
:10B0F000DAB20AEB8202D16803919A1C0133DBB207
:10B100000AEB83030292D3F80CB001F00303012B86
:10B1100021D0022B15D083463846FDF731FA10B105
:10B12000029BCAF8083059463046FDF70DFADAF8A6
:10B130000830DAF8042003F580739B1AA6E7D8B22A
:10B14000CEE7BDF80E309B0903334FEA1B4B02EBF1
:10B1500093030293E0E7BDF80C30C3F383134FEA87
:10B160001B4B1344F5E7062262F3070364F39F5376
:10B1700097E700BF18330020064B074810B50022A0
:10B180001A70FDF718FF044610B90448FEF794F84A
:10B19000204610BD18330020DC6E030054780300F5
:10B1A00030B50A4C71B10A4A0A49121BD208002371
:10B1B0009A4201D1002030BD31F82350854202D09F
:10B1C0000133F5E7034654F83300F4E7F86E030063
:10B1D000E86F0300E42B0020094B013903EBC000AA
:10B1E000032909D8DFE801F00A02040604207047A9
:10B1F00000797047407970470020704702207047FF
:10B20000F86E0300034BD3E90130C31A584258418A
:10B21000704700BF183300202DE9F04186B0FFF7DA
:10B22000F1FF0546002840F0E680744CC4F818048D
:10B23000BFF34F8FA0680290C0B2033004EB8000D0
:10B2400002A9FFF7E9FE029B18B1D4F81824002ADE
:10B2500053D0DAB2991C013304EB8202DBB204EB67
:10B260008303D268DB68049302F00303022B03928A
:10B2700002914FD1BDF80E3061484FEA931847460E
:10B28000502F28BF502767F38F1307F10801ADF83F
:10B290000E30FDF7A8FE0546002800F09780FDF768
:10B2A000D1FE03A9002308222846FDF7DEFE0299FD
:10B2B000CE43F6B20136B600C9B20331B74204EB51
:10B2C000810124D908233246BF1B2846FDF7CDFE55
:10B2D000FFB24C4906F108033A462846FDF7C5FE81
:10B2E000029B08F1030803EB98030293D4F8183487
:10B2F000002B43D1D4F8106453E062689A4204D81A
:10B30000A260284606B0BDE8F081D8B295E70823D0
:10B310003A46E2E7012B59D1BDF80C303848C3F367
:10B320008311062928BF062161F3891302318900A0
:10B33000ADF80C30FDF757FE0546002846D0FDF766
:10B3400081FE0023082203A92846FDF78EFE002671
:10B35000BDF80C20C2F38312B300964203F1080338
:10B36000C4D202994A1CC9B20331029204EB810192
:10B3700004222846FDF779FE0136E9E72846FDF765
:10B3800065FEFFF73FFF80F00100C5B2B9E7F36843
:10B390005B7923B1336829461B6830469847F368C8
:10B3A0001E68002EF3D12846FDF750FE0DF1070070
:10B3B0008DF80760FBF7DAFFD4F818340BB9029B5D
:10B3C000A3609DF80700FBF7F5FFDAE7D4F8104417
:10B3D00054B90D4B0D480E49C01AC008000440F086
:10B3E000020000F069F8CCE7236820469B68984784
:10B3F000E3681C68ECE7002583E700BF18330020F2
:10B40000DC6E030024330020F86E0300306F03006D
:10B41000607803002DE9F34780460F46924601A964
:10B42000012218469946FFF715FE214D70B3019C85
:10B430000026A11C4E4506EB010230D100211D481B
:10B44000FDF741F880F31000631CDBB205EB8303CA
:10B45000000440EA1840D860E3B2033315F8232013
:10B4600068F3C50205F8232035F8232066F3891216
:10B4700025F8232055F8232067F39F2245F8232041
:10B4800002F0F80242F0010205F823202B781BB1EC
:10B49000FFF7C2FE0028FBD102B0BDE8F087D2B2B0
:10B4A00005EB82025AF82630D3600136C2E700BFAE
:10B4B000183300203437002000231A46FFF7AABFB4
:10B4C00007B50123019201AAFFF7A4FF03B05DF8BD
:10B4D00004FB07B5CDE9002302236A46FFF79AFF74
:10B4E00003B05DF804FB1FB5CDE90123069B039370
:10B4F00001AA0323FFF78EFF05B05DF804FB1FB51B
:10B50000CDE90023069B0293079B03936A4604231D
:10B51000FFF780FF05B05DF804FB7FB5CDE901239F
:10B52000089B0393099B04930A9B059301AA052397
:10B53000FFF770FF07B05DF804FB000030B50F495E
:10B54000D1F81024002314463CB9C468237152B9C1
:10B55000C1F810042260184630BDE46825799D4288
:10B5600006D02468F0E7D268116821601060F2E725
:10B5700001330A2BE7D14FF0FF33ECE718330020FB
:10B58000084A38B50123D2F8104413701D4604B997
:10B5900038BDE3685D71236820465B689847E368BF
:10B5A0001C68F4E718330020037A052B10B50C460D
:10B5B0000FD0437A23B1084A08492046FDF743F8E3
:10B5C00007492046FDF73FF82046BDE81040FDF74B
:10B5D0002FB8002AF8D0F3E7AB78030033AE0300AE
:10B5E000C9B90300C38873B504460D4633B1144A84
:10B5F00000921449144A2846FDF725F8217A0529B6
:10B600001CD0637A4BB1A088FFF7E6FD0F4B1049C1
:10B6100053F820202846FDF716F8227A0D4BA08813
:10B6200053F822600021FFF7BBFD0B490346324669
:10B63000284602B0BDE87040FDF705B802B070BD05
:10B64000AB780300B8780300B07803007878030083
:10B6500033AE0300DC780300D07803002DE9F0431B
:10B6600085B01F460C9D002306460C46904695F873
:10B670000C902B7329463846FFF7B4FFB8F1060F3C
:10B6800009D8DFE808F00412181F283340003146BB
:10B690002846FCF7D8FF002229463846FFF784FFEA
:10B6A00085F80C9005B0BDE8F08322683146284645
:10B6B000FCF7C9FFEFE7D4E9002331462846FCF741
:10B6C000C2FFE8E7A36800933146D4E90023284687
:10B6D000FCF7B9FFDFE7E3680193A3680093314605
:10B6E000D4E900232846FCF7AEFFD4E72369029390
:10B6F000E3680193A36800933146D4E90023284608
:10B70000FCF7A1FFC7E76369039323690293E3682A
:10B710000193A36800933146D4E900232846FCF73F
:10B7200092FFB8E708292DE9F84F80460E461746E4
:10B730001C463AD8002593F80C901D731946104604
:10B74000FFF750FFDFF884A0DFF884B0AE422ED9B7
:10B7500018F8052059462046FCF775FF0135082DDD
:10B76000F4D11849DFF86CB02046FCF76CFF4FF0BD
:10B77000000A564520D918F80A507E2D03D82846CD
:10B7800008F0D6FD00B92E252A4659462046FCF77A
:10B790005AFF0AF1010ABAF1080FEAD10122214643
:10B7A0003846FFF701FF84F80C90BDE8F88F51464A
:10B7B0002046FCF748FFD1E703492046FCF743FF4A
:10B7C000E7E700BFA6780300A4780300A27803008F
:10B7D0009C780300A87803004FF48C72002108F0D5
:10B7E0002DBE18B14FF48C7100F0B0BE7047000050
:10B7F000C02AF0B541D0B2F5807F40D0802A40F019
:10B80000C5800A230446036000F10803520944F886
:10B81000043F01EB82028A4233D103680C2B3ED0F5
:10B820000E2B6CD00A2B26D15A4D5B4900F1A00695
:10B83000426955F8044B8768C2F307237C40CB5C10
:10B840006340140E10300C5D83EA0443D4B20C5DE7
:10B8500083EA0463C2F307440C5D83EA042350F8CF
:10B86000044C836063400468C360634003615340D9
:10B8700043618642DCD100208AE00C23C2E70E231C
:10B88000C0E78B784D781B0443EA05230D782B43E2
:10B89000CD7843EA056344F8043F0431BBE73D4CEF
:10B8A0003D4900F1C005C26954F8046B8768C2F3D2
:10B8B00007237E40CB5C7340160E18308E5D83EA02
:10B8C0000643D6B28E5D83EA0663C2F307468E5DF9
:10B8D00083EA062350F80C6C8360734050F8086CC0
:10B8E000C360734050F8046C0361734006684361A1
:10B8F000734083615340C3618542D4D1BBE7254D7A
:10B90000254900F1E006446A55F8042B8768C4F322
:10B9100007237A40CB5C87695340220E20308A5C33
:10B9200083EA0243E2B28A5C83EA0263C4F3074219
:10B930008A5C83EA022350F8142C8360534050F849
:10B94000102CC360534050F80C2C03615340DAB202
:10B9500043618A5C7A401F0ECF5D82EA0762C3F3BF
:10B960000727C3F30743CF5DCB5C82EA072282EA55
:10B97000034350F8042C836153400268C361534071
:10B980000362634043628642BDD174E76FF01F00DB
:10B99000F0BD00BF3C8A03003B7903002DE9F04F66
:10B9A00095B043680D680C951C68A14FA14E6C4082
:10B9B0000C945D684C686C400D949D688C686C407C
:10B9C0000E94CC689C4D03F11001DB680B91634031
:10B9D0000F9303685B10013B009300230193DDE9A3
:10B9E0000C08C8F30723DDF838C057F82330049358
:10B9F000CCF30743CCF3072E56F8233005930F9B67
:10BA000057F82E400694C3F3074E5FFA83F956F8B1
:10BA10002E400794C3F3072E55F8299057F82E406F
:10BA20000894C0F3074E4FEA106A56F82E40099466
:10BA3000C0F3072E1B0E57F82E400294C8F3074E92
:10BA40007E4C56F82EB054F8233003914FEA1C6E0A
:10BA5000C0B254F82EE055F8200089EA0E0E5FFAC5
:10BA60008CFC4FEA186955F82CC054F829905FFAFD
:10BA700088F88CEA090C55F8289054F82A8080EA56
:10BA8000030A009B002BDDE9043083EA0003DDE9B3
:10BA9000060480EA0400089C89EA0809A046099C7B
:10BAA00001F1200188EA040800F3CC80019909B172
:10BAB00003990B910B9E3168B56874684B4083EA1B
:10BAC0000A07F36810978BEA0E0B8BEA030B029BB5
:10BAD00088EA050585EA0C0C8BEA030B584DCDF876
