:020000022000DC
:1060000000000120756302005D6302005F6302000F
:106010006163020063630200656302000000000028
:1060200000000000000000000000000067630200A4
:1060300069630200000000006B6302006D630200F0
:10604000259402006F63020019980200F1A2020079
:106050006F6302006F630200D19602006F6302005B
:106060006F6302006F6302006F6302006F630200E0
:106070006F630200419902006F6302006F630200C8
:106080006F630200F16A02006F6302006F63020037
:106090008D6B02006F630200D92503006F6302005D
:1060A0006F6302006F6302006F6302006F630200A0
:1060B0006F6302006F630200000000000000000038
:1060C0006F6302006F6302006F6302006F63020080
:1060D0006F6302006F6302006F6302000000000044
:1060E00000000000000000000000000000000000B0
:1060F00000000000000000000000000000000000A0
:10610000000000000000000000000000000000008F
:10611000000000000000000000000000000000007F
:10612000000000000000000000000000000000006F
:10613000000000000000000000000000000000005F
:10614000000000000000000000000000000000004F
:10615000000000000000000000000000000000003F
:10616000000000000000000000000000000000002F
:10617000000000000000000000000000000000001F
:10618000000000000000000000000000000000000F
:1061900000000000000000000000000000000000FF
:1061A00000000000000000000000000000000000EF
:1061B00000000000000000000000000000000000DF
:1061C00000000000000000000000000000000000CF
:1061D00000000000000000000000000000000000BF
:1061E00000000000000000000000000000000000AF
:1061F000000000000000000000000000000000009F
:10620000354936480A1A02D0072291438D4634494F
:1062100034480A1A06D00722914381F309880222E2
:1062200082F3148830483149314A00F044F831484B
:106230003149324A00F03FF831483249324A00F0E1
:106240003AF832483249334A00F035F83248334997
:10625000334A00F030F833483349344A00F02BF821
:1062600033483449344A00F026F83448344900228F
:1062700000F02CF833483449002200F027F8334866
:106280003349091A082902DB002202604160314AC1
:1062900090471F481F49884205D00268043003B464
:1062A000904703BCF7E700208646EC46002000211B
:1062B000294A9047FEE7884207D0521A05D0037852
:1062C00001300B700131013AF9D17047884202D098
:1062D00002700130FAE770470000012000E0002062
:1062E000000001200000012048B30300E42B00203F
:1062F0005C2C0020D0630200D0630200285B030006
:1063000048B30300E42B0020E42B00200C5D0300C5
:106310000C5D03000C5D03000C5D03000C5D0300CD
:106320000C5D03000C5D03000C5D030048B303002B
:10633000C0B303005C2C00205C2C00205C2C0020EF
:106340002049002020490020204900202049002029
:10635000206900209D63020095CA0200FEE7FEE767
:10636000FEE7FEE7FEE7FEE7FEE7FEE7FEE7FEE705
:1063700000F002B8FFF7FCBF0F484FF00701884359
:1063800085460E4880470E48016841F4700101605F
:10639000BFF34F8FBFF36F8FFFF732BF09480A4932
:1063A0000A4A884207D0521A05D0037801300B7090
:1063B0000131013AF9D17047000001204DD00200AF
:1063C00088ED00E0F85C0300D02B0020E42B0020D7
:1063D00008B5094B1B7853B1002004F073FA012073
:1063E00004F070FA0320BDE8084004F06BBABDE881
:1063F000084004F073BA00BF5C2C0020F8B57B4C59
:10640000237805461BB100232370FFF7E1FF172D0A
:1064100000F28880DFE805F00C171743546576809A
:10642000888D888D959A9A9A9A9AC4C9D1D9E4E4AC
:10643000FFF7CEFF6E4800F091FD6E4B0022044640
:106440001A702046F8BD002004F022FAF8B10020AE
:1064500004F038FA022D0CBF4FF4E1614FF47A6179
:10646000644B1D704FF400404FF4FA740025E0FBBC
:1064700001454FF47A720023204629460CF00EFDA8
:10648000002201465A48BDE8F84000F01DBD04F066
:106490000DFA022D0CBFC8214FF4C871E0E70020AF
:1064A00004F0F6F940B1002004F00CFA4FF4487102
:1064B000504B03221A70D5E704F0F8F9C821F7E72A
:1064C000002004F0E5F938B1002004F0FBF94FF4A6
:1064D0007A61484B0422EDE704F0E8F94FF4C87103
:1064E000F7E7002004F0D4F948B1002004F0EAF9FD
:1064F000404B05221A7041F69A110022C2E704F0BF
:10650000D5F9F5E7002004F007FA3A4B06221A7095
:10651000002240F6CD41B5E7002004F0C7F9354B25
:1065200007221A7000248CE70120207004F0F4F98F
:10653000EEE70120207004F0EFF900224FF48041D3
:10654000A0E704F0DAF92B4B0C22EAE72A482B4E9D
:1065500000F004FDD5F1110504461CD0D8B9012D79
:1065600013D0C8235D434FF400474FF4FA70002165
:106570004FF47A720023C7FB05010CF08FFC224612
:1065800001461D4800F0A0FC0446022004F08EF9EC
:106590000123337055E7022004F094F90023F8E753
:1065A000FFF716FF134B1222BBE7FFF711FF002086
:1065B00004F07CF90F4B1322B3E7FFF709FF01202A
:1065C00004F074F90B4B1422ABE7FFF701FF002036
:1065D00004F06CF9012004F069F9064B1522A0E7DC
:1065E00004F08BF9034B1D709CE700BFB02C00201A
:1065F000802C0020B12C0020602C00205C2C00207E
:10660000044B1B6813F0010301D0FFF7F7BE1846D7
:10661000704700BFAC2C0020032813D8012A0BD1EF
:10662000012908D100F10E02D2B200EB40000C4B60
:106630001A540020704700220129F6D04BB24BB10A
:10664000022901D007207047054B00EB4000184499
:106650004270EEE7024900EB400008448270E8E730
:10666000A02C0020032808B512D804F067F9800098
:1066700000F1A040D0F8003723F44033C0F80037D1
:10668000D0F8003743F44033C0F80037002008BD8D
:106690000620FCE708B5012202210020FFF7BCFF1D
:1066A00008B1072810D1072202210120FFF7B4FF0B
:1066B00008B1072808D100210A220846FFF7ACFFDD
:1066C00010B1072808BF002008BD00000388102B68
:1066D00010B502D0112B1ED010BD1A4C2168B1B9D3
:1066E00001220846FFF798FF08B1072824D10722A6
:1066F00002210120FFF790FF08B107281CD10422D6
:1067000002210020FFF788FF08B1072814D1236871
:1067100001332360E0E70B4A1368013B1360002B51
:10672000DAD1FFF7B7FF0028D6D0074B1B68002B44
:10673000D2D0BDE810401847034B1B68002BE6D0B1
:106740009847E4E7B82C0020B42C002008B50020BE
:10675000FFF788FF08B1062806D10120FFF782FF66
:1067600010B1062808BF002008BD05F0CFBE0021EB
:10677000084605F07FBE10F1360F0AD058B148F236
:10678000115248F2165310F1380F0CBF104618463C
:10679000704748F21450704708B50846114602F099
:1067A00081FD002008BD000037B50446002002F03E
:1067B000FBFC054678B90434204605F09BFB0095A8
:1067C0002B462A460549204605F0E9FB03B0BDE803
:1067D0003040FFF7D0BF03B030BD00BF9967020063
:1067E00008B5043005F08BFB02F00AFD002008BD5F
:1067F00008B5043005F06CFCBDE80840FFF7BBBFEE
:1068000008B5114604301A4605F087FBBDE808407C
:10681000FFF7B1BF1FB50021039001AA44F20100A8
:10682000CDE9011100F004F805B05DF804FB0000AB
:1068300010B572B604F06EFC04F0B8FA0028FBD173
:10684000104B114C1149E41AE408240444F00100EF
:1068500004F0FCFB0E4B1B68DB0700D500BE0D49A6
:1068600044F0020004F0F2FBBFF34F8F0A490B4BD8
:10687000CA6802F4E0621343CB60BFF34F8F00BFDE
:10688000FDE700BFE85B0300205C0300175D030029
:10689000F0ED00E0235D030000ED00E00400FA05E8
:1068A0004B1C30B5DB00044612F003009BB20DD147
:1068B000074D2A601A44074B1A60074B1870074BA4
:1068C0001870074B1C80074B198030BD0720FCE770
:1068D000C42C0020C02C0020BC2C0020CC2C00207C
:1068E000C82C0020CA2C00202DE9F3472B4D2B8803
:1068F0008B4206460C4617464CD34FF000080DF16C
:1069000007008DF8078000F043FB254B254A1878D7
:106910001178CBB2244909888B4238BF0133C0B209
:1069200038BF5FFA83F840452ED092F80080137884
:10693000DBB2994286BF0133DBB2002313709DF8AE
:10694000070000F049FB4FF6FF73984524D0DFF8AD
:1069500060A0DAF800304FEAC80903EB090243F8F7
:106960003870A6B19CB1114B28881B68224608FBE1
:10697000003031460CF0AFFBDAF800304B44002019
:106980009C8002B0BDE8F0874FF6FF78D7E7002083
:106990009080F6E70920F4E70420F2E7C82C0020F5
:1069A000CC2C0020BC2C0020CA2C0020C02C0020A5
:1069B000C42C0020F8B5124C124D264622782B78B4
:1069C0009A4200D1F8BD23780F48104A0788126810
:1069D0000F48DBB219B202EBC10C006852F831204B
:1069E000BCF8041003FB070090470A4A237812887A
:1069F000DBB29A4286BF0133DBB200233370DDE79E
:106A0000CC2C0020BC2C0020C82C0020C42C002042
:106A1000C02C0020CA2C0020094A537891780133F9
:106A2000DBB2994208BF0023117899421FBF03705F
:106A30005078182303FB002014BF04300020704757
:106A4000D02C002073B5054600240DF107000E463A
:106A50008DF8074000F09CFA0DF10600FFF7DCFF0F
:106A600090B10670094B9DF8062045605A709DF85C
:106A7000070000F0B1FA24B9054B4FF48012C3F8B7
:106A80000021204602B070BD0424F0E7D02C002085
:106A900000E100E0024B4FF43C6043F00103184773
:106AA000305D030038B50E4B4FF40032C3F8802040
:106AB000BFF34F8FBFF36F8F0A4C4FF48033012524
:106AC000C4F84833C4F808336560FFF7E3FF064BAA
:106AD000A56000241C60FFF7DDFF044B1C7038BD6F
:106AE00000E100E000100140EC2D0020DD2D002031
:106AF000F8B51F4B1F491B680025C1F84051C1F86C
:106B00004451C1F84851C1F84C51C1F80051C1F885
:106B100004514BB3D1F8044517490968641A24F0AD
:106B20007F442F461A68A24209D8A41A15441A7C39
:106B3000DE691AB11F74D3E905209047AEB90F4A38
:106B40000F4B11781B788B4205D10133DBB2022B3E
:106B500008BF0023137012780A4B43F822500A4BE7
:106B60004FF48012C3F80021F8BD3346DAE700BFC6
:106B7000F02D002000100140EC2D0020E92D002018
:106B8000E82D0020E02D002000E100E02DE9F04F8D
:106B9000A14AA24913780978A14D994285B03CD009
:106BA0000133DBB2022B08BF002313709D4912781A
:106BB0009D4B0F6853F822003B1823F07F430022BF
:106BC0000B602B6816461446944613B942B12B60ED
:106BD00006E0196881420ED902B12B60091A1960CA
:106BE00001272B68DFF848A201934FF00008BEB9D7
:106BF000DFF844B266E0401A0C44D968C3F800C01C
:106C0000D3F81CE031B13A1922F07F42C3E90121E7
:106C1000DE611E4601227346D7E700263746E0E7CD
:106C20003446F6697F4A63681268DFF810C2A068CC
:106C3000991A21F07F41614500F2A680014421604C
:106C4000012222742A680023C4E90133E361002A87
:106C500040F0A3802C60CAE75A1C9BF80210D2B205
:106C600091428BF8002004BF00228BF800201822EC
:106C700002FB03B31A799C68022A1CD0032A12D0A3
:106C8000012A1FD1207CE8B9D3E90312A2605A6916
:106C9000E2609A69654BA2611B78002B0CBF0B4622
:106CA00003466360BEE700222B681146002B67D1C4
:106CB00042B12B6006E029680A468946002A5AD16B
:106CC000002323749BF800309BF801209A42C3D123
:106CD0002B68B8F1000F04D1019A9A4201D1002F1C
:106CE00043D0002B73D0D3F800A0514D4D4BD5F8B5
:106CF00004751C68DFF848813E1B98F8003026F0C8
:106D00007F4603369BB94FF48033C5F84433C5F84A
:106D10000433484B4FF40032C3F880211A604FF01F
:106D20000109C5F80090FFF7B5FE88F80090B2455C
:106D30002CBF5444A41924F07F44C5F84045D5F82D
:106D40000435DB1B23F07F43E41B033324F07F4433
:106D5000A3420AD9D5F80435C5F84035FFF79AFEA5
:106D6000344B4FF40032C3F80021304B00221A702C
:106D700005B0BDE8F08F94422CD09146D2699DE7D2
:106D800019740122DB6991E7D31A23F07F43834210
:106D900034BFC31A0023236052E721681368994265
:106DA00013D8591A1160E26154E7091AD8691A46D2
:106DB00038B1034618688842F7D3401A186018465D
:106DC00013462160E061DC6111E71346F2E7FFF74B
:106DD00069FECAE74C4511D1CB692B6073B9DFF866
:106DE00044E00120CDE90212CAF80800CEF80030D4
:106DF0000E4B1870FFF74EFEDDE902121368D269E0
:106E0000C9F81C2012B11068034413602B68994222
:106E100018BF4FF0010853E7E82D0020E92D0020AE
:106E2000F02D0020EC2D0020E02D0020DC2D002096
:106E30000010014000E100E0D02C0020FEFF7F00A8
:106E4000DD2D002008B5FFF72DFE104B00200B2292
:106E500018809A700E4B18600E4B18700E4B1870FD
:106E60000E4B4FF48012C021C3F8802183F8141315
:106E70001A6002F18042A2F56F22C2F8080583F879
:106E80001113074BD2F804251A6008BDD02C00203E
:106E9000F02D0020E82D0020E92D002000E100E089
:106EA000EC2D0020074B9B784BB132B128B1036821
:106EB000187C20B959745A61704707207047082020
:106EC000704700BFD02C00202DE9F7431F4FBB783F
:106ED00005460E469046B3B3A8B31D4B4A1F9A42CF
:106EE0002FD843697BB3437C0024012B0DF10700AD
:106EF0000CBF8946A1468DF8074000F049F80DF116
:106F00000600FFF789FDD0B101230370114B4560E6
:106F1000D3F80435C0E90498C0E902369DF806307C
:106F20007B709DF8070000F057F824B90A4B4FF426
:106F30008012C3F80021204603B0BDE8F08304248A
:106F4000EFE70724F7E70824F5E700BFD02C00207F
:106F5000FAFFFF000010014000E100E0064A9278CD
:106F60003AB130B1426922B1002202740221FFF726
:106F700069BD0820704700BFD02C0020014BD3F81A
:106F80000405704700100140401A20F07F40704710
:106F900070B5EFF3108672B60C4A946801239CB961
:106FA00093600B4B0B4DD3F8801029401160C3F850
:106FB0008050D3F8841051604FF0FF32C3F8842022
:106FC000047006B962B670BD0370FAE7F42D0020B4
:106FD00000E100E0FC06FFBD084B9A6810B55AB10D
:106FE00050B9EFF3108172B6054A1C6814605C68F2
:106FF0005460986001B962B610BD00BFF42D002046
:1070000000E100E070B5064D0646002455F8043B4B
:107010000BB1304698470134042CF7D170BD00BF46
:107020000C2E0020033080B240F2FE33984230B57F
:107030001FD8134B1A783AB91C895D892C44044433
:10704000A4B2B4F5806F0AD91A7DAAB99A8BDC8BE9
:107050002244024492B2B2F5806F0DD801220A8018
:107060001446142202FB04335A891044588100202C
:1070700030BD48F20860FBE748F20660F8E700BF61
:10708000402E00200B4A0C4B5188142000FB01318C
:10709000CB6833B90420496810700122074801F019
:1070A00067BB05230649137002238B80012200234E
:1070B0000968F3E7242E0020402E0020D02B00206A
:1070C000082F002007B5002305490093054A0968E9
:1070D0000548082301F0B6FA03B05DF804FB00BFD1
:1070E000082F0020445D0300D02B002007B50023AB
:1070F000009301460823034A034801F0A3FA03B0B2
:107100005DF804FB3C5D0300D02B002013B5002389
:107110000C46009301460423074A084801F092FAFE
:1071200038B9074B142202FB04340123237402B044
:1071300010BD48F20D60FAE7385D0300D02B002047
:10714000402E002037B50A480A4B42689C881968CF
:1071500053880325033305709BB2002000909B00E9
:1071600001EB8401044801F06DFA03B030BD00BFAB
:10717000242E0020082F0020D02B002010B501461F
:10718000044800F0E6FE1C22044600210BF0CCFF70
:10719000204610BDF42E002068B10268084B9A42C8
:1071A00009D14068074B984207D0013398420CBF81
:1071B000012003207047032070470020704700BF64
:1071C000DEC0ADDEFE011EF14388033300EB830316
:1071D00099420BD382884FF6FF739A4208D00388F6
:1071E00033B18068431C58425841704702207047B1
:1071F000012070472DE9F8430223DFF860800B80FF
:107200000D46174600F5805600F108044FF00109BD
:10721000B4420FD2236801330CD031462046FFF729
:10722000D3FF48B10FB187F8009002280BD14FF47B
:1072300080632B80BDE8F883A368D8F800209342D0
:1072400001D9C8F800302B886288033313442B809F
:107250006388033304EB8304DAE700BF382E002091
:10726000154A142303FB002070B50B6844680D46D3
:1072700004F58056ABB15C88033403EB8404B4425C
:107280000DD2236801330AD031462046FFF79CFF18
:1072900001280BD010F0FF0F05D00228EFD10020FD
:1072A00003E00834EBE72C60012070BD63880333F2
:1072B00004EB8304E3E700BF402E0020436873B56E
:1072C00004460D466BB3244AD1688B4229D3126918
:1072D000934226D813F0030023D1204A2189128932
:1072E00091421ED121689A6891421AD11C4A516874
:1072F0008B4203D901F580518B420DD392699342A1
:107300000CD902F58052934208D201232B80B0FAA7
:1073100080F0400902B070BD0346F7E748F209600B
:10732000F5E700232B801E46019601A92888FFF768
:1073300097FF30B92B8801339BB2012B2B80F3D9F7
:10734000E8E7019B226899689142EED16360034BA4
:107350001B892381DEE700BFD02B0020242E0020D4
:10736000402E00202DE9F8431C461D4B1B78064695
:107370000F46154673B382B37CB3DFF86C804FF0D1
:107380001409A388012B02D948F2096020E009FB07
:1073900003F318F803302BB92146A088FFF760FFEC
:1073A00020B92060A3880133A380EAE723681EB1D7
:1073B000998832889142EFD11FB119883A88914259
:1073C000EAD19A68C5E90023064B1B892B8100206E
:1073D000BDE8F88348F20160FAE748F20460F7E795
:1073E0001C2E0020242E0020402E002008B5074B24
:1073F000191D5888FFF734FF18B1BDE80840FFF7A2
:10740000A1BEBDE80840FFF73DBE00BF242E00200E
:107410002DE9F04FA34FDFF8B09289B00646B84689
:107420003B6823B94946A04800F0CDFD3860D8F844
:10743000005029784B1E052B00F2FE80DFE813F088
:10744000060060006000F200F20064012EB1974B6C
:1074500000225A604FF40644F0E02B79032B1DD82C
:10746000DFE803F015022B3691490B78022B084612
:107470001AD00B7D022B4FF0010317D11422534376
:10748000C2180020C8545068FFF730FE03E0012303
:107490002B71FFF717FE002800F0BE80834B0022FF
:1074A0005A6048F20D64C9E00023E7E77F4A137091
:1074B0000023536041F61D54C0E07E497E480023FE
:1074C00002222B718A800122096801F051F9E2E75A
:1074D000784C00262E712068754DFFF707FE774B1C
:1074E000D4F800C05A8814235343EA18EE54516864
:1074F0002160A188C2F804C011810222A280CAE7DB
:10750000B5F814A0AA7DDFF8A8B1AEB1022AEB88C5
:1075100006D9142101FB0AB1DA1C088902440A8148
:10752000142202FB0ABAC3F57F43BAF80A20FD33DE
:107530001344AAF80A308DE7142303FB0AB3188911
:107540005C6804EB8004062A69D8DFE802F0274E65
:1075500036441D5A040041F61D54AA7DEB88022AC8
:1075600006D9142101FB0AB1DA1C088902440A81F8
:10757000142202FB0ABAC3F57F43BAF80A20FD338E
:107580001344AAF80A3059E04D484E49002343609D
:10759000AB690360FFF792FE002874D00223AB753D
:1075A000002300930423EA182146434801F04AF8D7
:1075B000002831D048F20D64CFE72B69002B14BFAF
:1075C00003230123AB750023009305F10C02042370
:1075D00004F10801E9E70123AB750022EB88009272
:1075E0009B002A6904F10C01DFE703290CBF052386
:1075F0000623AB7500230093042305F10802E1186C
:10760000D3E70623AB752F4B19882D4B5868FFF72E
:107610007DFD04460028A0D109B0BDE8F08F48F2F6
:107620000E649AE7002E7FF415AF2B79012B4DD015
:10763000EBB1022B3FF43EAF48F20E64142200215E
:1076400003A80BF071FD41F61D539C4208BF0024B6
:10765000D8F8003004941A78023A042A00F20A8119
:10766000DFE812F0EB00F7001A01220129010223E2
:107670002B710DF10A01EB68039303A8CDE90466B1
:10768000FFF71CFE10B948F20964D7E70498BDF86B
:107690000A108388EB8003882B81FFF737FD0446AF
:1076A00029E000BF3C2E0020F42E00201C2E0020DC
:1076B000402E0020082F0020D02B0020242E002058
:1076C000002E0020142F0020342E0020DFF804A20A
:1076D00003AA53463146A81DFFF744FE044668B985
:1076E000BAF804100498FFF711FD044648F2096344
:1076F0009C423FF4DFAE002CA0D18DE7082231463A
:1077000050460BF011FDF1E7002E7FF4A3AE6C4B59
:107710001A7BAAB11E731A78013A062A8CD801A1E5
:1077200051F822F0CF770200F577020013780200BB
:1077300019780200397602001F78020031780200C1
:107740001A78072AE7D801A151F822F06D770200D4
:10775000177702001777020093770200A7770200DD
:10776000CB770200CB7702008F7702001A89554948
:1077700001321A8100225A801A730A78B2FA82F210
:1077800052099A720A7DB2FA82F25209DA72012221
:1077900007E04D4958688A884088033202448A804D
:1077A00002221A70B7E7474C5A884749142505FB4F
:1077B00002420868546850608888108102200C607A
:1077C0008880002111740622EBE70722E9E79A7A04
:1077D00032B9DA7A8AB900221A705A805A6069E698
:1077E000384900229A72CA68002AF2D1097C00291D
:1077F000EFD05A80FFF7FAFD51E70022DA72314AE2
:10780000116A0029E7D192F82420002AE3D001224E
:10781000EFE7FFF797FC42E7FFF734FC3FE7294A21
:107820005B88142101FB03235868FFF75FFC36E7F0
:1078300000225A60FFF746FC31E701228DF80C2048
:107840001A89ADF818209A88DB68ADF81A200593DC
:1078500010E002228DF80C201A89ADF818209A88C1
:10786000ADF81A20DA689B7D05929A1F5342534166
:107870008DF81C3003A8FFF7C5FB002649461348C6
:10788000C8F8006000F0CAFB0121114800F079FC43
:1078900000287FF4C5ADBFE603228DF80C20DA88FE
:1078A000ADF818201A89CFE70422DB888DF80C2068
:1078B000ADF81830DEE705238DF80C30DAE700BFAD
:1078C000242E0020402E0020082F0020F42E00201F
:1078D000042F0020182F00204068FFF799BD0000FA
:1078E00008B50121044800F036FC18B9BDE808408D
:1078F000FFF78EBD08BD00BF042F00202DE9F34126
:107900009846374B1B7806460D46002B5CD0002965
:107910005DD009884FF6FF7399425BD06B88002BCE
:1079200058D06B689B0758D14AB92F890DF10201D5
:107930003846FFF777FB30B102B0BDE8F08113881D
:107940005788ADF8023001A8FFF718FC044660B96B
:10795000BDF80230234A142101FB03235889033860
:10796000C01B588148F20760E6E700238375BDF825
:10797000023083826B68036180F8008001211A481D
:1079800000F0F4FB2B882381B8F1030F6B88A380F0
:1079900004BF0423A3754FF0000508BF3368E060FF
:1079A00008BFA361E780658101A9104800F0FBFAD8
:1079B00036B1E36833600E4B75601B89B572338155
:1079C000FFF78EFF0020B7E748F20160B4E748F206
:1079D0000460B1E748F20360AEE748F20260ABE74B
:1079E0001C2E0020402E0020382E0020F42E0020D7
:1079F000242E002008B5084B1A68042A09D01968FB
:107A0000064A42F821000121184600F0AFFB002091
:107A100008BD48F20B60FBE7102F00200C2E002061
:107A20002DE9F04F89B01422002103A80BF07CFB54
:107A3000784A137803F0FF01009190463BB103A808
:107A4000FFF7E0FA0027384609B0BDE8F08F101DB7
:107A500000F0A2FB0028F5D140F6F8734FF08052F9
:107A60001B685C1C08BF6C4B6C4C08BF1B68116921
:107A70005269581C08BF02FB01F323610022A3F5E1
:107A800040536749E360204600F0A8FD0194074693
:107A90000028D8D11C238C2262496348DFF89CB1AE
:107AA00000F022FABA463D464FF003093C46019BDE
:107AB000DE6856443046FFF76FFB012860D042B2C3
:107AC000002A4AD0032827D13268531C02D0574BD2
:107AD0009A4234D1321D06F58051106801302ED102
:107AE00004329142F9D1DBF800203AB90222012395
:107AF000CBF80060ABF8042000930BE01422624343
:107B00004B4B0220991898544A4A4E6054800134D5
:107B10000881A4B245F001050AF5805ABAF5405F24
:107B2000C5D1B9F1010F98BF0025EDB2022D03D0E8
:107B3000062D44D0002D4CD148F20A6783E73C491A
:107B400014226243881809F1FF39466003208854E3
:107B50001FFA89F90134A4B2DEE7354914206043E5
:107B600001EB000C0A5400F1100208300A44CCF872
:107B7000046001443046FFF73DFB45F00205E9E7AC
:107B8000009B6BB12A4B142262439918022098542F
:107B9000DBF800204A60274A088154800134A4B2EF
:107BA00000222549CBF800603046FFF723FBBBF8E5
:107BB0000420022A0CBF042208221543ACE701234B
:107BC00088F8003003A80023C8F80430FFF71AFA39
:107BD00039E702A8FFF7D2FAC8B10123013D0370CB
:107BE0000A2D09D8DFE805F0060806080708070887
:107BF0000F110F000023037102A90B4800F0D3F905
:107C0000FFF76EFE1FE70323F5E70223F3E748F2D1
:107C1000076718E71C2E002014100010D02B00203E
:107C2000405F0300682E0020F42E0020DEC0ADDE91
:107C3000402E0020242E00200C2F0020082F002092
:107C400073B50D460446C8B1C1B10DF10601FFF789
:107C500035FBB0B10C4BBDF806006668142202FB80
:107C6000003001210C3000F081FA63682E600C3383
:107C70006B600123A372002002B070BD48F2046063
:107C8000FAE748F20960F7E7402E002013B50446F2
:107C9000A8B10DF10601FFF711FB98B10C4ABDF830
:107CA0000630142101FB0323DA6872B1A27A62B1B3
:107CB000DA680020013ADA60A07202B010BD48F222
:107CC0000460FAE748F20960F7E748F20560F4E774
:107CD000402E002002230022FFF710BE18B103231C
:107CE0000022FFF70BBE48F204607047114B1B786F
:107CF00013B50446ABB14FF6FF73984214D001A8F8
:107D0000FFF73CFA98B10523037001230371C48087
:107D100001A9094800F047F9FFF7E2FD002002B091
:107D200010BD48F20160FAE748F20360F7E748F255
:107D30000760F4E71C2E0020F42E00200F4B1B7868
:107D400007B5A3B101A8FFF719FA98B1062303708C
:107D500001A90B4800F027F90A4B1A780AB1012251
:107D60001A73FFF7BDFD002003B05DF804FB48F275
:107D70000160F9E748F20760F6E700BF1C2E00201B
:107D8000F42E0020242E002007B5ADF80600ADF833
:107D900004100DF1060001A9FFF7E4FA03B05DF845
:107DA00004FB07B51346ADF806000A4600200DF1A6
:107DB0000601FFF7D7FA03B05DF804FB07B51346D9
:107DC000ADF806000A460DF106000021FFF7CAFAD9
:107DD00003B05DF804FB20B119B103680B6000200B
:107DE000704748F2046070472DE9F84F3C4B1B7810
:107DF0000446002B6ED000286FD012220021DFF83D
:107E0000E4A00BF091F9032323804FF0000BD04640
:107E100014274FF00109DAF80410BAF80A50BAF83A
:107E200008600846FFF7B8F9032808BF238862886E
:107E300004BF03F1FF33238007FB0B832E44DB6871
:107E40001344638023891D4463892581B6B233447A
:107E50006381C6F58066A389B6B2B34238BFA681F6
:107E600001F1080501F58056AE4217D92B680133A0
:107E700014D031462846FFF7A7F9012819D010F091
:107E8000FF0F23D00228EFD1E38884F81090761BEF
:107E9000E589013305EBA605E380E5810AF1140AC3
:107EA000BBF1000F02D00020BDE8F88F4FF0010BAE
:107EB000B1E7E3880133E380E3896A88033313443D
:107EC000E3816B88033305EB8305CDE7A38801339A
:107ED000A380F6E748F20160E6E748F20460E3E7D2
:107EE0001C2E0020402E002010B561B1B2FBF3F42F
:107EF00003FB1424A4B244B9C0E900148460828155
:107F0000C381204610BD0E20FCE70920FAE782B0AD
:107F100050E8022FC188B2EB324F4FF0000317BF79
:107F200092B241EA014142EA014104E04268B2EB07
:107F3000324F08BF012340E80212002AE8D18DF831
:107F400007309DF80730002B0CBF1120002002B035
:107F5000704737B550E8013F9DB2C48925448489F4
:107F6000A54228BF2D1B0489A54202BFBFF32F8F56
:107F7000002207E0C5EA030540E80154002CE9D1DE
:107F80004FF001028DF803200193019B9DF803201F
:107F90000B6002F0FF0322B10B880068184403B0A5
:107FA00030BD1846FBE70A884B889A4209D150E851
:107FB000012FC2EA024240E80123002BF7D1012041
:107FC00070470020704737B550E8023F1FFAA3F50D
:107FD000C488A54202BFBFF32F8F00220DE0C489E1
:107FE00025448489A54228BF2D1BC3EA054540E8E6
:107FF0000254002CE8D14FF001028DF803200193C8
:10800000019B9DF803200B6002F0FF0322B14B8817
:108010000068184403B030BD1846FBE70A884B8857
:108020009A4209D150E8022FC2EA224240E80223D4
:10803000002BF7D1012070470020704701F01F028C
:108040004B090121914000EB830000F063B84B091C
:1080500010B501F01F040121A14000EB830000F0E6
:108060004EF8E04000F0010010BD01F01F030122B6
:108070009A404B0900EB8300D14300F061B84B09F3
:1080800001F01F0150F82300C84000F001007047C4
:108090002DE9F0474E1E760980460F460136002531
:1080A00058F8254008EB8509E44394FAA4F4B4FA9F
:1080B00084F44FEA451A202C06D10135AE42EFD8A0
:1080C0003C462046BDE8F0875444A742F5D92146F6
:1080D0004046FFF7BCFF0028F3D0D9F80040E44346
:1080E00094FAA4F4B4FA84F4E5E750E8002F0B46C0
:1080F00040E8003C9CF0000FF7D11046704750E874
:10810000002F42EA010340E8003C9CF0000FF6D14A
:108110001046704750E8003F43EA010240E8002C57
:108120009CF0000FF6D11046704750E8002F02EA8D
:10813000010340E8003C9CF0000FF6D11046704768
:1081400050E8003F03EA010240E8002C9CF0000FD9
:10815000F6D11046704750E8002F02EB010340E8CB
:10816000003C9CF0000FF6D11046704750E8003FED
:1081700003EB010240E8002C9CF0000FF6D1104602
:10818000704750E8003FA3EB010240E8002C9CF050
:10819000000FF6D1104670470121FFF7B0BF012153
:1081A000FFF7B8BF0021FFF7C0BF10B590B1D0E90D
:1081B000012301689B1ADBB20A60013BDBB2FF2B93
:1081C000026802D10020107110BD11684C1C1460AF
:1081D0000B70F2E70E20F7E737B5054600240DF1E6
:1081E00007008DF80740FEF7D3FE2A686B68116818
:1081F00099420ED9481E106011F8014CEB68298A8B
:1082000001FB0434AB6811791B1ADBB2994238BF09
:1082100013719DF80700FEF7DFFE204603B030BD66
:1082200037B5054600230DF107000C468DF80730E1
:10823000FEF7AEFE2A681368591C1160E968641ADB
:10824000298AB4FBF1F41C709DF80700FEF7C4FE08
:1082500003B030BD826810B504462AB14369016895
:10826000006998470023A36010BD0EB403B50399BD
:1082700021B104AB01AA019300F074F802B05DF8DB
:1082800004EB03B070470A2938B504460D4602D105
:108290000D21FFF7F8FFA3682268591CA160D5548F
:1082A000D4E901329A4204D32046BDE83840FFF7B2
:1082B000D1BF38BD2DE9F84F9946DDE90A4317468D
:1082C000824688460A460126BA420FD24E4538BF3A
:1082D0004E4613F0010B01D164B900240125B9F118
:1082E000010F1AD909F1FF397D43F8E7B2FBF7F224
:1082F0000136E9E79B070ED5B9F1000F0CBF302519
:108300002025A642EAD2013C29465046FFF7BBFF92
:10831000002CF6D1E1E72025F3E7B8FBF5F39F4207
:10832000E2D9DFF83C90B8FBF5F3504619F803109A
:1083300005FB1388FFF7A7FFB5FBF7F3BD4207D294
:10834000BBF1000F02D00CB1A64203D3BDE8F88FF9
:108350001D46E8E720215046013CFFF794FFF2E775
:10836000555D03002DE9F74F05461746884600295D
:1083700000F0308118F8011B49B92B7B002B00F06D
:108380002981284603B0BDE8F04FFFF763BF2529D8
:1083900040F0C080002698F800302D2B424608F1AE
:1083A000010823D0302B24D02B2B25D000242A2BBE
:1083B00002F1010123D13B681A1D1B683A601C447D
:1083C0000A4613782E2B26D101324FF000091046B1
:1083D00010F8011BA1F1300CBCF1090F1DD80A23C4
:1083E00003FB0913A3F130090246F0E746F001064A
:1083F000D1E746F00206CEE746F00406CBE711F8D7
:10840000013CA3F130000928DBD80A2202FB043426
:10841000303C0A46CBE74FF0000912F8011B01F08F
:10842000FB0068289046F8D069290ED04AD8582910
:1084300064D006D825296DD098F80030002B99D14A
:108440009BE7632962D06429F6D13A68D2F800A08C
:10845000111D8AEAEA723960A2EBEA724FF0010B51
:10846000092A5BDCCB4538BFCB462CB1BAF1000FF3
:1084700001DB720700D5013CB30702D5B9F1000F4B
:1084800004D0F00702D4002C4ED10024BAF1000F22
:1084900052DACAF1000A2D212846FFF7F4FE06F051
:1084A0000302022A05D1B9F1000F02D1002C47D1F5
:1084B0000024CDE900464B460A2251462846FFF7E4
:1084C000F9FEB9E773294CD014D87029B4D13B68B0
:1084D0001A1D3A60302128461C68FFF7D4FE782127
:1084E0002846FFF7D0FE00220823CDE900322146BE
:1084F0001022E3E775292BD078299DD139680A1D10
:108500003A60CDE900464B46102228E03B681A1D30
:1085100019783A602846FFF7B6FE8DE70A230BF17B
:10852000010BB2FBF3F29BE7A345AFD22021284613
:10853000013CFFF7A8FEA6E77107B0D52B21ABE7FA
:10854000A345B6D230212846013CFFF79CFEADE79B
:108550003968CDE900460A1D3A604B460A2209688F
:10856000ACE73B681A1D3A6016F00106D3F800A08C
:1085700020D1BAF1000F03D050460AF02AFE064679
:10858000B44200D9C4B90AF1FF3A1EE028460136C8
:10859000FFF779FE1AF806100029F7D1A642BFF4BA
:1085A0004BAF002C3FF448AF20212846013CFFF799
:1085B0006AFEF3E70026EDE720212846013CFFF79D
:1085C00062FEDDE72846FFF75EFE1AF8011F00296C
:1085D000F8D131E703B0BDE8F08F000007B50B46D6
:1085E00088B9124B1248134AC01A0E23C0080093D0
:1085F000114B0004114940F0010002F03EFD0E2035
:1086000003B05DF804FB4BB9084B09480C4AC01A8B
:10861000C0080E2300930004074BEBE703601B68C0
:10862000114603B05DF804EB184700BFE85B030098
:10863000585C0300125E0300655D0300175E0300D3
:108640008E5E03002DE9F34188B93D4B3D483E4A1B
:10865000C01AC0080E243D4B009400043C4940F071
:10866000010002F00AFD204602B0BDE8F0814AB9DF
:10867000334B3448374AC01AC0080E240004009413
:10868000324BEBE7D0F800C0BCF1000F09D12C4B06
:108690002C48314AC01AC0080824000400942B4B0F
:1086A000DCE74BB9264B27482C4AC01AC0080924DE
:1086B00000040094254BD1E74768D7F80480B3FB4A
:1086C000F8F708FB17374FB11D4B1E48244AC01A54
:1086D000C0080924000400941C4BBFE78F0709D091
:1086E000174B18481F4AC01AC008102400040094F1
:1086F000164BB3E712F0030F09D0114B11481A4A79
:10870000C01AC008102400040094104BA6E7C768E4
:10871000B9420BD34C1E05691C44AC4206D8DCF8A8
:108720000C40A44602B0BDE8F0416047044B054848
:108730000E4AC01AC008102400040094034B8DE7B1
:10874000E85B0300585C0300125E0300775D0300E2
:10875000175E0300945E0300885E0300475E03001B
:108760009A5E0300C45E0300DC5E0300FF5E03004C
:10877000F7B580B92A4B2B482B4AC01AC0080E24E3
:108780002A4B009400042A4940F0010002F075FCD5
:10879000204603B0F0BDD0F800C0BCF1000F09D1F5
:1087A0001F4B2048234AC01AC00808240004009424
:1087B0001E4BE8E74AB91A4B1A481F4AC01AC008AC
:1087C000092400040094194BDDE74768D7F800E05E
:1087D0000EF1FF370F4209D0114B1248174AC01A49
:1087E000C008102400040094104BCCE7C768B942BD
:1087F0000CD34C1E05690EFB0244AC4206D8DCF8D3
:108800001040A44603B0BDE8F0406047044B054863
:108810000B4AC01AC008102400040094034BB2E7AE
:10882000E85B0300585C0300125E03008A5D0300EE
:10883000175E0300885E0300475E03009D5D030032
:10884000C35D030029DF704728DF704770B50368F8
:108850009D6886B004460E466DB11422002168461C
:108860000AF062FCA3680593237901962BB1012BD2
:108870000DD06846A84706B070BD01238DF80030C2
:1088800023690293E368039363690493F1E7022386
:108890008DF80030E3681B030293F5E70846704744
:1088A00000207047024B187A003018BF0120704733
:1088B000BC2F0020034B187A0122B0FA80F05A74C2
:1088C00040097047BC2F002008B510461A460AF030
:1088D00002FC002008BD000008B514220021044855
:1088E0000AF022FC0348FFF712FB002008BD00BF7E
:1088F000BC2F0020AC2F002010B5094C094B436061
:108900002046FFF749FC40B909F04CFE1C232074B7
:108910008C2205490548FFF7E7FA002010BD00BF8B
:10892000BC2F0020345F0300202F0020AC2F00203C
:1089300070B5244C244E237A25463BB9234924485C
:10894000FFF741FB306008B9606070BD34680223F6
:108950002B72237973B1012B24D020460321FFF71A
:1089600075FF00232B726B6018491948BDE87040F1
:10897000FFF754BBD4E90523D21AB2F5805F28BFB4
:108980004FF48052D4E903109208012A38BF012223
:1089900019441844FFF756FF50B11128DDD10123C7
:1089A0002B72D2E7D4E903031844FFF74DFFF3E736
:1089B0002B7C002BC9D10146BDE87040022000F09D
:1089C00009B800BFBC2F0020D42F0020D02F0020DA
:1089D000AC2F002038B5831E012B45D8234C237AB9
:1089E000002B41D0022B09D1032830D0204B1B682B
:1089F0000022E2601A793AB1012A22D0637C7BBB63
:108A0000BDE83840FFF794BFD3E905128D1AB5F5DC
:108A1000805F94BF521902F580529A619142EDD164
:108A200002284FF0000308BF19462372104B18BFED
:108A30000D211868FFF70AFF0E490F48FFF7EEFAFD
:108A4000DCE71A6901321A615B699A42E7E7E36879
:108A50000133082B01D8E360D0E70023E360DFE7B0
:108A6000BDE8384009F08EBD38BD00BFBC2F0020E6
:108A7000D42F0020D02F0020AC2F002000F0FD03C9
:108A8000012B08D1044B00225A74421E504250411F
:108A90001874FFF74DBF7047BC2F002010B5064C6F
:108AA000201DFFF779FB28B9637C1BB9BDE8104096
:108AB000FFF73EBF10BD00BFBC2F00202DE9F341E2
:108AC00080460D460F4801A916461F46FFF741FA9A
:108AD0000446A8B11C2200210AF026FB2D0B01231D
:108AE000237101A9C4F80080A760E56066610548AC
:108AF000FFF759FAFFF7D2FF002002B0BDE8F0817E
:108B00000420FAE7AC2F00202DE9F7438146884680
:108B1000104801A917461E46FFF71BFA0446B0B1DC
:108B20001C2200210AF000FB00250A9BA36001A97A
:108B30002571C4F80090C4E9037866610548FFF721
:108B400032FAFFF7ABFF284603B0BDE8F0830420FC
:108B5000FAE700BFAC2F00202DE9F047B0F80690EF
:108B60004479D2F800A09DF8208009FB04F4043C6D
:108B700006460AEB0300A0420F4688BFA4EB030A97
:108B8000191DC2F800A0B1FBF9F509FB15114DB98B
:108B9000A9EB0104544528BF5446BAF1000F04D193
:108BA000BDE8F0873668013DF1E704317B197018A4
:108BB0002246B8F1000F0ED001461846AAEB040A6F
:108BC0000AF089FAD145254436684C464FF0000139
:108BD00028BF5446E1E71946F0E7FFF7E6BAF8B5D3
:108BE00046790146721E0546002393422D6803D341
:108BF0000024A64202D8F8BD0133F6E70F682846E4
:108C0000FFF70EFB01343946F3E72DE9F843068AF6
:108C1000CD1C0746FFF7E0FA043E35440446B5FB99
:108C2000F6F5F0B14FF48073EDB28380C680013D5C
:108C3000076081464FF00008A84512D23846FFF77A
:108C4000CBFA064648B163790133637108F1010834
:108C5000C9F8000007608146EEE72046FFF7BFFF36
:108C600034462046BDE8F88301210430FFF77EBA80
:108C700010B5012104460430FFF783FA10F0FF0F0E
:108C800004D12046BDE81040FFF7A9BF10BD1FB5B5
:108C900003920022009203AAFFF75EFF05B05DF881
:108CA00004FB1FB503920122009203AAFFF754FFB1
:108CB00005B05DF804FB41DF70470000064B10B5BE
:108CC00000241C70054B1C60BFF35F8F04490548EE
:108CD00000F00DF9204610BDE02F0020E42F002009
:108CE000605F0300D82F002007B500230DF10700B7
:108CF0008DF80730FEF74CF9F1EE103A23F09F03A0
:108D0000E1EE103ABFF35F8F094B4022C3F8842194
:108D10009DF80700FEF760F909F044FC20B1FFF769
:108D2000CAFF03B05DF804FB20BF40BF20BFF8E7D7
:108D300000E100E0026813685268934291BFD01AC4
:108D400080680130801888BFC01A704703682DE919
:108D5000F0411F681D685B689D4284BF83680133D2
:108D6000164688465D1BC2684168AE42044607FB52
:108D700002110CD8724340460AF0ADF9A3683E4494
:108D80009E4288BF002623681E60BDE8F08105FB77
:108D900002F73A4640460AF09EF9E2686168751BA0
:108DA0006A4308EB07000AF096F923681D60ECE7B8
:108DB000036881681A685B688B4234BF0133002303
:108DC000D31A584258417047F7B5002304460DF1B5
:108DD00007000D468DF80730FEF7DAF82046FFF75A
:108DE000E7FF10B1237C002B3CD12268A6685368B2
:108DF0005168B14234BF01310021516030B1116876
:108E0000A068814234BF013100211160E2686068CE
:108E1000511E072920D8DFE801F004101F141F1F7E
:108E20001F182A78C2542046FFF784FF23689A68E7
:108E3000824200D29860002415E02A8820F813208E
:108E4000F1E72A6840F82320EDE7D5E9006700EB59
:108E5000C300C0E90067E6E7294602FB03000AF009
:108E60003AF9E0E704249DF80700FEF7B5F820463C
:108E700003B0F0BDF7B506460F461446AAB10DF192
:108E8000070000258DF80750FEF782F83046FFF7FF
:108E900051FFA0420CD3224639463046FFF756FF19
:108EA0002C469DF80700FEF797F8204603B0F0BD6A
:108EB0000524F6E737B5054600240DF107008DF8C7
:108EC0000740FEF765F80C22214628680AF02CF9C5
:108ED0009DF80700FEF780F803B030BD83680022DC
:108EE0005A609A60C3E90422DA601A6070470B681E
:108EF0004A684360934208BF0023016008BF436093
:108F00007047436843B10268916852680B449342CA
:108F1000436004BF002343607047000010B50D4953
:108F2000A1F59472914201D800200FE08B1ADB105A
:108F300003EBD3735B1002EBC30452F8333083426C
:108F400005D802D204F10802ECE7606810BD2146A2
:108F5000E8E700BFB060030008B5FFF7DFFF024B92
:108F6000002808BF184608BD755F03000B7B23B1BE
:108F70004B6803600023037170470B680360012393
:108F8000F9E703684A68896810B5D41A8C428BBF28
:108F90005B1800230360026098BF037110BD036873
:108FA0000A68896810B59C1A8C428BBF5B1A012332
:108FB0000360026098BF037110BD037910B50446C9
:108FC0001BB1FFF7DEFF206810BDFFF7E8FFFAE7EF
:108FD00038B5074C051E04F1080318BF1C4623686A
:108FE0002BB11A6822605B6828469847F7E738BDBE
:108FF000F02F002020B9054B01225A70FFF7E8BF7F
:10900000012802D1014A9070F8E77047E82F00204C
:1090100020B9034B01225A70FFF7DABF704700BF37
:10902000E82F002038B50E4C2378B3B90D486360A3
:10903000A3602361E36000F0C3F9054609F0B2FACA
:1090400008B900F0C9F901232370074BD3F80034A5
:109050000BB10123A370284638BD8525F5E700BF75
:10906000E82F0020F58F02000000014037B50D4CBD
:1090700000230DF107008DF80730FDF789FFE36845
:10908000013BE360E36833B9074BD3F8005415B9EB
:1090900000F0B4F9A5709DF80700FDF79DFF03B03F
:1090A00030BD00BFE82F002000000140012813B5AB
:1090B0000DD018B1032820D002B010BD114B0122F1
:1090C000C3F88020BFF34F8FBFF36F8FF4E70E4CD0
:1090D00000230DF107008DF80730FDF759FF2378C5
:1090E0000BB9FFF79FFFE3689DF807000133E360CA
:1090F0000123A370FDF770FFDEE700F06DF9FFF7C5
:10910000B5FFD9E700E100E0E82F002031DF70472C
:109110001FB500238DF807000DF10F008DF80F30FB
:10912000FDF736FF09F03EFA50B90DF10701084886
:10913000FFF74AFE0648FFF73BFE08B100F0E0FBF0
:109140009DF80F00FDF748FF05B05DF804FB00BF78
:10915000885B030007B520B103280BD003B05DF88E
:1091600004FB0F4B1B78012BF8D100F0C9FB00F07A
:10917000CFFBF3E700230DF107008DF80730FDF773
:1091800007FF07480378012B05D10649013000F09D
:1091900077FB00F0A3FB9DF80700FDF71DFFDDE75F
:1091A0004C3000201191020013B5124C2378FBB90A
:1091B000114A8DF80730002808BF10460288A4F82D
:1091C00001200DF10700FDF7E3FE09F0EBF930B9DE
:1091D0000A49601C00F054FB40B900F07FFB0123FA
:1091E0009DF807002370FDF7F7FE002002B010BDC8
:1091F0008520FBE74C3000207064030011910200D1
:1092000007B500230DF107008DF80730FDF7C0FE0C
:1092100009F0C8F918B900F073FB00F079FB9DF86C
:109220000700FDF7D9FE0448FFF744FE034B002278
:109230001A7003B05DF804FB885B03004C3000201B
:109240002DE9F7430024DFF8589005460E46A04666
:109250000DF107008DF80780FDF79AFE09F0A2F9DD
:10926000074638B9324629464846FFF703FE04460A
:1092700000F034FB9DF80700FDF7AEFE47B1314624
:109280002846FFF743FF42F207039842044605D001
:10929000022CDDD0204603B0BDE8F0830524F9E7B9
:1092A000885B0300F8B505460C4604B9F8BD402CB0
:1092B000264628BF4026F7B239462846FFF7C0FFAA
:1092C0000028F9D1A41B3544EFE700001FB503784F
:1092D0008DF800304368019383688DF80830C368C7
:1092E0000393054A054B684653F8213052F8211084
:1092F000984705B05DF804FB503000205430002042
:109300001FB503788DF800304368019383688DF8AA
:109310000830C3680393054A054B684653F821306B
:1093200052F82110984705B05DF804FB503000203A
:1093300054300020F0B5184B077891F81DE043F841
:109340002720164B16460A6943F82720144B03F8CA
:1093500007E00C4684460FCC89B06D460FC594E8F3
:109360000F0085E80F000497BEF1000F0AD0002E11
:109370000C4A694608BF32460CF1040000F0E4FDD7
:1093800009B0F0BD002E084A694608BF32460CF10C
:109390000C0000F0C9FBF3E75430002050300020EF
:1093A00058300020CD9202000193020000F180406D
:1093B000002382B0036003680193019B02B07047F1
:1093C000044A137923B9012110609180184670472F
:1093D000852070475C300020074B1A68D20704D400
:1093E000C02283F8002301221A604FF0804301223B
:1093F000C3F81825704700BF00E100E04FF080423D
:1094000008B50223C2F808334FF48270FFF7CEFF8D
:10941000034B01211960D2F81834DB03FBD408BDDB
:109420000C000040124B1B6810B573B14FF48070F4
:10943000FFF7BCFF4FF080430122C3F808230D4B18
:10944000587910B95A711B6898470B4B1B6873B158
:109450004FF48270FFF7AAFF4FF080430222C3F857
:109460000823044B01201B68BDE81040184710BDBD
:10947000000100405C3000200401004000F1804009
:1094800000F5C040002382B0036003680193019B94
:1094900002B07047800000F1A040D0F8003723F4FC
:1094A0004033C0F80037D0F8003743EA0141C0F834
:1094B00000177047054B4FF0FF32072843F8202074
:1094C00084BF1B1883F84820704700BF6430002019
:1094D00010B51A4C94F858306BBB4FF0FF3222FA9B
:1094E00003F1C90748BFE11803F1010348BF81F840
:1094F0003020202BF3D10021C8B2FFF7DBFF013170
:109500000C29F9D1042200210D4809F00DFE0D4B64
:10951000C02283F8062340221A604FF4BE70FFF782
:10952000ADFF094B4FF00042C3F80423012384F838
:109530005830002010BD0820FCE700BF6430002038
:10954000B830002000E100E000600040034B93F8D9
:109550005800003018BF0120704700BF6430002061
:10956000F0B5374B1C1894F93040002C1C4664DAD7
:109570008D78C5F34005002D0BBF082300230C2672
:109580000826B34201D10420F0BD54F823700137FE
:109590003FD1261844F8232086F8303015B9E21858
:1095A00082F848008A78550713D4D60733D582004D
:1095B00002F1A042D2F8005725F00205C2F8005788
:1095C000204EC50800F007070122BA40775D3A43F4
:1095D00072558A780D7812F0020225D09B0003F1B3
:1095E000804303F5C0430202D3F8101521F447313C
:1095F00021F44071C3F810152D04D3F8101502F4AE
:10960000F85205F440352A430A43C3F810250020D8
:10961000BAE70133B5E74D7800F5E0724FF0A046A8
:10962000AD0046F82250CBE7083B234493F8501096
:1096300041EA851583F85050E9E70820A4E700BF08
:1096400064300020B830002038B51F4C251895F93B
:109650003020072A17DD224492F84810890903298F
:109660000CD14FF0A043D3F81035C34013F0010FD5
:1096700008BF0221BDE83840FFF70CBF012914BF25
:1096800003210221F6E7D3B2072B1CD8930003F184
:10969000804303F5C043D3F8100540F00100C3F840
:1096A000100502F14000800080B2FFF7E7FE51B1E3
:1096B00095F9303054F823302BB1012303FA02F22C
:1096C000024BC3F8042338BD643000200060004022
:1096D0002DE9F34700244C4D01944FF48072012191
:1096E00002F1804303F5C04390B21B68012B06D101
:1096F000D5F804330B4202D0FFF7C0FE0C4304320E
:10970000B2F5907F4FEA4101EAD1404B1B68012B33
:109710000CD14FF4BE70FFF7B1FE4FF0A04344F000
:109720000044D3F820250192C3F8202514F0FF0F40
:109730001AD0374F00250126344210D0AB0003F178
:10974000804303F5C043D3F81005D3F8101557F83C
:10975000253023B1C1F30141C0F3042098470135FE
:10976000082D4FEA4606E7D1002C46DA284F4FF085
:10977000A046DFF8A0804FF0000A4FF0010918F969
:10978000011B4B1C2DD0CAB222F0C00402AB03EB6C
:10979000D40313F8041C02F0070309FA03F3194277
:1097A0001FD004F5E073204656F82350C5F3014559
:1097B000022D0CBF03210221FFF76CFE09FA04F30E
:1097C000C6F820353B1993F9303057F8233043B1B0
:1097D0009109032903D0022D12D1012901D120467C
:1097E00098470AF1010ABAF1040FC8D1D6F820351A
:1097F0000193C6F82035002BBBD102B0BDE8F0873D
:10980000032DEED10229E9E7006000407C610040B1
:1098100064300020B4300020014B1B68184700BFA3
:10982000C03000200E4B984237B50D4602D00020C4
:1098300003B030BD00230DF107008DF80730FDF7B0
:10984000A7FB084B1C7914B901221D601A719DF801
:109850000700FDF7C1FB002CE9D01120E8E700BFAD
:1098600000200040C0300020034B984201BF034B52
:1098700000221A601A71704700200040C03000209A
:1098800010B5124C2278FAB9114B1960037813F015
:10989000010F104B1EBFD3F8042542F00102C3F89C
:1098A0000425D3F8002222F00102C3F800224378F5
:1098B000094A5B01DBB282F80D334FF400531360A9
:1098C00001232370002010BD8520FCE7CC30002050
:1098D000C830002000D0004000E100E0064B00222C
:1098E0001A6082B01B680193019B044B0122C3F8EC
:1098F00004231A6002B0704700D1004000D000403D
:10990000024A0123C2F808335360704700D0004078
:10991000084A0123C2F808335360074B4FF4005242
:10992000C3F88020BFF34F8FBFF36F8F034B00222C
:109930001A70704700D0004000E100E0CC300020F9
:10994000074B00221A6082B01B680193019B054BF4
:10995000D3F80805044B1B68C0B202B0184700BF1B
:1099600000D1004000D00040C83000200023435008
:1099700082B043580193019B02B070470A4610B56C
:109980004FF48E71FFF7F2FF136A9168C95C136A96
:1099900001331362C0F81C1510BD8B690A4610B55F
:1099A0004FF4847123B9FFF7E1FFD0F8183510BDEB
:1099B000FFF7DCFF536AD168D0F81805C854536A22
:1099C00001335362F3E700001FB501238DF8003027
:1099D000044BCDE90110D3E900126846904705B069
:1099E0005DF804FBD030002030B54D4AD2F8043386
:1099F00013F4007F85B015464FD0D2F82431002BE8
:109A00004BD04FF492711046FFF7B0FF4FF4017343
:109A1000C2F80833434B93F8291009B9012151606A
:109A20003F4902228DF80020D1F88024C1F880241B
:109A300003929A690292DA6801920022C3E906222F
:109A40006846D3E9001290473548D0F81C315BB125
:109A500034494A690B6A9A420A464BD991F8283030
:109A6000002B47D1FFF78AFF2D4AD2F8443193B13A
:109A70004FF4A2711046FFF779FF2A4B93F8291093
:109A800009B1012111609A692AB100229A61586ACC
:109A9000D968FFF799FF05B030BDD5F804335B07EF
:109AA000D2D5D5F80831002BCED01E4C1C4821460B
:109AB000FFF773FF636AA2699A422346C4D1E26941
:109AC000E1684AB12369E3600023606AA261E3614F
:109AD0006362FFF779FFB7E794F829200AB90122FA
:109AE0006A600F4A4FF40170C2F8080300229A61BD
:109AF000586AEEE74FF48E710948FFF737FF536954
:109B0000002BB1D051690291002391688DF800308B
:109B1000019153616846D2E900139847A4E700BF5A
:109B200000200040D03000202DE9F843534F047945
:109B300091462C2202FB0472064692F82A200D461A
:109B4000002A40F095804E490068FFF76BFE804682
:109B5000002840F0908029683368481C0BD04FF0F3
:109B6000A04001228A40C0F8082501F5E0724FF0BC
:109B7000030C40F822C06868421C1FBF00F5E07269
:109B80004FF0A04C4FF0000E4CF822E0AA6995F877
:109B900014C0C3F824256A7DBCF1010F4CEA02020F
:109BA000C3F86C25C3F81405C3F80C151DD1AA68B9
:109BB000511C1FBF02F5E0714FF0A0404FF0000CA8
:109BC00040F821C0E968481C0BD04FF0A04C0120A0
:109BD0008840CCF8080501F5E0704FF0030E4CF812
:109BE00020E0C3F80815C3F810252C236343FA18A6
:109BF000C2F804902A69FA50B9F1000F20D04FF44E
:109C00008E7130682A7FFFF7B1FE4FF4A271306881
:109C1000FFF7ACFE33681B49C3F804131B0B59B2A2
:109C200052010029D2B21EDB1748451885F80023DF
:109C30000122490903F01F0302FA03F340F821301F
:109C400033680422C3F800252C2303FB047300228D
:109C5000C3E9062283F829205A61012283F82A20C9
:109C60004046BDE8F88303F00F030849CA54E7E70C
:109C70004FF00808F4E74FF01108F1E7D03000206A
:109C8000E99902008000020000E100E014ED00E02C
:109C9000F8B503680479304D0022C3F800252C2262
:109CA00002FB04525268A2B12C4AC3F808231B0BD2
:109CB0005AB2002A0DDB0121520903F01F0301FAF9
:109CC00003F32032264941F82230BFF34F8FBFF310
:109CD0006F8F0068D0F80C65D0F81415D0F80835EF
:109CE000D0F810254FF0FF37BE42C0F8147518BFEA
:109CF00006F5E076C0F80C75C0F80875C0F8107568
:109D00001EBF4FF0A0474FF0020C47F826C04E1C74
:109D10001FBF4FF0A04601F5E071022746F8217001
:109D2000511C1FBF4FF0A04102F5E072022641F81E
:109D300022605A1C1FBF03F5E0734FF0A0420221BE
:109D400042F82310FFF790FD2C2303FB045400235B
:109D500084F82A306360F8BDD0300020840202000D
:109D600000E100E02DE9F84F224F06794FF02C0971
:109D700009FB067480466569002D38D16261A160D7
:109D800025624FF48E71006884F82850FFF7EEFDCD
:109D9000D8F80000012383602146FFF7EFFD6368D8
:109DA000A1469BB9D8F800A0D4F814B0236A9B450B
:109DB00012D8D8F80020D2F81C31002BFBD0012398
:109DC000D3602C2303FB067300225A612846BDE8AA
:109DD000F88F94F8283043B9DAF81C31002BF8D00A
:109DE00049465046FFF7CAFDE0E70F25E9E7112590
:109DF000ECE700BFD03000200023435082B043582E
:109E00000193019B02B070471FB501238DF800300C
:109E1000044BCDE90110D3E900126846904705B024
:109E20005DF804FBFC3000207FB5454AD2F8246180
:109E3000002E63D010464FF49271FFF7DDFF02232E
:109E40008DF80030D2F88034C2F880340393D2F811
:109E50003C3502933B4BDA6801920022C3E90622AB
:109E60006846D3E900129047354AD2F844317BB1B5
:109E70004FF4A2711046FFF7BFFF324B996939B119
:109E80000021C3E90611D968D2F83C05FFF7BCFFF1
:109E90002B4AD2F82031B3B14FF490711046FFF73E
:109EA000ABFF0123D360274B596961B1D2F84C1540
:109EB0000291002299688DF8002001915A6168464C
:109EC000D3E9001290471E4AD2F85831A3B14FF49B
:109ED000AC711046FFF790FF1A4B596961B1D2F887
:109EE0004C150291002299688DF8002001915A6169
:109EF0006846D3E90012904704B070BDD2F8103123
:109F0000002BB1D04FF488711046FFF775FF0D4B51
:109F1000D2F83C0599698842A6D1DC69D96864B158
:109F2000D2F8005225F02005C2F800521A699C614F
:109F3000DA60DE61FFF768FF96E79C61FAE700BF31
:109F400000200040FC3000202DE9F8435A4F0679EC
:109F50009146242202FB0672044692F820200D4608
:109F6000002A40F0A28055490068FFF75BFC80465C
:109F7000002840F09D8029682368481C0BD04FF0D2
:109F8000A04001228A40C0F8082501F5E0724FF098
:109F9000030C40F822C06868421C1FBF00F5E07245
:109FA0004FF0A04C4FF0000E4CF822E0AA6995F853
:109FB00014C0C3F824256A7DBCF1010F4CEA0202EB
:109FC000C3F86C25C3F80C15C3F814051DD1AA6895
:109FD000511C1FBF02F5E0714FF0A0404FF0000C84
:109FE00040F821C0E968481C0BD04FF0A04C01207C
:109FF0008840CCF8080501F5E0704FF0030E4CF8EE
:10A0000020E0C3F80815C3F8102524237343FA1879
:10A01000C2F804902A69FA50B9F1000F2FD04FF41A
:10A02000887120682A7FFFF7E7FE4FF4907120685F
:10A03000FFF7E2FE4FF492712068FFF7DDFE4FF468
:10A04000A2712068FFF7D8FE4FF4AC712068FFF7CB
:10A05000D3FE23681A49C3F804131B0B59B25201EB
:10A060000029D2B21CDB1748451885F800230122CD
:10A07000490903F01F0302FA03F340F82130236873
:10A080000822C3F80025242303FB06730022C3E93A
:10A0900006225A61012283F820204046BDE8F88359
:10A0A00003F00F030849CA54E9E74FF00808F4E742
:10A0B0004FF01108F1E700BFFC300020299E02009C
:10A0C0001003420000E100E014ED00E0F8B5454D5A
:10A0D00004790268242303FB045306465B68A3B19A
:10A0E000414BC2F80833110B4BB2002B0DDB0120A2
:10A0F0005B0901F01F0100FA01F120333B4840F8F1
:10A100002310BFF34F8FBFF36F8FD2F8003223F0CD
:10A110002003C2F80032242303FB04539B6933B1AC
:10A120004FF4A2711046FFF767FE012353604FF40E
:10A13000AC711046FFF760FE0123D360242303FBBC
:10A140000453D2F858110029FBD0996919B1D2F8FB
:10A1500044110029F5D00023C2F800353368D3F844
:10A160000C75D3F81465D3F80815D3F810054FF023
:10A17000FF3C6745C3F80CC518BF07F5E077C3F887
:10A1800014C5C3F808C5C3F810C51EBF4FF0A043DF
:10A190004FF0020C43F827C0771C1FBF4FF0A043BD
:10A1A00006F5E076022743F82670461C1FBF00F52F
:10A1B000E0704FF0A043022643F820604B1C1FBF05
:10A1C0004FF0A04301F5E071022043F82100104652
:10A1D000FFF74AFB242303FB0454002384F82030B8
:10A1E0006360F8BDFC3000201003420000E100E095
:10A1F00001F06043B3F1005F2DE9F041074638D12B
:10A200001E4B0679242505FB063598466C69002C03
:10A2100031D16A61A96000684FF49071FFF7ECFDDD
:10A220004FF4AC713868FFF7E7FD3B686A69A968CD
:10A23000C3F84415C3F8482501229A606A68AAB990
:10A24000D3F82021D3F858411AB9002CF8D00F24A4
:10A2500007E0002CFBD10122DA60D3F85821002A54
:10A26000FBD0242303FB0686002373612046BDE850
:10A27000F0811024FAE71124F8E700BFFC30002039
:10A280000023435082B043580193019B02B07047B2
:10A290000B7B032B2AD8DFE803F022261A028B68F7
:10A2A0005A0304D5D0F84C350A699A4207D18B6815
:10A2B0005B031BD4D0F84C354A699A4216D0002370
:10A2C0000622C0F80035C0F8002518467047D0F8BF
:10A2D0004C350A699A42F2D1D0F83C35ECE7D0F817
:10A2E0004C350A69E9E7D0F83C35FAE701207047B8
:10A2F000F0B55B4A5B4CD2F8243187B01546FBB110
:10A300004FF492711046FFF7BBFFD2F80431BBB98E
:10A31000A368C2F808330223A360A368C2F8043319
:10A32000D2F860311BB1D2F800329F0503D44C4BF8
:10A3300001221A625A61012384F82E3007B0F0BD61
:10A34000D5F80431002B52D04FF482714448FFF706
:10A3500097FF236A5E060AD494F82E303BB9414930
:10A360003F48FFF795FF80F0010084F82E00236A34
:10A370005D0721D43C4E0FCE01AD0FC53368384880
:10A380002B604FF4B071FFF77BFF4FF4AE71344890
:10A39000FFF776FF94F8303013B194F82E305BB1AC
:10A3A0002F4B0022C3F80022A260304AC3F80823D2
:10A3B0002F4B0822C3F88021294AD2F8C434C2F8AE
:10A3C000C43498073DD501238DF8003094F830301F
:10A3D0000BB984F82F30236A5B0703D594F82E302D
:10A3E000002BABD0D4E9003168469847A6E74FF47C
:10A3F000A4711B48FFF744FF237B83B91A4F0FCF8B
:10A4000001AE0FC63B68336094F83030002BD3D1D7
:10A41000C5F80032A360154BC5F80833C8E74FF400
:10A420000073C5F8003240F20223A36003F1CE733B
:10A43000C5F80833A368C5F804330123AB602B6269
:10A440007CE7590701D50223BEE7DA0701D50323CC
:10A45000BAE794F82E30002BB6D00423B4E700BF3F
:10A4600000300040203100202C31002002029C01ED
:10A4700000E100E02DE9F84F0579304C4FF0340849
:10A4800008FB05F804EB08069B4696F82D3081463C
:10A490000F469246002B4CD129490068FFF7C2F9BC
:10A4A000002848D139687B7B86F8323001F5E072AC
:10A4B0004FF0A043B060C6F804B086F82F0086F8CD
:10A4C000300040F20C6644F808A043F822607A6835
:10A4D00002F5E07C43F82C60D9F80030C3F8081589
:10A4E000C3F80C25BA68C3F82425BAF1000F13D0BD
:10A4F0001B0B3A7B59B252010029DBB2D2B213DBFB
:10A50000104E771887F800230122490903F01F0332
:10A5100002FA03F346F82130342303FB05440123F8
:10A5200084F82D30BDE8F88F03F00F030649CA54B4
:10A53000F2E70820F6E71120F4E700BF2031002001
:10A54000F1A2020000E100E014ED00E002680379EE
:10A550000621C2F80015044A342101FB032302221C
:10A5600083F82D20704700BF203100202DE9F843EB
:10A57000B14F90F804900468342606FB0976002356
:10A5800086F82E30CB6803F06043B3F1005F0D46D0
:10A59000904603D010263046BDE8F883A74BC4F898
:10A5A000083396F82F3023B1B368C4F8043311266A
:10A5B000F1E712F0140F0CBF0123002386F82F30AF
:10A5C0008E46BEE80F0006F10C0CACE80F00DEF87A
:10A5D0000030CCF80030C8F3001386F83030C6F8ED
:10A5E00020806B78C4F8883520464FF48271FFF7DD
:10A5F00047FE4FF49271FFF743FE4FF4B071FFF73F
:10A600003FFE4FF4A471FFF73BFE18F0010318BFA3
:10A610000123C4F8503518F0020318BF0123C4F811
:10A6200040352B78032B00F2B480DFE803F0839FE2
:10A6300068022B6903F06043B3F1005FAAD14FF4C5
:10A640008073C4F80032EA686B68C4F844254FF49C
:10A65000A871C4F84835FFF713FE01232362A360F5
:10A66000D4F85031002BFBD04FF4A8712046FFF7EF
:10A6700007FEAB682A69C4F84425C4F8483534237A
:10A6800003FB09734FF480229A600823002618F018
:10A69000080F04D12A78032A1CBF0122E250342378
:10A6A00003FB09F3FA18FB58002B75D10125D4F8E8
:10A6B0004821D4F80431002B40F08880003218BFC4
:10A6C0000122D4F82431002B00F087804FF49271DE
:10A6D0002046FFF7D5FDD4F86011D4F8003209B157
:10A6E000980504D4256265610029E0D00022DB05CD
:10A6F00073D54FF4A4712046FFF7C2FDD7E76B680E
:10A70000EA68C4F84425C4F848352B6903F0604270
:10A71000B2F1005F7FF43EAFAA68C4F834354FF45D
:10A720008453C4F83825C4F80032342303FB09737A
:10A73000022212E06B68EA68C4F8442518F0200F82
:10A74000C4F848354FF034030BD04FF48072C4F88E
:10A75000002203FB09734FF480229A6001232362D5
:10A7600093E74FF40072C4F80022DFE76B68EA68F1
:10A77000C4F83425C4F838354FF48053C4F8003297
:10A78000342303FB097302229A600123236200230E
:10A790007CE7082307267AE718F0040F1CBF002384
:10A7A000936018F0400F06D1342303FB09739A68B5
:10A7B00042F002029A60342303FB0977BB6843F43A
:10A7C0000073BB60BB68C4F80433E4E64FF48271E5
:10A7D0002046FFF755FD012273E7002A3FF467AFDB
:10A7E0003421D4F8C434C4F8C43401FB0972002005
:10A7F00082F82F0093B113F0010F14BF4FF40246FB
:10A80000032648F2012213F0020F18BF164613F078
:10A81000040F48F2022318BF1E46BCE618F0400F92
:10A820007FF4B9AE09FB01712046FFF731FD002826
:10A8300008BF0326AFE600BF2031002002029C01C2
:10A8400010B586B00024CDE902349DF820308DF893
:10A850000510A342CDE9042401A914BF20222246F9
:10A860008DF80440FFF782FE06B010BD10B586B02B
:10A870000124029300238DF80510CDE9033201A9CC
:10A880001A468DF804400593FFF770FE06B010BD20
:10A89000054A4FF0A043105CD3F8043523FA00F0CA
:10A8A000C04300F0010070479F640300044B1A5C32
:10A8B000012393404FF0A042C2F80C35704700BF0F
:10A8C0009F640300044B1A5C012393404FF0A042A5
:10A8D000C2F80835704700BF9F64030008B5002028
:10A8E000FFF7F0FF0120FFF7EDFF0220FFF7EAFF7F
:10A8F0000320BDE80840FFF7E5BF08B50020FFF7DB
:10A90000D5FF0120FFF7D2FF0220FFF7CFFF032082
:10A91000BDE80840FFF7CABF074A4FF0A041105CEE
:10A92000D1F804350122824022EA03001340C1F825
:10A930000805C1F80C3570479F640300014B185C93
:10A94000704700BF9B6403007047000007B5044BCD
:10A950000093044A402300F032F803B05DF804FB92
:10A9600069A90200553100202DE9F84389461446B3
:10A97000B2B10F4B0F4E0325002743F001082246CA
:10A9800009EB0701002002F00DFB0744241A48B927
:10A9900033782BB14FF47A40C047013D02D1357076
:10A9A000BDE8F88301233370002CE8D1F8E700BF3D
:10A9B000B064030054310020704702F027BBF0B5AB
:10A9C00095B01C46164608460D46FEF74DF91A9BF3
:10A9D0000D93CDE9086400242346082205A92846E2
:10A9E0000A948DF82C400C94FEF75BF9079B0293B8
:10A9F000069B03939DF814308DF8114003F0030279
:10AA0000012A1DD1BDF81440059EC3F3C203C4F34F
:10AA100083148DF81030A20008230EA92846FEF7F3
:10AA200040F9C6F3952608AB0093224602AB0EA967
:10AA3000304600F0DDFB2846FEF71AF915B0F0BDF0
:10AA4000022AF8D1BDF81640C3F3C203A4098DF859
:10AA500010300827082C264628BF08263B463246D9
:10AA60000EA92846FEF71DF9A41B08AB02AA314621
:10AA70000EA8374400F020FC002CEBD1DBE70000EF
:10AA8000014B01221A707047D63100207047000038
:10AA900070B50E4D06460FCD88B06C460FC495E8D4
:10AAA0000F00002E84E80F004FF00603084A094803
:10AAB000009308BF00226946FEF73CFC08B1FBF793
:10AAC000A9FE054B1E7008B070BD00BFC464030032
:10AAD00081AA0200E42B00209531002007B5044B29
:10AAE0000093044A4023FFF76AFF03B05DF804FBBC
:10AAF000F9AA02009631002038B50D4B0D4D00200B
:10AB000018700D4804782D5DD2B21C4665B1043032
:10AB1000FFF76EFB08B1FBF77DFE084B1A7812B108
:10AB20002378002BFBD038BD0C30FFF71BF9F1E781
:10AB3000D631002058300020E42B00209531002031
:10AB400008B50848084A0378D35C3BB10430FFF7E6
:10AB5000BDFA0020BDE80840FFF79ABF0C30FFF7B0
:10AB600097F8F6E7E42B0020583000200120FFF78B
:10AB70008FBF000038B50A4DFFF71FFF042128469C
:10AB800000F0A6FA074B01245C71FFF7EFFF0421E8
:10AB900005F1100000F09CFA034B5C7138BD00BF5A
:10ABA000D85C0300F82B0020002C0020037813F061
:10ABB000040216D003F00303012B03D0022B09D0AB
:10ABC000012070470A6800880232C0F383100244F3
:10ABD0000A60F5E70B684288023303EB92130B60BF
:10ABE000EEE71046704700002DE9F04F87B00023D4
:10ABF0000446851C0DF107000E4690468DF807307F
:10AC0000FCF7C6F9404A50683060936803F58073DA
:10AC10001B1A924602F21C4602F5836902F214479F
:10AC2000AB4219D30023B8F1000F66D0052262F3BE
:10AC3000070364F38913DAF804209DF80700D1B202
:10AC4000033115444AF82130CAF80450FCF7C4F91E
:10AC5000012007B0BDE8F08F01213046FDF786FAEC
:10AC60004846FDF79CFA3846FDF799FADAF80800ED
:10AC70000290C0B203300AEB800002A9FFF796FFF2
:10AC8000029B30BBDAB20AEB8202D16803919A1CB4
:10AC90000133DBB20AEB83030292D3F80CB001F06C
:10ACA0000303012B21D0022B15D083463846FDF734
:10ACB00079FA10B1029BCAF8083059463046FDF7C0
:10ACC00055FADAF80830DAF8042003F580739B1A95
:10ACD000A6E7D8B2CEE7BDF80E309B0903334FEAA2
:10ACE0001B4B02EB93030293E0E7BDF80C30C3F378
:10ACF00083134FEA1B4B1344F5E7062262F3070365
:10AD000064F39F5397E700BFA8320020064B074823
:10AD100010B500221A70FDF760FF044610B9044810
:10AD2000FEF7DCF8204610BDA8320020CC5B030003
:10AD30001465030030B50A4C71B10A4A0A49121B66
:10AD4000D20800239A4201D1002030BD31F82350AF
:10AD5000854202D00133F5E7034654F83300F4E7A7
:10AD6000E85B0300D85C0300E42B0020094B0139A9
:10AD700003EBC000032909D8DFE801F00A0204064A
:10AD80000420704700797047407970470020704771
:10AD900002207047E85B0300034BD3E90130C31A7C
:10ADA00058425841704700BFA83200202DE9F041B9
:10ADB00086B0FFF7F1FF0546002840F0E680744CAE
:10ADC000C4F81804BFF34F8FA0680290C0B20330DC
:10ADD00004EB800002A9FFF7E9FE029B18B1D4F84A
:10ADE0001824002A53D0DAB2991C013304EB8202F2
:10ADF000DBB204EB8303D268DB68049302F0030345
:10AE0000022B039202914FD1BDF80E3061484FEAF8
:10AE100093184746502F28BF502767F38F1307F129
:10AE20000801ADF80E30FDF7F0FE0546002800F0F1
:10AE30009780FDF719FF03A9002308222846FDF794
:10AE400026FF0299CE43F6B20136B600C9B20331ED
:10AE5000B74204EB810124D908233246BF1B2846A0
:10AE6000FDF715FFFFB24C4906F108033A462846A4
:10AE7000FDF70DFF029B08F1030803EB9803029313
:10AE8000D4F81834002B43D1D4F8106453E062682E
:10AE90009A4204D8A260284606B0BDE8F081D8B234
:10AEA00095E708233A46E2E7012B59D1BDF80C306B
:10AEB0003848C3F38311062928BF062161F389139B
:10AEC00002318900ADF80C30FDF79FFE05460028E1
:10AED00046D0FDF7C9FE0023082203A92846FDF746
:10AEE000D6FE0026BDF80C20C2F38312B3009642B2
:10AEF00003F10803C4D202994A1CC9B20331029279
:10AF000004EB810104222846FDF7C1FE0136E9E782
:10AF10002846FDF7ADFEFFF73FFF80F00100C5B208
:10AF2000B9E7F3685B7923B1336829461B6830467B
:10AF30009847F3681E68002EF3D12846FDF798FE67
:10AF40000DF107008DF80760FCF722F8D4F81834EB
:10AF50000BB9029BA3609DF80700FCF73DF8DAE708
:10AF6000D4F8104454B90D4B0D480E49C01AC0080E
:10AF7000000440F0020000F069F8CCE723682046A6
:10AF80009B689847E3681C68ECE7002583E700BFEF
:10AF9000A8320020CC5B0300B4320020E85B030041
:10AFA000205C0300206503002DE9F34780460F462F
:10AFB000924601A9012218469946FFF715FE214D38
:10AFC00070B3019C0026A11C4E4506EB010230D156
:10AFD00000211D48FDF789F880F31000631CDBB2E7
:10AFE00005EB8303000440EA1840D860E3B2033362
:10AFF00015F8232068F3C50205F8232035F823202F
:10B0000066F3891225F8232055F8232067F39F2241
:10B0100045F8232002F0F80242F0010205F823204F
:10B020002B781BB1FFF7C2FE0028FBD102B0BDE8B0
:10B03000F087D2B205EB82025AF82630D36001368F
:10B04000C2E700BFA8320020C436002000231A4601
:10B05000FFF7AABF07B50123019201AAFFF7A4FFDA
:10B0600003B05DF804FB07B5CDE9002302236A466F
:10B07000FFF79AFF03B05DF804FB1FB5CDE901238C
:10B08000069B039301AA0323FFF78EFF05B05DF82B
:10B0900004FB1FB5CDE90023069B0293079B039396
:10B0A0006A460423FFF780FF05B05DF804FB7FB517
:10B0B000CDE90123089B0393099B04930A9B059305
:10B0C00001AA0523FFF770FF07B05DF804FB00003D
:10B0D00030B50F49D1F81024002314463CB9C46898
:10B0E000237152B9C1F810042260184630BDE468DB
:10B0F00025799D4206D02468F0E7D2681168216066
:10B100001060F2E701330A2BE7D14FF0FF33ECE791
:10B11000A8320020084A38B50123D2F81044137031
:10B120001D4604B938BDE3685D71236820465B683D
:10B130009847E3681C68F4E7A8320020037A052BDF
:10B1400010B50C460FD0437A23B1084A084920466F
:10B15000FDF78BF807492046FDF787F82046BDE844
:10B160001040FDF777B8002AF8D0F3E76B650300CD
:10B17000F39A030039A60300C38873B504460D464D
:10B1800033B1144A00921449144A2846FDF76DF869
:10B19000217A05291CD0637A4BB1A088FFF7E6FD20
:10B1A0000F4B104953F820202846FDF75EF8227A0D
:10B1B0000D4BA08853F822600021FFF7BBFD0B491F
:10B1C00003463246284602B0BDE87040FDF74DB850
:10B1D00002B070BD6B650300786503007065030005
:10B1E00038650300F39A03009C6503009065030033
:10B1F0002DE9F04385B01F460C9D002306460C4602
:10B20000904695F80C902B7329463846FFF7B4FF0B
:10B21000B8F1060F09D8DFE808F00412181F283328
:10B22000400031462846FDF720F8002229463846DE
:10B23000FFF784FF85F80C9005B0BDE8F083226825
:10B2400031462846FDF711F8EFE7D4E900233146EF
:10B250002846FDF70AF8E8E7A36800933146D4E9E9
:10B2600000232846FDF701F8DFE7E3680193A368B0
:10B2700000933146D4E900232846FCF7F6FFD4E7D3
:10B2800023690293E3680193A36800933146D4E9EC
:10B2900000232846FCF7E9FFC7E7636903932369A6
:10B2A0000293E3680193A36800933146D4E9002335
:10B2B0002846FCF7DAFFB8E708292DE9F84F804661
:10B2C0000E4617461C463AD8002593F80C901D737D
:10B2D00019461046FFF750FFDFF884A0DFF884B06E
:10B2E000AE422ED918F8052059462046FCF7BDFF7E
:10B2F0000135082DF4D11849DFF86CB02046FCF771
:10B30000B4FF4FF0000A564520D918F80A507E2D98
:10B3100003D8284607F082FE00B92E252A46594652
:10B320002046FCF7A2FF0AF1010ABAF1080FEAD1A0
:10B33000012221463846FFF701FF84F80C90BDE852
:10B34000F88F51462046FCF790FFD1E7034920468D
:10B35000FCF78BFFE7E700BF666503006465030049
:10B36000626503005C650300686503004FF48C723E
:10B37000002107F0D9BE18B14FF48C7100F0B0BEB7
:10B3800070470000C02AF0B541D0B2F5807F40D0B0
:10B39000802A40F0C5800A230446036000F10803B8
:10B3A000520944F8043F01EB82028A4233D1036818
:10B3B0000C2B3ED00E2B6CD00A2B26D15A4D5B495C
:10B3C00000F1A006426955F8044B8768C2F30723D1
:10B3D0007C40CB5C6340140E10300C5D83EA044368
:10B3E000D4B20C5D83EA0463C2F307440C5D83EAC4
:10B3F000042350F8044C836063400468C3606340D6
:10B400000361534043618642DCD100208AE00C2373
:10B41000C2E70E23C0E78B784D781B0443EA05236F
:10B420000D782B43CD7843EA056344F8043F04319B
:10B43000BBE73D4C3D4900F1C005C26954F8046BBF
:10B440008768C2F307237E40CB5C7340160E18302A
:10B450008E5D83EA0643D6B28E5D83EA0663C2F34D
:10B4600007468E5D83EA062350F80C6C83607340B8
:10B4700050F8086CC360734050F8046C036173406B
:10B4800006684361734083615340C3618542D4D1F0
:10B49000BBE7254D254900F1E006446A55F8042B29
:10B4A0008768C4F307237A40CB5C87695340220E38
:10B4B00020308A5C83EA0243E2B28A5C83EA026358
:10B4C000C4F307428A5C83EA022350F8142C836099
:10B4D000534050F8102CC360534050F80C2C0361BB
:10B4E0005340DAB243618A5C7A401F0ECF5D82EA34
:10B4F0000762C3F30727C3F30743CF5DCB5C82EA40
:10B50000072282EA034350F8042C83615340026807
:10B51000C36153400362634043628642BDD174E716
:10B520006FF01F00F0BD00BFFC760300FB65030059
:10B530002DE9F04F95B043680D680C951C68A14F3C
:10B54000A14E6C400C945D684C686C400D949D68F5
:10B550008C686C400E94CC689C4D03F11001DB6844
:10B560000B9163400F9303685B10013B0093002332
:10B570000193DDE90C08C8F30723DDF838C057F85C
:10B5800023300493CCF30743CCF3072E56F8233033
:10B5900005930F9B57F82E400694C3F3074E5FFAAE
:10B5A00083F956F82E400794C3F3072E55F82990D7
:10B5B00057F82E400894C0F3074E4FEA106A56F829
:10B5C0002E400994C0F3072E1B0E57F82E4002940C
:10B5D000C8F3074E7E4C56F82EB054F82330039132
:10B5E0004FEA1C6EC0B254F82EE055F8200089EAEC
:10B5F0000E0E5FFA8CFC4FEA186955F82CC054F80F
:10B6000029905FFA88F88CEA090C55F8289054F8CC
:10B610002A8080EA030A009B002BDDE9043083EADC
:10B620000003DDE9060480EA0400089C89EA0809B1
:10B63000A046099C01F1200188EA040800F3CC80AF
:10B64000019909B103990B910B9E3168B568746833
:10B650004B4083EA0A07F36810978BEA0E0B8BEADC
:10B66000030B029B88EA050585EA0C0C8BEA030BA9
:10B67000584DCDF84CB0FBB26040EC5C3369CDF86E
:10B6800048C05C404FEA1B6380EA0900EB5C119004
:10B6900084EA0364C0F30723C7F3072AEB5C84EA58
:10B6A0000324CCF30743EB5C84EA0344C3B20C9459
:10B6B00015F803E073698EEA030E3B0EEB5C8EEA2D
:10B6C000036ECCF30723EB5C8EEA032ECBF3074328
:10B6D000EB5C8EEA034E5FFA8CF34FEA1C6CE95C7C
:10B6E000B369CDF834E05940030EC0F30740EB5C7A
:10B6F00081EA0361CBF307235FFA8BFBEB5C81EA02
:10B700000321C7F30743EB5C81EA034106F1200301
:10B710000B93F66915F80B300E91734015F80C6019
:10B7200083EA066315F80A60285C117283EA06232F
:10B7300083EA0043200A5070200C90704FEA1E20CC
:10B7400050714FEA1E4090714FEA1E60D071080A96
:10B750005072080C090ED172190A147013735173C8
:10B760000F93190C240E1B0E90729173D47082F8F3
:10B7700004E0D3730CA8042100F0B2FC0DA804214E
:10B7800000F0AEFC0EA8042100F0AAFC0FA80421D2
:10B7900000F0A6FC10A8042100F0A2FC11A80421CE
:10B7A00000F09EFC12A8042100F09AFC13A80421CA
:10B7B00000F096FC0BA8042100F092FC002015B0CC
:10B7C000BDE8F08FFC6A0300FC6E0300FC6603001A
:10B7D000FC720300FB65030051F8204C83EA0A0366
:10B7E0006340109380EA090951F81C0C89EA0000B3
:10B7F000119051F8184C88EA0C0C8CEA040C029C4D
:10B80000CDF848C084EA0B0B51F8144C8BEA0E0EAD
:10B810008EEA040E5FFA83F84FEA1E693A4C55F837
:10B82000288054F82990CDF84CE088EA0908C0F344
:10B83000072951F8104C57F8299088EA040888EA3B
:10B840000908CCF30749304C56F8299088EA0908D2
:10B85000CDF830804FEA13695FFA80F854F82990E8
:10B8600055F8288051F80C4C88EA0908CCF30729D0
:10B8700088EA040857F82990234C88EA0908CEF38F
:10B88000074956F8299088EA0908CDF834804FEA2C
:10B8900010695FFA8CF854F8299055F8288051F80F
:10B8A000084C88EA0908CEF3072988EA040857F803
:10B8B0002990154C88EA0908C3F307495FFA8EFE00
:10B8C00056F8299088EA0908CDF838804FEA1C68B4
:10B8D000C3F3072355F82EC054F828E051F8044C60
:10B8E00057F82330C0F307408CEA0E0C56F82000BE
:10B8F0008CEA040C8CEA030343400F93009B013B4A
:10B9000000930123019334E6FC7203002DE9F04F0C
:10B9100095B043680D680C951C68DFF890C29F4F86
:10B920009F4E6C400C945D684C686C400D949D6813
:10B930008C686C400E94CC6803F11001DB680B91AD
:10B9400063400F9303685B1003F1FF3A00230093F9
:10B95000DDF83C800E9C0C980391C8F30723C0F3DC
:10B96000072E5CF823300493C4F307435CF82E5091
:10B9700057F823300593C8F3074E0D9B069557F8EB
:10B980002E500795C3F3072E5FFA88F95CF82E5006
:10B990000895C0F3074E56F8299057F82E50099590
:10B9A000C4F3072E4FEA18685CF82E500195C3F3D4
:10B9B000074E7C4D57F82EB055F828804FEA106E90
:10B9C000C0B255F82EE056F8200089EA0E0E5FFA54
:10B9D00084F9240E56F8299055F8244089EA08087D
:10B9E0005FFA83F91B0E56F8299055F8233043402F
:10B9F0000293DDE9043089EA04094340DDE90604E5
:10BA00006040DDE90845BAF1000F01F1200184EA48
:10BA1000050400F3CD80009909B103990B910B9FA8
:10BA20003968BE687D685940029B5940FB68109197
:10BA30008BEA0E0B8BEA030B019B74408BEA030B22
:10BA4000594ECDF84CB0CBB2454016F803E03B69F7
:10BA500085EA09058EEA030E2B0E84EA0804F35CDE
:10BA600011958EEA036ECBF307231294F35C8EEAF2
:10BA7000032EC4F30743F35C8EEA034EEBB2CDF81A
:10BA800030E0F05C7B695840230EF35C80EA036091
:10BA9000C1F30723F35C80EA0320CBF30743F35C95
:10BAA00080EA0340E3B20D9016F803C0BB698CEA4C
:10BAB000030C4FEA1B635FFA8BFBF35C8CEA036CAD
:10BAC000C5F30723C4F30724F35C8CEA032CC1F30A
:10BAD0000743090EF35C8CEA034C07F120030B9338
