:020000022000DC
:1060000000000120756302005D6302005F6302000F
:106010006163020063630200656302000000000028
:1060200000000000000000000000000067630200A4
:1060300069630200000000006B6302006D630200F0
:106040006F6302006F63020021890200E189020090
:106050006F6302006F630200D98702006F63020062
:106060006F6302006F6302006F6302006F630200E0
:106070006F6302006F6302006F6302006F630200D0
:106080006F630200C17202006F6302006F6302005F
:106090005D7302006F6302001DB502006F630200B2
:1060A0006F6302006F6302006F6302006F630200A0
:1060B0006F6302006F630200000000000000000038
:1060C0006F6302006F6302006F6302006F63020080
:1060D0006F6302006F6302006F6302000000000044
:1060E00000000000000000000000000000000000B0
:1060F00000000000000000000000000000000000A0
:10610000000000000000000000000000000000008F
:10611000000000000000000000000000000000007F
:10612000000000000000000000000000000000006F
:10613000000000000000000000000000000000005F
:10614000000000000000000000000000000000004F
:10615000000000000000000000000000000000003F
:10616000000000000000000000000000000000002F
:10617000000000000000000000000000000000001F
:10618000000000000000000000000000000000000F
:1061900000000000000000000000000000000000FF
:1061A00000000000000000000000000000000000EF
:1061B00000000000000000000000000000000000DF
:1061C00000000000000000000000000000000000CF
:1061D00000000000000000000000000000000000BF
:1061E00000000000000000000000000000000000AF
:1061F000000000000000000000000000000000009F
:10620000354936480A1A02D0072291438D4634494F
:1062100034480A1A06D00722914381F309880222E2
:1062200082F3148830483149314A00F044F831484B
:106230003149324A00F03FF831483249324A00F0E1
:106240003AF832483249334A00F035F83248334997
:10625000334A00F030F833483349344A00F02BF821
:1062600033483449344A00F026F83448344900228F
:1062700000F02CF833483449002200F027F8334866
:106280003349091A082902DB002202604160314AC1
:1062900090471F481F49884205D00268043003B464
:1062A000904703BCF7E700208646EC46002000211B
:1062B000294A9047FEE7884207D0521A05D0037852
:1062C00001300B700131013AF9D17047884202D098
:1062D00002700130FAE770470000012000E0002062
:1062E000000001200000012014E10200D82A002053
:1062F000302B0020D0630200D063020070C902007E
:1063000014E10200D82A0020D82A002074CA020012
:1063100074CA020074CA020074CA020074CA02007D
:1063200074CA020074CA020074CA020014E10200B6
:106330006CE10200302B0020302B0020302B00209D
:10634000503D0020503D0020503D0020503D002099
:10635000505D00209D630200959A0200FEE7FEE773
:10636000FEE7FEE7FEE7FEE7FEE7FEE7FEE7FEE705
:1063700000F002B8FFF7FCBF0F484FF00701884359
:1063800085460E4880470E48016841F4700101605F
:10639000BFF34F8FBFF36F8FFFF732BF09480A4932
:1063A0000A4A884207D0521A05D0037801300B7090
:1063B0000131013AF9D17047000001203580020017
:1063C00088ED00E074CA0200D82A0020D82A0020F4
:1063D0007047000007B5044B0093044A402300F0C7
:1063E00032F803B05DF804FBF1630200312B0020AA
:1063F0002DE9F84389461446B2B10F4B0F4E0325E1
:10640000002743F00108224609EB0701002003F0B2
:10641000C5FC0744241A48B933782BB14FF47A40AD
:10642000C047013D02D13570BDE8F88301233370C8
:10643000002CE8D1F8E700BF80CA0200302B002012
:10644000704703F0DFBCF0B595B01C461646084611
:106450000D4601F0C2FC1A9B0D93CDE9086400249F
:106460002346082205A928460A948DF82C400C944E
:1064700001F0D0FC079B0293069B03939DF8143018
:106480008DF8114003F00302012A1DD1BDF814401C
:10649000059EC3F3C203C4F383148DF81030A20029
:1064A00008230EA9284601F0B5FCC6F3952608ABD3
:1064B0000093224602AB0EA9304600F069FB284645
:1064C00001F08FFC15B0F0BD022AF8D1BDF81640DE
:1064D000C3F3C203A4098DF810300827082C264600
:1064E00028BF08263B4632460EA9284601F092FCFA
:1064F000A41B08AB02AA31460EA8374400F0ACFB3F
:10650000002CEBD1DBE7000008B5FFF79AFF042170
:10651000034800F0ADFA034B01225A7108BD00BFD9
:1065200064CA0200D82A0020037813F0040216D0AF
:1065300003F00303012B03D0022B09D00120704785
:106540000A6800880232C0F3831002440A60F5E74B
:106550000B684288023303EB92130B60EEE71046A0
:10656000704700002DE9F04F87B000230446851CDA
:106570000DF107000E4690468DF8073001F0E6F861
:10658000404A50683060936803F580731B1A924646
:1065900002F21C4602F5836902F21447AB4219D39A
:1065A0000023B8F1000F66D0052262F3070364F3FD
:1065B0008913DAF804209DF80700D1B2033115449D
:1065C0004AF82130CAF8045001F0E4F8012007B07D
:1065D000BDE8F08F0121304601F044F9484601F052
:1065E0005AF9384601F057F9DAF808000290C0B2BB
:1065F00003300AEB800002A9FFF796FF029B30BB35
:10660000DAB20AEB8202D16803919A1C0133DBB241
:106610000AEB83030292D3F80CB001F00303012BC1
:1066200021D0022B15D08346384601F037F910B13E
:10663000029BCAF808305946304601F013F9DAF8DF
:106640000830DAF8042003F580739B1AA6E7D8B265
:10665000CEE7BDF80E309B0903334FEA1B4B02EB2C
:1066600093030293E0E7BDF80C30C3F383134FEAC2
:106670001B4B1344F5E7062262F3070364F39F53B1
:1066800097E700BF442C0020064B074810B50122B5
:106690001A7001F05BFB044610B9044801F002FCDB
:1066A000204610BD442C0020D0C90200A4CA02001C
:1066B00030B50A4C71B10A4A0A49121BD2080023AC
:1066C0009A4201D1002030BD31F82350854202D0DA
:1066D0000133F5E7034654F83300F4E7E4C9020058
:1066E00064CA0200D82A0020094B013903EBC0001C
:1066F000032909D8DFE801F00A02040604207047E4
:106700000079704740797047002070470220704739
:10671000E4C90200154B1B7837B504460BB918B90C
:106720000024204603B030BD05F04FFD013000903D
:1067300001236A4601A90E4801F0BDFB0546002869
:10674000EED12146009A019805F0C1FCDDE9002355
:106750001344074803F8015C009901F0E6FB009937
:10676000034801F0F9FB019CDBE700BF442C00204B
:10677000A4CA0200034BD3E90130C31A584258415E
:10678000704700BF442C00202DE9F04186B0FFF790
:10679000F1FF0546002840F0E680744CC4F8180468
:1067A000BFF34F8FA0680290C0B2033004EB8000AB
:1067B00002A9FFF7B9FE029B18B1D4F81824002AE9
:1067C00053D0DAB2991C013304EB8202DBB204EB42
:1067D0008303D268DB68049302F00303022B039265
:1067E00002914FD1BDF80E3061484FEA93184746E9
:1067F000502F28BF502767F38F1307F10801ADF81A
:106800000E3001F0BBFA0546002800F0978001F039
:10681000E4FA03A900230822284601F0F1FA0299BC
:10682000CE43F6B20136B600C9B20331B74204EB2B
:10683000810124D908233246BF1B284601F0E0FA23
:10684000FFB24C4906F108033A46284601F0D8FA4F
:10685000029B08F1030803EB98030293D4F8183461
:10686000002B43D1D4F8106453E062689A4204D8F4
:10687000A260284606B0BDE8F081D8B295E70823AB
:106880003A46E2E7012B59D1BDF80C303848C3F342
:106890008311062928BF062161F38913023189007B
:1068A000ADF80C3001F06AFA0546002846D001F038
:1068B00094FA0023082203A9284601F0A1FA002631
:1068C000BDF80C20C2F38312B300964203F1080313
:1068D000C4D202994A1CC9B20331029204EB81016D
:1068E0000422284601F08CFA0136E9E7284601F037
:1068F00078FAFFF73FFF80F00100C5B2B9E7F3680F
:106900005B7923B1336829461B6830469847F368A2
:106910001E68002EF3D1284601F063FA0DF107003E
:106920008DF8076000F012FFD4F818340BB9029B01
:10693000A3609DF8070000F02DFFDAE7D4F81044BB
:1069400054B90D4B0D480E49C01AC008000440F060
:10695000020000F069F8CCE7236820469B6898475E
:10696000E3681C68ECE7002583E700BF442C0020A7
:10697000D0C90200502C0020E4C9020014CA020051
:10698000B0CA02002DE9F34780460F46924601A99E
:10699000012218469946FFF7E5FD214D70B3019C91
:1069A0000026A11C4E4506EB010230D100211D48F6
:1069B00000F022FF80F31000631CDBB205EB8303C1
:1069C000000440EA1840D860E3B2033315F82320EE
:1069D00068F3C50205F8232035F8232066F38912F1
:1069E00025F8232055F8232067F39F2245F823201C
:1069F00002F0F80242F0010205F823202B781BB1C7
:106A0000FFF7C2FE0028FBD102B0BDE8F087D2B28A
:106A100005EB82025AF82630D3600136C2E700BF88
:106A2000442C00206030002000231A46FFF7AABF44
:106A300007B50123019201AAFFF7A4FF03B05DF897
:106A400004FB07B5CDE9002302236A46FFF79AFF4E
:106A500003B05DF804FB1FB5CDE90123069B03934A
:106A600001AA0323FFF78EFF05B05DF804FB0000C9
:106A700030B50F49D1F81024002314463CB9C4683E
:106A8000237152B9C1F810042260184630BDE46881
:106A900025799D4206D02468F0E7D268116821600C
:106AA0001060F2E701330A2BE7D14FF0FF33ECE738
:106AB000442C0020084A38B50123D2F81044137042
:106AC0001D4604B938BDE3685D71236820465B68E4
:106AD0009847E3681C68F4E7442C0020037A052BF0
:106AE00010B50C460FD0437A23B1084A0849204616
:106AF00000F03AFF0749204600F036FF2046BDE887
:106B0000104000F026BF002AF8D0F3E7FBCA0200CD
:106B10001BD6020049DE0200C38873B504460D4649
:106B200033B1144A00921449144A284600F01CFF5D
:106B3000217A05291CD0637A4BB1A088FFF7D4FDD8
:106B40000F4B104953F82020284600F00DFF227A01
:106B50000D4BA08853F822600021FFF7A9FD0B49D7
:106B600003463246284602B0BDE8704000F0FCBE45
:106B700002B070BDFBCA020008CB020000CB0200CD
:106B8000C8CA02001BD602002CCB020020CB020098
:106B90002DE9F04385B01F460C9D002306460C46A8
:106BA000904695F80C902B7329463846FFF7B4FFB2
:106BB000B8F1060F09D8DFE808F00412181F2833CF
:106BC00040003146284600F0CFFE002229463846D4
:106BD000FFF784FF85F80C9005B0BDE8F0832268CC
:106BE0003146284600F0C0FEEFE7D4E900233146E5
:106BF000284600F0B9FEE8E7A36800933146D4E9DF
:106C00000023284600F0B0FEDFE7E3680193A368A5
:106C100000933146D4E90023284600F0A5FED4E7CE
:106C200023690293E3680193A36800933146D4E992
:106C30000023284600F098FEC7E7636903932369A1
:106C40000293E3680193A36800933146D4E90023DB
:106C5000284600F089FEB8E708292DE9F84F80465C
:106C60000E4617461C463AD8002593F80C901D7323
:106C700019461046FFF750FFDFF884A0DFF884B014
:106C8000AE422ED918F805205946204600F06CFE79
:106C90000135082DF4D11849DFF86CB0204600F01A
:106CA00063FE4FF0000A564520D918F80A507E2D91
:106CB00003D8284605F0E0F900B92E252A465946A2
:106CC000204600F051FE0AF1010ABAF1080FEAD19C
:106CD000012221463846FFF701FF84F80C90BDE8F9
:106CE000F88F5146204600F03FFED1E70349204689
:106CF00000F03AFEE7E700BFF6CA0200F4CA02005D
:106D0000F2CA0200ECCA0200F8CA0200C30710B5BA
:106D100007D4F0234008054A145C2340194311545A
:106D200010BD0901C9B20F23F4E700BF30310020C4
:106D300030B5094B1C78094B196800239C4202DCD2
:106D40000022104630BD11F83350854201EBC302DA
:106D5000F7D00133F2E700BFFC30002040310020C3
:106D600070B504460D46FFF7E3FF30B1436823B129
:106D700029462046BDE87040184770BD034B0448C3
:106D800019680022490800F087BC00BF00310020CC
:106D90000431002010B5C0B2FFF7CAFF04460078E6
:106DA00001F010FD63785A1E53425341834208D1CB
:106DB000044BD3E90023134303D1BDE81040FFF790
:106DC000DDBF10BD2831002037B54308364AD35CFB
:106DD000C2074CBF1B0903F00F0304460D46042BEA
:106DE00036D8DFE803F003262D393D0081B30121B9
:106DF000FFF78CFF00230DF107008DF8073000F03E
:106E0000A5FC0122A4F12003C4F12000274902FAC5
:106E100003F322FA00F0034302FA04F4D1E900205C
:106E200014430343C1E900439DF8070000F0B2FC9E
:106E30000EE0002918BF02212046FFF767FF07E098
:106E400041B10321FFF762FF01212046FFF788FFD0
:106E500003B030BD0121EFE70029F9D10421EBE7B0
:106E600009B10321E8E7FFF751FF29462046FFF764
:106E700077FF0DF107008DF8075000F067FC012245
:106E8000A4F12003C4F12000084902FA03F322FA16
:106E900000F0034302FA04F4D1E9002022EA0404DA
:106EA00020EA0303BEE700BF303100202831002074
:106EB0002DE9F041124E134F00243378A34208DC31
:106EC000114BD3E90023134318D0BDE8F041FFF77D
:106ED00055BF3D6805EBC40815F8340001F072FC9D
:106EE00098F801104B1E594259410A1A514215F89F
:106EF00034005141FFF768FF0134DEE7BDE8F0815F
:106F0000FC3000204031002028310020092AF7B54C
:106F100005460C4616463DD901F092FBD8B11E4BF2
:106F20001E481D601E4B1F4F1C701F4B002110225E
:106F30001E6005F0F5F81D4B00200021C3E900019B
:106F4000013CE4B20326FF2C0BD1194A1948002159
:106F500000F090FB03E001F035FB0028DFD003B028
:106F6000F0BD20B29DF806308DF8046005EBC0023C
:106F700023F007038DF8063001A9937815F8300047
:106F80008DF805303A4601F065FB013CE4B200287B
:106F9000D9D0E4E70720E2E740310020303100207B
:106FA000FC300020956D02000031002028310020C7
:106FB000B16E02008CCB020070B5084D084E002463
:106FC0002B789C4201D3002070BD3368012113F857
:106FD000340001F0B3FB0134F2E700BFFC300020C5
:106FE000403100201FB50021039001AA44F20100A6
:106FF000CDE9011100F004F805B05DF804FB0000D4
:1070000010B572B6FFF756FDFFF7BEFB0028FBD1A7
:10701000104B114C1149E41AE408240444F0010017
:10702000FFF702FD0E4B1B68DB0700D500BE0D49C4
:1070300044F00200FFF7F8FCBFF34F8F0A490B4BF7
:10704000CA6802F4E0621343CB60BFF34F8F00BF06
:10705000FDE700BFE4C9020014CA02009BCB020096
:10706000F0ED00E0A7CB020000ED00E00400FA051F
:107070004B1C30B5DB00044612F003009BB20DD16F
:10708000074D2A601A44074B1A60074B1870074BCC
:107090001870074B1C80074B198030BD0720FCE798
:1070A0004C31002048310020443100205431002070
:1070B00050310020523100202DE9F3472B4D2B8811
:1070C0008B4206460C4617464CD34FF000080DF194
:1070D00007008DF8078000F039FB254B254A18780A
:1070E0001178CBB2244909888B4238BF0133C0B232
:1070F00038BF5FFA83F840452ED092F800801378AD
:10710000DBB2994286BF0133DBB2002313709DF8D6
:10711000070000F03FFB4FF6FF73984524D0DFF8DF
:1071200060A0DAF800304FEAC80903EB090243F81F
:107130003870A6B19CB1114B28881B68224608FB09
:107140000030314604F0C3FFDAF800304B44002031
:107150009C8002B0BDE8F0874FF6FF78D7E70020AB
:107160009080F6E70920F4E70420F2E75031002090
:107170005431002044310020523100204831002099
:107180004C310020F8B5124C124D264622782B784F
:107190009A4200D1F8BD23780F48104A0788126838
:1071A0000F48DBB219B202EBC10C006852F8312073
:1071B000BCF8041003FB070090470A4A23781288A2
:1071C000DBB29A4286BF0133DBB200233370DDE7C6
:1071D0005431002044310020503100204C31002037
:1071E0004831002052310020094A53789178013308
:1071F000DBB2994208BF0023117899421FBF037088
:107200005078182303FB002014BF0430002070477F
:107210005831002073B5054600240DF107000E46D5
:107220008DF8074000F092FA0DF10600FFF7DCFF41
:1072300090B10670094B9DF8062045605A709DF884
:10724000070000F0A7FA24B9054B4FF48012C3F8E9
:107250000021204602B070BD0424F0E75831002020
:1072600000E100E0024B4FF43C6043F0010318479B
:10727000C0CB020038B50E4B4FF40032C3F880206B
:10728000BFF34F8FBFF36F8F0A4C4FF4803301254C
:10729000C4F84833C4F808336560FFF7E3FF064BD2
:1072A000A56000241C60FFF7DDFF044B1C7038BD97
:1072B00000E100E00010014074320020653200203F
:1072C000F8B51F4B1F491B680025C1F84051C1F894
:1072D0004451C1F84851C1F84C51C1F80051C1F8AE
:1072E00004514BB3D1F8044517490968641A24F0D6
:1072F0007F442F461A68A24209D8A41A15441A7C62
:10730000DE691AB11F74D3E905209047AEB90F4A60
:107310000F4B11781B788B4205D10133DBB2022B66
:1073200008BF0023137012780A4B43F822500A4B0F
:107330004FF48012C3F80021F8BD3346DAE700BFEE
:107340007832002000100140743200207132002099
:10735000703200206832002000E100E02DE9F04F9B
:10736000A14AA24913780978A14D994285B03CD031
:107370000133DBB2022B08BF002313709D49127842
:107380009D4B0F6853F822003B1823F07F430022E7
:107390000B602B6816461446944613B942B12B6015
:1073A00006E0196881420ED902B12B60091A1960F2
:1073B00001272B68DFF848A201934FF00008BEB9FF
:1073C000DFF844B266E0401A0C44D968C3F800C044
:1073D000D3F81CE031B13A1922F07F42C3E9012110
:1073E000DE611E4601227346D7E700263746E0E7F6
:1073F0003446F6697F4A63681268DFF810C2A068F5
:10740000991A21F07F41614500F2A6800144216074
:10741000012222742A680023C4E90133E361002AAF
:1074200040F0A3802C60CAE75A1C9BF80210D2B22D
:1074300091428BF8002004BF00228BF80020182214
:1074400002FB03B31A799C68022A1CD0032A12D0CB
:10745000012A1FD1207CE8B9D3E90312A2605A693E
:10746000E2609A69654BA2611B78002B0CBF0B464A
:1074700003466360BEE700222B681146002B67D1EC
:1074800042B12B6006E029680A468946002A5AD193
:10749000002323749BF800309BF801209A42C3D14B
:1074A0002B68B8F1000F04D1019A9A4201D1002F44
:1074B00043D0002B73D0D3F800A0514D4D4BD5F8DD
:1074C00004751C68DFF848813E1B98F8003026F0F0
:1074D0007F4603369BB94FF48033C5F84433C5F873
:1074E0000433484B4FF40032C3F880211A604FF048
:1074F0000109C5F80090FFF7B5FE88F80090B24585
:107500002CBF5444A41924F07F44C5F84045D5F855
:107510000435DB1B23F07F43E41B033324F07F445B
:10752000A3420AD9D5F80435C5F84035FFF79AFECD
:10753000344B4FF40032C3F80021304B00221A7054
:1075400005B0BDE8F08F94422CD09146D2699DE7FA
:1075500019740122DB6991E7D31A23F07F43834238
:1075600034BFC31A0023236052E72168136899428D
:1075700013D8591A1160E26154E7091AD8691A46FA
:1075800038B1034618688842F7D3401A1860184685
:1075900013462160E061DC6111E71346F2E7FFF773
:1075A00069FECAE74C4511D1CB692B6073B9DFF88E
:1075B00044E00120CDE90212CAF80800CEF80030FC
:1075C0000E4B1870FFF74EFEDDE902121368D26908
:1075D000C9F81C2012B11068034413602B6899424B
:1075E00018BF4FF0010853E77032002071320020BD
:1075F000783200207432002068320020643200208B
:107600000010014000E100E058310020FEFF7F0043
:107610006532002008B5FFF72DFE104B00200B222D
:1076200018809A700E4B18600E4B18700E4B187025
:107630000E4B4FF48012C021C3F8802183F814133D
:107640001A6002F18042A2F56F22C2F8080583F8A1
:107650001113074BD2F804251A6008BD58310020D9
:1076600078320020703200207132002000E100E00A
:1076700074320020074B9B784BB132B128B10368BC
:10768000187C20B959745A61704707207047082048
:10769000704700BF583100202DE9F7431F4FBB78DA
:1076A00005460E469046B3B3A8B31D4B4A1F9A42F7
:1076B0002FD843697BB3437C0024012B0DF10700D5
:1076C0000CBF8946A1468DF8074000F03FF80DF148
:1076D0000600FFF789FDD0B101230370114B45600F
:1076E000D3F80435C0E90498C0E902369DF80630A5
:1076F0007B709DF8070000F04DF824B90A4B4FF459
:107700008012C3F80021204603B0BDE8F0830424B2
:10771000EFE70724F7E70824F5E700BF583100201A
:10772000FAFFFF000010014000E100E0064A9278F5
:107730003AB130B1426922B1002202740221FFF74E
:1077400069BD0820704700BF5831002070B5EFF3C5
:10775000108672B60C4A946801239CB993600B4B57
:107760000B4DD3F8801029401160C3F88050D3F836
:10777000841051604FF0FF32C3F88420047006B9C2
:1077800062B670BD0370FAE77C32002000E100E0D1
:10779000FC06FFBD084B9A6810B55AB150B9EFF31B
:1077A000108172B6054A1C6814605C685460986069
:1077B00001B962B610BD00BF7C32002000E100E0DC
:1077C00001F01F024B090121914000EB830000F002
:1077D00028B801F01F0301229A404B0900EB8300F7
:1077E000D14300F034B84B0901F01F0150F82300D9
:1077F000C84000F00100704750E8002F0B4640E8F9
:10780000003C9CF0000FF7D11046704750E8002F65
:1078100042EA010340E8003C9CF0000FF6D110461C
:10782000704750E8003F43EA010240E8002C9CF01A
:10783000000FF6D11046704750E8002F02EA01030E
:1078400040E8003C9CF0000FF6D11046704750E82D
:10785000003F03EA010240E8002C9CF0000FF6D143
:107860001046704750E8003F03EB010240E8002C4F
:107870009CF0000FF6D11046704750E8003FA3EB94
:10788000010240E8002C9CF0000FF6D11046704732
:107890000121FFF7BBBF0121FFF7C3BF0021FFF7A5
:1078A000CBBF0021FFF7D3BF10B590B1D0E90123C2
:1078B00001689B1ADBB20A60013BDBB2FF2B026856
:1078C00002D10020107110BD11684C1C14600B70A7
:1078D000F2E70E20F7E737B5054600240DF1070063
:1078E0008DF80740FFF732FF2A686B6811689942EC
:1078F0000ED9481E106011F8014CEB68298A01FB73
:107900000434AB6811791B1ADBB2994238BF13718A
:107910009DF80700FFF73EFF204603B030BD37B5A6
:10792000054600230DF107000C468DF80730FFF7E0
:107930000DFF2A681368591C1160E968641A298AC6
:10794000B4FBF1F41C709DF80700FFF723FF03B0B0
:1079500030BD826810B504462AB1436901680069E8
:1079600098470023A36010BD0EB403B5039921B15D
:1079700004AB01AA019300F06DF802B05DF804EBCE
:1079800003B07047826830B40468551C8560A15408
:10799000D0E901329A4202D330BCFFF7DABF30BCE3
:1079A000704700002DE9F84F9946DDE90A43174674
:1079B000824688460A460126BA420FD24E4538BF53
:1079C0004E4613F0010B01D164B900240125B9F131
:1079D000010F1AD909F1FF397D43F8E7B2FBF7F23D
:1079E0000136E9E79B070ED5B9F1000F0CBF302532
:1079F0002025A642EAD2013C29465046FFF7C2FFA5
:107A0000002CF6D1E1E72025F3E7B8FBF5F39F4220
:107A1000E2D9DFF83C90B8FBF5F3504619F80310B3
:107A200005FB1388FFF7AEFFB5FBF7F3BD4207D2A6
:107A3000BBF1000F02D00CB1A64203D3BDE8F88F12
:107A40001D46E8E720215046013CFFF79BFFF2E787
:107A500086D002002DE9F74F0546174688460029D3
:107A600000F0308118F8011B49B92B7B002B00F086
:107A70002981284603B0BDE8F04FFFF76ABF2529EA
:107A800040F0C080002698F800302D2B424608F1C7
:107A9000010823D0302B24D02B2B25D000242A2BD7
:107AA00002F1010123D13B681A1D1B683A601C4496
:107AB0000A4613782E2B26D101324FF000091046CA
:107AC00010F8011BA1F1300CBCF1090F1DD80A23DD
:107AD00003FB0913A3F130090246F0E746F0010663
:107AE000D1E746F00206CEE746F00406CBE711F8F0
:107AF000013CA3F130000928DBD80A2202FB043440
:107B0000303C0A46CBE74FF0000912F8011B01F0A8
:107B1000FB0068289046F8D069290ED04AD8582929
:107B200064D006D825296DD098F80030002B99D163
:107B30009BE7632962D06429F6D13A68D2F800A0A5
:107B4000111D8AEAEA723960A2EBEA724FF0010B6A
:107B5000092A5BDCCB4538BFCB462CB1BAF1000F0C
:107B600001DB720700D5013CB30702D5B9F1000F64
:107B700004D0F00702D4002C4ED10024BAF1000F3B
:107B800052DACAF1000A2D212846FFF7FBFE06F063
:107B90000302022A05D1B9F1000F02D1002C47D10E
:107BA0000024CDE900464B460A2251462846FFF7FD
:107BB000F9FEB9E773294CD014D87029B4D13B68C9
:107BC0001A1D3A60302128461C68FFF7DBFE782139
:107BD0002846FFF7D7FE00220823CDE900322146D0
:107BE0001022E3E775292BD078299DD139680A1D29
:107BF0003A60CDE900464B46102228E03B681A1D4A
:107C000019783A602846FFF7BDFE8DE70A230BF18D
:107C1000010BB2FBF3F29BE7A345AFD2202128462C
:107C2000013CFFF7AFFEA6E77107B0D52B21ABE70C
:107C3000A345B6D230212846013CFFF7A3FEADE7AD
:107C40003968CDE900460A1D3A604B460A220968A8
:107C5000ACE73B681A1D3A6016F00106D3F800A0A5
:107C600020D1BAF1000F03D0504604F0AEFA064618
:107C7000B44200D9C4B90AF1FF3A1EE028460136E1
:107C8000FFF780FE1AF806100029F7D1A642BFF4CC
:107C90004BAF002C3FF448AF20212846013CFFF7B2
:107CA00071FEF3E70026EDE720212846013CFFF7AF
:107CB00069FEDDE72846FFF765FE1AF8011F002977
:107CC000F8D131E703B0BDE8F08F2DE9F047B0F807
:107CD00006904479D2F800A09DF8208009FB04F4B6
:107CE000043C06460AEB0300A0420F4688BFA4EB03
:107CF000030A191DC2F800A0B1FBF9F509FB151123
:107D00004DB9A9EB0104544528BF5446BAF1000F00
:107D100004D1BDE8F0873668013DF1E704317B19F5
:107D200070182246B8F1000F0ED001461846AAEB93
:107D3000040A04F0CCF9D145254436684C464FF08E
:107D4000000128BF5446E1E71946F0E7FFF7ACBD54
:107D5000F8B546790146721E0546002393422D6808
:107D600003D30024A64202D8F8BD0133F6E70F681A
:107D70002846FFF7D4FD01343946F3E72DE9F843EF
:107D8000068ACD1C0746FFF7A6FD043E354404468F
:107D9000B5FBF6F5F0B14FF48073EDB28380C68089
:107DA000013D076081464FF00008A84512D23846D1
:107DB000FFF791FD064648B163790133637108F11D
:107DC0000108C9F8000007608146EEE72046FFF78A
:107DD000BFFF34462046BDE8F88301210430FFF799
:107DE00041BD10B5012104460430FFF746FD10F0F7
:107DF000FF0F04D12046BDE81040FFF7A9BF10BD1A
:107E00001FB503920022009203AAFFF75EFF05B0A0
:107E10005DF804FB1FB503920122009203AAFFF74D
:107E200054FF05B05DF804FB41DF7047064B10B509
:107E300000241C70054B1C60BFF35F8F044905488C
:107E400000F09BF8204610BD9032002094320020B4
:107E500098D002008832002007B500230DF10700FA
:107E60008DF80730FFF772FCF1EE103A23F09F0314
:107E7000E1EE103ABFF35F8F094B4022C3F8842133
:107E80009DF80700FFF786FC03F02EFB20B1FFF7FB
:107E9000CBFF03B05DF804FB20BF40BF20BFF8E775
:107EA00000E100E0836800225A609A60C3E904227E
:107EB000DA601A6070472DE9F04106460F46904699
:107EC0001D468BB9B0687368D0E9031403F1010C47
:107ED0000A1B62450FD10024C8F800401DB3FFF70C
:107EE000E0FC0020BDE8F0818068FFF7D1FC0028AD
:107EF000E8D01120F6E701EA030223409A4238BF96
:107F00006444D8F800302CBFACEB0204641A9C42E5
:107F100028BF1C463368C8F8004013443B60C36860
:107F20001C44C460DDE72846DCE7826843681069CA
:107F300010B50133946803441B1B8B420AD30C44D5
:107F4000C2E902441046FFF7A9FC002814BF002034
:107F5000082010BD0420FCE7806808B5826803692A
:107F6000D21A8A4207D30B44C0E904330430FFF726
:107F700098FC002008BD0420FCE70B684A684360B9
:107F8000934208BF0023016008BF43607047436805
:107F900043B10268916852680B449342436004BF46
:107FA000002343607047000010B50D49A1F594729D
:107FB000914201D800200FE08B1ADB1003EBD37342
:107FC0005B1002EBC30452F83330834205D802D26F
:107FD00004F10802ECE7606810BD2146E8E700BF45
:107FE000E8D1020008B5FFF7DFFF024B002808BF09
:107FF000184608BDADD00200044B1868421C04BFEF
:10800000034B1878831F58425841704730010010C5
:10801000E00F00F0064B1868083B1B78062B05D1D3
:10802000C0F30310C31E58425841704700207047E8
:10803000E80F00F008B5FFF7DFFF28B1804B814A59
:108040001B68C3F304231360FFF7E4FF10B17E4BFA
:108050007E4A1A60FFF7D0FF28B17D4B7D4A1B682E
:10806000C3F342331360FFF7D5FF20B17A4AD368D8
:1080700023F08073D360FFF7BFFF40B14FF0804320
:108080000022C3F80C21C3F81021C3F83825FFF7EC
:10809000C1FF10B1714B03221A60FFF7BBFF40B163
:1080A0006F4B05221A6001229A6700229A603F22D4
:1080B0005A606C4B1A68511C0BBF6B4B6B4B1A7898
:1080C0001B6802BF08331B68C3F30313062A49D198
:1080D000033B012B46D94FF08052654BD2F8041474
:1080E000C3F82015D2F80814C3F82415D2F80C14DC
:1080F000C3F82815D2F81014C3F82C15D2F81414AC
:10810000C3F83015D2F81814C3F83415D2F81C147B
:10811000C3F84015D2F82014C3F84415D2F824143B
:10812000C3F84815D2F82814C3F84C15D2F82C140B
:10813000C3F85015D2F83014C3F85415D2F83414DB
:10814000C3F86015D2F83814C3F86415D2F83C149B
:10815000C3F86815D2F84014C3F86C15D2F844245B
:10816000C3F87025FFF748FF28B1424B424A1B680D
:1081700003F04F031360FFF73FFF48B14FF0804318
:10818000D3F80024D20744BF6FF00102C3F80024E3
:10819000344B1B68062B09D1344B1B68033B022B65
:1081A00081BF364A136843F480631360344AD2F8BF
:1081B000883043F47003C2F88830BFF34F8FBFF3A9
:1081C0006F8F4FF01023D3F80022002A03DBD3F87F
:1081D0000432002B2FDA2B4B0122C3F80425D3F8ED
:1081E0000024002AFBD04FF010221521C2F8001203
:1081F000D3F80024002AFBD04FF010231522C3F837
:108200000422204B1A46D3F800140029FBD0002189
:10821000C3F80415D2F80034002BFBD0BFF34F8F06
:108220001749194BCA6802F4E0621343CB60BFF3ED
:108230004F8F00BFFDE7154B154A1A6008BD00BF00
:10824000240300104035014074C007400DF0ADBA62
:10825000440200103C050040F0ED00E0A0050040A5
:108260001056004030010010E00F00F03401001003
:1082700000C0004058020010E40E00403C170040CF
:1082800000ED00E000E001400400FA05E02A0020D3
:108290000090D003054A4FF0A043105CD3F804359A
:1082A00023FA00F0C04300F001007047A4D502009B
:1082B000044B1A5C012393404FF0A042C2F80C35E6
:1082C000704700BFA4D50200044B1A5C0123934001
:1082D0004FF0A042C2F80835704700BFA4D5020095
:1082E00008B50020FFF7F0FF0120FFF7EDFF0220A7
:1082F000FFF7EAFF0320BDE80840FFF7E5BF08B538
:108300000020FFF7D5FF0120FFF7D2FF0220FFF783
:10831000CFFF0320BDE80840FFF7CABF074A4FF070
:10832000A041105CD1F804350122824022EA03000A
:108330001340C1F80805C1F80C357047A4D50200F8
:10834000054A4FF0A043105CD3F8103523FA00F033
:10835000C04300F001007047A2D502000F2805D0ED
:1083600010280CBF01204FF0FF30704700207047ED
:10837000014B185C704700BFA2D50200C20708B5C8
:1083800001460CD54FF0A0430322C3F84427C3F89D
:108390004827C3F84C27C3F85027FFF7A1FF8B07E6
:1083A00041BF4FF0A0430C22C3F83C27C3F840273D
:1083B00008BD000038B5074C051E04F1080318BFBE
:1083C0001C4623682BB11A6822605B6828469847D0
:1083D000F7E738BDA032002020B9054B01225A70C2
:1083E000FFF7E8BF012802D1014A9070F8E7704713
:1083F0009832002020B9034B01225A70FFF7DABFF0
:10840000704700BF9832002038B50E4C2378B3B9BE
:108410000D486360A3602361E36000F073F80546D4
:1084200003F062F808B900F079F801232370074BD4
:10843000D3F800340BB10123A370284638BD85253D
:10844000F5E700BF98320020D98302000000014008
:1084500037B50D4C00230DF107008DF80730FFF7FD
:1084600075F9E368013BE360E36833B9074BD3F880
:10847000005415B900F068F8A5709DF80700FFF7E3
:1084800089F903B030BD00BF9832002000000140E0
:10849000012813B50DD018B1032820D002B010BDAB
:1084A000114B0122C3F88020BFF34F8FBFF36F8FB2
:1084B000F4E70E4C00230DF107008DF80730FFF7AD
:1084C00045F923780BB9FFF79FFFE3689DF8070094
:1084D0000133E3600123A370FFF75CF9DEE700F0EE
:1084E0001DF8FFF7B5FFD9E700E100E09832002062
:1084F00000F18040002382B0036003680193019B78
:1085000002B07047044A137923B9012110609180A9
:108510001846704785207047AC320020084B1A6817
:10852000D20704D4C02283F8002301221A604FF03E
:1085300080420123C2F81835024A1370704700BF09
:1085400000E100E0B43200204FF0804208B5022381
:10855000C2F808334FF48270FFF7CAFF034B0121C2
:108560001960D2F81834DB03FBD408BD0C000040BE
:1085700000F1804000F5C040002382B00360036832
:108580000193019B02B07047800000F1A040D0F839
:10859000003723F44033C0F80037D0F8003743EAFF
:1085A0000141C0F800177047054B4FF0FF32072814
:1085B00043F8202084BF1B1883F84820704700BF71
:1085C000B832002010B51A4C94F858306BBB4FF0FD
:1085D000FF3222FA03F1C90748BFE11803F1010392
:1085E00048BF81F83020202BF3D10021C8B2FFF71B
:1085F000DBFF01310C29F9D1042200210D4803F0E1
:108600008FFD0D4BC02283F8062340221A604FF4E1
:10861000BE70FFF7ADFF094B4FF00042C3F80423D3
:10862000012384F85830002010BD0820FCE700BF6B
:10863000B83200200C33002000E100E00060004070
:10864000034B93F85800003018BF0120704700BF5B
:10865000B8320020F0B5374B1C1894F93040002C8C
:108660001C4664DA8D78C5F34005002D0BBF082346
:1086700000230C260826B34201D10420F0BD54F893
:10868000237001373FD1261844F8232086F8303074
:1086900015B9E21882F848008A78550713D4D6072E
:1086A00033D5820002F1A042D2F8005725F002052E
:1086B000C2F80057204EC50800F007070122BA4053
:1086C000775D3A4372558A780D7812F0020225D010
:1086D0009B0003F1804303F5C0430202D3F8101559
:1086E00021F4473121F44071C3F810152D04D3F85B
:1086F000101502F4F85205F440352A430A43C3F832
:1087000010250020BAE70133B5E74D7800F5E07297
:108710004FF0A046AD0046F82250CBE7083B23447B
:1087200093F8501041EA851583F85050E9E7082086
:10873000A4E700BFB83200200C33002038B51F4C2E
:10874000251895F93020072A17DD224492F84810A1
:10875000890903290CD14FF0A043D3F81035C34049
:1087600013F0010F08BF0221BDE83840FFF70CBF2E
:10877000012914BF03210221F6E7D3B2072B1CD82D
:10878000930003F1804303F5C043D3F8100540F094
:108790000100C3F8100502F14000800080B2FFF72D
:1087A000E7FE51B195F9303054F823302BB1012355
:1087B00003FA02F2024BC3F8042338BDB83200209A
:1087C000006000404FF0A043D3F8103523FA00F0CA
:1087D00000F00100704700002DE9F34700244C4DE4
:1087E00001944FF48072012102F1804303F5C043EC
:1087F00090B21B68012B06D1D5F804330B4202D08E
:10880000FFF7B6FE0C430432B2F5907F4FEA410108
:10881000EAD1404B1B68012B0CD14FF4BE70FFF71F
:10882000A7FE4FF0A04344F00044D3F82025019266
:10883000C3F8202514F0FF0F1AD0374F002501266A
:10884000344210D0AB0003F1804303F5C043D3F8AA
:108850001005D3F8101557F8253023B1C1F30141A5
:10886000C0F3042098470135082D4FEA4606E7D1AA
:10887000002C46DA284F4FF0A046DFF8A0804FF0DA
:10888000000A4FF0010918F9011B4B1C2DD0CAB288
:1088900022F0C00402AB03EBD40313F8041C02F073
:1088A000070309FA03F319421FD004F5E0732046C9
:1088B00056F82350C5F30145022D0CBF03210221B8
:1088C000FFF762FE09FA04F3C6F820353B1993F965
:1088D000303057F8233043B19109032903D0022DDA
:1088E00012D1012901D1204698470AF1010ABAF1B3
:1088F000040FC8D1D6F820350193C6F82035002BD7
:10890000BBD102B0BDE8F087032DEED10229E9E723
:10891000006000407C610040B83200200833002035
:10892000014B1B68184700BF143300200E4B9842C0
:1089300037B50D4602D0002003B030BD00230DF145
:1089400007008DF80730FEF701FF084B1C7914B9BA
:1089500001221D601A719DF80700FEF71BFF002C15
:10896000E9D01120E8E700BF0020004014330020C8
:108970000023435082B043580193019B02B07047DB
:108980000B7B032B2AD8DFE803F022261A028B6820
:108990005A0304D5D0F84C350A699A4207D18B683E
:1089A0005B031BD4D0F84C354A699A4216D0002399
:1089B0000622C0F80035C0F8002518467047D0F8E8
:1089C0004C350A699A42F2D1D0F83C35ECE7D0F840
:1089D0004C350A69E9E7D0F83C35FAE701207047E1
:1089E000F0B55B4A5B4CD2F8243187B01546FBB139
:1089F0004FF492711046FFF7BBFFD2F80431BBB9B8
:108A0000A368C2F808330223A360A368C2F8043342
:108A1000D2F860311BB1D2F800329F0503D44C4B21
:108A200001221A625A61012384F82E3007B0F0BD8A
:108A3000D5F80431002B52D04FF482714448FFF72F
:108A400097FF236A5E060AD494F82E303BB9414959
:108A50003F48FFF795FF80F0010084F82E00236A5D
:108A60005D0721D43C4E0FCE01AD0FC533683848A9
:108A70002B604FF4B071FFF77BFF4FF4AE713448B9
:108A8000FFF776FF94F8303013B194F82E305BB1D5
:108A90002F4B0022C3F80022A260304AC3F80823FB
:108AA0002F4B0822C3F88021294AD2F8C434C2F8D7
:108AB000C43498073DD501238DF8003094F8303048
:108AC0000BB984F82F30236A5B0703D594F82E3056
:108AD000002BABD0D4E9003168469847A6E74FF4A5
:108AE000A4711B48FFF744FF237B83B91A4F0FCFB4
:108AF00001AE0FC63B68336094F83030002BD3D101
:108B0000C5F80032A360154BC5F80833C8E74FF429
:108B10000073C5F8003240F20223A36003F1CE7364
:108B2000C5F80833A368C5F804330123AB602B6292
:108B30007CE7590701D50223BEE7DA0701D50323F5
:108B4000BAE794F82E30002BB6D00423B4E700BF68
:108B5000003000401C3300202833002002029C011A
:108B600000E100E02DE9F84F0579304C4FF0340872
:108B700008FB05F804EB08069B4696F82D30814665
:108B80000F469246002B4CD129490068FFF7CEFED4
:108B9000002848D139687B7B86F8323001F5E072D5
:108BA0004FF0A043B060C6F804B086F82F0086F8F6
:108BB000300040F20C6644F808A043F822607A685E
:108BC00002F5E07C43F82C60D9F80030C3F80815B2
:108BD000C3F80C25BA68C3F82425BAF1000F13D0E6
:108BE0001B0B3A7B59B252010029DBB2D2B213DB24
:108BF000104E771887F800230122490903F01F035C
:108C000002FA03F346F82130342303FB0544012321
:108C100084F82D30BDE8F88F03F00F030649CA54DD
:108C2000F2E70820F6E71120F4E700BF1C3300202C
:108C3000E189020000E100E014ED00E00268037940
:108C40000621C2F80015044A342101FB0323022245
:108C500083F82D20704700BF1C3300202DE9F84316
:108C6000B14F90F804900468342606FB097600237F
:108C700086F82E30CB6803F06043B3F1005F0D46F9
:108C8000904603D010263046BDE8F883A74BC4F8C1
:108C9000083396F82F3023B1B368C4F80433112693
:108CA000F1E712F0140F0CBF0123002386F82F30D8
:108CB0008E46BEE80F0006F10C0CACE80F00DEF8A3
:108CC0000030CCF80030C8F3001386F83030C6F816
:108CD00020806B78C4F8883520464FF48271FFF706
:108CE00047FE4FF49271FFF743FE4FF4B071FFF768
:108CF0003FFE4FF4A471FFF73BFE18F0010318BFCD
:108D00000123C4F8503518F0020318BF0123C4F83A
:108D100040352B78032B00F2B480DFE803F0839F0B
:108D200068022B6903F06043B3F1005FAAD14FF4EE
:108D30008073C4F80032EA686B68C4F844254FF4C5
:108D4000A871C4F84835FFF713FE01232362A3601E
:108D5000D4F85031002BFBD04FF4A8712046FFF718
:108D600007FEAB682A69C4F84425C4F848353423A3
:108D700003FB09734FF480229A600823002618F041
:108D8000080F04D12A78032A1CBF0122E2503423A1
:108D900003FB09F3FA18FB58002B75D10125D4F811
:108DA0004821D4F80431002B40F08880003218BFED
:108DB0000122D4F82431002B00F087804FF4927107
:108DC0002046FFF7D5FDD4F86011D4F8003209B180
:108DD000980504D4256265610029E0D00022DB05F6
:108DE00073D54FF4A4712046FFF7C2FDD7E76B6837
:108DF000EA68C4F84425C4F848352B6903F060429A
:108E0000B2F1005F7FF43EAFAA68C4F834354FF486
:108E10008453C4F83825C4F80032342303FB0973A3
:108E2000022212E06B68EA68C4F8442518F0200FAB
:108E3000C4F848354FF034030BD04FF48072C4F8B7
:108E4000002203FB09734FF480229A6001232362FE
:108E500093E74FF40072C4F80022DFE76B68EA681A
:108E6000C4F83425C4F838354FF48053C4F80032C0
:108E7000342303FB097302229A6001232362002337
:108E80007CE7082307267AE718F0040F1CBF0023AD
:108E9000936018F0400F06D1342303FB09739A68DE
:108EA00042F002029A60342303FB0977BB6843F463
:108EB0000073BB60BB68C4F80433E4E64FF482710E
:108EC0002046FFF755FD012273E7002A3FF467AF04
:108ED0003421D4F8C434C4F8C43401FB097200202E
:108EE00082F82F0093B113F0010F14BF4FF4024624
:108EF000032648F2012213F0020F18BF164613F0A2
:108F0000040F48F2022318BF1E46BCE618F0400FBB
:108F10007FF4B9AE09FB01712046FFF731FD00284F
:108F200008BF0326AFE600BF1C33002002029C01ED
:108F300010B586B00024CDE902349DF820308DF8BC
:108F40000510A342CDE9042401A914BF2022224622
:108F50008DF80440FFF782FE06B010BD10B586B054
:108F60000124029300238DF80510CDE9033201A9F5
:108F70001A468DF804400593FFF770FE06B010BD49
:108F80000220FFF7CBB900002DE9F04781460D46DE
:108F9000FFF7E4F90128044604D8012D04D025B3D5
:108FA000022D2FD0BDE8F087194D47003A18A918B7
:108FB000AE5C4A7852B1DFF86880164842464FF4FA
:108FC0000041FEF769FB08B988F800903B192B4473
:108FD0009A78114B1A55002EE4D0104B1B68002BC9
:108FE000E0D03046BDE8F04718470A48FEF79EFB40
:108FF000074B04EB440213449E78074B1B5DB342BE
:10900000D0D1E8E7024B00EB40041C446678E2E76D
:10901000B433002074330020C9330020C43300204F
:109020005033002002210078FFF7AEBF08B5094B8E
:109030001B7853B10020FFF747F90120FFF744F9EF
:109040000320BDE80840FFF73FB9BDE80840FFF73F
:1090500047B900BF51330020F8B57B4C2378054653
:109060001BB100232370FFF7E1FF172D00F288806A
:10907000DFE805F00C17174354657680888D888DDE
:10908000959A9A9A9A9AC4C9D1D9E4E4FFF7CEFF87
:109090006E48FEF74BFB6E4B002204461A702046CA
:1090A000F8BD0020FFF7F6F8F8B10020FFF70CF943
:1090B000022D0CBF4FF4E1614FF47A61644B1D70D7
:1090C0004FF400404FF4FA740025E0FB01454FF4E3
:1090D0007A7200232046294602F0D8FE002201467B
:1090E0005A48BDE8F840FEF7D7BAFFF7E1F8022D7D
:1090F0000CBFC8214FF4C871E0E70020FFF7CAF8A1
:1091000040B10020FFF7E0F84FF44871504B0322C4
:109110001A70D5E7FFF7CCF8C821F7E70020FFF772
:10912000B9F838B10020FFF7CFF84FF47A61484B17
:109130000422EDE7FFF7BCF84FF4C871F7E7002011
:10914000FFF7A8F848B10020FFF7BEF8404B052212
:109150001A7041F69A110022C2E7FFF7A9F8F5E765
:109160000020FFF7DBF83A4B06221A70002240F687
:10917000CD41B5E70020FFF79BF8354B07221A7069
:1091800000248CE701202070FFF7C8F8EEE70120EB
:109190002070FFF7C3F800224FF48041A0E7FFF7EB
:1091A000AEF82B4B0C22EAE72A482B4EFEF7BEFA0C
:1091B000D5F1110504461CD0D8B9012D13D0C82310
:1091C0005D434FF400474FF4FA7000214FF47A7278
:1091D0000023C7FB050102F059FE224601461D4847
:1091E000FEF75AFA04460220FFF762F801233370B3
:1091F00055E70220FFF768F80023F8E7FFF716FFAE
:10920000134B1222BBE7FFF711FF0020FFF750F8C6
:109210000F4B1322B3E7FFF709FF0120FFF748F8D0
:109220000B4B1422ABE7FFF701FF0020FFF740F8DC
:109230000120FFF73DF8064B1522A0E7FFF75FF886
:10924000034B1D709CE700BFC03300209433002007
:10925000C83300205433002051330020044B1B68D6
:10926000DB0703D5034B1878FFF7F6BE704700BF46
:10927000BC330020C8330020012801D8FFF760B8B4
:1092800000207047044B1B6813F0010301D0FFF767
:10929000E3BE1846704700BFBC33002038B51A4BF8
:1092A00018601A4B10F002040546196016D0184BCE
:1092B00018480E221A700F22DA70022140F26662FC
:1092C000FDF724FE044648B9FDF776FE044628B9AA
:1092D0000146114A1148FEF7CDF90446EB0711D5B6
:1092E0000120FFF74BF86CB921460D4A0D48FEF7F7
:1092F000C1F9044630B90C4A0C480121BDE8384098
:10930000FEF7B8B9204638BDBC330020C433002076
:10931000B4330020D0D5020025900200E4D502002D
:109320005D920200E8D50200818F0200E0D50200C4
:10933000012813D8012A0BD1012908D100F10E020E
:10934000D2B200EB40000C4B1A54002070470022B0
:109350000129F6D04BB24BB1022901D0072070474A
:10936000054B00EB400018444270EEE7024900EB69
:10937000400008448270E8E7B4330020012808B5B3
:1093800012D8FEF7F5FF800000F1A040D0F80037BA
:1093900023F44033C0F80037D0F8003743F44033AB
:1093A000C0F80037002008BD0620FCE708B5012200
:1093B00002210020FFF7BCFF08B1072810D10722C7
:1093C00002210120FFF7B4FF08B1072808D10021CE
:1093D0000A220846FFF7ACFF10B1072808BF00209B
:1093E00008BD00000388102B10B502D0112B1ED031
:1093F00010BD1A4C2168B1B901220846FFF798FF49
:1094000008B1072824D1072202210120FFF790FF8D
:1094100008B107281CD1042202210020FFF788FF91
:1094200008B1072814D1236801332360E0E70B4A11
:109430001368013B1360002BDAD1FFF7B7FF002858
:10944000D6D0074B1B68002BD2D0BDE81040184780
:10945000034B1B68002BE6D09847E4E7D03300208D
:10946000CC33002008B50020FFF788FF08B106289C
:1094700006D10120FFF782FF10B1062808BF0020A7
:1094800008BD00000D4B10B518600C4629B1012035
:10949000FFF7F2FE40B102232370094B1B6853B95A
:1094A000BDE81040FFF782BFFFF7E6FE08B10B23CF
:1094B000F2E72070F1E7002010BD00BFCC330020A0
:1094C000D033002076DF70477ADF70477CDF70474B
:1094D0007FDF70478FDF7047B1DF704733DF704742
:1094E00070B5114B114C4A88E41A114B1B88E408E3
:1094F0009A4205464FEA04440DD10A8840F6772384
:109500009A4208D18B880B49033B9BB21A4644F020
:109510000300FDF796FA2B886A88074944F0040097
:10952000BDE87040FDF78DBAE4C9020014CA02001C
:10953000E82A002055D6020071D60200FDF752BD80
:1095400008B50020FFF79EFE08B1FDF74BFDFFF7C1
:1095500089FF08B1FDF746FDFFF7C0FF18B1BDE870
:109560000840FDF73FBD08BD0388212B13B5044615
:109570003BD01FD8112B28D0132B48D0102B32D121
:109580002B4B2C482C49C01AC008000440F00300A3
:10959000FDF74AFA0720FFF775FE08B1FDF722FD37
:1095A000264BA1882648198001F05CFDD8B1FDF753
:1095B00019FD18E0522B32D0562B01D03B2B12D183
:1095C0001321A088FFF77EFFF0E7194B19481D49CA
:1095D000C01AC008000440F00300FDF725FA174B3D
:1095E0004FF6FF721A8002B010BD114B1148164998
:1095F000C01AC008000440F00400FDF715FA00236B
:1096000001A9A088ADF80430FFF764FFCEE70B484E
:1096100000231A4685210088FFF75AFFC6E707484E
:1096200000231A4619460088FFF756FFBEE700BF21
:10963000E4C9020014CA02001ED60200E82A002073
:10964000C439002028D6020035D6020008B50378B8
:109650004BB9054B3B211888FFF734FF18B1BDE823
:109660000840FDF7BFBC08BDE82A0020072808B560
:1096700013D00A280DD0042819D10D4B13211888B6
:10968000FFF720FF30F0080311D0BDE80840FDF7D8
:10969000A9BCBDE80840FFF753BF054B1A884FF639
:1096A000FF739A4203D1034801F004F8EAE708BDCA
:1096B000E82A00207835002008B548B103280BD1EE
:1096C0000220FFF7DFFD38B1BDE80840FDF78ABC96
:1096D000BDE80840FFF734BF08BD000008B50378B7
:1096E000022B03D1094B01221A7008BD012BFCD1BA
:1096F000074B0848084A0949C01AC008000440F04E
:109700000300FDF795F9014B0022EDE7E039002059
:10971000E4C9020014CA0200ECD50200D2D602004D
:10972000FDF760BC08B50849084801F001FB08B125
:10973000FDF758FCF721054801F00EFB18B1BDE814
:109740000840FDF74FBC08BDE1940200AC39002091
:109750002DE9F3471C4FADF8061039884FF6FF721C
:10976000914206462CD0194B1B78012B28D1184C5E
:10977000184BDFF86480DFF86490DFF864A0E41A27
:10978000E408240444F003043B880DF1060231464A
:10979000404601F0EDFD054690B103464A4651466C
:1097A0002046FDF74EF9082D0AD0132DECD0052DDB
:1097B00006D043F201439D4202D02846FDF712FC39
:1097C00002B0BDE8F08700BFE82A0020E0390020A1
:1097D00014CA0200E4C90200EC2A0020FDD50200F0
:1097E00049D6020008B5FEF70FFE18B1BDE80840E3
:1097F000FDF7F8BB08BD0000044B054A1A60054A96
:109800005A60054A9A60054ADA607047D0390020EC
:10981000B5B90200FDB9020035BA020055BA02001E
:1098200030B503782DED048B012BADF5137D044687
:1098300040F00F8183680DF10B0112A8984705468F
:10984000002840F006812379012B40F00281014677
:109850004FF4807252A802F063FC1422294603A838
:1098600002F05EFC0DAC1422294608A802F058FC58
:1098700014222946204602F053FC9DF849309DF8F9
:10988000480040EA032000B207EE900AF8EEE77ABB
:1098900017EE900A02F0B6FA73A3D3E9002302F0A0
:1098A00015FA0022724B02F011FA02F0C5FA9DF887
:1098B0004B3009EE100A9DF84A0040EA032000B23E
:1098C00007EE900AF8EEE77A17EE900A02F09AFA9D
:1098D00065A3D3E9002302F0F9F90022644B02F0FA
:1098E000F5F902F0A9FA9DF84D3008EE900A9DF8BE
:1098F0004C0040EA032000B207EE900AF8EEE77A47
:1099000017EE900A02F07EFA57A3D3E9002302F083
:10991000DDF90022564B02F0D9F902F08DFAB5EECE
:10992000C09AF1EE10FA08EE100A40F19780FFEEAF
:10993000007AB4EEE79AF1EE10FA40F38F804D4AC8
:10994000DFED4D9A4D49FDEEC97AB5EEC09AB8EEFD
:10995000E77AF1EE10FACCBF39EE479A37EE499A22
:1099600017EE903A29EE299A03A8BDEEC99A8DED1B
:10997000009A02F086FBF5EEC08AF1EE10FA6FD580
:10998000FFEE007AF4EEE78AF1EE10FA68DD394A6C
:109990003A49FDEEE87AF5EEC08AB8EEE77AF1EEE4
:1099A00010FACCBF78EEC78A77EE688A17EE903A45
:1099B00068EEA98A08A8FDEEE88ACDED008A02F0DB
:1099C00060FBB5EEC08AF1EE10FA4BD5FFEE007ADF
:1099D000B4EEE78AF1EE10FA44DD264A2749BDEEDF
:1099E000C87AB5EEC08AF8EEC77AF1EE10FACCBFAD
:1099F00038EE678A37EEC88A17EE103A28EE298AC1
:109A00002046BDEEC88A8DED008A02F03AFB08AB15
:109A100003AA1B49009452A802F033FB52A8FCF79A
:109A200079FE184A184B19499B1ADB081B04024699
:109A300043F00300FCF7FCFF52AB002113F8012BAD
:109A40001AB10131B1F5807FF8D189B252A8FFF780
:109A50007FFE0DF5137DBDEC048B30BD0C4A6FE726
:109A60000B4A95E70A4AB9E79A9999999999234037
:109A70000000303F09D602000000C8420BD60200A9
:109A800015D60200E4C9020014CA02001BD6020067
:109A90004BDE020000B54FF40041ADB00020FCF7F2
:109AA000F3FD08B1FDF79EFAFCF72EFDFFF79AFED5
:109AB000FDF7B0FD08B1FDF795FA01F043FF654AE7
:109AC00014210C20FDF7D4FA08B1FDF78BFA624996
:109AD0000320FFF7E3FB08B1FDF784FA01A900209A
:109AE000FFF7D0FC08B1FDF77DFA01F045FFFFF765
:109AF00083FE5A4801F0B2FEFEF798F908B1FDF76F
:109B000071FA01F0B3FC08B1FDF76CFA002301A96A
:109B10000120019301F038FD08B1FDF763FA01A8B7
:109B200001F002FE08B1FDF75DFA11234C488DF8F3
:109B3000003002F04AFB4A4982B26846FFF7C6FC91
:109B400008B1FDF74FFA0021082201A802F0E8FA57
:109B500044494FF0C87301A8CDE90113FFF7B4FCE5
:109B600008B1FDF73FFAFFF7DDFD3F4B3F4801939A
:109B700001A901F065FA08B1FDF734FA00210422C9
:109B8000684602F0CDFA3A4B3A480093694601F034
:109B900079FB08B1FDF726FAAC22002101A802F0FA
:109BA000BFFA02238DF804304FF4A063324AADF8B7
:109BB00006300123ADF8503015928DF880304022E8
:109BC00044F25063CDE9232301A92C4B2C482A935E
:109BD00000F0B0FB08B1FDF705FA0121284800F0BC
:109BE000A6FB1C22002101A802F09AFA00234FF4E0
:109BF0002032CDE90132ADF812304FF470228DF8E9
:109C00001430204B0392069303221F4B8DF8102033
:109C100001A8079300F06AFE08B1FDF7E3F91B4BBA
:109C20001B481C49C01AC008000440F00300FCF7A0
:109C3000FBFE0321124800F0FCFB08B1FDF7D2F94E
:109C4000FDF7A0FAFCF7A0FD0028F9D1FEF704F912
:109C5000F6E700BFD43300206D960200D039002013
:109C6000AAD6020010003C003D950200C439002035
:109C7000DD960200EC2A0020E42A0020B9960200BA
:109C8000783500204D96020021970200E4C90200B9
:109C900014CA0200B0D602000369C1688B429DBF9E
:109CA0008268D21802F1FF3203F1FF3394BF501AD9
:109CB000581A70472DE9F041D0E9027405463E1B61
:109CC0004068964220448846144404D902F0FFF9C3
:109CD000EC60BDE8F0813246E41B02F0F8F9224660
:109CE00008EB06016868F1E72DE9F843C568064608
:109CF000894617464FF000083469B3687068A5427A
:109D000028BFE418013C621B5C1BBC4228BF3C46D8
:109D1000944228BF144649462844224602F0D7F907
:109D2000B3682544AB4208BF00253F1BA044A144B3
:109D3000F560E1D14046BDE8F883000010B5114C54
:109D4000114AA2610223C4E90433104BE361A26407
:109D50004FF400730E4A2362E264002310220D497F
:109D6000A362E01D6362E362A3656365E365226548
:109D700002F009FA0849204602F005FA2023A371EF
:109D800010BD00BFE4390020E3D602006C3A002089
:109D90005C3A0020ECD60200F0D60200F8B5184C70
:109DA000182300FB033503FB00402544C46A012C43
:109DB0000F46164611D024B1022C1BD00024204699
:109DC000F8BD2846FFF768FFB042F8D3324639465F
:109DD0002846FFF76FFF3446F1E72846FFF75CFFA0
:109DE0008642344628BF0446224639462846FFF7B5
:109DF00061FFE4E72846BDE8F840FFF775BF00BF04
:109E0000E4390020FFF79ABF6DDF704779DF7047B4
:109E10007DDF704764DF70472DE9F04F85B0002586
:109E20000E9CBDF83CB027880191804691469A4629
:109E30002E46B8F80020B2420CDC3DB12288013A2F
:109E4000D21B92B2FF2A3BD80AF80720002005B0A7
:109E5000BDE8F08FD8F8042052F8260003900022C5
:109E60000DF10B0103A8FFF7D5FF0028EFD19DF8F6
:109E70000B204A4522D12288002D14BF0020022049
:109E800002EB0901014459451ADC45B9013292B28D
:109E9000019B22800AF80230228801322280228827
:109EA0000DF10B01524403A8FFF7B4FF0028CED1F7
:109EB00021889DF80B200A44228001250136B8E74D
:109EC0000C20C4E72DE9F341089CBDF82450174647
:109ED000CDE90045022206469846FFF79DFF50B99E
:109EE0004346102239463046CDE9084502B0BDE868
:109EF000F041FFF791BF02B0BDE8F0812DE9F04FCE
:109F000000231688138090F82D3085B007460D4643
:109F1000144653B3082E01D80C2027E102A8FFF7FE
:109F200073FF002840F0228123880822EA54238806
:109F300001339BB21B222380EA542088013080B277
:109F4000208006220DF10901284402F0C0F8238880
:109F50009DF8082006339BB212F0FE0218BF0122C2
:109F60002380EA54238801332380BB78FBB1238804
:109F70000433B342D0D802A8FFF748FF002840F0CE
:109F8000F58023880322EA54238801339BB21922E7
:109F90002380EA542388BDF8082001339BB2E918D6
:109FA0002380EA54120A4A70238802332380FA7805
:109FB0009AB12388D91CB142AED80221E954238832
:109FC00001339BB201212380E95423880B449BB2C7
:109FD0002380EA5423880B4423807A68AAB123881B
:109FE000D91CB14298D8022192F90020E954238863
:109FF00001339BB20A212380E954238801339BB2A9
:10A000002380EA542388013323803B89002B40F0CE
:10A01000A1803B8A5BB1CDE900462B460722032194
:10A0200007F11000FFF74EFF002840F09F803B8BA8
:10A030005BB1CDE900462B461522142107F118002B
:10A04000FFF740FF002840F091803A6A002A40F074
:10A050009080D7F82480B8F1000F30D0B8F80430E1
:10A060002188981C8A1C0244B2423FF655AFFE2854
:10A070003FF652AF03336B54238801339BB2FF2268
:10A080002380EA54238801339BB22380B8F8002050
:10A09000EA54E918120A4A702088023080B22080FF
:10A0A000B8F804205AB1D8F8081000296BD0284419
:10A0B00002F00DF82388B8F804201344238097F8A1
:10A0C0002C30002B40F09A80387800284ED03B8806
:10A0D000012B58D0228802F1020CB4453FF61CAF88
:10A0E000012805D17B78023313449E42FFF414AF5C
:10A0F000023EB61AB6B202A905EB0C00ADF8086034
:10A10000FFF786FE90BB3978BDF80820022900F0E1
:10A11000BA807B78934202D3B24240F2B2800129E6
:10A1200040F0B3809BB29E42C0F0AF80ADF80830E3
:10A130000821BDF80830FE2B3FF6EEAE2288013331
:10A14000AB542288013292B22280A954228813444F
:10A1500023800BE0CDE900462B460622022107F1C1
:10A160000800FFF7AFFE00283FF453AF05B0BDE88D
:10A17000F08FB4F800C00CF10603B3423FF6CCAE4A
:10A180001188052901D80720F0E76FF4486E01EB2C
:10A190000E039BB24FF27D3E7345F4D95388052BD5
:10A1A000F1D96FF44860181880B27045EBD94FF6BA
:10A1B000FF70814203D0834201D09942E3D8052346
:10A1C00005F80C30238801339BB212212380E95417
:10A1D000238801339BB223801188E954E818090AC7
:10A1E0004170238802339BB223805288EA54E918D5
:10A1F000120A4A702388023323802AE7BB6A002BA5
:10A20000C1D04FF000094FF00C0A4FF0160B97F831
:10A210002C305FFA89F293427FF656AFB96A0AFB97
:10A2200002F201EB0208B8F80430981CFE283FF651
:10A2300073AE208803332B54238801339BB22380D1
:10A2400005F803B0238801339BB223808A5AEA546D
:10A25000E918120A4A702088023080B22080B8F8CB
:10A2600004205AB1D8F8081000298CD0284401F0F5
:10A270002EFF2388B8F804201344238009F1010934
:10A28000C5E7092155E7B242FBD9ADF808604FE7B1
:10A2900030B5C0B1EAB10024651C8D4206DA1588DC
:10A2A000A54211D805196D789D420DD1A14210D952
:10A2B000005D40B1013880B228B10234A4B2231845
:10A2C000994206DB148030BD055D01352C44A4B2F3
:10A2D000E2E70020F7E713B50023ADF80630134698
:10A2E0000DF106020446FFF7D3FF10B1BDF80600DA
:10A2F000204402B010BD72DF704773DF704774DF17
:10A30000704738B5012204460D46B0F81414D0F851
:10A310001004FFF7E0FF00B1057004F13C0204F502
:10A32000826104F15400BDE83840FFF7E4BF80F8D3
:10A3300030107047F8B504460F46002975D0002844
:10A3400073D091F87A301BB191F89830002B6ED110
:10A35000D7F8A030042B6AD0D7F89C30042B66D0F5
:10A3600007F178060FCE4FF0000C251D84F802C0CF
:10A370000FC50FCE0FC596E8070085E8070084F8E3
:10A3800030C0D7F8A4306363D7F8A830A3634FF682
:10A39000FF7504F58263C4F82034A4F8245407221E
:10A3A000614604F2264001F0BBFE23780BB984F825
:10A3B000545094F82430002B14BFEE231F2304F1D3
:10A3C0005501C4F81014A4F8143404F214423846A9
:10A3D000FFF794FD40BB94F82430002B14BFEE230C
:10A3E0001F2304F23121C4F81814A4F81C3404F219
:10A3F0001C4207F13C00FFF781FDA8B9A369A4F84E
:10A4000048304FF480730125A4F85030636920640C
:10A41000014684F83C50636404F13C0204F15400AA
:10A42000FFF769FF00B92570F8BD0E20FCE7072093
:10A43000FAE7F8B5077804460D46002F00F00381CF
:10A4400000F22646A17007220021304601F068FE86
:10A45000E38813B1A378012B04D0E3794BB1A3783F
:10A46000022B06D1636BA3B1012284F82D240820AE
:10A470009847334604F22C4113F8012F12B98B424E
:10A48000FAD117466B1E032B51D8DFE803F0050BFA
:10A490000F1284F82D34ECE7A3791BB194F8243023
:10A4A00003B95FB9E3790BB1002F42D1237A002BB6
:10A4B00041D1637A002B0CBF00250425636BA57086
:10A4C000002B3AD0033D012D37D86279AAB394F816
:10A4D0002E2492BB84F83024012284F82F240720F4
:10A4E000984704F13C0518220021284601F018FE87
:10A4F000E26A531E0121022B28BF0A4684F851202C
:10A5000094F8242084F83C1032B1A36A581E022823
:10A5100028BF0B4684F85230A178002384F85030CD
:10A5200004291BD8DFE801F0770D223559000025FA
:10A53000C4E70225C2E70325C0E7002384F82F34CF
:10A54000CFE7C4F82034C4E910630223012284F861
:10A550003C30802384F83120A4F84830A378002BC5
:10A560005CD1636B002B6AD1002067E00223002AD4
:10A5700084F8313014BF0723032384F83C30236967
:10A58000A4F848300023C4F82034E36826646364E8
:10A59000E4E763696364A369A4F8483012B1062351
:10A5A00084F83C306379B3B194F82E349BB994F8B5
:10A5B000303483B1022384F8503004212046FFF761
:10A5C000A0FE0028CAD1052384F8313004F5826347
:10A5D000C4F82034C2E70323F6E7E3696364236A1F
:10A5E000A4F8483012B1062384F83C30637983B173
:10A5F00094F82E346BB994F8303453B1022384F8B4
:10A60000503004212046FFF77CFE0028A6D1062307
:10A61000DAE70423D8E784F831309FE72A46D4F8F4
:10A62000201404F15400FFF766FE38B994F8301096
:10A6300094F85400FFF761FE002892D0F8BD94F81A
:10A640003100984790E70820F8E70388112B10B5F0
:10A650000C460AD0262B1FD0102B05D1C37B012B13
:10A6600002D18388A1F8243410BD0022838881F8A8
:10A670002E24B1F824249A42F6D10B79002BF3D181
:10A6800001212046FFF7D5FE0028EDD0A36B002B5B
:10A69000EAD0BDE810401847037A013B012BE3D80C
:10A6A000897805230131B1FBF3F303EB8303C91A66
:10A6B000C9B2E6E738B5044690F85400FFF71FFE2C
:10A6C000012384F82E34002384F8303484F8503089
:10A6D00006212046FFF715FE054638B9A178204629
:10A6E000FFF7A7FE10B1A36B03B19847284638BD0A
:10A6F00075DF704776DF70477ADF70477BDF704722
:10A70000034B1A8882420CBF18460020704700BFD6
:10A71000883C0020024B9B6903B11847704700BF7B
:10A720006C3C002073B586B23046FFF7E9FF044663
:10A7300070B1164D027A2B7B9A420BD200F10A01BE
:10A740003046FFF7D5FFE8B1112801D0FFF7E2FF4F
:10A7500002B070BD002303722B7C43B13B21304615
:10A76000FFF7C8FF30F0080301D0FFF7D3FF6B6994
:10A77000002BEDD000228DF80420ADF8066001A872
:10A780009847E5E7237A01332372E1E76C3C002028
:10A7900013B50B46497A0F4C024669B9D4E901104A
:10A7A0001C7A002C18BF01465868FCF775FF08B1E9
:10A7B000FFF7B0FF02B010BD002119726369002BD2
:10A7C000F8D00121ADF806008DF8041001A89847D3
:10A7D000F0E700BF6C3C00204B8802889A4213D8F7
:10A7E00042889A4210D380888A8840F2F3139842B4
:10A7F00094BF031AC31A934206D800F2F310904292
:10A8000034BF002001207047002070470388112BBF
:10A8100070B5014648D002D8102B1ED070BD122B47
:10A8200052D0502BFAD12F4BC288DB899A42F5D1F6
:10A83000038A022BF2D186883046FFF761FF054676
:10A840000028EBD001F1120000F079F930BB686804
:10A85000FCF76CFF0028E1D009E0C37B012BDDD1C0
:10A860004FF6FF70FFF74CFF054620B90420BDE806
:10A870007040FFF74FBF1C4A8E880680002303728A
:10A880001368C5F80A300A30536843601031FFF787
:10A89000A3FF144B6872DB89002BBFD129463046D9
:10A8A000BDE87040FFF774BF8088FFF729FF0446BA
:10A8B0000028B3D04068FCF739FF08B1FFF72AFF42
:10A8C0004FF6FF732380A9E786883046FFF718FF0D
:10A8D00005460028A2D008310A30FFF77DFF6872D4
:10A8E000DCE700BF6C3C00209C3C0020F8B506462D
:10A8F00048B305460FCD154F3C460FC495E80700F9
:10A9000084E807003068124C3C60B0B1FFF7F4FEF9
:10A91000C0B9326813682360536863600D480E4AFB
:10A920004FF6FF7303800D4B40F8043F0021FCF706
:10A93000A1FE002818BF032004E02046FFF7DEFE3A
:10A940000028EBD0F8BD0E20FCE700BF6C3C0020D7
:10A950009C3C0020883C002025A70200A43C00204D
:10A960000AB1FCF72DBFFCF734BF73B50191019C10
:10A9700006466CB100252C46294601A8FCF733FF9A
:10A9800018B106EB440301349D800135142DF3D139
:10A990003046346002B070BD2DE9F04703888488EA
:10A9A000103B8CB005460A2B1FD8DFE803F0063FAA
:10A9B0001E1E1E1E1E1E1E5F4400314EB368DB436A
:10A9C000009371686846FCF742FF009901A8FFF701
:10A9D000CCFF0DF108094FF00008019B984507D303
:10A9E000132C13D90420FCF7FDFA0CB0BDE8F08756
:10A9F00039F802AB00270137514606EB8700FCF718
:10AA0000E8FE1E2FF7D108F10108E6E721461D48B0
:10AA1000FCF7D6FE21461C48FCF7D2FEEB7B022B4E
:10AA2000E3D121461948FCF7CBFEDEE72146154865
:10AA3000FCF7CFFED9E7057A15482D09032D94BF01
:10AA4000002201222146FFF78BFF022D94BF002236
:10AA5000012221460F48FFF783FF012D0E4894BFC6
:10AA6000002201222146FFF77BFFBEE7037A002B7D
:10AA7000BBD1427A0648C2F3C0022146F3E700BFC9
:10AA8000C43C0020CC3C0020C83C0020D03C00202E
:10AA9000DC3C0020D83C0020D43C00201328014698
:10AAA00002D80248FCF79FBE00207047C83C002037
:10AAB00010B50446FFF7F2FF002814BF204614200B
:10AAC00010BD70B5054616460AB90E2070BD0023AC
:10AAD00013600028F9D00368002BF6D0C38813F068
:10AAE00003040FD10846FFF7E3FFC0B214280BD0D0
:10AAF0002B7983420AD9EB882A6800FB0323336051
:10AB00002046E3E70720E1E70520DFE70420DDE753
:10AB1000AADF7047002301380B70042806D8DFE84D
:10AB200000F00306080A0C0011230B707047212364
:10AB3000FBE73123F9E71223F7E72223F5E7007853
:10AB400000F001007047F0B58B7891B0002B0C46F7
:10AB500008BF01238DF80E3005460B88ADF80C3088
:10AB6000002116466846032201F0DAFA6946607C45
:10AB7000FFF7D0FF0DF10101A07CFFF7CBFF9DF89F
:10AB80000230E27B62F3C303227C62F30413227B74
:10AB900062F30003227D002A14BF0222012262F325
:10ABA000420300211C2209A88DF8023001F0B8FAF6
:10ABB000637B13F0300F15D002AF0322002138461B
:10ABC00001F0AEFA0DF10901E07CFFF7A3FF1123BC
:10ABD0008DF808309DF80A300E97012262F3420387
:10ABE0008DF80A30637B8DF824301422A37B8DF816
:10ABF0002530002104A801F093FA03AB0493A38845
:10AC0000ADF81C30A368CDF814D01BB1E288ADF8C4
:10AC100018200893A369002B2ED001AF0322002136
:10AC2000384601F07DFAA3691A88ADF82C205A88BD
:10AC3000187BADF82E2039465A680A920D97FFF717
:10AC400069FFA3690DF10501587BFFF763FFA26956
:10AC50009DF80630917A61F3C303D17A61F304134E
:10AC6000117A927B002A61F3000314BF02220122B1
:10AC700062F342038DF80630E36903B10C93334667
:10AC800004AA09A92846FFF743FF11B0F0BD90DFE1
:10AC90007047A5DF7047B5DF704700007FB51E4BDA
:10ACA0001E4CE41AE40824040E4603460A460546F0
:10ACB0001B4944F00400FBF7C4FE00236A4602A9C6
:10ACC0002846ADF80860ADF80A6003930093ADF82C
:10ACD0000430FFF7DCFF0646D8B1FDF783F944F0F6
:10ACE000010403462A460F492046FBF7AAFEBDF899
:10ACF0000020BDF8023052EA030103D00A49204681
:10AD0000FBF79FFEBDF804201AB108492046FBF767
:10AD10008FFE304604B070BDE4C902003CCA020098
:10AD2000F7D6020026D7020070D70200AFD7020084
:10AD300080B14FF0F71303601B230371F723C38027
:10AD40001723038141F61B32002301614381828175
:10AD5000184670470E20704730B1A1F11703E02B61
:10AD600004D80180002070470E20704707207047EC
:10AD70002DE9FF47868805460C460EBB0388232B2A
:10AD800000F003811FD8102B59D0112B00F09380B5
:10AD9000A37AABB1E1880020FFF77BFF03460028D0
:10ADA00040F006814FF4807262818A488A4A8B495A
:10ADB000801AC0080004E28840F00400FBF741FE5E
:10ADC00004B0BDE8F0873A2B7ED0552B00F0A1806F
:10ADD000242BDDD1804B7F4D0789B0F80AA0B0F855
:10ADE0000C80B0F80E90ED1AED082D0445F0040526
:10ADF000FAB233464A7328467949FBF722FE524697
:10AE000078492846FBF714FE3A4677492846FBF76F
:10AE10000FFE4A4675492846FBF70AFE424674492A
:10AE20002846FBF705FE2369002BB1D04DF67A22A8
:10AE30000292627BADF80C608DF80C20A1E00B79DA
:10AE40000B73C37B012B20D0022B21D0E2882389F6
:10AE5000934212D2604B5F4D6649ED1AED082D0406
:10AE600045F0040630460023FBF7EBFDE1880020A7
:10AE7000FFF70FFF70B90123E372217B637B8B42E5
:10AE800086D20020FFF70AFF82E70B88E380DDE728
:10AE90004B88FBE7112807D101235749A3720022F1
:10AEA0003046FBF7C5FDE8E7FDF79CF8534902463D
:10AEB00045F00100F5E7F723CB8017230B8141F61E
:10AEC0001B334E818B8163E74289CB8841489A428C
:10AED00028BF1A46404BC01A172A4FEAD00038BF85
:10AEE000172200040A813346454940F00400FBF76D
:10AEF000A8FD236953B1E27A42B140F6772202926B
:10AF00002289ADF80C2002A92046984700236381CE
:10AF10003EE7314B2F4DC7883A49ED1AED082D0415
:10AF200045F004083B4632464046FBF78AFDE3887D
:10AF30003549A672172F3A4638BF17229A4228BFC2
:10AF40001A46404622810096FBF785FDE18830468F
:10AF5000FFF7A1FE38B1FDF745F82C49024645F050
:10AF60000100FBF765FDE37A002B7FF411AF236945
:10AF7000002B3FF40DAF40F6772202922289ADF804
:10AF80000C2002A92046984702E7077A124B114885
:10AF90001F49C01AC008000440F004003B46324676
:10AFA000FBF74FFD217BA888B94228BF394669E7E6
:10AFB00011283FF405AFFDF715F8074A054B0F4977
:10AFC0009B1ADB081B04024643F00100FBF730FD2F
:10AFD000F6E600BF3CCA0200E4C9020058DA0200EB
:10AFE000A8D90200D7D90200E9D90200FBD9020092
:10AFF0000BDA020005D8020042D8020094D8020001
:10B00000C5D8020000D902003AD9020079D902005D
:10B010001BDA0200B0DF704766DF704710B5002111
:10B0200004464088FFF7F8FF034608B9237210BDB5
:10B03000112801D10123F9E76368BDE810401847E2
:10B0400060B159B10378DE2B0AD00B684360DE2370
:10B0500003704FF6FF734380002070470E20704747
:10B060000820704728B10378DE2B04D141800020EE
:10B0700070470E20704708207047F0B5054685B030
:10B080000C46F1B1E8B10B78DE2B1AD182884B88DF
:10B090009A4204D10B7A13B10846FFF7BFFF2B8801
:10B0A000112B32D0512B0ED0012B0AD12B7A012B30
:10B0B00007D1A9886288914203D123722046FFF705
:10B0C000ADFF05B0F0BDAE886388B342F9D1AF796A
:10B0D000022FF6D1AD7B2B1F022BF2D800211022BC
:10B0E000684601F01DF8052D14BF4FF4C07300230E
:10B0F000694630468DF80070ADF80430FFF78AFFDE
:10B100000028DED063689847DBE76388AA889A4204
:10B1100004BF4FF6FF736380D3E7A8DF7047ADDF4E
:10B120007047AEDF704762DF7047000070B50546BC
:10B130008AB00C4639B130B10388112B00F09C80E5
:10B1400003D8102B11D00AB070BD502B43D0572B11
:10B15000F9D18188606902AAFFF7B3FC0146002893
:10B1600075D0474B01221A70EDE78188606900268F
:10B1700001AA0196FFF7A5FC082231460DEB02005B
:10B1800000F0CEFF022302AA218AA888CDF80CD0B5
:10B190000293FFF7C4FF0028D5D1A369002BD2D0BA
:10B1A0000398FFF7CCFC0028CDD0019B0BB1012206
:10B1B0001A701822002104A800F0B2FF02238DF8B3
:10B1C0001030AB88ADF81830019B0793A369059444
:10B1D00004A89847B7E78188606902AAFFF771FC65
:10B1E0001822002104A800F09BFFAB88ADF81830AE
:10B1F0002189EB88029A05949942079217D12E8AE9
:10B20000022E14D1002A9ED005F11200FFF797FC00
:10B21000029B38B101221A708DF81060A369002BCF
:10B22000D6D190E7187003238DF81030F6E7A28985
:10B230009A4288D1A369002B85D000228DF8102076
:10B2400005F1120208922A8AADF82420C0E7029B79
:10B250001B78002B85D0182204A800F061FF012381
:10B260008DF81030AB88ADF81830029B0793059429
:10B27000A36904A8984774E7014B002273E700BF55
:10B28000E0390020F0B5384B8FB002AA04460E46D4
:10B2900003F1100C174618685968154603C50833A2
:10B2A00063452A46F7D1002C5BD0002E59D0336875
:10B2B000A36121463846FFF736FF00284FD12246CA
:10B2C000012512F8023B8DF8063001A92846ADF899
:10B2D0000450FFF722FF002841D10146202206A892
:10B2E00000F01EFF22460223ADF8183012F80C3B86
:10B2F0008DF81A30BDF824301C4E6088079603F490
:10B30000734343F440632B4306A9ADF824308DF812
:10B3100029508DF82A50FFF716FC00BB0146202269
:10B3200006A800F0FDFE22460323ADF8183012F8FF
:10B33000043B8DF81A30BDF824306088079603F47A
:10B340006F4343F480532B43ADF8243006A940F2F9
:10B3500001138DF82950ADF82A30FFF7F4FB0FB038
:10B36000F0BD0E20FBE700BFAADA0200F4000100E6
:10B37000F0B50F4687B016461C46054618B301AA1D
:10B3800019464069FFF79DFBD8B94FF6FF739C4201
:10B390001BD0019BCBB11B78CBB13388F42B18D8D1
:10B3A0000146102202A800F0BBFEAB88ADF80830C1
:10B3B00002A901232046CDE904678DF80A30FFF782
:10B3C000B0FE07B0F0BD0E20FBE70520F9E708202E
:10B3D000F7E70720F5E710DF7047000013B50446D4
:10B3E00009496846FCF7C9FD019808B902B010BDCB
:10B3F000D0E900312046984718B16846FCF7C7FDF0
:10B40000F2E71120F2E700BFC8DA020013B50446E4
:10B4100007496846FCF7B1FD019B0BB902B010BDAE
:10B420002046D3E9002190476846FCF7B0FDF3E7DA
:10B43000E0DA02000B4991F816335A09EC23134164
:10B44000DB0706D5084B9A683AB94FF480030B60C6
:10B45000704742F20200FBF7C5BD1A6842F4800251
:10B460001A60704700E100E07C320020F7B5194F08
:10B470003C7864BB184E012520463570FFF7AEFFBF
:10B48000112821D02046FFF7C1FF144B8DF803404F
:10B49000186801900DF10300FCF758F9104901A854
:10B4A000FFF799FF0446B0FA80F0400938709DF824
:10B4B0000300FCF76FF93CB90A4B34701C70FFF7BE
:10B4C000B9FF2846FFF7A2FF204603B0F0BD0824CD
:10B4D000FAE700BF413D0020403D0020C2DA0200F3
:10B4E00001700200423D0020014B1878704700BFF8
:10B4F000413D002007B508496846FCF73EFD019B29
:10B5000013B903B05DF804FBD3E900209047684607
:10B51000FCF73DFDF3E700BFD4DA0200FFF7EABF16
:10B5200060DF704769DF704761DF704730B5114DEC
:10B53000ADF5017D4FF4FA740DF1020103A8ADF8E9
:10B540000240FFF7F1FF70B9294601A8FCF715FD8D
:10B55000029B002BF0D003A8D3E90021904701A85B
:10B56000FCF715FDF4E7052801D0FBF73BFD0DF5D1
:10B57000017D30BD64DD0200024B1B780BB1FFF78B
:10B58000D5BF7047433D002030B5054685B00C4619
:10B59000002900F0B5805B4B0B600C22002101A854
:10B5A00000F0BEFD01238DF8063022688DF80450AE
:10B5B000062301A92020ADF80830FFF7B3FF60B1E2
:10B5C000FCF710FD504A514B51499B1ADB081B04F4
:10B5D000024643F00100FBF72BFA0C22002101A8E0
:10B5E00000F09EFD01238DF805302268002301A99B
:10B5F0004020ADF80630FFF795FF60B1FCF7F2FC94
:10B60000414A424B43499B1ADB081B04024643F064
:10B610000100FBF70DFA0C22002101A800F080FDCB
:10B62000F72322688DF8045001A92320ADF80630D5
:10B63000FFF778FF60B1FCF7D5FC334A334B36494E
:10B640009B1ADB081B04024643F00100FBF7F0F9EC
:10B650000C22002101A800F063FD012022688DF872
:10B66000040001A9FFF75EFF60B1FCF7BBFC264AAE
:10B67000264B2A499B1ADB081B04024643F00100B3
:10B68000FBF7D6F90C22002101A800F049FD4FF488
:10B69000B0632268019301A9A120FFF743FF60B1C5
:10B6A000FCF7A0FC184A194B1D499B1ADB081B0428
:10B6B000024643F00100FBF7BBF90C22002101A870
:10B6C00000F02EFD9DF8043022686FF3000301A9FD
:10B6D000A0208DF80430FFF725FF034668B1FCF782
:10B6E00081FC094A094B0F499B1ADB081B040246DF
:10B6F00043F00100FBF79CF90023184605B030BD6C
:10B700000E23FAE7D82A0020E4C902004CCA02003E
:10B71000F4DA02003ADB020086DB0200CDDB020035
:10B7200019DC02006ADC0200F8B506460768FFF77C
:10B73000F7FE3368BB4205461DD9194B194C1A490F
:10B74000E41AE408240444F002042046FBF76CF9F0
:10B75000336816493A462046FBF773F94FF0805399
:10B760003268D3F80C3112499B0203F100539A1A44
:10B770002046FBF75DF925B90E4B01221A702846C9
:10B78000F8BD2846FCF72EFC054A064B0A499B1AD1
:10B79000DB081B04024643F00100FBF749F9EEE722
:10B7A000E4C902004CCA0200BDDC0200ECDC02006D
:10B7B0001DDD0200433D002047DD02004BDF7047E6
:10B7C0001FB50D4C01A8FFF7F9FF70B9214602A87B
:10B7D000FCF7D3FB039B002BF4D00198D3E90021A5
:10B7E000904702A8FCF7D3FBF4E7052801D0FBF74C
:10B7F000F9FB04B010BD00BF7CDD020008B500F00D
:10B800003DF91E2000F020FA024658B10F4B1048B7
:10B8100010491B1ADB081B0443F00300BDE8084075
:10B82000FBF706B90221012000F0F0F9024630B121
:10B83000064B074808491B1ADB081B04ECE70221EA
:10B840000E20BDE8084000F033B800BF14CA020063
:10B85000E4C9020094DD0200A7DD0200FFF7CEBFBD
:10B860000E2808B504D10C4B0C4A9A6001221A71BB
:10B870000B4A09480C21FBF71FFC58B1094B0A4839
:10B880000A49C01AC008000440F00100BDE80840A1
:10B89000FBF7CAB808BD00BF102B0020A5BC0200F2
:10B8A00021980200E4C9020014CA02001ADE020054
:10B8B00037B51E4B054698781C888DF8020033F882
:10B8C000030FADF800409B78ADF8040002298DF815
:10B8D000063019D0012926D101A9BAB94A70144AF3
:10B8E0002846FCF7B7FE0446B8B1124B1248134A7B
:10B8F0001349C01AC008000440F003002346FBF7B8
:10B90000A0F8E0B203B030BD6946E6E7012AE5D011
:10B91000022A08D103234B70E1E728460121FCF7F6
:10B920000DFF2046EEE70720ECE700BFC8DD020070
:10B9300061B80200E4C9020014CA0200E0DD02009E
:10B9400010DE020008B5FCF77BFE70B9FCF73AFE8A
:10B95000064A074B07499B1ADB081B04024643F0C3
:10B960000300BDE80840FBF763B808BDE4C9020066
:10B9700014CA02003BDE02001FB50C4B0FCB6C4615
:10B9800084E80F001B201A214FF0C8638DE80B00DC
:10B9900000231A4621460648FDF7E4F808B1FBF7F4
:10B9A00021FB0348FDF74AF904B010BDD0DD0200C9
:10B9B00008DE0200F0B5044603F1080083B000F48D
:10B9C000FC7002AFADEB000D94468DF808101A46DE
:10B9D00061460DF109005E1C02AD00F078FB00230A
:10B9E00000932A46334621460348FDF7A1FA04375F
:10B9F000C0B2BD46F0BD00BF08DE02007FB51E46E6
:10BA00000023044615468DF80F10009301460123CC
:10BA10000DF10F020648FDF78BFA30B933462A467E
:10BA200021460348FDF79AFA00B1C0B204B070BDD8
:10BA300008DE020038B5044638B1054D45F0010571
:10BA40004FF47A40A847013CFAD1002038BD00BF2E
:10BA500000DE020008B5064A064B07499B1ADB08C0
:10BA60001B04024643F00300FAF7E2FF002008BD82
:10BA7000E4C9020014CA02001BD6020038B14368B0
:10BA80002BB103681BB1034B1860002070470120E5
:10BA9000704700BF483D002010B4064C24682CB10C
:10BAA00064681CB1A4465DF8044B604701205DF852
:10BAB000044B7047483D002010B4064C24682CB15C
:10BAC00024681CB1A4465DF8044B604701205DF872
:10BAD000044B7047483D0020034B1B6813B19B6823
