:020000022000DC
:1060000000000120756302005D6302005F6302000F
:106010006163020063630200656302000000000028
:1060200000000000000000000000000067630200A4
:1060300069630200000000006B6302006D630200F0
:106040006F6302006F63020079890200398A0200DF
:106050006F6302006F630200298802006F63020011
:106060006F6302006F6302006F6302006F630200E0
:106070006F6302006F6302006F6302006F630200D0
:106080006F630200B57202006F6302006F6302006B
:10609000517302006F630200A9B502006F63020032
:1060A0006F6302006F6302006F6302006F630200A0
:1060B0006F6302006F630200000000000000000038
:1060C0006F6302006F6302006F6302006F63020080
:1060D0006F6302006F6302006F6302000000000044
:1060E00000000000000000000000000000000000B0
:1060F00000000000000000000000000000000000A0
:10610000000000000000000000000000000000008F
:10611000000000000000000000000000000000007F
:10612000000000000000000000000000000000006F
:10613000000000000000000000000000000000005F
:10614000000000000000000000000000000000004F
:10615000000000000000000000000000000000003F
:10616000000000000000000000000000000000002F
:10617000000000000000000000000000000000001F
:10618000000000000000000000000000000000000F
:1061900000000000000000000000000000000000FF
:1061A00000000000000000000000000000000000EF
:1061B00000000000000000000000000000000000DF
:1061C00000000000000000000000000000000000CF
:1061D00000000000000000000000000000000000BF
:1061E00000000000000000000000000000000000AF
:1061F000000000000000000000000000000000009F
:10620000354936480A1A02D0072291438D4634494F
:1062100034480A1A06D00722914381F309880222E2
:1062200082F3148830483149314A00F044F831484B
:106230003149324A00F03FF831483249324A00F0E1
:106240003AF832483249334A00F035F83248334997
:10625000334A00F030F833483349344A00F02BF821
:1062600033483449344A00F026F83448344900228F
:1062700000F02CF833483449002200F027F8334866
:106280003349091A082902DB002202604160314AC1
:1062900090471F481F49884205D00268043003B464
:1062A000904703BCF7E700208646EC46002000211B
:1062B000294A9047FEE7884207D0521A05D0037852
:1062C00001300B700131013AF9D17047884202D098
:1062D00002700130FAE770470000012000E0002062
:1062E0000000012000000120FCE20200D82A00206A
:1062F000302B0020D0630200D0630200E8CA020005
:10630000FCE20200D82A0020D82A0020ECCB0200B0
:10631000ECCB0200ECCB0200ECCB0200ECCB020099
:10632000ECCB0200ECCB0200ECCB0200FBE2020063
:1063300054E30200302B0020302B0020302B0020B3
:10634000543D0020543D0020543D0020543D002089
:10635000545D00209D630200059B0200FEE7FEE7FE
:10636000FEE7FEE7FEE7FEE7FEE7FEE7FEE7FEE705
:1063700000F002B8FFF7FCBF0F484FF00701884359
:1063800085460E4880470E48016841F4700101605F
:10639000BFF34F8FBFF36F8FFFF732BF09480A4932
:1063A0000A4A884207D0521A05D0037801300B7090
:1063B0000131013AF9D170470000012075800200D7
:1063C00088ED00E0ECCB0200D82A0020D82A00207B
:1063D0007047000007B5044B0093044A402300F0C7
:1063E00032F803B05DF804FBF1630200312B0020AA
:1063F0002DE9F84388461446B2B10F4B0F4E0325E2
:10640000002743F00109224608EB0701002003F0B2
:10641000FFFC0744241A48B933782BB14FF47A4073
:10642000C847013D02D13570BDE8F88301233370C0
:10643000002CE8D1F8E700BFF0CB0200302B0020A1
:10644000704703F019BDF0B595B01D4616460846D5
:106450000C4601F0DDFC1A9B0D93CDE90865002583
:106460002B46082205A920460A958DF82C500C953C
:1064700001F0EBFC079B0293069B03939DF81430FD
:106480008DF8115003F00302012A1DD1BDF814202C
:10649000059DC3F3C203C2F383168DF81030B2001A
:1064A00008230EA9204601F0D0FCC5F3952508ABC2
:1064B0000093324602AB0EA9284600F063FB20464B
:1064C00001F0AAFC15B0F0BD022AF8D1BDF81650B3
:1064D000C3F3C203C5F389158DF810300827082DC2
:1064E0002E4628BF08263B4632460EA9204601F01C
:1064F000ACFCAD1B08AB02AA31460EA8374400F035
:10650000A5FB002DEBD1DAE708B5FFF79AFF0448A9
:10651000042100F0A1FA034B01225A7108BD00BF0B
:10652000DCCB0200D82A0020037813F0040216D036
:1065300003F00303012B03D0022B09D00120704785
:106540000A6800880232C0F3831002440A60F5E74B
:106550000B684288023303EB92130B60EEE71046A0
:10656000704700002DE9F04F87B000230446861CD9
:106570000DF107000F4615468DF8073001F0E4F8DD
:10658000404A51683960936803F580735B1A9246FC
:1065900002F21C4702F5836902F21448B3421AD38F
:1065A0000020002D69D004F00F039B0143F0050388
:1065B00063F30F00DAF80430DAB203321E444AF80B
:1065C00022009DF80700CAF8046001F0E1F80120FC
:1065D00007B0BDE8F08F0121384601F046F9484682
:1065E00001F05EF9404601F05BF9DAF8080002902C
:1065F000C0B203300AEB800002A9FFF795FF029BAF
:1066000030BBDAB20AEB8202D16803919A1C0133E3
:10661000DBB20AEB83030292D3F80CB001F0030360
:10662000012B22D0022B15D08346404601F03BF9C6
:1066300010B1029BCAF808305946384601F015F9E6
:10664000DAF80830DAF8042003F580739B1AA5E71E
:10665000D8B2CEE7BDF80E30C3F3891303334FEA47
:106660001B4B02EB93030293DFE7BDF80C30C3F33F
:1066700083134FEA1B4B1344F5E7A40544F00600CF
:1066800098E700BF442C0020064B074810B50122B4
:106690001A7001F076FB044610B9044801F01EFCA4
:1066A000204610BD442C002048CB02002CCC020018
:1066B00030B50A4C71B10A4A0A49121BD2080023AC
:1066C0009A4201D1002030BD31F82350854202D0DA
:1066D0000133F5E7034654F83300F4E75CCB0200DE
:1066E000DCCB0200D82A0020094B013903EBC000A3
:1066F000032909D8DFE801F00A02040604207047E4
:106700000079704740797047002070470220704739
:106710005CCB0200154B1B7837B504460BB918B992
:106720000024204603B030BD05F093FE01300090F8
:1067300001230F486A4601A901F0D9FB054600284C
:10674000EED12146009A019805F005FEDDE900230F
:106750001344074803F8015C009901F000FC00991C
:10676000034801F013FC019CDBE700BF442C002030
:106770002CCC0200034BD3E90130C31A58425841D4
:10678000704700BF442C00202DE9F04186B0FFF790
:10679000F1FF0546002840F0E680744CC4F8180468
:1067A000BFF34F8FA3680293DBB2033304EB830084
:1067B00002A9FFF7B9FE029B18B1D4F81824002AE9
:1067C00055D0DAB2991C013304EB8202DBB204EB40
:1067D0008303D268DB68049302F00303022B039265
:1067E00002914FD1BDF80E306148C3F38917502F85
:1067F0003E4628BF502666F38F1306F10801ADF818
:106800000E3001F0D6FA0546002800F0978001F01E
:10681000FFFA002303A90822284601F00CFB029985
:10682000CB43DBB20133C9B20331B6EB830F4FEA7E
:10683000830804EB810122D908234246A6EB08060F
:10684000284601F0F8FAF6B24A4908F10803324640
:10685000284601F0F0FA029B033703EB97070297F3
:10686000D4F81834002B41D1D4F8106451E0626898
:106870009A4299D8A260284606B0BDE8F081082364
:106880003246E5E7012B59D1BDF80C303848C3F347
:106890008311062928BF062161F38913023189007B
:1068A000ADF80C3001F085FA0546002846D001F01D
:1068B000AFFA0023082203A9284601F0BCFA0026FB
:1068C000BDF80C20C2F38312B300964203F1080313
:1068D000C6D202994A1CC9B20331029204EB81016B
:1068E0000422284601F0A7FA0136E9E7284601F01C
:1068F00093FAFFF73FFF80F00100C5B2BBE7F368F2
:106900005B7923B1336829461B6830469847F368A2
:106910001E68002EF3D1284601F07EFA0DF1070023
:106920008DF8076000F010FFD4F818340BB9029B03
:10693000A3609DF8070000F02BFFDAE7D4F81044BD
:1069400054B90D4B0D480E49C01AC008000440F060
:10695000020000F05DF8CCE7236820469B6898476A
:10696000E3681C68ECE7002585E700BF442C0020A5
:1069700048CB0200502C00205CCB02008CCB0200E4
:1069800014CC02002DE9F34704460E46924601A9B5
:10699000012218469946FFF7E5FD1B4F10B3019DF4
:1069A0004FF00008AA1CC84508EB020123D1174884
:1069B000002100F01FFF80F31000000440EA1440A3
:1069C000E4006B1C04F03804DBB2EDB244F00104C7
:1069D00007EB8303033544EA881444EA8624D8602D
:1069E00047F825403B781BB1FFF7CEFE0028FBD1CE
:1069F00002B0BDE8F087C9B207EB81015AF8283030
:106A0000CB6008F10108CEE7442C00206030002064
:106A100000231A46FFF7B6BF07B50123019201AA6A
:106A2000FFF7B0FF03B05DF804FB07B5CDE9002325
:106A300002236A46FFF7A6FF03B05DF804FB1FB50B
:106A4000CDE90123069B039301AA0323FFF79AFFD5
:106A500005B05DF804FB000030B50F49D1F81024F3
:106A600003460020144634B9DC6820714AB9C1F8E5
:106A70001034226030BDE4682579854206D0246850
:106A8000F1E7D268116821601360F3E701300A284A
:106A9000E8D14FF0FF30EDE7442C0020084A38B52C
:106AA0000123D2F8104413701D4604B938BDE368C1
:106AB0005D71236820465B689847E3681C68F4E7CB
:106AC000442C002007B503460846197A052911D041
:106AD0005B7A2BB1094A0A49019000F04AFF0198FC
:106AE0000849019000F045FF019803B05DF804EB00
:106AF00000F034BF002AF8D0F2E700BF38CC020023
:106B00001BD802008ADF020030B5C38885B0044676
:106B10000D4633B1144A00921449154A284600F034
:106B200028FF217A05291DD0637A4BB1A088FFF791
:106B3000DBFD104B104953F82020284600F019FFC8
:106B4000227A0E4BA08853F8222003920021FFF7EF
:106B5000AFFD039A0A490346284605B0BDE8304018
:106B600000F007BF05B030BD38CC020045CC0200B4
:106B70003DCC0200C4CC02001BD80200E8CC0200CD
:106B80005DCC02002DE9F04385B01F460C9D00232B
:106B900095F80C902B7306460C46904629463846CD
:106BA000FFF7B2FFB8F1060F09D8DFE808F00412CA
:106BB000181F283340003146284600F0DAFE002234
:106BC00029463846FFF77EFF85F80C9005B0BDE8F2
:106BD000F08322683146284600F0CBFEEFE7D4E987
:106BE00000233146284600F0C4FEE8E7A36800937E
:106BF0003146D4E90023284600F0BBFEDFE7E36816
:106C00000193A36800933146D4E90023284600F09D
:106C1000B0FED4E723690293E3680193A36800936D
:106C20003146D4E90023284600F0A3FEC7E7636994
:106C3000039323690293E3680193A36800933146A9
:106C4000D4E90023284600F094FEB8E708292DE98E
:106C5000F74F80460E4617461C463CD8002593F851
:106C60000C901D7319461046FFF74EFFDFF888A001
:106C7000DFF888B0AE4231D918F8052059462046D1
:106C800000F077FE0135082DF4D11949194DDFF8D0
:106C900070A0204600F06DFE4FF0000B5E4522D93B
:106CA00018F80B207E2A05D81046019205F028FB23
:106CB000019A00B92E225146204600F05AFE0BF1EF
:106CC000010BBBF1080FE9D1012221463846FFF73D
:106CD000F9FE84F80C9003B0BDE8F08F51462046D1
:106CE00000F047FECEE72946204600F042FEE6E7E8
:106CF00071CC02006FCC02006DCC020067CC0200A8
:106D000073CC0200C30710B507D4F023054A40082E
:106D1000145C23401943115410BD0901C9B20F235B
:106D2000F4E700BF3031002030B5094B1C78094B27
:106D3000196800239C4202DC0022104630BD11F885
:106D40003350854201EBC302F7D00133F2E700BFB5
:106D5000FC3000204031002013B504460191FFF7BC
:106D6000E3FF38B143682BB10199204602B0BDE87A
:106D70001040184702B010BD034B044819680022A8
:106D8000490800F085BC00BF00310020043100201C
:106D900010B5C0B2FFF7C8FF0446007801F03AFD15
:106DA00063785A1E53425341834208D1044BD3E9BE
:106DB0000023134303D1BDE81040FFF7DDBF10BD32
:106DC0002831002037B54308354AD35CC2074CBF91
:106DD0001B0903F00F0304460D46042B35D8DFE8EA
:106DE00003F003252C383C0079B30121FFF78AFF1B
:106DF00000230DF107008DF8073000F0A5FC0120FD
:106E0000A4F12003C4F12001264A20FA01F100FA7E
:106E100003F30B43A040D2E9004120430B43C2E9F6
:106E200000039DF8070000F0B3FC0EE0002918BF36
:106E300002212046FFF766FF07E041B10321FFF77B
:106E400061FF01212046FFF787FF03B030BD01211C
:106E5000EFE70029F9D10421EBE709B10321E8E7C5
:106E6000FFF750FF29462046FFF776FF0DF1070098
:106E70008DF8075000F068FC0120A4F12003C4F154
:106E80002001084A20FA01F100FA03F30B43A04065
:106E9000D2E9004124EA000021EA0303BFE700BF72
:106EA00030310020283100202DE9F041124E134FDF
:106EB00000243378A34208DC114BD3E900231343A9
:106EC00018D0BDE8F041FFF757BF3D6805EBC40897
:106ED00015F8340001F09EFC98F801305A1E534218
:106EE0005341181A4142414115F83400FFF76AFF37
:106EF0000134DEE7BDE8F081FC30002040310020A5
:106F000028310020092AF7B505460C4616463CD91B
:106F100001F0C0FBD8B11E4B1E481D601E4B1F4F19
:106F20001C701F4B002110221E6005F03DFA1D4B06
:106F300000200021C3E90001013CE4B20326FF2C3C
:106F40000BD1194A1948002100F090FB03E001F031
:106F500063FB0028DFD003B0F0BD9DF8063015F8C4
:106F600034008DF8046005EBC40223F007038DF8AC
:106F7000063001A993788DF805303A4601F094FB6C
:106F8000013CE4B20028DAD0E5E70720E3E700BFE0
:106F90004031002030310020FC300020916D020093
:106FA0000031002028310020A96E020008CD020027
:106FB00070B5084D084E00242B789C4201D3002068
:106FC00070BD3368012113F8340001F0DFFB013498
:106FD000F2E700BFFC300020403100201FB5002147
:106FE000039001AA44F20100CDE9011100F004F878
:106FF00005B05DF804FB000010B572B6FFF74EFD5A
:10700000FFF7C2FB0028FBD1104B114C1149E41AC9
:10701000E408240444F00100FFF7FAFC0E4B1B685F
:10702000DB0700D500BE0D4944F00200FFF7F0FC7D
:10703000BFF34F8F0A490B4BCA6802F4E062134357
:10704000CB60BFF34F8F00BFFDE700BF5CCB0200FA
:107050008CCB02000CCD0200F0ED00E018CD020058
:1070600000ED00E00400FA054B1C30B5DB000446DF
:1070700012F003009BB20DD1074D2A601A44074B52
:107080001A60074B1870074B1870074B1C80074B92
:10709000198030BD0720FCE74C310020483100202A
:1070A0004431002054310020503100205231002062
:1070B0002DE9F3472B4F3B888B4206460D46904601
:1070C0004BD300240DF107008DF8074000F03CFB86
:1070D000254B26481A78264B008893F800C0844533
:1070E0005FFA8CF138BF4C1CD2B238BFE4B2A24276
:1070F0002DD01C781A78D1B2904286BF0131C9B226
:10710000002119709DF8070000F042FB4FF6FF7355
:107110009C4224D0DFF86090D9F800204FEAC40ADE
:1071200042F8348002EBC403A6B19DB1114B3888FC
:107130001B682A4604FB0030314605F00CF9D9F8EB
:107140000030534400209D8002B0BDE8F0874FF628
:10715000FF74D7E700209880F6E70920F4E70420C1
:10716000F2E700BF5031002054310020523100209E
:1071700044310020483100204C310020F8B5114C3A
:10718000114D264622782B789A4200D1F8BD0F483F
:107190000F4A2378126807880E4802EBC301006883
:1071A00052F83320898803FB070090470A49227868
:1071B0000988D3B2914286BF0133DBB2002333701A
:1071C000E0E700BF5431002044310020503100205E
:1071D0004C3100204831002052310020094A5378B8
:1071E00091780133DBB2994208BF002311789942AC
:1071F0001FBF03705078182303FB002014BF043016
:10720000002070475831002073B5054600240DF169
:1072100007000E468DF8074000F096FA0DF10600C3
:10722000FFF7DCFF90B10670094B9DF80620456022
:107230005A709DF8070000F0ABFA24B9054B4FF4E3
:107240008012C3F80021204602B070BD0424F0E78C
:107250005831002000E100E0024B4FF43C6043F065
:107260000103184730CD020038B50E4B4FF4003201
:10727000C3F88020BFF34F8FBFF36F8F0A4C4FF4DA
:1072800080330125C4F84833C4F808336560FFF73C
:10729000E3FF064BA56000241C60FFF7DDFF044BF5
:1072A0001C7038BD00E100E0001001407432002085
:1072B00065320020F8B51F4B1F491B680025C1F837
:1072C0004051C1F84451C1F84851C1F84C51C1F87E
:1072D0000051C1F804514BB3D1F80445174909686E
:1072E000641A24F07F442F461A68A24209D8A41ACF
:1072F00015441A7CDE691AB1D3E905201F74904742
:10730000AEB90F4A0F4B11781B788B4205D1013370
:10731000DBB2022B08BF0023137012780A4B43F82C
:1073200022500A4B4FF48012C3F80021F8BD3346B7
:10733000DAE700BF783200200010014074320020EC
:1073400071320020703200206832002000E100E03D
:107350002DE9F04FA24AA34913780978A24D99422A
:1073600085B03CD00133DBB2022B08BF0023137081
:107370009E4912789E4B0F6853F822003B1823F069
:107380007F4300220B602B6816461446944613B9BF
:1073900042B12B6006E0196881420ED902B12B6020
:1073A000091A196001272B68DFF84CA201934FF0EE
:1073B0000008BEB9DFF848B262E0401A0C44D96850
:1073C000D3F81CE0C3F800C031B13A1922F07F4273
:1073D000C3E90121DE611E4673460122D7E700267C
:1073E0003746E0E73446F669804A63681268DFF89A
:1073F00014C2A068991A21F07F41614500F2A8806B
:1074000001442160012222742A680023C4E9013367
:10741000E361002A40F0A5802C60CAE79BF80210C7
:107420005A1CD2B291428BF8002004BF00228BF884
:107430000020182202FB03B32A6819799C680229EC
:1074400077D0032900F08180012919D1207CB8B9B7
:10745000D3E90312A2605A69E2609A69654BA2619E
:107460001B78002B0CBF0B4603466360BCE78C42C5
:1074700000F094808946C9690029F8D1002323745B
:107480009BF800309BF801209A42C7D12B68B8F1D5
:10749000000F04D1019A9A4201D1002F43D0002B52
:1074A00079D0D3F800A0544D504BD5F804751C6822
:1074B000DFF854813E1B98F8003026F07F460336F3
:1074C0009BB94FF48033C5F84433C5F804334B4BB4
:1074D0004FF40032C3F880211A604FF00109C5F85B
:1074E0000090FFF7B9FE88F80090B2452CBF5444D5
:1074F000A41924F07F44C5F84045D5F80435DB1BBA
:1075000023F07F43E41B033324F07F44A3420AD9D2
:10751000D5F80435C5F84035FFF79EFE374B4FF4DC
:107520000032C3F80021334B00221A7005B0BDE8C9
:10753000F08F114691469FE71174D2690123002A0A
:10754000FAD1002B9CD02A609AE700231946F6E76F
:10755000D31A23F07F43834234BFC31A002323602E
:1075600050E721681368994213D8591A1160E261F3
:1075700052E7091AD8691A4638B103461868884292
:10758000F7D3401A1860184613462160E061DC61A9
:107590000FE71346F2E7FFF767FEC4E74C4511D14A
:1075A000D3692B6073B9DFF844E00120CDE9021202
:1075B000CAF80800CEF800300E4B1870FFF74CFEEA
:1075C000DDE902120B68C969C9F81C1011B108681D
:1075D00003440B602B68934218BF4FF001084DE73E
:1075E0007032002071320020783200207432002086
:1075F00068320020643200200010014000E100E009
:1076000058310020FEFF7F006532002008B5FFF7EB
:107610002BFE104B00200B2218809A700E4B186026
:107620000E4B18700E4B18700E4B4FF48012C02189
:10763000C3F8802183F814131A6002F18042A2F586
:107640006F22C2F8080583F81113074BD2F80425FE
:107650001A6008BD583100207832002070320020B6
:107660007132002000E100E074320020074B9B786B
:107670004BB132B128B10368187C20B959745A61F2
:107680007047072070470820704700BF583100201E
:107690002DE9F743DFF88C8098F8023005460E4656
:1076A0001746BBB3B0B31C4B4A1F9A4230D843694C
:1076B00083B3437C0024012B0DF107000CBF8946E6
:1076C000A1468DF8074000F03FF80DF10600FFF7E6
:1076D00085FDD8B101230370104B4560D3F8043504
:1076E000C0E90497C0E902369DF8063088F80130F9
:1076F0009DF8070000F04CF824B9094B4FF48012B4
:10770000C3F80021204603B0BDE8F0830424EFE76E
:107710000724F7E70824F5E7FAFFFF00001001400F
:1077200000E100E058310020064A92783AB130B1C9
:10773000426922B1002202740221FFF765BD0820D0
:10774000704700BF5831002070B5EFF3108672B655
:107750000C4A946801239CB993600B4B0B4DD3F8F2
:10776000801029401160C3F88050D3F88410516014
:107770004FF0FF32C3F88420047006B962B670BDC2
:107780000370FAE77C32002000E100E0FC06FFBD58
:10779000084B9A6810B55AB150B9EFF3108172B620
:1077A000054A1C6814605C685460986001B962B650
:1077B00010BD00BF7C32002000E100E001F01F029C
:1077C0004B090121914000EB830000F02AB801F041
:1077D0001F0301229A404B0900EB8300D14300F0C4
:1077E00038B84B0901F01F0150F82300C84000F0E1
:1077F0000100704710B5034653E8000F0A4643E8FE
:10780000002494F0000FF7D110BD10B5034653E8E3
:10781000000F40EA010243E8002494F0000FF6D183
:1078200010BD10B5034653E8002F42EA010043E8BB
:10783000000494F0000FF6D110BD10B5034653E8D4
:10784000000F00EA010243E8002494F0000FF6D193
:1078500010BD10B5034653E8002F02EA010043E8CB
:10786000000494F0000FF6D110BD10B5034653E8A4
:10787000002F02EB010043E8000494F0000FF6D162
:1078800010BD10B5034653E8002FA2EB010043E8FA
:10789000000494F0000FF6D110BD0121FFF7B5BF31
:1078A0000121FFF7BEBF0021FFF7C7BF0021FFF78F
:1078B000D0BF10B590B1D0E9012301689B1ADBB2AB
:1078C0000A60013BDBB2FF2B026802D1002010717D
:1078D00010BD11684C1C14600B70F2E70E20F7E726
:1078E00037B5054600240DF107008DF80740FFF776
:1078F0002BFF2A686B68116899420ED9481E1060E8
:1079000011F8014CEB68298A01FB0434AB6811794A
:107910001B1ADBB2994238BF13719DF80700FFF7BD
:1079200037FF204603B030BD37B5054600230DF1C3
:1079300007000C468DF80730FFF706FF2A6813682A
:10794000591C1160E968641A298AB4FBF1F41C70AF
:107950009DF80700FFF71CFF03B030BD826810B52B
:1079600004462AB143690168006998470023A3606F
:1079700010BD0EB403B5039921B104AB01AA019364
:1079800000F06EF802B05DF804EB03B07047826857
:1079900030B40468551C8560A154D0E901329A4284
:1079A00002D330BCFFF7DABF30BC70472DE9F84F87
:1079B0009846DDE90A43154682460F460A464FF0CF
:1079C0000109AA420FD2C14538BFC14613F0010BCD
:1079D00001D16CB900240126B8F1010F1BD908F1BF
:1079E000FF386E43F8E709F10109B2FBF5F2E8E769
:1079F0009B070ED5B8F1000F0CBF30262026A145FD
:107A0000E9D2013C31465046FFF7C1FF002CF6D1C8
:107A1000E0E72026F3E7B7FBF6F39D42E1D9DFF874
:107A20003C80B7FBF6F3504618F8031006FB1377BB
:107A3000FFF7ADFF3346AB42B6FBF5F6F1D2BBF133
:107A4000000F02D00CB1A14501D3BDE8F88F202171
:107A50005046013CFFF79BFFF4E700BFF6D1020060
:107A60002DE9F74F054617468846002900F0428168
:107A700018F8011B49B92B7B002B00F03B812846ED
:107A800003B0BDE8F04FFFF769BF252940F0B7808C
:107A9000002698F800302D2B424608F1010823D02B
:107AA000302B24D02B2B25D000242A2B02F10101CE
:107AB00023D13B681A1D1B683A601C440A461378A0
:107AC0002E2B26D101324FF0000A104610F8011B70
:107AD000A1F1300CBCF1090F1DD80A2303FB0A13D6
:107AE000A3F1300A0246F0E746F00106D1E746F07E
:107AF0000206CEE746F00406CBE711F8013CA3F1FD
:107B000030000928DBD80A2202FB0434303C0A4644
:107B1000CBE74FF0000A12F8011B01F0FB006828C8
:107B20009046F8D0782909D86F290CD8632962D0FB
:107B300022D8252963D0582900F0888098F8003091
:107B4000002B95D197E770390829F7D801A353F88E
:107B500021F000BFCF7C02003D7B02003D7B020094
:107B60005D7C02003D7B02003B7C02003D7B02000D
:107B70003D7B02004D7C0200642901D06929DDD1E2
:107B80003A68D2F80090111D89EAE9723960A2EBD7
:107B9000E9724FF0010B092A35DCD34538BFD346D3
:107BA0002CB1B9F1000F01DB720700D5013CB3071E
:107BB00002D5BAF1000F03D0F00701D44CBB00246A
:107BC000B9F1000F2DDAC9F100092D212846FFF780
:107BD000DEFE06F00302022A04D1BAF1000F01D141
:107BE0001CBB0024CDE9004653460A2249462846DC
:107BF000FFF7DCFEA2E73B681A1D19783A602846B9
:107C0000FFF7C5FE9AE70A230BF1010BB2FBF3F273
:107C1000C1E7A345D4D220212846013CFFF7B7FE97
:107C2000CCE77107D5D52B21D0E7A345DAD2302197
:107C30002846013CFFF7ABFED2E73968CDE90046A4
:107C40000A1D3A6053460A220968D0E739680A1DBE
:107C50003A60CDE9004653461022F5E73B681A1D0D
:107C60003A6016F00106D3F8009028D1B9F1000F60
:107C700003D0484604F0EDFB0646B44200D904BBED
:107C800009F1FF3919F8011F00293FF457AF2846C1
:107C9000FFF77DFEF6E728460136FFF778FE19F874
:107CA00006100029F7D1A642BFF448AF002C3FF4DC
:107CB00045AF20212846013CFFF769FEF3E7002687
:107CC000EDE720212846013CFFF761FED5E73B6840
:107CD0001A1D3A60302128461C68FFF758FE7821AB
:107CE0002846FFF754FE00220823CDE90032214642
:107CF00010227CE703B0BDE8F08F00BF2DE9F84FFC
:107D0000B0F806A04579D2F800B09DF828900AFB9B
:107D100005F5043D88460BEB0301A94203F1040479
:107D200088BFA5EB030BB4FBFAF607460AFB164423
:107D3000C2F800B04EB9AAEB04055D4528BF5D4608
:107D4000BBF1000F04D1BDE8F88F3F68013EF1E7B9
:107D5000043408EB06003C442A46B9F1000F0DD06C
:107D60002146ABEB050B04F0F6FADA452E443F68EA
:107D700055464FF0000428BF5D46E1E70146204626
:107D8000EFE7FFF796BDF8B546790146721E054646
:107D9000002393422D6803D30024A64202D8F8BDE5
:107DA0000133F6E70F682846FFF7BEFD0134394678
:107DB000F3E72DE9F843068ACD1C0746FFF790FD4F
:107DC000043E35440446B5FBF6F5F0B14FF480733C
:107DD000EDB28380C680013D076081464FF0000808
:107DE000A84512D23846FFF77BFD064648B16379B5
:107DF0000133637108F10108C9F80000076081468A
:107E0000EEE72046FFF7BFFF34462046BDE8F88383
:107E100001210430FFF729BD10B5012104460430CB
:107E2000FFF72FFD10F0FF0F04D12046BDE81040F2
:107E3000FFF7A9BF10BD1FB503920022009203AA4D
:107E4000FFF75CFF05B05DF804FB1FB5039201224C
:107E5000009203AAFFF752FF05B05DF804FB41DF73
:107E600070470000064B10B500241C70054B1C60C9
:107E7000BFF35F8F0449054800F099F8204610BD14
:107E8000903200209432002010D20200883200206C
:107E900007B500230DF107008DF80730FFF754FCFC
:107EA000F1EE103A23F09F03E1EE103ABFF35F8F3B
:107EB000094B4022C3F884219DF80700FFF768FCB6
:107EC00003F058FB20B1FFF7CAFF03B05DF804FBD5
:107ED00020BF40BF20BFF8E700E100E08368002238
:107EE0005A60C3E904229A60DA601A6070472DE98B
:107EF000F0410646884617461D4683B9B068736848
:107F0000D0E9031403F1010C0A1B62450ED10024D1
:107F10003C6015B3FFF7CAFC0020BDE8F081806823
:107F2000FFF7BBFC0028E9D01120F6E701EA0302C5
:107F300023409A4238BF64443B682CBFACEB020438
:107F4000641A9C4228BF1C4633683C601344C8F83E
:107F50000030C3681C44C460DEE72846DDE7034602
:107F600080685B68826810B50469013323449B1AFA
:107F70008B4209D31144C0E90211FFF794FC002899
:107F800014BF0020082010BD0420FCE7806808B55D
:107F900082680369D21A8A4207D31944C0E90411DE
:107FA0000430FFF783FC002008BD0420FCE70B68C9
:107FB0004A684360934208BF0023016008BF4360E2
:107FC0007047436843B10268916852680B4493421A
:107FD000436004BF002343607047000010B50D49A3
:107FE000A1F59472914201D800200FE08C1AE30FA2
:107FF00003EBE4035B1002EBC30452F8333083421B
:1080000005D802D204F10802ECE7606810BD2146F1
:10801000E8E700BF14D7020008B5FFF7DFFF024B07
:10802000002808BF184608BDD6D50200044B1868C2
:10803000421C04BF034B1878831F584258417047B5
:1080400030010010E00F00F0074B1B78062B09D120
:10805000064B1B68C3F30313033B032B02D8044AEC
:10806000D05C704700207047E00F00F0E80F00F090
:108070001CD7020008B5FFF7D9FF28B1834B844A0B
:108080001B68C3F304231360FFF7DEFF10B1814BBD
:10809000814A1A60FFF7CAFF28B1804B804A1B68EB
:1080A000C3F342331360FFF7CFFF20B17D4AD3689B
:1080B00023F08073D360FFF7B9FF40B14FF08043E6
:1080C0000022C3F80C21C3F81021C3F83825FFF7AC
:1080D000BBFF10B1744B03221A60FFF7B5FF40B12C
:1080E000724B05221A6001229A6700229A603F2291
:1080F0005A606F4B1A68511C0BBF6E4B6E4B1A784F
:108100001B6802BF08331B68C3F30313062A4DD153
:10811000033B032B03D8694AD35C002B46D04FF0B6
:108120008052674BD2F80414C3F82015D2F8081413
:10813000C3F82415D2F80C14C3F82815D2F810147B
:10814000C3F82C15D2F81414C3F83015D2F818144B
:10815000C3F83415D2F81C14C3F84015D2F8201413
:10816000C3F84415D2F82414C3F84815D2F82814DB
:10817000C3F84C15D2F82C14C3F85015D2F83014AB
:10818000C3F85415D2F83414C3F86015D2F8381473
:10819000C3F86415D2F83C14C3F86815D2F840143B
:1081A000C3F86C15D2F84424C3F87025FFF73EFFDE
:1081B00028B1444B444A1B6803F04F031360FFF798
:1081C00035FF48B14FF08043D3F80024D20744BFB5
:1081D0006FF00102C3F80024354B1B68062B0CD14D
:1081E000354B1B68033B032B02D8384AD35C23B1C1
:1081F000374A136843F480631360364AD2F88830F4
:1082000043F47003C2F88830BFF34F8FBFF36F8F12
:108210004FF01023D3F80022002A03DBD3F80432F6
:10822000002B2FDA2C4B0122C3F80425D3F80024AD
:10823000002AFBD04FF010221521C2F80012D3F80B
:108240000024002AFBD04FF010231522C3F804228B
:10825000214B1A46D3F800140029FBD00021C3F8A3
:108260000415D2F80034002BFBD0BFF34F8F19490F
:108270001A4BCA6802F4E0621343CB60BFF34F8F1E
:1082800000BFFDE7164B174A1A6008BD2403001013
:108290004035014074C007400DF0ADBA44020010F3
:1082A0003C050040F0ED00E0A00500401056004005
:1082B00030010010E00F00F03401001014D702006C
:1082C00000C0004058020010E40E004018D7020021
:1082D0003C17004000ED00E000E001400400FA051A
:1082E000E02A00200090D003054A4FF0A043105C24
:1082F000D3F8043523FA00F0C04300F001007047C2
:1083000022D70200044B1A5C012393404FF0A04295
:10831000C2F80C35704700BF22D70200044B1A5C2C
:10832000012393404FF0A042C2F80835704700BFC8
:1083300022D7020008B50020FFF7F0FF0120FFF769
:10834000EDFF0220FFF7EAFFBDE808400320FFF73A
:10835000E5BF08B50020FFF7D5FF0120FFF7D2FFEA
:108360000220FFF7CFFFBDE808400320FFF7CABF98
:10837000074A4FF0A041105CD1F804350122824039
:1083800022EA03001340C1F80805C1F80C35704714
:1083900022D70200054A4FF0A043105CD3F81035F5
:1083A00023FA00F0C04300F00100704720D702001C
:1083B0000F2805D010280CBF01204FF0FF30704768
:1083C00000207047014B185C704700BF20D70200A7
:1083D000C20708B501460CD54FF0A0430322C3F8ED
:1083E0004427C3F84827C3F84C27C3F85027FFF7A2
:1083F000A1FF8B0741BF4FF0A0430C22C3F83C27DD
:10840000C3F8402708BD000038B5074C051E04F12D
:10841000080318BF1C4623682BB11A6822605B68EA
:1084200028469847F7E738BDA032002020B9054B11
:1084300001225A70FFF7E8BF012802D1014A90706B
:10844000F8E770479832002020B9034B01225A7098
:10845000FFF7DABF704700BF9832002038B50E4CE6
:108460002378B3B90D486360A3602361E36000F033
:1084700073F8054603F07EF808B900F079F8012397
:108480002370074BD3F800340BB10123A3702846A7
:1084900038BD8525F5E700BF983200202D84020005
:1084A0000000014037B50D4C00230DF107008DF899
:1084B0000730FFF749F9E368013BE360E36833B94C
:1084C000074BD3F8005415B900F068F8A5709DF873
:1084D0000700FFF75DF903B030BD00BF9832002000
:1084E00000000140012813B50CD0032820D038B972
:1084F000124B0122C3F88020BFF34F8FBFF36F8F61
:1085000002B010BD0E4C00230DF107008DF80730AE
:10851000FFF71AF923780BB9FFF7A0FFE3689DF87E
:1085200007000133E3600123A370FFF731F9E7E7A8
:1085300000F01EF8FFF7B6FFE2E700BF00E100E041
:108540009832002000F18040002382B0036003686D
:108550000193019B02B07047044A137923B90121AA
:10856000106091801846704785207047AC3200201B
:10857000084B1A68D20704D4C02283F800230122D2
:108580001A604FF080420123C2F81835024A137076
:10859000704700BF00E100E0B43200204FF080429D
:1085A00008B50223C2F808334FF48270FFF7CAFF00
:1085B000034B01211960D2F81834DB03FBD408BD4A
:1085C0000C00004000F1804000F5C040002382B064
:1085D000036003680193019B02B07047800000F1C3
:1085E000A040D0F8002722F44032C0F80027D0F88D
:1085F000003743EA0141C0F800177047054B4FF0C0
:10860000FF32072843F8202084BFC01880F8482094
:10861000704700BFB832002010B51A4C94F858309B
:108620006BBB4FF0FF3222FA03F1C90748BFE118D4
:1086300003F1010348BF81F83020202BF3D1002142
:10864000C8B2FFF7DBFF01310C29F9D10422002168
:108650000D4803F0A9FE0D4BC02283F806234022EB
:108660001A604FF4BE70FFF7ADFF094B4FF00042A8
:10867000C3F80423012384F85830002010BD0820DB
:10868000FCE700BFB83200200C33002000E100E01E
:1086900000600040034B93F85800003818BF0120D9
:1086A000704700BFB8320020F0B5364D2C1894F951
:1086B0003040002C64DA8C78C4F34004002C0BBFEB
:1086C000082300230C260826B34201D10420F0BD64
:1086D00055F8237001373FD12E1845F8232086F82E
:1086E000303014B9EA1882F848008A78540713D455
:1086F000D60733D5820002F1A042D2F8004724F019
:108700000204C2F80047204EC20800F00707012407
:10871000BC40B75C3C43B4548A780C7812F0020237
:1087200025D09B0003F1804303F5C0430202D3F838
:10873000101521F4473121F44071C3F810152404B9
:10874000D3F8101502F4F85204F4403422430A43DB
:10875000C3F810250020BAE70133B5E74C7800F5DF
:10876000E0724FF0A046A40046F82240CBE7083B59
:108770002B4493F8501041EA841483F85040E9E701
:108780000820A4E7B83200200C33002038B51F4C75
:10879000251895F93020072A16DD224492F8483032
:1087A0009B09032B0BD14FF0A043D3F81015C14008
:1087B00001F001010231BDE83840FFF70FBF012B86
:1087C0000CBF02210321F6E7D3B2072B1CD893007C
:1087D00003F1804303F5C043D3F8100540F00100D6
:1087E000C3F8100502F14000800080B2FFF7EAFEF6
:1087F00051B195F9303054F823302BB1012303FAED
:1088000002F2034BC3F8042338BD00BFB832002086
:10881000006000404FF0A043D3F8103523FA00F079
:1088200000F00100704700002DE9F74F00244E4D85
:1088300001944FF48072012102F1804303F5C0439B
:1088400090B21B68012B06D1D5F804330B4202D03D
:10885000FFF7B8FE0C430432B2F5907F4FEA4101B6
:10886000EAD1424B1B68012B0CD14FF4BE70FFF7CD
:10887000A9FE4FF0A04344F00044D3F82025019214
:10888000C3F8202514F0FF0F1AD0394F0025012618
:10889000344210D0AB0003F1804303F5C043D3F85A
:1088A0001005D3F8101557F8253023B1C1F3014155
:1088B000C0F3042098470135082D4FEA4606E7D15A
:1088C000002C48DA2A4D4FF0A0482A4E4FF00009FC
:1088D000012716F9013B5A1C31D0C3F3C20202A989
:1088E0000A44DCB212F8042C03F03F0A03F0070339
:1088F00007FA03F31A4222D00AF5E073504658F8FB
:108900002330C3F3014BBBF1020F0CBF0321022143
:10891000FFF764FE07FA0AF3C8F8203505EB0A03EF
:1089200093F9303055F823304BB1A109032904D015
:10893000BBF1020F12D1012901D15046984709F12C
:108940000109B9F1040FC4D1D8F820350193C8F852
:108950002035002BB9D103B0BDE8F08FBBF1030F78
:10896000EDD10229E8E700BF006000407C610040D3
:10897000B832002008330020014B1B68184700BFA5
:10898000143300200E4B984237B50C4602D000201D
:1089900003B030BD00230DF107008DF80730FEF75E
:1089A000D3FE084B1D7915B901221C601A719DF880
:1089B0000700FEF7EDFE002DE9D01120E8E700BF2B
:1089C00000200040143300200023435082B043585D
:1089D0000193019B02B070470B7B032B2AD8DFE881
:1089E00003F022261A028B685A0304D5D0F84C35BE
:1089F0000A699A4207D18B685B031BD4D0F84C35C7
:108A00004A699A4216D000230622C0F80035C0F801
:108A1000002518467047D0F84C350A699A42F2D1C1
:108A2000D0F83C35ECE7D0F84C350A69E9E7D0F8E6
:108A30003C35FAE701207047F0B55A485A4CD0F857
:108A4000243187B00546F3B14FF49271FFF7BCFFB4
:108A5000D0F80431BBB9A368C0F808330223A3607F
:108A6000A368C0F80433D0F860311BB1D0F80032ED
:108A70009F0503D44B4B01221A625A61012384F8EB
:108A80002E3007B0F0BDD5F80431002B52D0454848
:108A90004FF48271FFF798FF236A5E060AD494F8B8
:108AA0002E303BB940493F48FFF796FF80F0010068
:108AB00084F82E00236A5D0721D43C4E0FCE01AD11
:108AC0000FC5336837482B604FF4B071FFF77CFF58
:108AD00034484FF4AE71FFF777FF94F8303013B19C
:108AE00094F82E305BB12F4B0022C3F80022A26015
:108AF0002F4AC3F808232F4B0822C3F88021294AA4
:108B0000D2F8C434C2F8C43498073DD501238DF897
:108B1000003094F830300BB984F82F30236A5B07AB
:108B200003D594F82E30002BABD0D4E90031684641
:108B30009847A6E71B484FF4A471FFF745FF237B36
:108B400083B91A4F0FCF01AE0FC63B68336094F85C
:108B50003030002BD3D1C5F80032A360144BC5F8D8
:108B60000833C8E74FF40073C5F8003240F202231F
:108B7000A36003F1CE73C5F80833A368C5F80433C6
:108B80000123AB602B627CE7590701D50223BEE7C6
:108B9000DA0701D50323BAE794F82E30002BB6D0BC
:108BA0000423B4E7003000401C33002028330020A9
:108BB00002029C0100E100E02DE9F84F0679304DFA
:108BC0004FF0340A0AFB06FA05EB0A079B4697F8B2
:108BD0002D3080460C469146002B4DD12949006826
:108BE000FFF7D0FE002849D12168637B87F8323037
:108BF00001F5E0724FF0A043B860C7F804B087F801
:108C00002F0087F8300040F20C6745F80A9043F8CF
:108C10002270626802F5E07C43F82C70D8F80030CE
:108C2000C3F80815C3F80C25A268C3F82425B9F1C8
:108C3000000F14D0227B43F3073152010029C3F304
:108C40000733D2B213DB104C671887F800230122D8
:108C5000490903F01F0302FA03F344F821303423D7
:108C600003FB0655012385F82D30BDE8F88F074931
:108C700003F00F03CA54F2E70820F6E71120F4E7E7
:108C80001C330020398A020000E100E014ED00E00E
:108C9000026803790621C2F80015044A342101FB59
:108CA0000323022283F82D20704700BF1C330020CD
:108CB0002DE9F843B14F90F804900468342606FB80
:108CC0000976002386F82E30CB6803F06043B3F1B9
:108CD000005F0D46904603D010263046BDE8F8836D
:108CE000A74BC4F8083396F82F3023B1B368C4F803
:108CF00004331126F1E712F0140F0CBF01230023F7
:108D000086F82F308E46BEE80F0006F10C0CACE85A
:108D10000F00DEF80030CCF80030C8F3001386F8FE
:108D20003030C6F820806B78C4F8883520464FF480
:108D30008271FFF749FE4FF49271FFF745FE4FF441
:108D4000B071FFF741FE4FF4A471FFF73DFE18F03C
:108D5000010318BF0123C4F8503518F0020318BFEF
:108D60000123C4F840352B78032B00F2B480DFE8F0
:108D700003F0839F68022B6903F06043B3F1005F47
:108D8000AAD14FF48073C4F80032EA686B68C4F863
:108D900044254FF4A871C4F84835FFF715FE0123A8
:108DA0002362A360D4F85031002BFBD04FF4A8719C
:108DB0002046FFF709FEAB682A69C4F84425C4F8C9
:108DC0004835342303FB09734FF480229A6008234B
:108DD000002618F0080F04D12A78032A1CBF0122AC
:108DE000E250342303FB09F3FA18FB58002B75D12A
:108DF0000125D4F84821D4F80431002B40F08880B4
:108E0000003A18BF0122D4F82431002B00F08780EB
:108E10004FF492712046FFF7D7FDD4F86011D4F8D3
:108E2000003209B1980504D4256265610029E0D0BB
:108E30000022DB0573D54FF4A4712046FFF7C4FD73
:108E4000D7E76B68EA68C4F84425C4F848352B694D
:108E500003F06042B2F1005F7FF43EAFAA68C4F84D
:108E600034354FF48453C4F83825C4F80032342321
:108E700003FB0973022212E06B68EA68C4F8442518
:108E800018F0200FC4F848354FF034030BD04FF4DE
:108E90008072C4F8002203FB09734FF480229A60A9
:108EA0000123236293E74FF40072C4F80022DFE746
:108EB0006B68EA68C4F83425C4F838354FF4805339
:108EC000C4F80032342303FB097302229A600123A1
:108ED000236200237CE7082307267AE718F0040FB3
:108EE0001CBF0023936018F0400F06D1342303FB0E
:108EF00009739A6842F002029A60342303FB0977EF
:108F0000BB6843F40073BB60BB68C4F80433E4E699
:108F10004FF482712046FFF757FD012273E7002AC4
:108F20003FF467AF3421D4F8C434C4F8C43401FB2F
:108F30000972002082F82F0093B113F0010F14BFC3
:108F40004FF40246032648F2012213F0020F18BF25
:108F5000164613F0040F48F2022318BF1E46BCE663
:108F600018F0400F7FF4B9AE09FB01712046FFF7FE
:108F700033FD002808BF0326AFE600BF1C330020E6
:108F800002029C0110B586B00024CDE902349DF8A0
:108F900020308DF80510A342CDE9042401A914BFA7
:108FA000202222468DF80440FFF782FE06B010BD55
:108FB00010B586B0012402930023CDE903328DF869
:108FC00005101A4601A98DF804400593FFF770FEBD
:108FD00006B010BD0220FFF7CBB900002DE9F04725
:108FE00080460D46FFF7E4F90128044610D8012D0C
:108FF00010D0022D30D05DB91A48FEF795FB1A4B00
:1090000004EB440213449E78184B1B5DB34219D005
:10901000BDE8F087144D00EB4002A918AE5C4A7819
:10902000470052B1DFF84C900E484A464FF40041D9
:10903000FEF72EFB08B989F800803B192B449A787B
:109040000A4B1A55002EE3D0094B1B68002BDFD0CA
:109050003046BDE8F047184700EB4004024804449E
:109060006678EFE774330020B4330020C933002062
:10907000C43300205033002000780221FFF7AEBF38
:1090800008B5094B1B7853B10020FFF747F90120C1
:10909000FFF744F9BDE808400320FFF73FB9BDE8FA
:1090A0000840FFF747B900BF51330020F8B57B4CAB
:1090B000237805461BB100232370FFF7E1FF172D2E
:1090C00000F28880DFE805F00C17174354657680BE
:1090D000888D888D959A9A9A9A9AC4C9D1D9E4E4D0
:1090E000FFF7CEFF6E48FEF71FFB6E4B00220446D3
:1090F0001A702046F8BD0020FFF7F6F8F8B10020FE
:10910000FFF70CF9022D0CBF4FF4E1614FF47A61C7
:10911000644B1D704FF400404FF4FA740025E0FBDF
:1091200001454FF47A7200232046294602F0F4FFED
:1091300000220146BDE8F8405948FEF7A9BAFFF7FA
:10914000E1F8022D0CBFC8214FF4C871E0E7002000
:10915000FFF7CAF840B10020FFF7E0F84FF448717C
:10916000504B03221A70D5E7FFF7CCF8C821F7E778
:109170000020FFF7B9F838B10020FFF7CFF84FF41F
:109180007A61484B0422EDE7FFF7BCF84FF4C87151
:10919000F7E70020FFF7A8F848B10020FFF7BEF876
:1091A000404B05221A7041F69A110022C2E7FFF7E0
:1091B000A9F8F5E70020FFF7DBF83A4B06221A7012
:1091C000002240F6CD41B5E70020FFF79BF8354B74
:1091D00007221A7000248CE701202070FFF7C8F8DE
:1091E000EEE701202070FFF7C3F800224FF4804122
:1091F000A0E7FFF7AEF82B4B0C22EAE72A482B4EEC
:10920000FEF792FAD5F1110504461CD0D8B9012D0C
:1092100013D0C8235D434FF400474FF4FA70002188
:109220004FF47A720023C7FB050102F075FF224656
:1092300001461D48FEF72CFA04460220FFF762F8AB
:109240000123337055E70220FFF768F80023F8E7A1
:10925000FFF716FF134B1222BBE7FFF711FF0020A9
:10926000FFF750F80F4B1322B3E7FFF709FF012078
:10927000FFF748F80B4B1422ABE7FFF701FF002084
:10928000FFF740F80120FFF73DF8064B1522A0E755
:10929000FFF75FF8034B1D709CE700BFC033002051
:1092A00094330020C8330020543300205133002071
:1092B000044B1B68DB0703D5034B1878FFF7F6BE9A
:1092C000704700BFBC330020C8330020012801D8FC
:1092D000FFF760B800207047044B1B6813F00103D0
:1092E00001D0FFF7E3BE1846704700BFBC33002033
:1092F00038B51A4B18601A4B10F002040546196075
:1093000016D0184B18480E221A700F22DA7002215C
:1093100040F26662FDF7F6FD044648B9FDF748FEE7
:10932000044628B90146114A1148FEF79FF9044640
:10933000EB0711D50120FFF74BF86CB921460D4A18
:109340000D48FEF793F9044630B9BDE838400B4AA2
:109350000B480121FEF78AB9204638BDBC330020F6
:10936000C4330020B433002050D7020079900200AB
:1093700064D70200B192020068D70200D58F0200C4
:1093800060D70200012811D8012A0AD101290FD182
:1093900000F10E02D2B20D4B00EB40001A54002037
:1093A00070470129F7D0022904D049B1072070473E
:1093B0000022F8E7054B00EB400018444270EEE74E
:1093C000024B00EB400018448270E8E7B433002001
:1093D000012808B512D8FEF7F5FF800000F1A04083
:1093E000D0F8003723F44033C0F80037D0F8003706
:1093F00043F44033C0F80037002008BD0620FCE7E6
:1094000008B5012202210020FFF7BCFF08B10728A0
:1094100010D1072202210120FFF7B4FF08B107286D
:1094200008D100210A220846FFF7ACFF10B1072837
:1094300008BF002008BD00000388102B10B502D023
:10944000112B1ED010BD1A4C2168B1B9012208465B
:10945000FFF798FF08B1072824D107220221012035
:10946000FFF790FF08B107281CD104220221002039
:10947000FFF788FF08B1072814D123680133236060
:10948000E0E70B4A1368013B1360002BDAD1FFF7CA
:10949000B7FF0028D6D0074B1B68002BD2D0BDE801
:1094A00010401847034B1B68002BE6D09847E4E7B1
:1094B000D0330020CC33002008B50020FFF788FF10
:1094C00008B1062806D10120FFF782FF10B1062857
:1094D00008BF002008BD00000D4B10B518600C46F9
:1094E00029B10120FFF7F2FE40B102232370094B9E
:1094F0001B6853B9BDE81040FFF782BFFFF7E6FED7
:1095000008B10B23F2E72070F1E7002010BD00BF87
:10951000CC330020D033002076DF70477ADF7047ED
:109520007CDF70477FDF70478FDF7047B1DF7047A8
:1095300033DF704770B5114B114C4A88E41A114B58
:109540001B88E4089A4205464FEA04440DD10A8874
:1095500040F677239A4208D18B880B49033B9BB294
:109560001A4644F00300FDF760FA2B886A88074921
:1095700044F00400BDE87040FDF757BA5CCB020030
:109580008CCB0200E82A00206CD7020088D70200AA
:10959000FDF724BD08B50020FFF79EFE08B1FDF7DA
:1095A0001DFDFFF789FF08B1FDF718FDFFF7C0FFAC
:1095B00018B1BDE80840FDF711BD08BD0388212B97
:1095C00013B504463DD007D8112B2BD0132B4AD00E
:1095D000102B0CD002B010BD522B4CD0562B01D00A
:1095E0003B2BF7D1A0881321FFF796FF15E0264B00
:1095F00026482749C01AC008000440F00300FDF7C0
:1096000007FA0720FFF768FE08B1FDF7E7FC214BDA
:10961000A1882148198001F067FD0028DAD0FDF704
:10962000DDFCD7E7184B19481C49C01AC0080004D4
:1096300040F00300FDF7ECF9164B4FF6FF721A806D
:10964000C8E7114B11481649C01AC008000440F081
:109650000400FDF7DDF90023A088ADF8043001A96E
:10966000FFF762FFD9E70B4800231A4685210088DF
:10967000FFF758FFD1E7074800231A46194600882C
:10968000FFF754FFC9E700BF5CCB02008CCB0200A0
:10969000C1D70200E82A0020C4390020CBD702003D
:1096A000D8D7020008B503784BB9054B3B21188881
:1096B000FFF732FF18B1BDE80840FDF78FBC08BDC9
:1096C000E82A0020072808B513D00A280DD004285E
:1096D00019D10D4B13211888FFF71EFF30F0080336
:1096E00011D0BDE80840FDF779BCBDE80840FFF7A0
:1096F00051BF054B1A884FF6FF739A4203D10348B6
:1097000001F013F8EAE708BDE82A002078350020C8
:1097100008B548B103280BD10220FFF7DDFD38B1B1
:10972000BDE80840FDF75ABCBDE80840FFF732BF6E
:1097300008BD000008B50378022B03D1094B0122B4
:109740001A7008BD012BFCD1074B0848084A09498B
:10975000C01AC008000440F00300FDF75DF9014B9A
:109760000022EDE7E03900205CCB02008CCB020048
:1097700051D80200ECD70200FDF730BC08B508490B
:10978000084801F017FB08B1FDF728FC0548F72150
:1097900001F024FB18B1BDE80840FDF71FBC08BD6F
:1097A00035950200AC3900202DE9F3471C4EADF889
:1097B000061032884FF6FF739A4207462CD0194B99
:1097C0001B78012B28D1184D184BDFF86480DFF887
:1097D0006490DFF864A0ED1AED082D0445F0030550
:1097E00033880DF106023946404601F007FE044673
:1097F00090B103464A4651462846FDF716F9082C13
:109800000AD0132CECD0052C06D043F201439C4225
:1098100002D02046FDF7E2FB02B0BDE8F08700BFB2
:10982000E82A0020E03900208CCB02005CCB02004B
:10983000EC2A002062D80200FDD7020008B5FEF72E
:109840000DFE18B1BDE80840FDF7C8BB08BD00001B
:10985000044B054A1A60054A5A60054A9A60054A4F
:10986000DA607047D039002041BA020089BA02009C
:10987000C1BA0200E1BA0200F0B52DED048B037805
:10988000012BADF5137D054640F0198183680DF17C
:109890000B0112A898470446002840F010812B794C
:1098A000062B40F00C8101465290FC2253A802F096
:1098B0007BFD102221460DEB020003940DAD02F05A
:1098C00073FD1022214609A8089402F06DFD1022B4
:1098D00021460EA82C6002F067FD814B186802F04B
:1098E000C9FB9DF8493006469DF8480040EA032030
:1098F00000B207EE900AF8EEE77A0F4617EE900AEC
:1099000002F0C6FB74A3D3E9002302F031FA324619
:109910003B4602F0C9FA02F0D5FB9DF84B3009EE48
:10992000100A9DF84A0040EA032000B207EE900AB0
:10993000F8EEE77A17EE900A02F0AAFB66A3D3E9E5
:10994000002302F015FA32463B4602F0ADFA02F06F
:10995000B9FB9DF84D3008EE900A9DF84C0040EAA6
:10996000032000B207EE900AF8EEE77A17EE900AAD
:1099700002F08EFB58A3D3E9002302F0F9F9324636
:109980003B4602F091FA02F09DFBB5EEC09AF1EE73
:1099900010FA08EE100A40F19780FFEE007AB4EE5C
:1099A000E79AF1EE10FA40F38F804E4A4E49FDEEF1
:1099B000C97AB5EEC09AF8EEE76AF1EE10FACCBFBC
:1099C00079EE666A76EEC96A9FED489A66EE896A14
:1099D00017EE903AFDEEE66A03A8CDED006A02F0BC
:1099E00094FCF5EEC08AF1EE10FA6FD5FFEE007A26
:1099F000F4EEE78AF1EE10FA68DD3A4A3A49FDEEF4
:109A0000E87AF5EEC08AB8EEE77AF1EE10FACCBF4C
:109A100038EEC77A37EE687A17EE903A27EE097A71
:109A200008A8BDEEC77A8DED007A02F06EFCB5EEA7
:109A3000C08AF1EE10FA4BD5FFEE007AB4EEE78A59
:109A4000F1EE10FA44DD274A2749BDEEC87AB5EE9B
:109A5000C08AF8EEC77AF1EE10FACCBF78EE677ADA
:109A600077EEC87A17EE103A67EE897A2846FDEE4F
:109A7000E77ACDED007A02F048FC1D49009508AB6D
:109A800003AA52A802F041FC52A8FCF743FE194B6E
:109A90001949024619481B1ADB081B0443F003004E
:109AA000FCF7BAFF52AB002113F8012B1AB10131B8
:109AB000B1F5807FF8D189B252A8FFF775FE0DF598
:109AC000137DBDEC048BF0BD0D4A6FE70C4A95E7A2
:109AD0000B4AB9E7AFF300809A9999999999234075
:109AE000443D002009D802000BD802000000C84203
:109AF00015D802008CCB02001BD802005CCB020000
:109B00008CDF020000B54FF40041ADB00020FCF73F
:109B1000BBFD08B1FDF762FAFCF7F6FCFFF78EFE1D
:109B2000FDF774FD08B1FDF759FA01F051FF654AE0
:109B300014210C20FDF798FA08B1FDF74FFA62499D
:109B40000320FFF7D5FB08B1FDF748FA01A9002073
:109B5000FFF7C2FC08B1FDF741FA01F053FFFFF730
:109B600077FE5A4801F0C0FEFEF77CF908B1FDF718
:109B700035FA01F0C1FC08B1FDF730FA002301A964
:109B80000120019301F046FD08B1FDF727FA01A875
:109B900001F010FE08B1FDF721FA11234C488DF8B1
:109BA000003002F056FC4A4982B26846FFF7B8FC22
:109BB00008B1FDF713FA0021082201A802F0F4FB16
:109BC00044494FF0C87301A8CDE90113FFF7A6FC83
:109BD00008B1FDF703FAFFF7D1FD3F4B3F48019372
:109BE00001A901F06FFA08B1FDF7F8F9002104228C
:109BF000684602F0D9FB3A4B3A480093694601F0B7
:109C000083FB08B1FDF7EAF9AC22002101A802F0BC
:109C1000CBFB02238DF804304FF4A063324AADF839
:109C200006300123ADF8503015928DF88030402277
:109C300044F25063CDE923232C482D4B2A9301A9EC
:109C400000F0B3FB08B1FDF7C9F92848012100F085
:109C5000A9FB1C22002101A802F0A6FB00234FF45F
:109C60002032CDE90132ADF812304FF470228DF878
:109C70001430204B0392069303221F4B8DF81020C3
:109C800001A8079300F06EFE08B1FDF7A7F91B4B82
:109C90001B481C49C01AC008000440F00300FCF730
:109CA000B7FE1248032100F0FFFB08B1FDF796F95B
:109CB000FDF764FAFCF768FD0028F9D1FEF7E8F833
:109CC000F6E700BFD4330020C5960200D03900204B
:109CD0001ED8020010003C0091950200C4390020FB
:109CE00035970200EC2A0020E42A00207835002075
:109CF00011970200A5960200799702005CCB020042
:109D00008CCB020029D802000369C1688B429DBF39
:109D10008268D21802F1FF3203F1FF3394BF501A68
:109D2000581A70472DE9F843D0E902940546A9EB8B
:109D300004084068904520440F46144404D902F0BA
:109D40000AFBEC60BDE8F8834246A4EB090402F08C
:109D500002FB6868224607EB0801F0E72DE9F843AB
:109D6000C5680646894617464FF000083469B3684F
:109D70007068A54228BFE418013C621B5C1BBC4212
:109D800028BF3C46944228BF1446494628442246F0
:109D900002F0E1FAB3682544AB4208BF00253F1B3F
:109DA000A044A144F560E1D14046BDE8F88300003D
:109DB00010B5114C114AA2610223C4E90433104BBF
:109DC000E361A2644FF400730E4A0F492362E26418
:109DD00000231022E01DA3626362E362A365636552
:109DE000E365226502F013FB0849204602F00FFBF1
:109DF0002023A37110BD00BFE43900206ED80200FB
:109E00006C3A00205C3A002077D802007BD8020030
:109E1000F8B5184C182300FB033503FB004025441C
:109E2000C46A012C0F4616460FD0022C1AD0F4B982
:109E30002846FFF769FF864205D83246394628464C
:109E4000FFF770FF34462046F8BD2846FFF75CFF59
:109E50008642344628BF0446224639462846FFF744
:109E600061FFF0E72846BDE8F840FFF777BF002420
:109E7000E9E700BFE4390020FFF79ABF6DDF7047C4
:109E800079DF70477DDF704764DF70472DE9F04F61
:109E900085B000250E9CBDF83CB0B4F800A001913F
:109EA000074690461E46A9463A884A450DDC45B10C
:109EB0002388013BA3EB0A039BB2FF2B3AD806F899
:109EC0000A30002005B0BDE8F08F7A6852F829000A
:109ED000039000220DF10B0103A8FFF7D5FF002826
:109EE000F0D19DF80B20424521D12288002D14BFCE
:109EF0000020022002EB0801014459451ADC3DB95B
:109F0000013292B2019B2280B35422880132228016
:109F100022880DF10B01324403A8FFF7B5FF00289A
:109F2000D0D121889DF80B200A442280012509F117
:109F30000109B9E70C20C5E72DE9F341089FBDF8F9
:109F400024801546CDE90078022204461E46FFF71C
:109F50009DFF50B93346102229462046CDE90878A6
:109F600002B0BDE8F041FFF791BF02B0BDE8F0815B
:109F70002DE9F04F00231788138090F82D3085B01D
:109F800006460D46144653B3082F01D80C2027E18E
:109F900002A8FFF773FF002840F0228123880822DF
:109FA000EA54238801339BB21B222380EA54208881
:109FB000013080B2208006220DF10901284402F010
:109FC000CAF923889DF8082006339BB212F0FE02DE
:109FD00018BF01222380EA54238801332380B378F9
:109FE000FBB123880433BB42D0D802A8FFF748FF57
:109FF000002840F0F58023880322EA5423880133A7
:10A000009BB219222380EA542388BDF8082001332B
:10A010009BB2E9182380EA54120A4A70238802335B
:10A020002380F2789AB12388D91CB942AED8022194
:10A03000E954238801339BB201212380E95423880A
:10A040000B449BB22380EA5423880B44238072681C
:10A05000AAB12388D91CB94298D8022192F90020CC
:10A06000E954238801339BB20A212380E9542388D1
:10A0700001339BB22380EA54238801332380338940
:10A08000002B40F0A180338A5BB1CDE900472B461D
:10A090000722032106F11000FFF74EFF002840F0D1
:10A0A0009F80338B5BB1CDE900472B4615221421ED
:10A0B00006F11800FFF740FF002840F09180326A57
:10A0C000002A40F09080D6F82480B8F1000F30D0FC
:10A0D000B8F804302188981C8A1C0244BA423FF622
:10A0E00055AFFE283FF652AF03336B54238801333C
:10A0F0009BB2FF222380EA54238801339BB2238042
:10A10000B8F80020EA54E918120A4A702088023090
:10A1100080B22080B8F804205AB1D8F8081000297D
:10A120006BD0284402F017F92388B8F804201344B0
:10A13000238096F82C30002B40F09A80307800284D
:10A140004ED03388012B58D0228802F1020CBC4536
:10A150003FF61CAF012805D17378023313449F42A8
:10A16000FFF414AF023FBF1ABFB202A905EB0C0007
:10A17000ADF80870FFF786FE90BB3178BDF8083067
:10A18000022900F0BA8072789A4202D3BB4240F2B0
:10A19000B280012940F0B380974293B2C0F0AF8003
:10A1A000ADF808300821BDF80830FE2B3FF6EEAEC2
:10A1B00022880133AB542288013292B22280A95402
:10A1C0002288134423800BE0CDE900472B4606226A
:10A1D000022106F10800FFF7AFFE00283FF453AF5D
:10A1E00005B0BDE8F08FB4F800C00CF10603BB4227
:10A1F0003FF6CCAE1188052901D80720F0E76FF4AF
:10A20000486E01EB0E039BB24FF27D3E7345F4D9CD
:10A210005388052BF1D96FF44860181880B2704547
:10A22000EBD94FF6FF70814203D0834201D09942AF
:10A23000E3D8052305F80C30238801339BB21221A3
:10A240002380E954238801339BB223801188E95489
:10A25000E818090A4170238802339BB22380528890
:10A26000EA54E918120A4A702388023323802AE745
:10A27000B36A002BC1D04FF000094FF00C0A4FF029
:10A28000160B96F82C305FFA89F293427FF656AFA0
:10A29000B16A0AFB02F201EB0208B8F80430981C1C
:10A2A000FE283FF673AE208803332B5423880133F6
:10A2B0009BB2238005F803B0238801339BB223802F
:10A2C0008A5AEA54E918120A4A702088023080B289
:10A2D0002080B8F804205AB1D8F8081000298CD092
:10A2E000284402F038F82388B8F804201344238067
:10A2F00009F10109C5E7092155E7BB42FBD9ADF8D2
:10A3000008704FE730B5C8B1F2B10024651C8D422A
:10A3100006DA1588A54212D805196D789D420ED12E
:10A32000A14211D9005D48B1013880B230B1023488
:10A33000A3B210FA84F4A14206DB138030BD055DA0
:10A3400001352C44A4B2E1E70020F7E713B513462A
:10A350000022ADF806200DF106020446FFF7D2FFF9
:10A3600010B1BDF80630E01802B010BD72DF7047C2
:10A3700073DF704774DF704738B5012204460D461D
:10A38000B0F81414D0F81004FFF7E0FF00B1057026
:10A3900004F13C0204F5826104F15400BDE8384048
:10A3A000FFF7E4BF80F830107047F8B504460F4659
:10A3B000002975D0002873D091F87A301BB191F83C
:10A3C0009830002B6ED1D7F8A030042B6AD0D7F884
:10A3D0009C30042B66D04FF0000C84F802C007F1CB
:10A3E00078060FCE251D0FC50FCE0FC596E80700C6
:10A3F00085E8070084F830C0D7F8A4306363D7F845
:10A40000A830A3634FF6FF7504F58263C4F82034C7
:10A41000A4F824540722614604F2264001F0C4FF48
:10A4200023780BB984F8545094F82430002B14BFCF
:10A43000EE231F2304F15501C4F81014A4F81434BA
:10A4400004F214423846FFF793FD40BB94F82430E1
:10A45000002B14BFEE231F2304F23121C4F818147B
:10A46000A4F81C3404F21C4207F13C00FFF780FD05
:10A47000A8B9A369A4F848304FF480730125A4F863
:10A48000503063692064014684F83C50636404F1F1
:10A490003C0204F15400FFF769FF00B92570F8BDD4
:10A4A0000E20FCE70720FAE7F8B5077804460D46CA
:10A4B000002F00F0038100F2264681700722002160
:10A4C000304601F071FFE38813B1A378012B04D06B
:10A4D000E3794BB1A378022B06D1636BA3B10122C0
:10A4E00084F82D2408209847334604F22C4113F8B1
:10A4F000012F12B99942FAD117466B1E032B51D87E
:10A50000DFE803F0050B0F1284F82D34ECE7A37994
:10A510001BB194F8243003B95FB9E3790BB1002F74
:10A5200042D1237A002B41D1637A002B0CBF002546
:10A530000425636BA570002B3AD0033D012D37D85D
:10A540006279AAB394F82E2492BB84F830240122B5
:10A5500084F82F240720984704F13C051822002195
:10A56000284601F021FFE26A531E0121022B28BF79
:10A570000A4684F8512094F8242084F83C1032B123
:10A58000A36A581E022828BF0B4684F85230A178CF
:10A59000002384F8503004291BD8DFE801F0770D40
:10A5A000223559000025C4E70225C2E70325C0E78C
:10A5B000002384F82F34CFE7C4E91063C4F82034B3
:10A5C0000223012284F83C30802384F83120A4F84F
:10A5D0004830A378002B5CD1636B002B6AD100203C
:10A5E00067E00223002A84F8313014BF07230323D5
:10A5F00084F83C302369A4F848300023C4F82034A0
:10A60000E36826646364E4E763696364A369A4F8A8
:10A61000483012B1062384F83C306379B3B194F822
:10A620002E349BB994F8303483B1022384F850302F
:10A6300004212046FFF7A0FE0028CAD1052384F894
:10A64000313004F58263C4F82034C2E70323F6E70F
:10A65000E3696364236AA4F8483012B1062384F8DE
:10A660003C30637983B194F82E346BB994F830346C
:10A6700053B1022384F8503004212046FFF77CFEBA
:10A680000028A6D10623DAE70423D8E784F831307E
:10A690009FE7D4F820142A4604F15400FFF766FE21
:10A6A00038B994F8301094F85400FFF761FE002890
:10A6B00092D0F8BD94F83100984790E70820F8E769
:10A6C0000388112B10B50C460AD0262B1FD0102B57
:10A6D00005D1C37B012B02D18388A1F8243410BD9E
:10A6E0000022838881F82E24B1F824249A42F6D1DE
:10A6F0000B79002BF3D101212046FFF7D5FE00286E
:10A70000EDD0A36B002BEAD0BDE810401847037AC8
:10A71000013B012BE3D8897805230131B1FBF3F329
:10A7200003EB8303C91AC9B2E6E738B5044690F8CB
:10A730005400FFF71FFE012384F82E34002384F811
:10A74000303484F8503006212046FFF715FE0546C8
:10A7500038B9A1782046FFF7A7FE10B1A36B03B16B
:10A760009847284638BD75DF704776DF70477ADF37
:10A7700070477BDF70470000034B1A8882420CBF92
:10A7800018460020704700BF883C0020024B9B69A0
:10A7900003B11847704700BF6C3C002073B585B209
:10A7A0002846FFF7E9FF044670B1164E027A337B64
:10A7B0009A420BD200F10A012846FFF7D4FFE8B114
:10A7C000112801D0FFF7E2FF02B070BD0023037231
:10A7D000337C43B13B212846FFF7C7FF30F0080325
:10A7E00001D0FFF7D3FF7369002BEDD000228DF865
:10A7F0000420ADF8065001A89847E5E7237A013315
:10A800002372E1E76C3C002037B50B46497A0F4ACA
:10A8100071B9D2E901141D7A0246002D18BF2146F4
:10A820005868FCF735FF08B1FFF7B0FF03B030BD43
:10A83000002119725369002BF8D00122ADF80600EF
:10A840008DF8042001A89847F0E700BF6C3C002079
:10A850004B8802889A4213D842889A4210D3808843
:10A860008A8840F2F313984294BF031AC31A9342A2
:10A8700006D800F2F310904234BF00200120704748
:10A88000002070470388122B70B5014659D004D8B8
:10A89000102B1ED0112B44D070BD502BFCD12F4B50
:10A8A000C288DB899A42F7D1038A022BF4D18688C9
:10A8B0003046FFF761FF05460028EDD001F1120098
:10A8C00000F079F938BB6868FCF72EFF0028E3D068
:10A8D00009E0C37B012BDFD14FF6FF70FFF74CFF80
:10A8E000054620B90420BDE87040FFF74FBF1C4A61
:10A8F0008E880680002303721368C0F80A305368FC
:10A90000C0F80E3010310A30FFF7A2FF134B687207
:10A91000DB89002BC0D129463046BDE87040FFF7E7
:10A9200073BF8088FFF728FF04460028B4D0406832
:10A93000FCF7FAFE08B1FFF729FF4FF6FF732380FB
:10A94000AAE786883046FFF717FF05460028A3D000
:10A9500008310A30FFF77CFF6872DCE76C3C0020AE
:10A960009C3C0020F8B5064648B305460FCD154F70
:10A970003C460FC495E8070084E807003068124C95
:10A980003C60B0B1FFF7F3FEC0B9326813682360D2
:10A99000536863600D480E4A4FF6FF7303800D4BFA
:10A9A00040F8043F0021FCF761FE002818BF032097
:10A9B00004E02046FFF7DDFE0028EBD0F8BD0E20B6
:10A9C000FCE700BF6C3C00209C3C0020883C002041
:10A9D0009DA70200A43C00200AB1FCF7EFBEFCF7E3
:10A9E000F6BE73B50191019C06466CB100252C465C
:10A9F000294601A8FCF7F5FE18B106EB4403013423
:10AA00009D800135142DF3D13046346002B070BD05
:10AA10002DE9F04703888488103B8CB005460A2B4B
:10AA20001FD8DFE803F0063F1E1E1E1E1E1E1E60FE
:10AA30004400314EB368DB43009371686846FCF70D
:10AA400008FF009901A8FFF7CCFF0DF108094FF0AE
:10AA50000008019B984507D3132C13D90420FCF759
:10AA6000BDFA0CB0BDE8F08739F802AB002701371A
:10AA7000514606EB8700FCF7AAFE1E2FF7D108F11E
:10AA80000108E6E71D482146FCF798FE1C482146D0
:10AA9000FCF794FEEB7B022BE3D11A482146FCF72E
:10AAA0008DFEDEE715482146FCF791FED9E7027AD4
:10AAB00015483F2A4FEA1215214694BF0022012271
:10AAC000FFF78AFF022D94BF002201220F48214682
:10AAD000FFF782FF012D0E4894BF0022012221467C
:10AAE000FFF77AFFBDE7037A002BBAD1427A064816
:10AAF000C2F3C0022146F3E7C43C0020CC3C002056
:10AB0000C83C0020D03C0020DC3C0020D83C002089
:10AB1000D43C00201328014602D80248FCF761BE4D
:10AB200000207047C83C002010B50446FFF7F2FF34
:10AB3000002814BF2046142010BD70B505461646E7
:10AB400008460AB90E2070BD00231360002DF9D00D
:10AB50002B68002BF6D0EB8813F003040ED1FFF71F
:10AB6000E3FFC0B214280BD02B7983420AD9EB88BB
:10AB70002A6800FB032030602046E4E70720E2E774
:10AB80000520E0E70420DEE7AADF70470023013854
:10AB90000B70042806D8DFE800F00306080A0C0052
:10ABA00011230B7070472123FBE73123F9E71223B0
:10ABB000F7E72223F5E7007800F001007047F0B5D1
:10ABC0008B7891B0012B0C4638BF01238DF80E30E5
:10ABD00005460B88ADF80C30002116466846032266
:10ABE00001F0E2FB607C6946FFF7D0FFA07C0DF12D
:10ABF0000101FFF7CBFFE27B237B217D43EAC20308
:10AC0000227C43EA02139DF80220002922F0190257
:10AC100003F0190314BF02210121134361F342031E
:10AC20001C22002109A88DF8023001F0BDFB637BD6
:10AC300013F0300F15D002AF03220021384601F087
:10AC4000B3FBE07C0DF10901FFF7A0FF11238DF8A4
:10AC500008309DF80A300E97012262F342038DF806
:10AC60000A30637B8DF824301422A37B8DF82530C5
:10AC7000002104A801F098FB03AB0493A388ADF86E
:10AC80001C30A368CDF814D01BB1E288ADF81820B1
:10AC90000893A369002B31D001AF0322002138466D
:10ACA00001F082FBA3691A88ADF82C205A88ADF810
:10ACB0002E205A680D97187B0A923946FFF766FFD7
:10ACC000A3690DF10501587BFFF760FFA269917A36
:10ACD000137A43EAC103D17A927B43EA01139DF8C8
:10ACE0000610002A03F0190321F0190114BF0222F3
:10ACF00001220B4362F342038DF80630E36903B18E
:10AD00000C93334604AA09A92846FFF73DFF11B06A
:10AD1000F0BD90DF7047A5DF7047B5DF70470000DA
:10AD20007FB51E4B1E4CE41AE40824040E4603466D
:10AD30000A4605461B4944F00400FBF776FE002353
:10AD40006A4602A92846ADF80860ADF80A60039388
:10AD50000093ADF80430FFF7DCFF0646D8B1FDF7ED
:10AD60005BF944F0010403460F492A462046FBF7ED
:10AD70005CFEBDF80020BDF8023052EA030103D0AA
:10AD80000A492046FBF751FEBDF804201AB10849D4
:10AD90002046FBF741FE304604B070BD5CCB02009C
:10ADA000B4CB020082D80200B1D80200FBD8020066
:10ADB0003AD9020080B14FF0F71303601B230371EF
:10ADC000F723C3801723038141F61B32002301615F
:10ADD00043818281184670470E20704730B1A1F13F
:10ADE0001703E02B04D80180002070470E20704725
:10ADF000072070472DE9F047868886B005460C4647
:10AE000026BB0388242B00F0CD8022D8112B00F024
:10AE10009B80232B00F0FC80102B59D0A37AABB180
:10AE2000E1880020FFF777FF0346002840F0038108
:10AE300089488A4D8A492D1AED084FF480722D04F5
:10AE4000628145F00400E288FBF7EFFD06B0BDE843
:10AE5000F0873A2B00F08180552BDFD17E4B7F4D60
:10AE6000C7888049ED1AED082D0445F004003B46E3
:10AE700032460390FBF7D9FDE3887B490398A6721D
:10AE8000172F3A4638BF17229A4228BF1A46228106
:10AE90000096FBF7D4FDE1883046FFF73EFF38B15E
:10AEA000FDF7BAF87149024645F00100FBF7B4FD21
:10AEB000E37A002BB2D12369002BAFD040F6772282
:10AEC00004922289ADF8142004A920469847A5E7EA
:10AED0000B790B73C37B012B20D0022B21D0E2888E
:10AEE0002389934212D25C4B5C4D6149ED1AED0807
:10AEF0002D0445F0040630460023FBF796FDE1885B
:10AF00000020FFF708FF70B90123E372217B637B08
:10AF10008B4283D20020FFF703FF7FE70B88E3809B
:10AF2000DDE74B88FBE7112807D101235149A372C4
:10AF300000223046FBF770FDE8E7FDF76DF84E495B
:10AF4000024645F00100F5E7F723CB8017230B817C
:10AF500041F61B334E818B8160E74289CB883F48A5
:10AF60009A4228BF1A463C4BC01A172A4FEAD00013
:10AF700038BF172200040A813346404940F00400DC
:10AF8000FBF753FD236953B1E27A42B140F67722D1
:10AF900004922289ADF8142004A920469847002382
:10AFA00063813BE7B0F80890B0F80AA08789B0F851
:10AFB0000E80027A284B29484A73C01AC008000440
:10AFC000334640F004002E490390FBF72EFD2D4937
:10AFD00003985246FBF720FD2B4903984A46FBF79E
:10AFE0001BFD2A4903984246FBF716FD28490398A2
:10AFF0003A46FBF711FD2369002B3FF40FAF4DF6E6
:10B000007A220492627B8DF815608DF814205BE73C
:10B01000077A114B11481F49C01AC008000440F0BC
:10B0200004003B463246FBF700FD217BA888B9426D
:10B0300028BF39466FE711283FF408AFFCF7ECFF53
:10B04000064B0D49024604481B1ADB081B0443F05B
:10B050000100FBF7E1FCF9E65CCB0200B4CB020097
:10B06000E3DB02008BDA0200C5DA020004DB020037
:10B0700090D90200CDD902001FDA020050DA020096
:10B0800033DB020062DB020074DB020086DB0200BD
:10B0900096DB0200A6DB0200B0DF704766DF704778
:10B0A00010B5002104464088FFF7F8FF034608B9B1
:10B0B000237210BD112801D10123F9E76368BDE8AF
:10B0C0001040184760B159B10378DE2B0AD00B68E5
:10B0D0004360DE2303704FF6FF7343800020704708
:10B0E0000E2070470820704728B10378DE2B04D16A
:10B0F0004180002070470E20704708207047F0B54F
:10B10000054685B00C46F1B1E8B10B78DE2B1AD1BB
:10B1100082884B889A4204D10B7A13B10846FFF714
:10B12000BFFF2B88112B32D0512B0ED0012B0AD10F
:10B130002B7A012B07D1A9886288914203D123720F
:10B140002046FFF7ADFF05B0F0BDAE886388B3427F
:10B15000F9D1AF79022FF6D1AD7B2B1F022BF2D89C
:10B1600000211022684601F01FF9052D14BF4FF48D
:10B17000C0730023694630468DF80070ADF8043086
:10B18000FFF78AFF0028DED063689847DBE7638813
:10B19000AA889A4204BF4FF6FF736380D3E7A8DF03
:10B1A0007047ADDF7047AEDF704762DF7047000069
:10B1B00070B505468AB00C4649B140B10388502BA2
:10B1C0004BD006D8102B12D0112B00F097800AB06C
:10B1D00070BD572BFBD18188606902AAFFF7ADFCD7
:10B1E0000146002875D0474B01221A70EFE781888D
:10B1F0006069002601AA0196FFF79FFC08223146EC
:10B200000DEB020001F0D0F80223218AA888CDF8C6
:10B210000CD002AA0293FFF7C4FF0028D7D1A3697C
:10B22000002BD4D00398FFF7C6FC0028CFD0019B99
:10B230000BB101221A701822002104A801F0B4F801
:10B2400002238DF81030AB88ADF81830019B0793BE
:10B25000A369059404A89847B9E78188606902AAA0
:10B26000FFF76BFC1822002104A801F09DF8AB88C1
:10B270002189ADF81830EB88029A0594994207921B
:10B2800017D12E8A022E14D1002AA0D005F1120067
:10B29000FFF791FC029B38B101221A708DF8106003
:10B2A000A369002BD6D192E7187003238DF81030D4
:10B2B000F6E7A2899A428AD1A369002B87D000229F
:10B2C0008DF8102005F1120208922A8AADF8242088
:10B2D000C0E7029B1B78002B85D0182204A801F040
:10B2E00063F801238DF81030AB88ADF81830029B5D
:10B2F00007930594A36904A8984774E7014B0022BB
:10B3000073E700BFE0390020F0B53A4B8FB002ADD3
:10B3100004460A4603F1100C2F46186859682E4659
:10B3200003C6083363453546F7D1002C5FD0002AA9
:10B330005DD01368A36121463846FFF736FF002829
:10B3400053D12246012512F8023B8DF8063001A99F
:10B350002846ADF80450FFF722FF002845D10146EA
:10B36000202206A801F020F822460223ADF818306A
:10B3700012F80C3B8DF81A30BDF824301E4E608850
:10B38000079623F44F6323F00F0343F440632B43EA
:10B3900006A9ADF824308DF829508DF82A50FFF712
:10B3A0000EFC10BB0146202206A800F0FDFF22463D
:10B3B0000323ADF8183012F8043B8DF81A30BDF8AD
:10B3C00024306088079623F4875323F01F0343F447
:10B3D00080532B43ADF8243006A940F201138DF8B9
:10B3E0002950ADF82A30FFF7EAFB0FB0F0BD0E2070
:10B3F000FBE700BF3DDC0200F4000100F0B50F46A2
:10B4000087B016461C46054618B3406901AA19467E
:10B41000FFF793FBD8B94FF6FF739C421BD0019BFB
:10B42000CBB11B78CBB13388F42B18D8014610224E
:10B4300002A800F0B9FFAB88ADF8083002A90123DB
:10B440002046CDE904678DF80A30FFF7ACFE07B05F
:10B45000F0BD0E20FBE70520F9E70820F7E70720FD
:10B46000F5E710DF7047000013B504460949684648
:10B47000FCF79DFD019808B902B010BDD0E900218C
:10B480002046904718B16846FCF79BFDF2E7112073
:10B49000F2E700BF5CDC020013B5044607496846CA
:10B4A000FCF785FD019B0BB902B010BD2046D3E926
:10B4B000002190476846FCF784FDF3E774DC020046
:10B4C0000B4991F816335A09EC231341DB0706D5D3
:10B4D000084B9A683AB94FF480030B60704742F208
:10B4E0000200FBF77BBD1A6842F480021A607047C5
:10B4F00000E100E07C320020F7B5194F3C7864BBD6
:10B50000184E012520463570FFF7AEFF112821D0D7
:10B510002046FFF7C1FF144B8DF8034018680190D7
:10B520000DF10300FCF710F9104901A8FFF799FF8E
:10B530000446B0FA80F0400938709DF80300FCF72B
:10B5400027F93CB90A4B34701C70FFF7B9FF284645
:10B55000FFF7A2FF204603B0F0BD0824FAE700BFC2
:10B56000413D0020403D002055DC0200F96F020003
:10B57000423D0020014B1878704700BF413D00203C
:10B5800007B508496846FCF712FD019B13B903B0E3
:10B590005DF804FBD3E9002090476846FCF711FDF5
:10B5A000F3E700BF68DC0200FFF7EABF60DF704727
:10B5B00069DF704761DF704730B5114DADF5017D32
:10B5C0004FF4FA740DF1020103A8ADF80240FFF741
:10B5D000F1FF70B9294601A8FCF7E9FC029B002B9A
:10B5E000F0D003A8D3E90021904701A8FCF7E9FCBB
:10B5F000F4E7052801D0FBF7F1FC0DF5017D30BD26
:10B60000FCDE0200024B1B780BB1FFF7D5BF704781
:10B61000433D002030B5054685B00C46002900F0BA
:10B62000B5805B4B0B600C22002101A800F0BCFE32
:10B6300001238DF8063022688DF80450062301A9F5
:10B640002020ADF80830FFF7B3FF60B1FCF7E4FC51
:10B65000504B5149024651481B1ADB081B0443F06A
:10B660000100FBF7D9F90C22002101A800F09CFE93
:10B6700001238DF805302268002301A94020ADF890
:10B680000630FFF795FF60B1FCF7C6FC414B44491B
:10B69000024642481B1ADB081B0443F00100FBF77B
:10B6A000BBF90C22002101A800F07EFEF7232268DE
:10B6B0008DF8045001A92320ADF80630FFF778FF7C
:10B6C00060B1FCF7A9FC334B3649024633481B1ADC
:10B6D000DB081B0443F00100FBF79EF90C2200215C
:10B6E00001A800F061FE012022688DF8040001A984
:10B6F000FFF75EFF60B1FCF78FFC264B2A4902463C
:10B7000026481B1ADB081B0443F00100FBF784F9F1
:10B710000C22002101A800F047FE4FF4B06322681C
:10B72000019301A9A120FFF743FF60B1FCF774FC6E
:10B73000184B1E49024619481B1ADB081B0443F02C
:10B740000100FBF769F90C22002101A800F02CFE92
:10B750009DF8043022686FF3000301A9A0208DF842
:10B760000430FFF725FF034668B1FCF755FC094B91
:10B770000F49024609481B1ADB081B0443F001006D
:10B78000FBF74AF90023184605B030BD0E23FAE74F
:10B79000D82A0020C4CB020080DC02005CCB02006F
:10B7A000C6DC020012DD020059DD0200A5DD020048
:10B7B000F6DD020073B505460668FFF7F7FE2B6855
:10B7C000B34204461DD91A481A4B1B491B1ADB0801
:10B7D0001B0443F002000190FBF71AF92B6817498C
:10B7E00001983246FBF721F94FF080532A68D3F8CD
:10B7F0000C31134901989B0203F100539A1AFBF78D
:10B800000BF92CB90F4B01221A70204602B070BD03
:10B810002046FCF701FC074B0B49024604481B1A63
:10B82000DB081B0443F00100FBF7F6F8EDE700BF6F
:10B830005CCB0200C4CB020049DE020078DE0200CD
:10B84000A9DE0200433D0020D3DE02004BDF70473B
:10B850001FB50D4C01A8FFF7F9FF70B9214602A8EA
:10B86000FCF7A5FB039B002BF4D00198D3E9002142
:10B87000904702A8FCF7A5FBF4E7052801D0FBF7E9
:10B88000ADFB04B010BD00BF14DF020008B500F02E
:10B890003BF90E2000F0EAF960B10F4A0F4B104956
:10B8A0009B1ADB081B04024643F00300BDE8084076
:10B8B000FBF7B2B800F098F9024630B1074B0648E2
:10B8C00008491B1ADB081B04EEE7BDE8084002210B
:10B8D0000E2000F033B800BF5CCB02008CCB02001E
:10B8E00020DF020038DF0200FFF7D0BF0E2808B5C6
:10B8F00004D10C4B0C4A9A6006221A710B4A094873
:10B900000C21FBF7D5FB58B1094B0A480A49C01A6C
:10B91000C0080004BDE8084040F00100FBF778B81B
:10B9200008BD00BF102B002049BD0200799802001D
:10B930005CCB02008CCB020051DF020037B51E4BFE
:10B94000054698781C888DF8020033F8030FADF88F
:10B9500000409B78ADF8040002298DF8063019D01C
:10B96000012926D101A9BAB94A70144A2846FCF720
:10B970009BFE0446B8B1124B1248134A1349C01A31
:10B98000C008000440F003002346FBF74EF8E0B285
:10B9900003B030BD6946E6E7012AE5D0022A08D1A6
:10B9A00003234B70E1E728460121FCF7EFFE204618
:10B9B000EEE70720ECE700BF90DF0200EDB80200E1
:10B9C0005CCB02008CCB0200A8DF020072DF020019
:10B9D00008B5FCF75FFE70B9FCF71EFE064B074981
:10B9E000024607481B1ADB081B0443F00300BDE8AE
:10B9F0000840FBF711B808BD8CCB02007CDF0200C9
:10BA00005CCB02001FB50C4B0FCB6C4684E80F00DB
:10BA10001B201A214FF0C8638DE80B000023074854
:10BA20001A462146FDF7C8F808B1FBF7D7FA0348D4
:10BA3000FDF72EF904B010BD98DF0200C8DF020048
:10BA4000F0B50E4611461A46044602F1080085B0CC
:10BA500000F4FC7002AFADEB000D01330DF10900F5
:10BA60007B6002AD8DF8086000F075FC00227B68F9
:10BA7000009221462A460348FDF784FA0C37C0B2EB
:10BA8000BD46F0BDC8DF02007FB51E460023044658
:10BA900015468DF80F1000930146012307480DF15C
:10BAA0000F02FDF76FFA28B9044833462A462146AB
:10BAB000FDF77EFAC0B204B070BD00BFC8DF02005F
:10BAC00038B5044638B1054D45F001054FF47A40CC
:10BAD000A847013CFAD1002038BD00BFC0DF0200FA
