:020000022000DC
:1060000000000120756302005D6302005F6302000F
:106010006163020063630200656302000000000028
:1060200000000000000000000000000067630200A4
:1060300069630200000000006B6302006D630200F0
:10604000598402006F6302006588020025890200FE
:106050006F6302006F630200158702006F63020026
:106060006F6302006F6302006F6302006F630200E0
:106070006F6302006F6302006F6302006F630200D0
:106080006F630200297102006F6302006F630200F8
:10609000C57102006F63020099B402006F630200D1
:1060A0006F6302006F6302006F6302006F630200A0
:1060B0006F6302006F630200000000000000000038
:1060C0006F6302006F6302006F6302006F63020080
:1060D0006F6302006F6302006F6302000000000044
:1060E00000000000000000000000000000000000B0
:1060F00000000000000000000000000000000000A0
:10610000000000000000000000000000000000008F
:10611000000000000000000000000000000000007F
:10612000000000000000000000000000000000006F
:10613000000000000000000000000000000000005F
:10614000000000000000000000000000000000004F
:10615000000000000000000000000000000000003F
:10616000000000000000000000000000000000002F
:10617000000000000000000000000000000000001F
:10618000000000000000000000000000000000000F
:1061900000000000000000000000000000000000FF
:1061A00000000000000000000000000000000000EF
:1061B00000000000000000000000000000000000DF
:1061C00000000000000000000000000000000000CF
:1061D00000000000000000000000000000000000BF
:1061E00000000000000000000000000000000000AF
:1061F000000000000000000000000000000000009F
:10620000354936480A1A02D0072291438D4634494F
:1062100034480A1A06D00722914381F309880222E2
:1062200082F3148830483149314A00F044F831484B
:106230003149324A00F03FF831483249324A00F0E1
:106240003AF832483249334A00F035F83248334997
:10625000334A00F030F833483349344A00F02BF821
:1062600033483449344A00F026F83448344900228F
:1062700000F02CF833483449002200F027F8334866
:106280003349091A082902DB002202604160314AC1
:1062900090471F481F49884205D00268043003B464
:1062A000904703BCF7E700208646EC46002000211B
:1062B000294A9047FEE7884207D0521A05D0037852
:1062C00001300B700131013AF9D17047884202D098
:1062D00002700130FAE770470000012000E0002062
:1062E0000000012000000120B0DC0200D82A0020BC
:1062F000242B0020D0630200D063020004CC0200F3
:10630000B0DC0200D82A0020D82A002000CD0200EC
:1063100000CD020000CD020000CD020000CD020041
:1063200000CD020000CD020000CD0200AFDC020073
:10633000FCDC0200242B0020242B0020242B002036
:10634000D03B0020D03B0020D03B0020D03B0020A1
:10635000D05B00209D630200019B0200FEE7FEE788
:10636000FEE7FEE7FEE7FEE7FEE7FEE7FEE7FEE705
:1063700000F002B8FFF7FCBF0F484FF00701884359
:1063800085460E4880470E48016841F4700101605F
:10639000BFF34F8FBFF36F8FFFF732BF09480A4932
:1063A0000A4A884207D0521A05D0037801300B7090
:1063B0000131013AF9D1704700000120F97E020055
:1063C00088ED00E000CD0200D82A0020D82A002065
:1063D0007047000007B5044B0093044A402300F0C7
:1063E00032F803B05DF804FBF1630200252B0020B6
:1063F0002DE9F84388461446B2B10F4B0F4E0325E2
:10640000002743F00109224608EB0701002003F0B2
:1064100007FD0744241A48B933782BB14FF47A406A
:10642000C847013D02D13570BDE8F88301233370C0
:10643000002CE8D1F8E700BF00CD0200242B00209B
:10644000704703F021BDF0B595B01D4616460846CD
:106450000C4601F01FFC1A9B0D93CDE90865002541
:106460002B46082205A920460A958DF82C500C953C
:1064700001F02DFC079B0293069B03939DF81430BB
:106480008DF8115003F00302012A1DD1BDF814202C
:10649000059DC3F3C203C2F383168DF81030B2001A
:1064A00008230EA9204601F012FCC5F3952508AB80
:1064B0000093324602AB0EA9284600F057FB204657
:1064C00001F0ECFB15B0F0BD022AF8D1BDF8165072
:1064D000C3F3C203C5F389158DF810300827082DC2
:1064E0002E4628BF08263B4632460EA9204601F01C
:1064F000EEFBAD1B08AB02AA31460EA8374400F0F4
:1065000099FB002DEBD1DAE708B5FFF79AFF0448B5
:10651000042100F095FA034B01225A7108BD00BF17
:10652000F0CC0200D82A0020037813F0040216D021
:1065300003F00303012B03D0022B09D00120704785
:106540000A6800880232C0F3831002440A60F5E74B
:106550000B684288023303EB92130B60EEE71046A0
:10656000704700002DE9F04F87B000230446861CD9
:106570000DF107000F4615468DF8073001F01EF8A3
:10658000404A51683960936803F580735B1A9246FC
:1065900002F21C4702F5836902F21448B3421AD38F
:1065A0000020002D69D004F00F039B0143F0050388
:1065B00063F30F00DAF80430DAB203321E444AF80B
:1065C00022009DF80700CAF8046001F01BF80120C2
:1065D00007B0BDE8F08F0121384601F080F8484649
:1065E00001F098F8404601F095F8DAF808000290BA
:1065F000C0B203300AEB800002A9FFF795FF029BAF
:1066000030BBDAB20AEB8202D16803919A1C0133E3
:10661000DBB20AEB83030292D3F80CB001F0030360
:10662000012B22D0022B15D08346404601F075F88D
:1066300010B1029BCAF808305946384601F04FF8AD
:10664000DAF80830DAF8042003F580739B1AA5E71E
:10665000D8B2CEE7BDF80E30C3F3891303334FEA47
:106660001B4B02EB93030293DFE7BDF80C30C3F33F
:1066700083134FEA1B4B1344F5E7A40544F00600CF
:1066800098E700BF382C0020064B074810B50022C1
:106690001A7001F0B8FA044610B9044801F060FB22
:1066A000204610BD382C002064CC02003CCD0200F6
:1066B00030B50A4C71B10A4A0A49121BD2080023AC
:1066C0009A4201D1002030BD31F82350854202D0DA
:1066D0000133F5E7034654F83300F4E778CC0200C1
:1066E000F0CC0200D82A0020094B013903EBC0008E
:1066F000032909D8DFE801F00A02040604207047E4
:106700000079704740797047002070470220704739
:1067100078CC0200154B1B7837B504460BB918B975
:106720000024204603B030BD05F021FF0130009069
:1067300001230F486A4601A901F01BFB054600280A
:10674000EED12146009A019805F093FEDDE9002381
:106750001344074803F8015C009901F042FB0099DB
:10676000034801F055FB019CDBE700BF382C0020FB
:106770003CCD0200034BD3E90130C31A58425841C3
:10678000704700BF382C00202DE9F04186B0FFF79C
:10679000F1FF0546002840F0E680744CC4F8180468
:1067A000BFF34F8FA3680293DBB2033304EB830084
:1067B00002A9FFF7B9FE029B18B1D4F81824002AE9
:1067C00055D0DAB2991C013304EB8202DBB204EB40
:1067D0008303D268DB68049302F00303022B039265
:1067E00002914FD1BDF80E306148C3F38917502F85
:1067F0003E4628BF502666F38F1306F10801ADF818
:106800000E3001F018FA0546002800F0978001F0DC
:1068100041FA002303A90822284601F04EFA029902
:10682000CB43DBB20133C9B20331B6EB830F4FEA7E
:10683000830804EB810122D908234246A6EB08060F
:10684000284601F03AFAF6B24A4908F108033246FE
:10685000284601F032FA029B033703EB97070297B1
:10686000D4F81834002B41D1D4F8106451E0626898
:106870009A4299D8A260284606B0BDE8F081082364
:106880003246E5E7012B59D1BDF80C303848C3F347
:106890008311062928BF062161F38913023189007B
:1068A000ADF80C3001F0C7F90546002846D001F0DC
:1068B000F1F90023082203A9284601F0FEF9002679
:1068C000BDF80C20C2F38312B300964203F1080313
:1068D000C6D202994A1CC9B20331029204EB81016B
:1068E0000422284601F0E9F90136E9E7284601F0DB
:1068F000D5F9FFF73FFF80F00100C5B2BBE7F368B1
:106900005B7923B1336829461B6830469847F368A2
:106910001E68002EF3D1284601F0C0F90DF10700E2
:106920008DF8076000F04AFED4F818340BB9029BCA
:10693000A3609DF8070000F065FEDAE7D4F8104484
:1069400054B90D4B0D480E49C01AC008000440F060
:10695000020000F05DF8CCE7236820469B6898476A
:10696000E3681C68ECE7002585E700BF382C0020B1
:1069700064CC0200442C002078CC0200A8CC020099
:1069800024CD02002DE9F34704460E46924601A9A4
:10699000012218469946FFF7E5FD1B4F10B3019DF4
:1069A0004FF00008AA1CC84508EB020123D1174884
:1069B000002100F059FE80F31000000440EA14406A
:1069C000E4006B1C04F03804DBB2EDB244F00104C7
:1069D00007EB8303033544EA881444EA8624D8602D
:1069E00047F825403B781BB1FFF7CEFE0028FBD1CE
:1069F00002B0BDE8F087C9B207EB81015AF8283030
:106A0000CB6008F10108CEE7382C0020543000207C
:106A100000231A46FFF7B6BF07B50123019201AA6A
:106A2000FFF7B0FF03B05DF804FB07B5CDE9002325
:106A300002236A46FFF7A6FF03B05DF804FB0000DF
:106A400030B50F49D1F8102403460020144634B95C
:106A5000DC6820714AB9C1F81034226030BDE468A6
:106A60002579854206D02468F1E7D2681168216053
:106A70001360F3E701300A28E8D14FF0FF30EDE76B
:106A8000382C0020084A38B50123D2F8104413707E
:106A90001D4604B938BDE3685D71236820465B6814
:106AA0009847E3681C68F4E7382C002007B50346D4
:106AB0000846197A052911D05B7A2BB1094A0A498F
:106AC000019000F090FE01980849019000F08BFEC3
:106AD000019803B05DF804EB00F07ABE002AF8D00C
:106AE000F2E700BF48CD02002BD402006AD90200B1
:106AF00030B5C38885B004460D4633B1144A0092C0
:106B00001449154A284600F06EFE217A05291DD049
:106B1000637A4BB1A088FFF7E7FD104B104953F89B
:106B20002020284600F05FFE227A0E4BA08853F802
:106B3000222003920021FFF7BBFD039A0A49034676
:106B4000284605B0BDE8304000F04DBE05B030BD70
:106B500048CD020055CD02004DCD0200D4CD02003B
:106B60002BD40200F8CD02006DCD02002DE9F043D8
:106B700085B01F460C9D002395F80C902B7306469C
:106B80000C46904629463846FFF7B2FFB8F1060F8B
:106B900009D8DFE808F00412181F283340003146F6
:106BA000284600F020FE002229463846FFF77EFFE7
:106BB00085F80C9005B0BDE8F08322683146284680
:106BC00000F011FEEFE7D4E900233146284600F03B
:106BD0000AFEE8E7A36800933146D4E9002328467B
:106BE00000F001FEDFE7E3680193A36800933146FC
:106BF000D4E90023284600F0F6FDD4E72369029388
:106C0000E3680193A36800933146D4E90023284642
:106C100000F0E9FDC7E76369039323690293E36822
:106C20000193A36800933146D4E90023284600F07D
:106C3000DAFDB8E708292DE9F74F80460E461746DA
:106C40001C463CD8002593F80C901D73194610463D
:106C5000FFF74EFFDFF888A0DFF888B0AE4231D9E9
:106C600018F805205946204600F0BDFD0135082DD5
:106C7000F4D11949194DDFF870A0204600F0B3FD9A
:106C80004FF0000B5E4522D918F80B207E2A05D85C
:106C90001046019205F0C2FB019A00B92E2251461E
:106CA000204600F0A0FD0BF1010BBBF1080FE9D16C
:106CB000012221463846FFF7F9FE84F80C9003B014
:106CC000BDE8F08F5146204600F08DFDCEE7294605
:106CD000204600F088FDE6E781CD02007FCD02006E
:106CE0007DCD020077CD020083CD0200C30710B531
:106CF00007D4F023054A4008145C2340194311547B
:106D000010BD0901C9B20F23F4E700BF20310020F4
:106D100030B5094B1C78094B196800239C4202DCF2
:106D20000022104630BD11F83350854201EBC302FA
:106D3000F7D00133F2E700BFF030002030310020FF
:106D400013B504460191FFF7E3FF38B143682BB157
:106D50000199204602B0BDE81040184702B010BDAE
:106D6000034B044819680022490800F0CBBB00BF60
:106D7000F4300020F830002010B5C0B2FFF7C8FF93
:106D80000446007801F0BCFC63785A1E534253411C
:106D9000834208D1044BD3E90023134303D1BDE858
:106DA0001040FFF7DDBF10BD1831002037B5430894
:106DB000354AD35CC2074CBF1B0903F00F030446DE
:106DC0000D46042B35D8DFE803F003252C383C00B2
:106DD00079B30121FFF78AFF00230DF107008DF839
:106DE000073000F0EBFB0120A4F12003C4F12001E7
:106DF000264A20FA01F100FA03F30B43A040D2E93E
:106E0000004120430B43C2E900039DF8070000F056
:106E1000F9FB0EE0002918BF02212046FFF766FFAC
:106E200007E041B10321FFF761FF01212046FFF791
:106E300087FF03B030BD0121EFE70029F9D104211C
:106E4000EBE709B10321E8E7FFF750FF29462046A9
:106E5000FFF776FF0DF107008DF8075000F0AEFB4D
:106E60000120A4F12003C4F12001084A20FA01F115
:106E700000FA03F30B43A040D2E9004124EA0000EA
:106E800021EA0303BFE700BF2031002018310020B2
:106E90002DE9F041124E134F00243378A34208DC51
:106EA000114BD3E90023134318D0BDE8F041FFF79D
:106EB00057BF3D6805EBC40815F8340001F020FC0D
:106EC00098F801305A1E53425341181A4142414129
:106ED00015F83400FFF76AFF0134DEE7BDE8F08102
:106EE000F03000203031002018310020092AF7B599
:106EF00005460C4616463CD901F042FBD8B11E4B64
:106F00001E481D601E4B1F4F1C701F4B002110227E
:106F10001E6005F0D7FA1D4B00200021C3E90001D7
:106F2000013CE4B20326FF2C0BD1194A1948002179
:106F300000F0D6FA03E001F0E5FA0028DFD003B054
:106F4000F0BD9DF8063015F834008DF8046005EBAF
:106F5000C40223F007038DF8063001A993788DF859
:106F600005303A4601F016FB013CE4B20028DAD0C5
:106F7000E5E70720E3E700BF3031002020310020A3
:106F8000F0300020796D0200F4300020183100202C
:106F9000916E020018CE020070B5084D084E002414
:106FA0002B789C4201D3002070BD3368012113F877
:106FB000340001F061FB0134F2E700BFF030002043
:106FC000303100201FB50021039001AA44F20100D6
:106FD000CDE9011100F004F805B05DF804FB0000F4
:106FE00010B572B6FFF74EFDFFF7CEFB0028FBD1C0
:106FF000104B114C1149E41AE408240444F0010038
:10700000FFF706FD0E4B1B68DB0700D500BE0D49E0
:1070100044F00200FFF7FCFCBFF34F8F0A490B4B13
:10702000CA6802F4E0621343CB60BFF34F8F00BF26
:10703000FDE700BF78CC0200A8CC02001CCE020005
:10704000F0ED00E028CE020000ED00E00400FA05BB
:10705000094A537891780133DBB2994208BF002383
:10706000117899421FBF03705078182303FB00204A
:1070700014BF0430002070473431002073B505463A
:1070800000240DF107000E468DF8074000F096FA37
:107090000DF10600FFF7DCFF90B10670094B9DF87B
:1070A000062045605A709DF8070000F0ABFA24B93D
:1070B000054B4FF48012C3F80021204602B070BD8A
:1070C0000424F0E73431002000E100E0024B4FF4EB
:1070D0003C6043F00103184740CE020038B50E4B28
:1070E0004FF40032C3F88020BFF34F8FBFF36F8F90
:1070F0000A4C4FF480330125C4F84833C4F80833F0
:107100006560FFF7E3FF064BA56000241C60FFF7F6
:10711000DDFF044B1C7038BD00E100E000100140B1
:107120005032002041320020F8B51F4B1F491B6828
:107130000025C1F84051C1F84451C1F84851C1F887
:107140004C51C1F80051C1F804514BB3D1F804457A
:1071500017490968641A24F07F442F461A68A2422E
:1071600009D8A41A15441A7CDE691AB1D3E905209E
:107170001F749047AEB90F4A0F4B11781B788B42A2
:1071800005D10133DBB2022B08BF00231370127844
:107190000A4B43F822500A4B4FF48012C3F80021E7
:1071A000F8BD3346DAE700BF54320020001001403A
:1071B000503200204D3200204C320020443200205A
:1071C00000E100E02DE9F04FA24AA34913780978C5
:1071D000A24D994285B03CD00133DBB2022B08BFEF
:1071E000002313709E4912789E4B0F6853F82200BB
:1071F0003B1823F07F4300220B602B681646144691
:10720000944613B942B12B6006E0196881420ED949
:1072100002B12B60091A196001272B68DFF84CA214
:1072200001934FF00008BEB9DFF848B262E0401A9F
:107230000C44D968D3F81CE0C3F800C031B13A1946
:1072400022F07F42C3E90121DE611E46734601221E
:10725000D7E700263746E0E73446F669804A636898
:107260001268DFF814C2A068991A21F07F416145C5
:1072700000F2A88001442160012222742A680023C0
:10728000C4E90133E361002A40F0A5802C60CAE71D
:107290009BF802105A1CD2B291428BF8002004BF16
:1072A00000228BF80020182202FB03B32A68197908
:1072B0009C68022977D0032900F08180012919D127
:1072C000207CB8B9D3E90312A2605A69E2609A69D6
:1072D000654BA2611B78002B0CBF0B460346636015
:1072E000BCE78C4200F094808946C9690029F8D136
:1072F000002323749BF800309BF801209A42C7D1E9
:107300002B68B8F1000F04D1019A9A4201D1002FE5
:1073100043D0002B79D0D3F800A0544D504BD5F872
:1073200004751C68DFF854813E1B98F8003026F085
:107330007F4603369BB94FF48033C5F84433C5F814
:1073400004334B4B4FF40032C3F880211A604FF0E6
:107350000109C5F80090FFF7B9FE88F80090B24522
:107360002CBF5444A41924F07F44C5F84045D5F8F7
:107370000435DB1B23F07F43E41B033324F07F44FD
:10738000A3420AD9D5F80435C5F84035FFF79EFE6B
:10739000374B4FF40032C3F80021334B00221A70F0
:1073A00005B0BDE8F08F114691469FE71174D26990
:1073B0000123002AFAD1002B9CD02A609AE70023EF
:1073C0001946F6E7D31A23F07F43834234BFC31A2A
:1073D0000023236050E721681368994213D8591A93
:1073E0001160E26152E7091AD8691A4638B10346BA
:1073F00018688842F7D3401A18601846134621606F
:10740000E061DC610FE71346F2E7FFF767FEC4E7D0
:107410004C4511D1D3692B6073B9DFF844E00120EA
:10742000CDE90212CAF80800CEF800300E4B1870F1
:10743000FFF74CFEDDE902120B68C969C9F81C10A0
:1074400011B1086803440B602B68934218BF4FF0DA
:1074500001084DE74C3200204D320020543200200C
:107460005032002044320020403200200010014001
:1074700000E100E034310020FEFF7F0041320020B7
:1074800008B5FFF72BFE104B00200B2218809A70D6
:107490000E4B18600E4B18700E4B18700E4B4FF4BD
:1074A0008012C021C3F8802183F814131A6002F1FE
:1074B0008042A2F56F22C2F8080583F81113074B2A
:1074C000D2F804251A6008BD34310020543200205F
:1074D0004C3200204D32002000E100E0503200200C
:1074E000074B9B784BB132B128B10368187C20B9A7
:1074F00059745A617047072070470820704700BFD1
:10750000343100202DE9F743DFF88C8098F8023001
:1075100005460E461746BBB3B0B31C4B4A1F9A42F2
:1075200030D8436983B3437C0024012B0DF107005D
:107530000CBF8946A1468DF8074000F03FF80DF1D9
:107540000600FFF785FDD8B101230370104B45609D
:10755000D3F80435C0E90497C0E902369DF8063037
:1075600088F801309DF8070000F04CF824B9094B69
:107570004FF48012C3F80021204603B0BDE8F08329
:107580000424EFE70724F7E70824F5E7FAFFFF00F4
:107590000010014000E100E034310020064A9278FA
:1075A0003AB130B1426922B1002202740221FFF7E0
:1075B00065BD0820704700BF3431002070B5EFF37F
:1075C000108672B60C4A946801239CB993600B4BE9
:1075D0000B4DD3F8801029401160C3F88050D3F8C8
:1075E000841051604FF0FF32C3F88420047006B954
:1075F00062B670BD0370FAE75832002000E100E087
:10760000FC06FFBD084B9A6810B55AB150B9EFF3AC
:10761000108172B6054A1C6814605C6854609860FA
:1076200001B962B610BD00BF5832002000E100E091
:1076300001F01F024B090121914000EB830000F093
:107640002AB801F01F0301229A404B0900EB830086
:10765000D14300F038B84B0901F01F0150F8230066
:10766000C84000F00100704710B5034653E8000F12
:107670000A4643E8002494F0000FF7D110BD10B57E
:10768000034653E8000F40EA010243E8002494F067
:10769000000FF6D110BD10B5034653E8002F42EAA3
:1076A000010043E8000494F0000FF6D110BD10B5BE
:1076B000034653E8000F00EA010243E8002494F077
:1076C000000FF6D110BD10B5034653E8002F02EAB3
:1076D000010043E8000494F0000FF6D110BD10B58E
:1076E000034653E8002F02EB010043E8000494F046
:1076F000000FF6D110BD10B5034653E8002FA2EBE2
:10770000010043E8000494F0000FF6D110BD012100
:10771000FFF7B5BF0121FFF7BEBF0021FFF7C7BFCD
:107720000021FFF7D0BF10B590B1D0E90123016867
:107730009B1ADBB20A60013BDBB2FF2B026802D16D
:107740000020107110BD11684C1C14600B70F2E722
:107750000E20F7E737B5054600240DF107008DF838
:107760000740FFF72BFF2A686B68116899420ED912
:10777000481E106011F8014CEB68298A01FB0434A3
:10778000AB6811791B1ADBB2994238BF13719DF8AF
:107790000700FFF737FF204603B030BD37B5054679
:1077A00000230DF107000C468DF80730FFF706FFA8
:1077B0002A681368591C1160E968641A298AB4FBA5
:1077C000F1F41C709DF80700FFF71CFF03B030BDFB
:1077D000826810B504462AB1436901680069984778
:1077E0000023A36010BD0EB403B5039921B104AB0F
:1077F00001AA019300F076F802B05DF804EB03B043
:1078000070470A2938B504460D4602D10D21FFF70D
:10781000F8FFA3682268591CA160D554D4E901324D
:107820009A4204D32046BDE83840FFF7D1BF38BDA7
:107830002DE9F84F9846DDE90A43154682460F4682
:107840000A464FF00109AA420FD2C14538BFC146CE
:1078500013F0010B01D16CB900240126B8F1010F1E
:107860001BD908F1FF386E43F8E709F10109B2FBB3
:10787000F5F2E8E79B070ED5B8F1000F0CBF3026F4
:107880002026A145E9D2013C31465046FFF7B9FF19
:10789000002CF6D1E0E72026F3E7B7FBF6F39D4294
:1078A000E1D9DFF83C80B7FBF6F3504618F8031037
:1078B00006FB1377FFF7A5FF3346AB42B6FBF5F6A1
:1078C000F1D2BBF1000F02D00CB1A14501D3BDE84C
:1078D000F88F20215046013CFFF793FFF4E700BFEB
:1078E00046CE02002DE9F74F054617468846002987
:1078F00000F0428118F8011B49B92B7B002B00F0E6
:107900003B81284603B0BDE8F04FFFF761BF252952
:1079100040F0B780002698F800302D2B424608F141
:10792000010823D0302B24D02B2B25D000242A2B48
:1079300002F1010123D13B681A1D1B683A601C4407
:107940000A4613782E2B26D101324FF0000A10463A
:1079500010F8011BA1F1300CBCF1090F1DD80A234E
:1079600003FB0A13A3F1300A0246F0E746F00106D2
:10797000D1E746F00206CEE746F00406CBE711F861
:10798000013CA3F130000928DBD80A2202FB0434B1
:10799000303C0A46CBE74FF0000A12F8011B01F019
:1079A000FB0068289046F8D0782909D86F290CD8B0
:1079B000632962D022D8252963D0582900F0888015
:1079C00098F80030002B95D197E770390829F7D83F
:1079D00001A353F821F000BF537B0200C1790200DC
:1079E000C1790200E17A0200C1790200BF7A020087
:1079F000C1790200C1790200D17A0200642901D064
:107A00006929DDD13A68D2F80090111D89EAE9723E
:107A10003960A2EBE9724FF0010B092A35DCD3453E
:107A200038BFD3462CB1B9F1000F01DB720700D586
:107A3000013CB30702D5BAF1000F03D0F00701D41F
:107A40004CBB0024B9F1000F2DDAC9F100092D213A
:107A50002846FFF7D6FE06F00302022A04D1BAF147
:107A6000000F01D11CBB0024CDE9004653460A2279
:107A700049462846FFF7DCFEA2E73B681A1D197845
:107A80003A602846FFF7BDFE9AE70A230BF1010B87
:107A9000B2FBF3F2C1E7A345D4D220212846013C32
:107AA000FFF7AFFECCE77107D5D52B21D0E7A34573
:107AB000DAD230212846013CFFF7A3FED2E739682D
:107AC000CDE900460A1D3A6053460A220968D0E70C
:107AD00039680A1D3A60CDE9004653461022F5E7A1
:107AE0003B681A1D3A6016F00106D3F8009028D1C1
:107AF000B9F1000F03D0484604F039FD0646B44200
:107B000000D904BB09F1FF3919F8011F00293FF41E
:107B100057AF2846FFF775FEF6E728460136FFF710
:107B200070FE19F806100029F7D1A642BFF448AF3D
:107B3000002C3FF445AF20212846013CFFF761FEB1
:107B4000F3E70026EDE720212846013CFFF759FE28
:107B5000D5E73B681A1D3A60302128461C68FFF7BC
:107B600050FE78212846FFF74CFE00220823CDE97D
:107B70000032214610227CE703B0BDE8F08F00BF41
:107B80002DE9F84FB0F806A04579D2F800B09DF87D
:107B900028900AFB05F5043D88460BEB0301A9423A
:107BA00003F1040488BFA5EB030BB4FBFAF6074608
:107BB0000AFB1644C2F800B04EB9AAEB04055D45B5
:107BC00028BF5D46BBF1000F04D1BDE8F88F3F68C8
:107BD000013EF1E7043408EB06003C442A46B9F1C3
:107BE000000F0DD02146ABEB050B04F042FCDA454B
:107BF0002E443F6855464FF0000428BF5D46E1E73C
:107C000001462046EFE7FFF78EBDF8B546790146FD
:107C1000721E0546002393422D6803D30024A6421A
:107C200002D8F8BD0133F6E70F682846FFF7B6FD26
:107C300001343946F3E72DE9F843068ACD1C07469F
:107C4000FFF788FD043E35440446B5FBF6F5F0B178
:107C50004FF48073EDB28380C680013D076081469A
:107C60004FF00008A84512D23846FFF773FD0646CC
:107C700048B163790133637108F10108C9F8000064
:107C800007608146EEE72046FFF7BFFF34462046F7
:107C9000BDE8F88301210430FFF721BD10B50121B3
:107CA00004460430FFF727FD10F0FF0F04D12046F3
:107CB000BDE81040FFF7A9BF10BD1FB50392002219
:107CC000009203AAFFF75CFF05B05DF804FB1FB547
:107CD00003920122009203AAFFF752FF05B05DF85C
:107CE00004FB41DF70470000064B10B500241C70F8
:107CF000054B1C60BFF35F8F0449054800F099F8FD
:107D0000204610BD6C3200207032002060CE020090
:107D10006432002007B500230DF107008DF807300D
:107D2000FFF74CFCF1EE103A23F09F03E1EE103A1E
:107D3000BFF35F8F094B4022C3F884219DF80700F1
:107D4000FFF760FC03F08EFB20B1FFF7CAFF03B022
:107D50005DF804FB20BF40BF20BFF8E700E100E072
:107D6000836800225A60C3E904229A60DA601A60CC
:107D700070472DE9F0410646884617461D4683B9EF
:107D8000B0687368D0E9031403F1010C0A1B624563
:107D90000ED100243C6015B3FFF7C2FC0020BDE803
:107DA000F0818068FFF7B3FC0028E9D01120F6E7E6
:107DB00001EA030223409A4238BF64443B682CBF67
:107DC000ACEB0204641A9C4228BF1C4633683C603A
:107DD0001344C8F80030C3681C44C460DEE728467A
:107DE000DDE7034680685B68826810B5046901338B
:107DF00023449B1A8B4209D31144C0E90211FFF7B7
:107E00008CFC002814BF0020082010BD0420FCE7D3
:107E1000806808B582680369D21A8A4207D3194478
:107E2000C0E904110430FFF77BFC002008BD0420EA
:107E3000FCE70B684A684360934208BF0023016077
:107E400008BF43607047436843B102689168526855
:107E50000B449342436004BF00234360704700001B
:107E600010B50D49A1F59472914201D800200FE0A0
:107E70008C1AE30F03EBE4035B1002EBC30452F82C
:107E80003330834205D802D204F10802ECE760687F
:107E900010BD2146E8E700BF64D3020008B5FFF734
:107EA000DFFF024B002808BF184608BD26D202009B
:107EB000044B1868421C04BF034B1878831F5842B8
:107EC0005841704730010010E00F00F0074B1B785D
:107ED000062B09D1064B1B68C3F30313033B032B8B
:107EE00002D8044AD05C704700207047E00F00F0D1
:107EF000E80F00F06CD3020008B5FFF7D9FF28B1F6
:107F0000834B844A1B68C3F304231360FFF7DEFF2F
:107F100010B1814B814A1A60FFF7CAFF28B1804B2C
:107F2000804A1B68C3F342331360FFF7CFFF20B1D1
:107F30007D4AD36823F08073D360FFF7B9FF40B167
:107F40004FF080430022C3F80C21C3F81021C3F87E
:107F50003825FFF7BBFF10B1744B03221A60FFF7FF
:107F6000B5FF40B1724B05221A6001229A670022C8
:107F70009A603F225A606F4B1A68511C0BBF6E4BC0
:107F80006E4B1A781B6802BF08331B68C3F30313D8
:107F9000062A4DD1033B032B03D8694AD35C002B3F
:107FA00046D04FF08052674BD2F80414C3F8201526
:107FB000D2F80814C3F82415D2F80C14C3F8281505
:107FC000D2F81014C3F82C15D2F81414C3F83015D5
:107FD000D2F81814C3F83415D2F81C14C3F840159D
:107FE000D2F82014C3F84415D2F82414C3F8481565
:107FF000D2F82814C3F84C15D2F82C14C3F8501535
:10800000D2F83014C3F85415D2F83414C3F86015FC
:10801000D2F83814C3F86415D2F83C14C3F86815C4
:10802000D2F84014C3F86C15D2F84424C3F8702574
:10803000FFF73EFF28B1444B444A1B6803F04F034F
:108040001360FFF735FF48B14FF08043D3F80024A9
:10805000D20744BF6FF00102C3F80024354B1B6800
:10806000062B0CD1354B1B68033B032B02D8384A37
:10807000D35C23B1374A136843F480631360364AF4
:10808000D2F8883043F47003C2F88830BFF34F8FC2
:10809000BFF36F8F4FF01023D3F80022002A03DBC9
:1080A000D3F80432002B2FDA2C4B0122C3F804251D
:1080B000D3F80024002AFBD04FF010221521C2F87B
:1080C0000012D3F80024002AFBD04FF01023152211
:1080D000C3F80422214B1A46D3F800140029FBD020
:1080E0000021C3F80415D2F80034002BFBD0BFF3F5
:1080F0004F8F19491A4BCA6802F4E0621343CB60F0
:10810000BFF34F8F00BFFDE7164B174A1A6008BD3B
:10811000240300104035014074C007400DF0ADBA93
:10812000440200103C050040F0ED00E0A0050040D6
:108130001056004030010010E00F00F03401001034
:1081400064D3020000C0004058020010E40E00405A
:1081500068D302003C17004000ED00E000E0014061
:108160000400FA05E02A00200090D003054A4FF0F1
:10817000A043105CD3F8043523FA00F0C04300F0AC
:108180000100704774D30200044B1A5C0123934032
:108190004FF0A042C2F80C35704700BF74D3020004
:1081A000044B1A5C012393404FF0A042C2F80835FB
:1081B000704700BF74D3020008B50020FFF7F0FF3E
:1081C0000120FFF7EDFF0220FFF7EAFFBDE80840BE
:1081D0000320FFF7E5BF08B50020FFF7D5FF01201A
:1081E000FFF7D2FF0220FFF7CFFFBDE808400320D2
:1081F000FFF7CABF074A4FF0A041105CD1F8043521
:108200000122824022EA03001340C1F80805C1F8A8
:108210000C35704774D30200054A4FF0A043105C40
:10822000D3F8103523FA00F0C04300F00100704786
:1082300070D302000D2809D00E2809D00F2809D0CC
:1082400010280CBF03204FF0FF307047002070470C
:108250000120704702207047014B185C704700BF37
:1082600070D30200C20708B501460CD54FF0A043F9
:108270000322C3F84427C3F84827C3F84C27C3F8A0
:108280005027FFF799FF8B070AD54FF0A0430C2228
:10829000C3F83427C3F83827C3F83C27C3F840276E
:1082A00008BD000038B5074C051E04F1080318BFCF
:1082B0001C4623682BB11A6822605B6828469847E1
:1082C000F7E738BD7C32002020B9054B01225A70F7
:1082D000FFF7E8BF012802D1014A9070F8E7704724
:1082E0007432002020B9034B01225A70FFF7DABF25
:1082F000704700BF7432002038B50E4C2378B3B9F4
:108300000D486360A3602361E36000F073F80546E5
:1083100003F0A8F808B900F079F801232370074B9F
:10832000D3F800340BB10123A370284638BD85254E
:10833000F5E700BF74320020C9820200000001404E
:1083400037B50D4C00230DF107008DF80730FFF70E
:1083500035F9E368013BE360E36833B9074BD3F8D1
:10836000005415B900F064F8A5709DF80700FFF7F8
:1083700049F903B030BD00BF743200200000014055
:10838000012813B50CD0032820D038B9124B012294
:10839000C3F88020BFF34F8FBFF36F8F02B010BDC3
:1083A0000E4C00230DF107008DF80730FFF706F99A
:1083B00023780BB9FFF7A0FFE3689DF807000133AE
:1083C000E3600123A370FFF71DF9E7E700F01EF853
:1083D000FFF7B6FFE2E700BF00E100E074320020E3
:1083E00000F18040002382B0036003680193019B89
:1083F00002B07047044A137923B9012110609180BB
:10840000184670478520704788320020074B1A684D
:10841000D20704D4C02283F8002301221A604FF04F
:1084200080430122C3F81825704700BF00E100E037
:108430004FF0804208B50223C2F808334FF482702F
:10844000FFF7CEFF034B01211960D2F81834DB038C
:10845000FBD408BD0C000040124B1B6810B573B173
:108460004FF48070FFF7BCFF4FF080430122C3F848
:1084700008230D4B587910B95A711B6898470B4B5C
:108480001B6873B14FF48270FFF7AAFF4FF080436F
:108490000222C3F80823044BBDE810401B680120EA
:1084A000184710BD00010040883200200401004040
:1084B00000F1804000F5C040002382B003600368F3
:1084C0000193019B02B07047800000F1A040D0F8FA
:1084D000002722F44032C0F80027D0F8003743EAE2
:1084E0000141C0F800177047054B4FF0FF320728D5
:1084F00043F8202084BFC01880F84820704700BF90
:108500009032002010B51A4C94F858306BBB4FF0E5
:10851000FF3222FA03F1C90748BFE11803F1010352
:1085200048BF81F83020202BF3D10021C8B2FFF7DB
:10853000DBFF01310C29F9D1042200210D4803F0A1
:10854000C1FF0D4BC02283F8062340221A604FF46E
:10855000BE70FFF7ADFF094B4FF00042C3F8042394
:10856000012384F85830002010BD0820FCE700BF2C
:1085700090320020E432002000E100E00060004082
:10858000034B93F85800003818BF0120704700BF14
:1085900090320020F0B5364D2C1894F93040002C64
:1085A00064DA8C78C4F34004002C0BBF082300234A
:1085B0000C260826B34201D10420F0BD55F82370E3
:1085C00001373FD12E1845F8232086F8303014B9F2
:1085D000EA1882F848008A78540713D4D60733D5AE
:1085E000820002F1A042D2F8004724F00204C2F84F
:1085F0000047204EC20800F007070124BC40B75CCA
:108600003C43B4548A780C7812F0020225D09B00C7
:1086100003F1804303F5C0430202D3F8101521F49F
:10862000473121F44071C3F810152404D3F8101514
:1086300002F4F85204F4403422430A43C3F81025EC
:108640000020BAE70133B5E74C7800F5E0724FF04F
:10865000A046A40046F82240CBE7083B2B4493F801
:10866000501041EA841483F85040E9E70820A4E759
:1086700090320020E432002038B51F4C251895F9BF
:108680003020072A16DD224492F848309B09032B3C
:108690000BD14FF0A043D3F81015C14001F00101F8
:1086A0000231BDE83840FFF70FBF012B0CBF02219C
:1086B0000321F6E7D3B2072B1CD8930003F18043C4
:1086C00003F5C043D3F8100540F00100C3F81005CE
:1086D00002F14000800080B2FFF7EAFE51B195F947
:1086E000303054F823302BB1012303FA02F2034B4C
:1086F000C3F8042338BD00BF903200200060004062
:108700004FF0A043D3F8103523FA00F000F0010039
:10871000704700002DE9F74F00244E4D01944FF4AF
:108720008072012102F1804303F5C04390B21B68BF
:10873000012B06D1D5F804330B4202D0FFF7B8FE67
:108740000C430432B2F5907F4FEA4101EAD1424B2B
:108750001B68012B0CD14FF4BE70FFF7A9FE4FF040
:10876000A04344F00044D3F820250192C3F820250B
:1087700014F0FF0F1AD0394F00250126344210D0D3
:10878000AB0003F1804303F5C043D3F81005D3F8E1
:10879000101557F8253023B1C1F30141C0F304206F
:1087A00098470135082D4FEA4606E7D1002C48DAF4
:1087B0002A4D4FF0A0482A4E4FF00009012716F924
:1087C000013B5A1C31D0C3F3C20202A90A44DCB2F5
:1087D00012F8042C03F03F0A03F0070307FA03F32F
:1087E0001A4222D00AF5E073504658F82330C3F3FA
:1087F000014BBBF1020F0CBF03210221FFF764FE06
:1088000007FA0AF3C8F8203505EB0A0393F930306C
:1088100055F823304BB1A109032904D0BBF1020F55
:1088200012D1012901D15046984709F10109B9F146
:10883000040FC4D1D8F820350193C8F82035002B97
:10884000B9D103B0BDE8F08FBBF1030FEDD1022920
:10885000E8E700BF006000407C61004090320020EB
:10886000E0320020014B1B68184700BFEC320020AB
:108870000E4B984237B50C4602D0002003B030BDF5
:1088800000230DF107008DF80730FEF797FE084B27
:108890001D7915B901221C601A719DF80700FEF7B9
:1088A000B1FE002DE9D01120E8E700BF0020004014
:1088B000EC3200200023435082B043580193019BC7
:1088C00002B070470B7B032B2AD8DFE803F0222687
:1088D0001A028B685A0304D5D0F84C350A699A42BB
:1088E00007D18B685B031BD4D0F84C354A699A4298
:1088F00016D000230622C0F80035C0F8002518461F
:108900007047D0F84C350A699A42F2D1D0F83C351C
:10891000ECE7D0F84C350A69E9E7D0F83C35FAE7DE
:1089200001207047F0B55A485A4CD0F8243187B02E
:108930000546F3B14FF49271FFF7BCFFD0F8043154
:10894000BBB9A368C0F808330223A360A368C0F8CA
:108950000433D0F860311BB1D0F800329F0503D446
:108960004B4B01221A625A61012384F82E3007B062
:10897000F0BDD5F80431002B52D045484FF4827138
:10898000FFF798FF236A5E060AD494F82E303BB9AD
:1089900040493F48FFF796FF80F0010084F82E0021
:1089A000236A5D0721D43C4E0FCE01AD0FC533685D
:1089B00037482B604FF4B071FFF77CFF34484FF419
:1089C000AE71FFF777FF94F8303013B194F82E3082
:1089D0005BB12F4B0022C3F80022A2602F4AC3F8DC
:1089E00008232F4B0822C3F88021294AD2F8C43427
:1089F000C2F8C43498073DD501238DF8003094F8AF
:108A000030300BB984F82F30236A5B0703D594F814
:108A10002E30002BABD0D4E9003168469847A6E74A
:108A20001B484FF4A471FFF745FF237B83B91A4F0E
:108A30000FCF01AE0FC63B68336094F83030002B87
:108A4000D3D1C5F80032A360144BC5F80833C8E78A
:108A50004FF40073C5F8003240F20223A36003F123
:108A6000CE73C5F80833A368C5F804330123AB609F
:108A70002B627CE7590701D50223BEE7DA0701D54F
:108A80000323BAE794F82E30002BB6D00423B4E7C2
:108A900000300040F43200200033002002029C012C
:108AA00000E100E02DE9F84F0679304D4FF0340A2F
:108AB0000AFB06FA05EB0A079B4697F82D3080461D
:108AC0000C469146002B4DD129490068FFF7D0FE96
:108AD000002849D12168637B87F8323001F5E072C4
:108AE0004FF0A043B860C7F804B087F82F0087F8AC
:108AF000300040F20C6745F80A9043F82270626833
:108B000002F5E07C43F82C70D8F80030C3F8081563
:108B1000C3F80C25A268C3F82425B9F1000F14D0BE
:108B2000227B43F3073152010029C3F30733D2B24A
:108B300013DB104C671887F800230122490903F062
:108B40001F0302FA03F344F82130342303FB0655D4
:108B5000012385F82D30BDE8F88F074903F00F0396
:108B6000CA54F2E70820F6E71120F4E7F4320020B7
:108B70002589020000E100E014ED00E002680379BD
:108B80000621C2F80015044A342101FB0323022206
:108B900083F82D20704700BFF43200202DE9F84300
:108BA000B14F90F804900468342606FB0976002340
:108BB00086F82E30CB6803F06043B3F1005F0D46BA
:108BC000904603D010263046BDE8F883A74BC4F882
:108BD000083396F82F3023B1B368C4F80433112654
:108BE000F1E712F0140F0CBF0123002386F82F3099
:108BF0008E46BEE80F0006F10C0CACE80F00DEF864
:108C00000030CCF80030C8F3001386F83030C6F8D6
:108C100020806B78C4F8883520464FF48271FFF7C6
:108C200049FE4FF49271FFF745FE4FF4B071FFF724
:108C300041FE4FF4A471FFF73DFE18F0010318BF89
:108C40000123C4F8503518F0020318BF0123C4F8FB
:108C500040352B78032B00F2B480DFE803F0839FCC
:108C600068022B6903F06043B3F1005FAAD14FF4AF
:108C70008073C4F80032EA686B68C4F844254FF486
:108C8000A871C4F84835FFF715FE01232362A360DD
:108C9000D4F85031002BFBD04FF4A8712046FFF7D9
:108CA00009FEAB682A69C4F84425C4F84835342362
:108CB00003FB09734FF480229A600823002618F002
:108CC000080F04D12A78032A1CBF0122E250342362
:108CD00003FB09F3FA18FB58002B75D10125D4F8D2
:108CE0004821D4F80431002B40F08880003A18BFA6
:108CF0000122D4F82431002B00F087804FF49271C8
:108D00002046FFF7D7FDD4F86011D4F8003209B13E
:108D1000980504D4256265610029E0D00022DB05B6
:108D200073D54FF4A4712046FFF7C4FDD7E76B68F5
:108D3000EA68C4F84425C4F848352B6903F060425A
:108D4000B2F1005F7FF43EAFAA68C4F834354FF447
:108D50008453C4F83825C4F80032342303FB097364
:108D6000022212E06B68EA68C4F8442518F0200F6C
:108D7000C4F848354FF034030BD04FF48072C4F878
:108D8000002203FB09734FF480229A6001232362BF
:108D900093E74FF40072C4F80022DFE76B68EA68DB
:108DA000C4F83425C4F838354FF48053C4F8003281
:108DB000342303FB097302229A60012323620023F8
:108DC0007CE7082307267AE718F0040F1CBF00236E
:108DD000936018F0400F06D1342303FB09739A689F
:108DE00042F002029A60342303FB0977BB6843F424
:108DF0000073BB60BB68C4F80433E4E64FF48271CF
:108E00002046FFF757FD012273E7002A3FF467AFC2
:108E10003421D4F8C434C4F8C43401FB09720020EE
:108E200082F82F0093B113F0010F14BF4FF40246E4
:108E3000032648F2012213F0020F18BF164613F062
:108E4000040F48F2022318BF1E46BCE618F0400F7C
:108E50007FF4B9AE09FB01712046FFF733FD00280E
:108E600008BF0326AFE600BFF432002002029C01D7
:108E700010B586B00024CDE902349DF820308DF87D
:108E80000510A342CDE9042401A914BF20222246E3
:108E90008DF80440FFF782FE06B010BD10B586B015
:108EA000012402930023CDE903328DF805101A4600
:108EB00001A98DF804400593FFF770FE06B010BDC0
:108EC0000220FFF797B900002DE9F04780460D46D4
:108ED000FFF7B0F90328044610D8012D10D0022D59
:108EE00030D05DB91A48FEF759FB1A4B04EB440227
:108EF00013449E78184B1B5DB34219D0BDE8F08730
:108F0000144D00EB4002A918AE5C4A78470052B1FC
:108F1000DFF84C900E484A464FF40041FEF7F2FA53
:108F200008B989F800803B192B449A780A4B1A55E6
:108F3000002EE3D0094B1B68002BDFD03046BDE884
:108F4000F047184700EB4004024804446678EFE716
:108F50004C3300208C330020A5330020A0330020A8
:108F60002833002000780221FFF7AEBF08B5094B77
:108F70001B7853B10020FFF713F90120FFF710F918
:108F8000BDE808400320FFF70BB9BDE80840FFF734
:108F900013B900BF29330020F8B57B4C2378054670
:108FA0001BB100232370FFF7E1FF172D00F288802B
:108FB000DFE805F00C17174354657680888D888D9F
:108FC000959A9A9A9A9AC4C9D1D9E4E4FFF7CEFF48
:108FD0006E48FEF7E3FA6E4B002204461A702046F4
:108FE000F8BD0020FFF7C2F8F8B10020FFF7D8F86D
:108FF000022D0CBF4FF4E1614FF47A61644B1D7098
:109000004FF400404FF4FA740025E0FB01454FF4A3
:109010007A7200232046294603F00CF9002201460B
:10902000BDE8F8405948FEF76DBAFFF7ADF8022DDC
:109030000CBFC8214FF4C871E0E70020FFF796F895
:1090400040B10020FFF7ACF84FF44871504B0322B9
:109050001A70D5E7FFF798F8C821F7E70020FFF767
:1090600085F838B10020FFF79BF84FF47A61484B40
:109070000422EDE7FFF788F84FF4C871F7E7002006
:10908000FFF774F848B10020FFF78AF8404B05223B
:109090001A7041F69A110022C2E7FFF775F8F5E75A
:1090A0000020FFF7A7F83A4B06221A70002240F67C
:1090B000CD41B5E70020FFF767F8354B07221A705E
:1090C00000248CE701202070FFF794F8EEE70120E0
:1090D0002070FFF78FF800224FF48041A0E7FFF7E0
:1090E0007AF82B4B0C22EAE72A482B4EFEF756FA69
:1090F000D5F1110504461CD0D8B9012D13D0C823D1
:109100005D434FF400474FF4FA7000214FF47A7238
:109110000023C7FB050103F08DF8224601461D48D8
:10912000FEF7F0F904460220FFF72EF80123337012
:1091300055E70220FFF734F80023F8E7FFF716FFA2
:10914000134B1222BBE7FFF711FF0020FFF71CF8BB
:109150000F4B1322B3E7FFF709FF0120FFF714F8C5
:109160000B4B1422ABE7FFF701FF0020FFF70CF8D1
:109170000120FFF709F8064B1522A0E7FFF72BF8AF
:10918000034B1D709CE700BF9C3300206C33002014
:10919000A43300202C33002029330020044B1B680B
:1091A000DB0703D5034B1878FFF7F6BE704700BF07
:1091B00098330020A4330020032801D8FFF72CB8EF
:1091C00000207047044B1B6813F0010301D0FFF728
:1091D000E3BE1846704700BF9833002038B51C4BDB
:1091E00018601C4B10F00204054619601AD01A4B87
:1091F0001A480E221A700F22DA7010229A71112268
:109200005A72042140F26662FDF770FE044648B9C6
:10921000FDF7C2FE044628B90146114A1148FEF77F
:109220005FF90446EB0711D50120FFF71BF86CB975
:1092300021460D4A0D48FEF753F9044630B9BDE802
:1092400038400B4A0B480121FEF74AB9204638BD89
:1092500098330020A03300208C330020A0D30200DC
:10926000658F0200C4D302009D910200C8D30200A2
:10927000C18E0200C0D30200032811D8012A0AD1EE
:1092800001290FD100F10E02D2B20D4B00EB4000CC
:109290001A54002070470129F7D0022904D049B19F
:1092A000072070470022F8E7054B00EB4000184408
:1092B0004270EEE7024B00EB400018448270E8E792
:1092C0008C330020032808B512D8FEF7C5FF8000B4
:1092D00000F1A040D0F8003723F44033C0F8003745
:1092E000D0F8003743F44033C0F80037002008BD01
:1092F0000620FCE708B5012202210020FFF7BCFF91
:1093000008B1072810D1072202210120FFF7B4FF7E
:1093100008B1072808D100210A220846FFF7ACFF50
:1093200010B1072808BF002008BD00000388102BDB
:1093300010B502D0112B1ED010BD1A4C2168B1B946
:1093400001220846FFF798FF08B1072824D1072219
:1093500002210120FFF790FF08B107281CD1042249
:1093600002210020FFF788FF08B1072814D12368E5
:1093700001332360E0E70B4A1368013B1360002BC5
:10938000DAD1FFF7B7FF0028D6D0074B1B68002BB8
:10939000D2D0BDE810401847034B1B68002BE6D025
:1093A0009847E4E7B0330020AC33002008B5002034
:1093B000FFF788FF08B1062806D10120FFF782FFDA
:1093C00010B1062808BF002008BD00000D4B10B5E5
:1093D00018600C4629B10120FFF7EEFE40B10223D0
:1093E0002370094B1B6853B9BDE81040FFF782BFDB
:1093F000FFF7E2FE08B10B23F2E72070F1E700204F
:1094000010BD00BFAC330020B033002076DF7047C2
:109410007ADF70477CDF70477FDF70478FDF7047F0
:10942000B1DF704733DF7047FDF7CCBD08B50020D2
:10943000FFF7C8FE08B1FDF7C5FDFFF7B7FF08B19C
:10944000FDF7C0FDFFF7EEFF18B1BDE80840FDF7DE
:10945000B9BD08BD0388212B13B504463DD007D8FC
:10946000112B2BD0132B40D0102B0CD002B010BDE1
:10947000522B42D0562B01D03B2BF7D1A088132181
:10948000FFF7C4FF15E0214B21482249C01AC0084C
:10949000000440F00300FDF7BBFA0720FFF792FE3F
:1094A00008B1FDF78FFD1C4BA1881C48198001F005
:1094B00093FD0028DAD0FDF785FDD7E7134B14485C
:1094C0001749C01AC008000440F00300FDF7A0FAD5
:1094D000114B4FF6FF721A80C8E7002301A980885C
:1094E000ADF80430FFF79AFFE3E70B4800231A4674
:1094F00085210088FFF790FFDBE7074800231A4625
:1095000019460088FFF78CFFD3E700BF78CC020034
:10951000A8CC0200CCD30200E82A00201438002096
:10952000D6D302000C4B4A881B889A4212D10A8873
:1095300040F677239A420DD1084A09488B88094999
:10954000801A033BC0089BB200041A4640F0030097
:10955000FDF76BBA704700BFE82A002078CC020004
:10956000A8CC0200E3D3020008B503784BB9054B41
:109570003B211888FFF74AFF18B1BDE80840FDF706
:1095800021BD08BDE82A0020072808B513D00A2805
:109590000DD0042819D10D4B13211888FFF736FF81
:1095A00030F0080311D0BDE80840FDF70BBDBDE861
:1095B0000840FFF73BBF054B1A884FF6FF739A42EE
:1095C00003D1034801F0B9F8EAE708BDE82A002012
:1095D000C833002008B548B103280BD10220FFF79B
:1095E000F1FD38B1BDE80840FDF7ECBCBDE808402E
:1095F000FFF71CBF08BD000008B50378022B03D19C
:10960000094B01221A7008BD012BFCD1074B0848F9
:10961000084A0949C01AC008000440F00300FDF7D9
:10962000FBF9014B0022EDE75A38002078CC02000C
:10963000A8CC020074D40200FFD30200FDF7C2BC24
:109640002DE9F3471C4EADF8061032884FF6FF7334
:109650009A4207462CD0194B1B78012B28D1184D64
:10966000184BDFF86480DFF86490DFF864A0ED1A2F
:10967000ED082D0445F0030533880DF10602394647
:10968000404601F033FE044690B103464A46514637
:109690002846FDF7CAF9082C0AD0132CECD0052C6B
:1096A00006D043F201439C4202D02046FDF78AFCDB
:1096B00002B0BDE8F08700BFE82A00205A38002039
:1096C000A8CC020078CC0200EC2A002068D402006A
:1096D00010D4020000000000F8B57B4C2288002A5C
:1096E00000F0BF8079490A88002A00F0BA80784BE0
:1096F0001A88002A00F0B580322A0DD1B0F9002076
:10970000002ABCBF47F6FF720280B0F90220002A8F
:10971000BCBF47F6FF7242801A886423B3FBF2F3A2
:1097200007EE903A038807EE103A2388F8EEE77ABE
:10973000B8EE477A06EE903A27EE277AF8EEE66A18
:1097400087EE267AB5EE407AF1EE10FA17EE104A5F
:1097500000F08A80438807EE103A0B88B8EE477A0B
:1097600067EE277A07EE103AB8EEC77AC7EE877A27
:1097700007EE104A17EE905AC7EE877A17EE900A56
:1097800002F014FD3AA3D3E9002306460F4602F087
:10979000C9FCE0B1204602F009FD37A3D3E900235C
:1097A00002F03EFB064628460F4602F0FFFC34A3BB
:1097B000D3E9002302F034FB02460B46304639461B
:1097C00002F02AFB02F00CFD00EE100AF8BD2EA3F9
:1097D000D3E900233046394602F0A4FC80B120468C
:1097E00002F0E4FC2AA3D3E9002302F019FB0646A9
:1097F00028460F4602F0DAFC27A3D3E90023D9E775
:1098000027A3D3E900233046394602F08BFC80B110
:10981000204602F0CBFC24A3D3E9002302F000FB96
:10982000064628460F4602F0C1FC21A3D3E90023D7
:10983000C0E721A3D3E900233046394602F072FC89
:1098400090B1204602F0B2FC1DA3D3E9002302F040
:10985000E7FA064628460F4602F0A8FC1D4B0022F8
:10986000A8E7BFEE000AB1E79FED1B0AAEE700BF15
:109870000AD7A3703D0AE33FB6F3FDD478E9FA3F77
:10988000D578E9263108FE3F3D0AD7A3703DF03F69
:10989000CFF753E3A59BE43F4C37894160E5C03FD8
:1098A0006F1283C0CAA1F53FFED478E92631E83FA4
:1098B000B4C876BE9F1ACF3F068195438B6C084093
:1098C000508D976E1283E83FC43B0020C63B0020BA
:1098D000C83B00200000D03F0000000070B52DED17
:1098E000048BA2B000240DF10F0104A80494ADF87C
:1098F00014400694ADF81C4001F080FF9DF8102044
:109900009DF81130584D43EA0223ADF81830BDF8E8
:109910001230D5ED038A95ED029AD5ED019A95EDB9
:10992000008AC5ED048A5BBAC3F30723ADF81A3089
:10993000BDF8143085ED018A5BBAC3F307230DF13E
:109940001A00ADF81C3085ED039AC5ED029AFFF7B9
:10995000C3FE85ED000A38EE000A444BBDF818201E
:109960001E885D8899881A8030EE298AF1EE047A83
:1099700038EE098A324438EE288AD8881881C8EE31
:10998000278A2A440A449D80D9805E80104402F0D0
:10999000F9FB374B002202F0DFFA02F0DFFB102266
:1099A000214685B209A8089402F08CFD1A222146AE
:1099B0000EA80D9402F086FD2E22214616A81594BD
:1099C00002F080FDF5EEC08AF1EE10FA48D5FFEE08
:1099D000007AF4EEE78AF1EE10FA41DD254ADFED78
:1099E000266A2649BDEEE87AF5EEC08AF8EEC77A17
:1099F000F1EE10FACCBF78EEE77A77EEE87A17EE60
:109A0000103A67EEA67A0DA8FDEEE77A0024CDEDB8
:109A1000007A02F008FD1A492A4608A802F003FD60
:109A20000DAB184908AA15A802F0FDFC15AB13F8F8
:109A3000012BBAB915A8FCF76DFE134B134902466A
:109A400013481B1ADB081B0443F00300FCF7E4FF78
:109A5000A1B215A8FFF7F4FD22B0BDEC048B70BDD8
:109A60000C4ABCE70134E2E7B43300205038002050
:109A7000000014401CD402000000C8421ED40200A2
:109A8000CFD9020028D40200A8CC02002BD40200B7
:109A900078CC02006CD9020008B50849084801F0EA
:109AA00087F908B1FDF78EFA0548F72101F094F91E
:109AB00018B1BDE80840FDF785BA08BD259502003C
:109AC000FC37002008B5FEF717FC18B1BDE80840C8
:109AD000FDF778BA08BD0000044B054A1A60054A34
:109AE0005A60054A9A60054ADA607047403800209B
:109AF00045BA02008DBA0200C5BA0200E5BA0200FA
:109B000000B54FF40041ADB00020FCF7BDFD08B139
:109B1000FDF758FAFCF7F8FCFDF7B2FC08B1FDF7C9
:109B200051FA6A4A6A480121FDF7DAFC08B1FDF7EB
:109B300049FA684800224FF48041FDF7E3FC08B180
:109B4000FDF740FAFFF7BEFF01F044FF01F05CFFB4
:109B5000FFF7C2FF604802F03BF860490320FFF7BF
:109B60003DFB08B1FDF72EFA01A90020FFF72EFCFE
:109B700008B1FDF727FAFEF7B7F808B1FDF722FAAA
:109B800001F032FC08B1FDF71DFA002301A9012004
:109B9000019301F0B7FC08B1FDF714FA01A801F038
:109BA00081FD08B1FDF70EFA11234D488DF8003004
:109BB00002F0DDFC4A4982B26846FFF72BFC08B18F
:109BC000FDF700FA0021082201A802F07BFC4549BC
:109BD0004FF0C87301A8CDE90113FFF719FC08B1D4
:109BE000FDF7F0F9FFF758FF3F4B4048019301A9FB
:109BF00001F0E0F908B1FDF7E5F90021042268461B
:109C000002F060FC3A4B3B480093694601F0F4FADD
:109C100008B1FDF7D7F9AC22002101A802F052FCEF
:109C200002238DF804304FF4A063334AADF80630B8
:109C30000123ADF8503015928DF88030402244F267
:109C40005063CDE923232D482D4B2A9301A900F021
:109C5000B4FB08B1FDF7B6F92848012100F0AAFBD2
:109C60001C22002101A802F02DFC00234FF4203219
:109C7000CDE90132ADF812304FF470228DF8143076
:109C8000204B0392069303221F4B8DF8102001A84E
:109C9000079300F06FFE08B1FDF794F91B4B1C48C9
:109CA0001C49C01AC008000440F00300FCF7B0FED5
:109CB0001248032100F000FC08B1FDF783F9FCF71E
:109CC00063FD0028FBD1FEF725F8F8E7DD980200D8
:109CD00088D40200203800204038002089950200F6
:109CE0002ED40200C80090012994020014380020EC
:109CF000F9950200EC2A0020E42A0020C833002055
:109D0000D5950200699502003D96020078CC0200CC
:109D1000A8CC020038D402000369C1688B429DBF01
:109D20008268D21802F1FF3203F1FF3394BF501A58
:109D3000581A70472DE9F843D0E902940546A9EB7B
:109D400004084068904520440F46144404D902F0AA
:109D500090FBEC60BDE8F8834246A4EB090402F0F6
:109D600088FB6868224607EB0801F0E72DE9F84315
:109D7000C5680646894617464FF000083469B3683F
:109D80007068A54228BFE418013C621B5C1BBC4202
:109D900028BF3C46944228BF1446494628442246E0
:109DA00002F067FBB3682544AB4208BF00253F1BA8
:109DB000A044A144F560E1D14046BDE8F88300002D
:109DC00010B5114C114AA2610223C4E90433104BAF
:109DD000E361A2644FF400730E4A0F492362E26408
:109DE00000231022E01DA3626362E362A365636542
:109DF000E365226502F099FB0849204602F095FBD5
:109E00002023A37110BD00BF5C3800208CD4020059
:109E1000E4380020D438002095D4020099D4020000
:109E2000F8B5184C182300FB033503FB004025440C
:109E3000C46A012C0F4616460FD0022C1AD0F4B972
:109E40002846FFF769FF864205D83246394628463C
:109E5000FFF770FF34462046F8BD2846FFF75CFF49
:109E60008642344628BF0446224639462846FFF734
:109E700061FFF0E72846BDE8F840FFF777BF002410
:109E8000E9E700BF5C380020FFF79ABF6DDF70473D
:109E900079DF70477DDF704764DF70472DE9F04F51
:109EA00085B000250E9CBDF83CB0B4F800A001912F
:109EB000074690461E46A9463A884A450DDC45B1FC
:109EC0002388013BA3EB0A039BB2FF2B3AD806F889
:109ED0000A30002005B0BDE8F08F7A6852F82900FA
:109EE000039000220DF10B0103A8FFF7D5FF002816
:109EF000F0D19DF80B20424521D12288002D14BFBE
:109F00000020022002EB0801014459451ADC3DB94A
:109F1000013292B2019B2280B35422880132228006
:109F200022880DF10B01324403A8FFF7B5FF00288A
:109F3000D0D121889DF80B200A442280012509F107
:109F40000109B9E70C20C5E72DE9F341089FBDF8E9
:109F500024801546CDE90078022204461E46FFF70C
:109F60009DFF50B93346102229462046CDE9087896
:109F700002B0BDE8F041FFF791BF02B0BDE8F0814B
:109F80002DE9F04F00231788138090F82D3085B00D
:109F900006460D46144653B3082F01D80C2027E17E
:109FA00002A8FFF773FF002840F0228123880822CF
:109FB000EA54238801339BB21B222380EA54208871
:109FC000013080B2208006220DF10901284402F000
:109FD00050FA23889DF8082006339BB212F0FE0247
:109FE00018BF01222380EA54238801332380B378E9
:109FF000FBB123880433BB42D0D802A8FFF748FF47
:10A00000002840F0F58023880322EA542388013396
:10A010009BB219222380EA542388BDF8082001331B
:10A020009BB2E9182380EA54120A4A70238802334B
:10A030002380F2789AB12388D91CB942AED8022184
:10A04000E954238801339BB201212380E9542388FA
:10A050000B449BB22380EA5423880B44238072680C
:10A06000AAB12388D91CB94298D8022192F90020BC
:10A07000E954238801339BB20A212380E9542388C1
:10A0800001339BB22380EA54238801332380338930
:10A09000002B40F0A180338A5BB1CDE900472B460D
:10A0A0000722032106F11000FFF74EFF002840F0C1
:10A0B0009F80338B5BB1CDE900472B4615221421DD
:10A0C00006F11800FFF740FF002840F09180326A47
:10A0D000002A40F09080D6F82480B8F1000F30D0EC
:10A0E000B8F804302188981C8A1C0244BA423FF612
:10A0F00055AFFE283FF652AF03336B54238801332C
:10A100009BB2FF222380EA54238801339BB2238031
:10A11000B8F80020EA54E918120A4A702088023080
:10A1200080B22080B8F804205AB1D8F8081000296D
:10A130006BD0284402F09DF92388B8F8042013441A
:10A14000238096F82C30002B40F09A80307800283D
:10A150004ED03388012B58D0228802F1020CBC4526
:10A160003FF61CAF012805D17378023313449F4298
:10A17000FFF414AF023FBF1ABFB202A905EB0C00F7
:10A18000ADF80870FFF786FE90BB3178BDF8083057
:10A19000022900F0BA8072789A4202D3BB4240F2A0
:10A1A000B280012940F0B380974293B2C0F0AF80F3
:10A1B000ADF808300821BDF80830FE2B3FF6EEAEB2
:10A1C00022880133AB542288013292B22280A954F2
:10A1D0002288134423800BE0CDE900472B4606225A
:10A1E000022106F10800FFF7AFFE00283FF453AF4D
:10A1F00005B0BDE8F08FB4F800C00CF10603BB4217
:10A200003FF6CCAE1188052901D80720F0E76FF49E
:10A21000486E01EB0E039BB24FF27D3E7345F4D9BD
:10A220005388052BF1D96FF44860181880B2704537
:10A23000EBD94FF6FF70814203D0834201D099429F
:10A24000E3D8052305F80C30238801339BB2122193
:10A250002380E954238801339BB223801188E95479
:10A26000E818090A4170238802339BB22380528880
:10A27000EA54E918120A4A702388023323802AE735
:10A28000B36A002BC1D04FF000094FF00C0A4FF019
:10A29000160B96F82C305FFA89F293427FF656AF90
:10A2A000B16A0AFB02F201EB0208B8F80430981C0C
:10A2B000FE283FF673AE208803332B5423880133E6
:10A2C0009BB2238005F803B0238801339BB223801F
:10A2D0008A5AEA54E918120A4A702088023080B279
:10A2E0002080B8F804205AB1D8F8081000298CD082
:10A2F000284402F0BEF82388B8F8042013442380D1
:10A3000009F10109C5E7092155E7BB42FBD9ADF8C1
:10A3100008704FE730B5C8B1F2B10024651C8D421A
:10A3200006DA1588A54212D805196D789D420ED11E
:10A33000A14211D9005D48B1013880B230B1023478
:10A34000A3B210FA84F4A14206DB138030BD055D90
:10A3500001352C44A4B2E1E70020F7E713B513461A
:10A360000022ADF806200DF106020446FFF7D2FFE9
:10A3700010B1BDF80630E01802B010BD72DF7047B2
:10A3800073DF704774DF704738B5012204460D460D
:10A39000B0F81414D0F81004FFF7E0FF00B1057016
:10A3A00004F13C0204F5826104F15400BDE8384038
:10A3B000FFF7E4BF80F830107047F8B504460F4649
:10A3C000002975D0002873D091F87A301BB191F82C
:10A3D0009830002B6ED1D7F8A030042B6AD0D7F874
:10A3E0009C30042B66D04FF0000C84F802C007F1BB
:10A3F00078060FCE251D0FC50FCE0FC596E80700B6
:10A4000085E8070084F830C0D7F8A4306363D7F834
:10A41000A830A3634FF6FF7504F58263C4F82034B7
:10A42000A4F824540722614604F2264002F04AF8B8
:10A4300023780BB984F8545094F82430002B14BFBF
:10A44000EE231F2304F15501C4F81014A4F81434AA
:10A4500004F214423846FFF793FD40BB94F82430D1
:10A46000002B14BFEE231F2304F23121C4F818146B
:10A47000A4F81C3404F21C4207F13C00FFF780FDF5
:10A48000A8B9A369A4F848304FF480730125A4F853
:10A49000503063692064014684F83C50636404F1E1
:10A4A0003C0204F15400FFF769FF00B92570F8BDC4
:10A4B0000E20FCE70720FAE7F8B5077804460D46BA
:10A4C000002F00F0038100F2264681700722002150
:10A4D000304601F0F7FFE38813B1A378012B04D0D5
:10A4E000E3794BB1A378022B06D1636BA3B10122B0
:10A4F00084F82D2408209847334604F22C4113F8A1
:10A50000012F12B99942FAD117466B1E032B51D86D
:10A51000DFE803F0050B0F1284F82D34ECE7A37984
:10A520001BB194F8243003B95FB9E3790BB1002F64
:10A5300042D1237A002B41D1637A002B0CBF002536
:10A540000425636BA570002B3AD0033D012D37D84D
:10A550006279AAB394F82E2492BB84F830240122A5
:10A5600084F82F240720984704F13C051822002185
:10A57000284601F0A7FFE26A531E0121022B28BFE3
:10A580000A4684F8512094F8242084F83C1032B113
:10A59000A36A581E022828BF0B4684F85230A178BF
:10A5A000002384F8503004291BD8DFE801F0770D30
:10A5B000223559000025C4E70225C2E70325C0E77C
:10A5C000002384F82F34CFE7C4E91063C4F82034A3
:10A5D0000223012284F83C30802384F83120A4F83F
:10A5E0004830A378002B5CD1636B002B6AD100202C
:10A5F00067E00223002A84F8313014BF07230323C5
:10A6000084F83C302369A4F848300023C4F820348F
:10A61000E36826646364E4E763696364A369A4F898
:10A62000483012B1062384F83C306379B3B194F812
:10A630002E349BB994F8303483B1022384F850301F
:10A6400004212046FFF7A0FE0028CAD1052384F884
:10A65000313004F58263C4F82034C2E70323F6E7FF
:10A66000E3696364236AA4F8483012B1062384F8CE
:10A670003C30637983B194F82E346BB994F830345C
:10A6800053B1022384F8503004212046FFF77CFEAA
:10A690000028A6D10623DAE70423D8E784F831306E
:10A6A0009FE7D4F820142A4604F15400FFF766FE11
:10A6B00038B994F8301094F85400FFF761FE002880
:10A6C00092D0F8BD94F83100984790E70820F8E759
:10A6D0000388112B10B50C460AD0262B1FD0102B47
:10A6E00005D1C37B012B02D18388A1F8243410BD8E
:10A6F0000022838881F82E24B1F824249A42F6D1CE
:10A700000B79002BF3D101212046FFF7D5FE00285D
:10A71000EDD0A36B002BEAD0BDE810401847037AB8
:10A72000013B012BE3D8897805230131B1FBF3F319
:10A7300003EB8303C91AC9B2E6E738B5044690F8BB
:10A740005400FFF71FFE012384F82E34002384F801
:10A75000303484F8503006212046FFF715FE0546B8
:10A7600038B9A1782046FFF7A7FE10B1A36B03B15B
:10A770009847284638BD75DF704776DF70477ADF27
:10A7800070477BDF70470000034B1A8882420CBF82
:10A7900018460020704700BF003B0020024B9B6919
:10A7A00003B11847704700BFE43A002073B585B283
:10A7B0002846FFF7E9FF044670B1164E027A337B54
:10A7C0009A420BD200F10A012846FFF7D4FFE8B104
:10A7D000112801D0FFF7E2FF02B070BD0023037221
:10A7E000337C43B13B212846FFF7C7FF30F0080315
:10A7F00001D0FFF7D3FF7369002BEDD000228DF855
:10A800000420ADF8065001A89847E5E7237A013304
:10A810002372E1E7E43A002037B50B46497A0F4A44
:10A8200071B9D2E901141D7A0246002D18BF2146E4
:10A830005868FCF767FE08B1FFF7B0FF03B030BD02
:10A84000002119725369002BF8D00122ADF80600DF
:10A850008DF8042001A89847F0E700BFE43A0020F3
:10A860004B8802889A4213D842889A4210D3808833
:10A870008A8840F2F313984294BF031AC31A934292
:10A8800006D800F2F310904234BF00200120704738
:10A89000002070470388122B70B5014659D004D8A8
:10A8A000102B1ED0112B44D070BD502BFCD12F4B40
:10A8B000C288DB899A42F7D1038A022BF4D18688B9
:10A8C0003046FFF761FF05460028EDD001F1120088
:10A8D00000F079F938BB6868FCF760FE0028E3D027
:10A8E00009E0C37B012BDFD14FF6FF70FFF74CFF70
:10A8F000054620B90420BDE87040FFF74FBF1C4A51
:10A900008E880680002303721368C0F80A305368EB
:10A91000C0F80E3010310A30FFF7A2FF134B6872F7
:10A92000DB89002BC0D129463046BDE87040FFF7D7
:10A9300073BF8088FFF728FF04460028B4D0406822
:10A94000FCF72CFE08B1FFF729FF4FF6FF732380B9
:10A95000AAE786883046FFF717FF05460028A3D0F0
:10A9600008310A30FFF77CFF6872DCE7E43A002028
:10A97000143B0020F8B5064648B305460FCD154FE9
:10A980003C460FC495E8070084E807003068124C85
:10A990003C60B0B1FFF7F3FEC0B9326813682360C2
:10A9A000536863600D480E4A4FF6FF7303800D4BEA
:10A9B00040F8043F0021FCF793FD002818BF032056
:10A9C00004E02046FFF7DDFE0028EBD0F8BD0E20A6
:10A9D000FCE700BFE43A0020143B0020003B0020CD
:10A9E000ADA702001C3B00200AB1FCF721BEFCF71A
:10A9F00028BE73B50191019C06466CB100252C461A
:10AA0000294601A8FCF727FE18B106EB44030134E0
:10AA10009D800135142DF3D13046346002B070BDF5
:10AA20002DE9F04703888488103B8CB005460A2B3B
:10AA30001FD8DFE803F0063F1E1E1E1E1E1E1E60EE
:10AA40004400314EB368DB43009371686846FCF7FD
:10AA50003AFE009901A8FFF7CCFF0DF108094FF06D
:10AA60000008019B984507D3132C13D90420FCF749
:10AA7000A9FA0CB0BDE8F08739F802AB002701371E
:10AA8000514606EB8700FCF7DCFD1E2FF7D108F1DD
:10AA90000108E6E71D482146FCF7CAFD1C4821468F
:10AAA000FCF7C6FDEB7B022BE3D11A482146FCF7ED
:10AAB000BFFDDEE715482146FCF7C3FDD9E7027A62
:10AAC00015483F2A4FEA1215214694BF0022012261
:10AAD000FFF78AFF022D94BF002201220F48214672
:10AAE000FFF782FF012D0E4894BF0022012221466C
:10AAF000FFF77AFFBDE7037A002BBAD1427A064806
:10AB0000C2F3C0022146F3E73C3B0020443B002057
:10AB1000403B0020483B0020543B0020503B00209D
:10AB20004C3B00201328014602D80248FCF793BD95
:10AB300000207047403B002010B50446FFF7F2FFAD
:10AB4000002814BF2046142010BD70B505461646D7
:10AB500008460AB90E2070BD00231360002DF9D0FD
:10AB60002B68002BF6D0EB8813F003040ED1FFF70F
:10AB7000E3FFC0B214280BD02B7983420AD9EB88AB
:10AB80002A6800FB032030602046E4E70720E2E764
:10AB90000520E0E70420DEE7AADF70470023013844
:10ABA0000B70042806D8DFE800F00306080A0C0042
:10ABB00011230B7070472123FBE73123F9E71223A0
:10ABC000F7E72223F5E7007800F001007047F0B5C1
:10ABD0008B7891B0012B0C4638BF01238DF80E30D5
:10ABE00005460B88ADF80C30002116466846032256
:10ABF00001F068FC607C6946FFF7D0FFA07C0DF196
:10AC00000101FFF7CBFFE27B237B217D43EAC203F7
:10AC1000227C43EA02139DF80220002922F0190247
:10AC200003F0190314BF02210121134361F342030E
:10AC30001C22002109A88DF8023001F043FC637B3F
:10AC400013F0300F15D002AF03220021384601F077
:10AC500039FCE07C0DF10901FFF7A0FF11238DF80D
:10AC600008309DF80A300E97012262F342038DF8F6
:10AC70000A30637B8DF824301422A37B8DF82530B5
:10AC8000002104A801F01EFC03AB0493A388ADF8D7
:10AC90001C30A368CDF814D01BB1E288ADF81820A1
:10ACA0000893A369002B31D001AF0322002138465D
:10ACB00001F008FCA3691A88ADF82C205A88ADF879
:10ACC0002E205A680D97187B0A923946FFF766FFC7
:10ACD000A3690DF10501587BFFF760FFA269917A26
:10ACE000137A43EAC103D17A927B43EA01139DF8B8
:10ACF0000610002A03F0190321F0190114BF0222E3
:10AD000001220B4362F342038DF80630E36903B17D
:10AD10000C93334604AA09A92846FFF73DFF11B05A
:10AD2000F0BD90DF7047A5DF7047B5DF70470000CA
:10AD30007FB50023ADF80810ADF80A106A4602A9E5
:10AD4000064603930093ADF80430FFF7EAFF05468B
:10AD500000B3124B124CE41AE408FDF79FF82404E8
:10AD600044F0010403460F4932462046FBF75DFEDE
:10AD7000BDF80020BDF8023052EA030103D00A49B1
:10AD80002046FBF752FEBDF804201AB107492046C1
:10AD9000FBF742FE284604B070BD00BF78CC02002D
:10ADA000C8CC0200A0D40200EAD4020029D50200D7
:10ADB00080B14FF0F7130360FB230371F723C380C7
:10ADC0001723038141F6FB32002301614381828115
:10ADD000184670470E20704730B1A1F11703E02BE1
:10ADE00004D80180002070470E207047072070476C
:10ADF00013B5034680880C46B8B91A88242A00F097
:10AE0000968014D8112A71D0232A00F09E80102A2F
:10AE10003BD0A37A4BB1E1880020FFF784FF0028E4
:10AE200040F099804FF48073638102B010BD3A2ADC
:10AE300065D0552AEDD1DB88C988A072172B38BFA1
:10AE400017238B4228BF0B462381FFF76EFF60B1AB
:10AE5000FDF724F8484B4949024649481B1ADB08CC
:10AE60001B0443F00100FBF7D7FDE37A002BD0D1A0
:10AE70002369002BCDD040F6772200922289ADF8CD
:10AE80000420694620469847C3E7DB7B0A790A73AA
:10AE9000012B13D0022B14D0E18823898B4205D2D9
:10AEA0000020FFF740FF70B90123E372217B637B31
:10AEB0008B42AED20020FFF73BFFAAE70B88E3806E
:10AEC000EAE74B88FBE7112802D10123A372EDE7E3
:10AED000FCF7E4FF284B2B49024629481B1ADB08E4
:10AEE0001B0443F00100FBF797FDDFE7F723CB805E
:10AEF00017230B8141F6FB3348818B8189E75B89FE
:10AF0000CA88934228BF1346172B0A6938BF1723F4
:10AF10000B814AB1C97A39B140F677210091ADF879
:10AF200004306946204690470023638171E71A7A0E
:10AF30000B694A73002B3FF46CAF4DF67A218DF804
:10AF4000050000918DF804209BE7197A237B994234
:10AF500028BF1946AFE711283FF467AFFCF79EFF03
:10AF6000054B0849024606481B1ADB081B0443F040
:10AF70000100FBF751FD58E7C8CC0200B0D5020034
:10AF800078CC02007FD50200B0DF704766DF7047E3
:10AF900010B5002104464088FFF7F8FF034608B9C2
:10AFA000237210BD112801D10123F9E76368BDE8C0
:10AFB0001040184760B159B10378DE2B0AD00B68F6
:10AFC0004360DE2303704FF6FF7343800020704719
:10AFD0000E2070470820704728B10378DE2B04D17B
:10AFE0004180002070470E20704708207047F0B560
:10AFF000054685B00C46F1B1E8B10B78DE2B1AD1CD
:10B0000082884B889A4204D10B7A13B10846FFF725
:10B01000BFFF2B88112B32D0512B0ED0012B0AD120
:10B020002B7A012B07D1A9886288914203D1237220
:10B030002046FFF7ADFF05B0F0BDAE886388B34290
:10B04000F9D1AF79022FF6D1AD7B2B1F022BF2D8AD
:10B0500000211022684601F035FA052D14BF4FF487
:10B06000C0730023694630468DF80070ADF8043097
:10B07000FFF78AFF0028DED063689847DBE7638824
:10B08000AA889A4204BF4FF6FF736380D3E7A8DF14
:10B090007047ADDF7047AEDF704762DF704700007A
:10B0A00070B505468AB00C4649B140B10388502BB3
:10B0B0004BD006D8102B12D0112B00F097800AB07D
:10B0C00070BD572BFBD18188606902AAFFF73DFD57
:10B0D0000146002875D0474B01221A70EFE781889E
:10B0E0006069002601AA0196FFF72FFD082231466C
:10B0F0000DEB020001F0E6F90223218AA888CDF8C1
:10B100000CD002AA0293FFF7C4FF0028D7D1A3698D
:10B11000002BD4D00398FFF756FD0028CFD0019B19
:10B120000BB101221A701822002104A801F0CAF9FB
:10B1300002238DF81030AB88ADF81830019B0793CF
:10B14000A369059404A89847B9E78188606902AAB1
:10B15000FFF7FBFC1822002104A801F0B3F9AB882B
:10B160002189ADF81830EB88029A0594994207922C
:10B1700017D12E8A022E14D1002AA0D005F1120078
:10B18000FFF721FD029B38B101221A708DF8106083
:10B19000A369002BD6D192E7187003238DF81030E5
:10B1A000F6E7A2899A428AD1A369002B87D00022B0
:10B1B0008DF8102005F1120208922A8AADF8242099
:10B1C000C0E7029B1B78002B85D0182204A801F051
:10B1D00079F901238DF81030AB88ADF81830029B57
:10B1E00007930594A36904A8984774E7014B0022CC
:10B1F00073E700BF5A380020F0B53A4B8FB002AD6C
:10B2000004460A4603F1100C2F46186859682E466A
:10B2100003C6083363453546F7D1002C5FD0002ABA
:10B220005DD01368A36121463846FFF736FF00283A
:10B2300053D12246012512F8023B8DF8063001A9B0
:10B240002846ADF80450FFF722FF002845D10146FB
:10B25000202206A801F036F922460223ADF8183064
:10B2600012F80C3B8DF81A30BDF824301E4E608861
:10B27000079623F44F6323F00F0343F440632B43FB
:10B2800006A9ADF824308DF829508DF82A50FFF723
:10B290009EFC10BB0146202206A801F013F92246AD
:10B2A0000323ADF8183012F8043B8DF81A30BDF8BE
:10B2B00024306088079623F4875323F01F0343F458
:10B2C00080532B43ADF8243006A940F201138DF8CA
:10B2D0002950ADF82A30FFF77AFC0FB0F0BD0E20F0
:10B2E000FBE700BFF4D50200F4000100F0B50F4603
:10B2F00087B016461C46054618B3406901AA194690
:10B30000FFF723FCD8B94FF6FF739C421BD0019B7B
:10B31000CBB11B78CBB13388F42B18D8014610225F
:10B3200002A801F0CFF8AB88ADF8083002A90123DC
:10B330002046CDE904678DF80A30FFF7ACFE07B070
:10B34000F0BD0E20FBE70520F9E70820F7E707200E
:10B35000F5E710DF7047000013B504460949684659
:10B36000FCF767FD019808B902B010BDD0E90021D3
:10B370002046904718B16846FCF765FDF2E71120BA
:10B38000F2E700BF10D6020013B50446074968462D
:10B39000FCF74FFD019B0BB902B010BD2046D3E96D
:10B3A000002190476846FCF74EFDF3E728D60200DF
:10B3B0000B4991F816335A09EC231341DB0706D5E4
:10B3C000084B9A683AB94FF480030B60704742F219
:10B3D0000200FBF7F7BD1A6842F480021A6070475A
:10B3E00000E100E058320020F7B5194F3C7864BB0B
:10B3F000184E012520463570FFF7AEFF112821D0E9
:10B400002046FFF7C1FF144B8DF8034018680190E8
:10B410000DF10300FCF7D2F8104901A8FFF799FFDE
:10B420000446B0FA80F0400938709DF80300FCF73C
:10B43000E9F83CB90A4B34701C70FFF7B9FF284695
:10B44000FFF7A2FF204603B0F0BD0824FAE700BFD3
:10B45000B93B0020B83B00200CD60200E16F02008F
:10B46000BA3B0020014B1878704700BFB93B002061
:10B4700007B508496846FCF7DCFC019B13B903B02B
:10B480005DF804FBD3E9002090476846FCF7DBFC3D
:10B49000F3E700BF1CD60200FFF7EABF60DF70478A
:10B4A00069DF704761DF704730B5114DADF5017D43
:10B4B0004FF4FA740DF1020103A8ADF80240FFF752
:10B4C000F1FF70B9294601A8FCF7B3FC029B002BE1
:10B4D000F0D003A8D3E90021904701A8FCF7B3FC02
:10B4E000F4E7052801D0FBF76DFD0DF5017D30BDBA
:10B4F000B0D80200024B1B780BB1FFF7D5BF7047E5
:10B50000BB3B002030B5054685B00C46002900F055
:10B51000B5805B4B0B600C22002101A800F0D2FF2C
:10B5200001238DF8063022688DF80450062301A906
:10B530002020ADF80830FFF7B3FF60B1FCF7AEFC98
:10B54000504B5149024651481B1ADB081B0443F07B
:10B550000100FBF761FA0C22002101A800F0B2FF04
:10B5600001238DF805302268002301A94020ADF8A1
:10B570000630FFF795FF60B1FCF790FC414B444962
:10B58000024642481B1ADB081B0443F00100FBF78C
:10B5900043FA0C22002101A800F094FFF72322684F
:10B5A0008DF8045001A92320ADF80630FFF778FF8D
:10B5B00060B1FCF773FC334B3649024633481B1A23
:10B5C000DB081B0443F00100FBF726FA0C220021E4
:10B5D00001A800F077FF012022688DF8040001A97E
:10B5E000FFF75EFF60B1FCF759FC264B2A49024683
:10B5F00026481B1ADB081B0443F00100FBF70CFA7A
:10B600000C22002101A800F05DFF4FF4B063226816
:10B61000019301A9A120FFF743FF60B1FCF73EFCB5
:10B62000184B1E49024619481B1ADB081B0443F03D
:10B630000100FBF7F1F90C22002101A800F042FF04
:10B640009DF8043022686FF3000301A9A0208DF853
:10B650000430FFF725FF034668B1FCF71FFC094BD8
:10B660000F49024609481B1ADB081B0443F001007E
:10B67000FBF7D2F90023184605B030BD0E23FAE7D8
:10B68000D82A0020D8CC020034D6020078CC0200A0
:10B690007AD60200C6D602000DD7020059D70200A2
:10B6A000AAD7020073B505460668FFF7F7FE2B68B8
:10B6B000B34204461DD91A481A4B1B491B1ADB0812
:10B6C0001B0443F002000190FBF7A2F92B68174915
:10B6D00001983246FBF7A9F94FF080532A68D3F856
:10B6E0000C31134901989B0203F100539A1AFBF79E
:10B6F00093F92CB90F4B01221A70204602B070BD8D
:10B700002046FCF7CBFB074B0B49024604481B1AAB
:10B71000DB081B0443F00100FBF77EF9EDE700BFF7
:10B7200078CC0200D8CC0200FDD702002CD8020051
:10B730005DD80200BB3B002087D802004BDF70477A
:10B740001FB50D4C01A8FFF7F9FF70B9214602A8FB
:10B75000FCF76FFB039B002BF4D00198D3E9002189
:10B76000904702A8FCF76FFBF4E7052801D0FBF730
:10B7700029FC04B010BD00BFC8D80200034B1B68F1
:10B7800013B19B6803B1184700207047C03B0020ED
:10B7900038B143682BB103681BB1034B186000201C
:10B7A00070470120704700BFC03B0020044A126868
:10B7B0001AB1D2680AB100B110470020704700BF2B
:10B7C000C03B0020FFF7F2BF10B4064C24682CB138
:10B7D00064681CB1A4465DF8044B604701205DF825
:10B7E000044B7047C03B002013460A4601460248FE
:10B7F0000078FFF7E9BF00BFBC3B002070B5022214
:10B8000005460E4601464420FFF7EEFF044620B1F0
:10B810000B48FFF7D7FF204670BD0222A91846202B
:10B82000FFF7E2FF04460028F2D10222291D48203A
:10B83000FFF7DAFF04460028EAD106233370EAE76F
:10B84000D4D8020010B4064C24682CB124681CB172
:10B85000A4465DF8044B604701205DF8044B704737
:10B86000C03B002013460A46014602480078FFF715
:10B87000E9BF00BFBC3B0020164B1B6807B5A3B156
:10B88000154B18700220FFF779FF012201A9402013
:10B89000FFF7AAFF68B19DF8043003F03F030A2BBD
:10B8A00014BF0E480E48FFF78DFF012003B05DF86E
:10B8B00004FB0C48FFF786FF012201A99220FFF745
:10B8C00093FF0028F2D19DF80430E02BEED006481B
:10B8D000E9E700BFC03B0020BC3B0020EFD80200DE
:10B8E00009D9020021D902003CD9020007B5C623BC
:10B8F00001220DF1070141208DF80730FFF7B2FF5B
:10B90000431E5842584103B05DF804FB07B50023BD
:10B9100001220DF1070142208DF80730FFF7A2FF49
:10B92000431E5842584103B05DF804FB13B5012291
:10B930000DF107014320FFF757FF0128044605D109
:10B940000A48FFF73FFF204602B010BD9DF80730C0
:10B95000012243F001030DF1070143208DF8073068
:10B96000FFF780FF431E5C425C41ECE709D902000F
:10B9700007B5052301220DF107014A208DF8073094
:10B98000FFF770FF012803D1012003B05DF804FB2D
:10B990000F2301220DF107014C208DF80730FFF72E
:10B9A00061FF0128F0D0FF2301220DF107014B2098
:10B9B0008DF80730FFF756FF431E58425841E4E721
:10B9C0000139012904D8022A8CBF072000207047C2
:10B9D0000720704708B5FCF7D3FD70B9FCF792FD5E
:10B9E000064B0749024607481B1ADB081B0443F0B5
:10B9F0000300BDE80840FBF70FB808BDA8CC020063
:10BA00005CD9020078CC02001FB50C4B0FCB6C4602
:10BA100084E80F001B201A214FF0C8638DE80B004B
:10BA2000002307481A462146FDF73CF808B1FBF70A
:10BA3000C9FA0348FDF7A2F804B010BD70D902009E
:10BA400088D90200F0B50E4611461A46044602F1A6
:10BA5000080085B000F4FC7002AFADEB000D0133BF
:10BA60000DF109007B6002AD8DF8086000F001FD6A
:10BA700000227B68009221462A460348FDF7F8F928
:10BA80000C37C0B2BD46F0BD88D902007FB51E4656
:10BA90000023044615468DF80F100093014601233C
:10BAA00007480DF10F02FDF7E3F928B904483346C2
:10BAB0002A462146FDF7F2F9C0B204B070BD00BFBE
:10BAC00088D9020038B5044638B1054D45F0010566
:10BAD0004FF47A40A847013CFAD1002038BD00BF9E
