:020000022000DC
:1060000000000120756302005D6302005F6302000F
:106010006163020063630200656302000000000028
:1060200000000000000000000000000067630200A4
:1060300069630200000000006B6302006D630200F0
:10604000719402006F6302006998020031A302009C
:106050006F6302006F630200199702006F63020012
:106060006F6302006F6302006F6302006F630200E0
:106070006F630200919902006F6302006F63020078
:106080006F630200ED6A02006F6302006F6302003B
:10609000896B02006F630200D92603006F63020060
:1060A0006F6302006F6302006F6302006F630200A0
:1060B0006F6302006F630200000000000000000038
:1060C0006F6302006F6302006F6302006F63020080
:1060D0006F6302006F6302006F6302000000000044
:1060E00000000000000000000000000000000000B0
:1060F00000000000000000000000000000000000A0
:10610000000000000000000000000000000000008F
:10611000000000000000000000000000000000007F
:10612000000000000000000000000000000000006F
:10613000000000000000000000000000000000005F
:10614000000000000000000000000000000000004F
:10615000000000000000000000000000000000003F
:10616000000000000000000000000000000000002F
:10617000000000000000000000000000000000001F
:10618000000000000000000000000000000000000F
:1061900000000000000000000000000000000000FF
:1061A00000000000000000000000000000000000EF
:1061B00000000000000000000000000000000000DF
:1061C00000000000000000000000000000000000CF
:1061D00000000000000000000000000000000000BF
:1061E00000000000000000000000000000000000AF
:1061F000000000000000000000000000000000009F
:10620000354936480A1A02D0072291438D4634494F
:1062100034480A1A06D00722914381F309880222E2
:1062200082F3148830483149314A00F044F831484B
:106230003149324A00F03FF831483249324A00F0E1
:106240003AF832483249334A00F035F83248334997
:10625000334A00F030F833483349344A00F02BF821
:1062600033483449344A00F026F83448344900228F
:1062700000F02CF833483449002200F027F8334866
:106280003349091A082902DB002202604160314AC1
:1062900090471F481F49884205D00268043003B464
:1062A000904703BCF7E700208646EC46002000211B
:1062B000294A9047FEE7884207D0521A05D0037852
:1062C00001300B700131013AF9D17047884202D098
:1062D00002700130FAE770470000012000E0002062
:1062E000000001200000012038B40300E42B00204E
:1062F0005C2C0020D0630200D0630200185C030015
:1063000038B40300E42B0020E42B0020FC5D0300E4
:10631000FC5D0300FC5D0300FC5D0300FC5D03000D
:10632000FC5D0300FC5D0300FC5D030038B403006A
:10633000B0B403005C2C00205C2C00205C2C0020FE
:106340002049002020490020204900202049002029
:10635000206900209D63020011CB0200FEE7FEE7EA
:10636000FEE7FEE7FEE7FEE7FEE7FEE7FEE7FEE705
:1063700000F002B8FFF7FCBF0F484FF00701884359
:1063800085460E4880470E48016841F4700101605F
:10639000BFF34F8FBFF36F8FFFF732BF09480A4932
:1063A0000A4A884207D0521A05D0037801300B7090
:1063B0000131013AF9D1704700000120D9D0020023
:1063C00088ED00E0E85D0300D02B0020E42B0020E6
:1063D00008B5094B1B7853B1002004F091FA012055
:1063E00004F08EFABDE80840032004F089BABDE845
:1063F000084004F091BA00BF5C2C0020F8B57B4C3B
:10640000237805461BB100232370FFF7E1FF172D0A
:1064100000F28880DFE805F00C171743546576809A
:10642000888D888D959A9A9A9A9AC4C9D1D9E4E4AC
:10643000FFF7CEFF6E4800F093FD6E4B002204463E
:106440001A702046F8BD002004F040FAF8B1002090
:1064500004F056FA022D0CBF4FF4E1614FF47A615B
:10646000644B1D704FF400404FF4FA740025E0FBBC
:1064700001454FF47A720023204629460CF090FD26
:1064800000220146BDE8F840594800F01DBD04F067
:106490002BFA022D0CBFC8214FF4C871E0E7002091
:1064A00004F014FA40B1002004F02AFA4FF44871C5
:1064B000504B03221A70D5E704F016FAC821F7E70B
:1064C000002004F003FA38B1002004F019FA4FF468
:1064D0007A61484B0422EDE704F006FA4FF4C871E4
:1064E000F7E7002004F0F2F948B1002004F008FAC0
:1064F000404B05221A7041F69A110022C2E704F0BF
:10650000F3F9F5E7002004F025FA3A4B06221A7059
:10651000002240F6CD41B5E7002004F0E5F9354B07
:1065200007221A7000248CE70120207004F012FA70
:10653000EEE70120207004F00DFA00224FF48041B4
:10654000A0E704F0F8F92B4B0C22EAE72A482B4E7F
:1065500000F006FDD5F1110504461CD0D8B9012D77
:1065600013D0C8235D434FF400474FF4FA70002165
:106570004FF47A720023C7FB05010CF011FD22468F
:1065800001461D4800F0A0FC0446022004F0ACF9CE
:106590000123337055E7022004F0B2F90023F8E735
:1065A000FFF716FF134B1222BBE7FFF711FF002086
:1065B00004F09AF90F4B1322B3E7FFF709FF01200C
:1065C00004F092F90B4B1422ABE7FFF701FF002018
:1065D00004F08AF9012004F087F9064B1522A0E7A0
:1065E00004F0A9F9034B1D709CE700BFB02C0020FC
:1065F000802C0020B12C0020602C00205C2C00207E
:10660000044B1B6813F0010301D0FFF7F7BE1846D7
:10661000704700BFAC2C0020032811D8012A0AD1F2
:1066200001290FD100F10E02D2B20D4B00EB400058
:106630001A54002070470129F7D0022904D049B12B
:10664000072070470022F8E7054B00EB4000184494
:106650004270EEE7024B00EB400018448270E8E71E
:10666000A02C0020032808B512D804F085F980007A
:1066700000F1A040D0F8003723F44033C0F80037D1
:10668000D0F8003743F44033C0F80037002008BD8D
:106690000620FCE708B5012202210020FFF7BCFF1D
:1066A00008B1072810D1072202210120FFF7B4FF0B
:1066B00008B1072808D100210A220846FFF7ACFFDD
:1066C00010B1072808BF002008BD00000388102B68
:1066D00010B502D0112B1ED010BD1A4C2168B1B9D3
:1066E00001220846FFF798FF08B1072824D10722A6
:1066F00002210120FFF790FF08B107281CD10422D6
:1067000002210020FFF788FF08B1072814D1236871
:1067100001332360E0E70B4A1368013B1360002B51
:10672000DAD1FFF7B7FF0028D6D0074B1B68002B44
:10673000D2D0BDE810401847034B1B68002BE6D0B1
:106740009847E4E7B82C0020B42C002008B50020BE
:10675000FFF788FF08B1062806D10120FFF782FF66
:1067600010B1062808BF002008BD05F007BF0021B2
:10677000084605F0B7BE10F1360F0AD058B148F2FE
:10678000165248F2115310F1380F14BF1046184634
:10679000704748F21450704708B50846114602F099
:1067A000A5FD002008BD000030B5044685B00020DE
:1067B00002F01EFD054678B9201D039005F0D2FBBE
:1067C0000649039800952B462A4605F020FC05B0A3
:1067D000BDE83040FFF7CFBF05B030BD996702007C
:1067E00008B5043005F0C3FB02F02EFD002008BD03
:1067F00008B5043005F0A2FCBDE80840FFF7BBBFB8
:1068000008B5114604301A4605F0BFFBBDE8084044
:10681000FFF7B1BF1FB50021039001AA44F20100A8
:10682000CDE9011100F004F805B05DF804FB0000AB
:1068300010B572B604F088FC04F0DEFA0028FBD133
:10684000104B114C1149E41AE408240444F00100EF
:1068500004F016FC0E4B1B68DB0700D500BE0D498B
:1068600044F0020004F00CFCBFF34F8F0A490B4BBD
:10687000CA6802F4E0621343CB60BFF34F8F00BFDE
:10688000FDE700BFD85C0300105D0300075E030056
:10689000F0ED00E0135E030000ED00E00400FA05F7
:1068A0004B1C30B5DB00044612F003009BB20DD147
:1068B000074D2A601A44074B1A60074B1870074BA4
:1068C0001870074B1C80074B198030BD0720FCE770
:1068D000C42C0020C02C0020BC2C0020CC2C00207C
:1068E000C82C0020CA2C00202DE9F3472B4F3B88F1
:1068F0008B4206460D4690464BD300240DF107000F
:106900008DF8074000F046FB254B26481A78264BA9
:10691000008893F800C084455FFA8CF138BF4C1CA6
:10692000D2B238BFE4B2A2422DD01C781A78D1B2CC
:10693000904286BF0131C9B2002119709DF807004D
:1069400000F04CFB4FF6FF739C4224D0DFF86090C0
:10695000D9F800204FEAC40A42F8348002EBC4039D
:10696000A6B19DB1114B38881B682A4604FB003044
:1069700031460CF02AFCD9F80030534400209D80A9
:1069800002B0BDE8F0874FF6FF74D7E7002098808B
:10699000F6E70920F4E70420F2E700BFC82C002046
:1069A000CC2C0020CA2C0020BC2C0020C02C0020A5
:1069B000C42C0020F8B5114C114D264622782B78B6
:1069C0009A4200D1F8BD0F480F4A23781268078811
:1069D0000E4802EBC301006852F83320898803FB9C
:1069E000070090470A4922780988D3B2914286BFAE
:1069F0000133DBB200233370E0E700BFCC2C002072
:106A0000BC2C0020C82C0020C42C0020C02C00204E
:106A1000CA2C0020094A537891780133DBB299429D
:106A200008BF0023117899421FBF037050781823C4
:106A300003FB002014BF043000207047D02C00203E
:106A400073B5054600240DF107000E468DF807408A
:106A500000F0A0FA0DF10600FFF7DCFF90B1067020
:106A6000094B9DF8062045605A709DF8070000F01C
:106A7000B5FA24B9054B4FF48012C3F80021204623
:106A800002B070BD0424F0E7D02C002000E100E04B
:106A9000024B4FF43C6043F001031847205E0300B3
:106AA00038B50E4B4FF40032C3F88020BFF34F8F40
:106AB000BFF36F8F0A4C4FF480330125C4F848337D
:106AC000C4F808336560FFF7E3FF064BA5600024B8
:106AD0001C60FFF7DDFF044B1C7038BD00E100E0D7
:106AE00000100140EC2D0020DD2D0020F8B51F4BDB
:106AF0001F491B680025C1F84051C1F84451C1F835
:106B00004851C1F84C51C1F80051C1F804514BB380
:106B1000D1F8044517490968641A24F07F442F46C8
:106B20001A68A24209D8A41A15441A7CDE691AB15F
:106B3000D3E905201F749047AEB90F4A0F4B117867
:106B40001B788B4205D10133DBB2022B08BF002337
:106B5000137012780A4B43F822500A4B4FF48012FC
:106B6000C3F80021F8BD3346DAE700BFF02D00205E
:106B700000100140EC2D0020E92D0020E82D002020
:106B8000E02D002000E100E02DE9F04FA24AA349EA
:106B900013780978A24D994285B03CD00133DBB21D
:106BA000022B08BF002313709E4912789E4B0F687A
:106BB00053F822003B1823F07F4300220B602B6820
:106BC00016461446944613B942B12B6006E0196884
:106BD00081420ED902B12B60091A196001272B6876
:106BE000DFF84CA201934FF00008BEB9DFF848B2BD
:106BF00062E0401A0C44D968D3F81CE0C3F800C026
:106C000031B13A1922F07F42C3E90121DE611E460B
:106C100073460122D7E700263746E0E73446F66997
:106C2000804A63681268DFF814C2A068991A21F0DC
:106C30007F41614500F2A880014421600122227455
:106C40002A680023C4E90133E361002A40F0A580EB
:106C50002C60CAE79BF802105A1CD2B291428BF802
:106C6000002004BF00228BF80020182202FB03B38F
:106C70002A6819799C68022977D0032900F081805D
:106C8000012919D1207CB8B9D3E90312A2605A694D
:106C9000E2609A69654BA2611B78002B0CBF0B4622
:106CA00003466360BCE78C4200F094808946C96962
:106CB0000029F8D1002323749BF800309BF80120B1
:106CC0009A42C7D12B68B8F1000F04D1019A9A42B9
:106CD00001D1002F43D0002B79D0D3F800A0544D20
:106CE000504BD5F804751C68DFF854813E1B98F8AA
:106CF000003026F07F4603369BB94FF48033C5F849
:106D00004433C5F804334B4B4FF40032C3F88021B1
:106D10001A604FF00109C5F80090FFF7B9FE88F836
:106D20000090B2452CBF5444A41924F07F44C5F808
:106D30004045D5F80435DB1B23F07F43E41B0333C8
:106D400024F07F44A3420AD9D5F80435C5F840356C
:106D5000FFF79EFE374B4FF40032C3F80021334B50
:106D600000221A7005B0BDE8F08F114691469FE7EA
:106D70001174D2690123002AFAD1002B9CD02A6019
:106D80009AE700231946F6E7D31A23F07F4383429C
:106D900034BFC31A0023236050E721681368994267
:106DA00013D8591A1160E26152E7091AD8691A46D4
:106DB00038B1034618688842F7D3401A186018465D
:106DC00013462160E061DC610FE71346F2E7FFF74D
:106DD00067FEC4E74C4511D1D3692B6073B9DFF866
:106DE00044E00120CDE90212CAF80800CEF80030D4
:106DF0000E4B1870FFF74CFEDDE902120B68C969F3
:106E0000C9F81C1011B1086803440B602B68934249
:106E100018BF4FF001084DE7E82D0020E92D0020B4
:106E2000F02D0020EC2D0020E02D0020DC2D002096
:106E30000010014000E100E0D02C0020FEFF7F00A8
:106E4000DD2D002008B5FFF72BFE104B00200B2294
:106E500018809A700E4B18600E4B18700E4B1870FD
:106E60000E4B4FF48012C021C3F8802183F8141315
:106E70001A6002F18042A2F56F22C2F8080583F879
:106E80001113074BD2F804251A6008BDD02C00203E
:106E9000F02D0020E82D0020E92D002000E100E089
:106EA000EC2D0020074B9B784BB132B128B1036821
:106EB000187C20B959745A61704707207047082020
:106EC000704700BFD02C00202DE9F743DFF88C80FD
:106ED00098F8023005460E461746BBB3B0B31C4BBC
:106EE0004A1F9A4230D8436983B3437C0024012B64
:106EF0000DF107000CBF8946A1468DF8074000F050
:106F000049F80DF10600FFF785FDD8B101230370A4
:106F1000104B4560D3F80435C0E90497C0E9023648
:106F20009DF8063088F801309DF8070000F056F80B
:106F300024B9094B4FF48012C3F80021204603B056
:106F4000BDE8F0830424EFE70724F7E70824F5E71A
:106F5000FAFFFF000010014000E100E0D02C00200B
:106F6000064A92783AB130B1426922B100220274E5
:106F70000221FFF765BD0820704700BFD02C00201C
:106F8000014BD3F80405704700100140401A20F06F
:106F90007F40704770B5EFF3108672B60C4A946864
:106FA00001239CB993600B4B0B4DD3F88010294003
:106FB0001160C3F88050D3F8841051604FF0FF3255
:106FC000C3F88420047006B962B670BD0370FAE796
:106FD000F42D002000E100E0FC06FFBD084B9A689C
:106FE00010B55AB150B9EFF3108172B6054A1C685A
:106FF00014605C685460986001B962B610BD00BF4F
:10700000F42D002000E100E070B5064D0646002496
:1070100055F8043B0BB1304698470134042CF7D1A6
:1070200070BD00BF0C2E0020033080B240F2FE3352
:10703000984230B51FD8134B1A783AB91C895D892C
:107040002C440444A4B2B4F5806F0AD91A7DAAB9BD
:107050009A8BDC8B2244024492B2B2F5806F0DD839
:1070600001220A801446142202FB04335A89104478
:107070005881002030BD48F20860FBE748F2066006
:10708000F8E700BF402E00200B4A0C4B518814201B
:1070900000FB0131CB6833B904204968107001222C
:1070A000074801F087BB07490523137002238B8033
:1070B000012209680023F3E7242E0020402E00203F
:1070C000D02B0020082F002007B50023054900938E
:1070D000054A09680548082301F0D6FA03B05DF8AF
:1070E00004FB00BF082F0020345E0300D02B0020DB
:1070F00007B5002301460093034A0448082301F022
:10710000C3FA03B05DF804FB2C5E0300D02B002013
:1071100013B500230C4600930146084A084804238F
:1071200001F0B2FA38B90749142303FB0414012310
:10713000237402B010BD48F20D60FAE7285E030028
:10714000D02B0020402E002037B50A480A4B426859
:107150009C88196853880325033305709BB200206F
:1071600000909B0001EB8401044801F08DFA03B00C
:1071700030BD00BF242E0020082F0020D02B00207F
:1071800010B50146044800F0ECFE1C220446002124
:107190000CF044F8204610BDF42E002068B10268BF
:1071A000084B9A4209D14068074B984207D00133F7
:1071B000984214BF0320012070470320704700202D
:1071C000704700BFDEC0ADDEFE011EF14388033311
:1071D00000EB830399420BD382884FF6FF739A42E8
:1071E00008D0038833B18068431C58425841704727
:1071F00002207047012070472DE9F0410D4602231F
:10720000154F2B80164600F5805100F108044FF011
:1072100001088C420ED2236801330BD02046FFF7C1
:10722000D5FF48B10EB186F80080022809D14FF48D
:1072300080632B80BDE8F081A3683A68934200D94F
:107240003B602B886288033313442B8063880333AD
:1072500004EB8304DDE700BF382E002038B5144B63
:1072600014220D4602FB00302B68446804F580515F
:10727000A3B15C88033403EB84048C4215D22368E9
:10728000013312D02046FFF7A1FF012808D00228C1
:107290000BD00028F1D12C60012038BD0834ECE778
:1072A0006388033304EB8304E7E70020F5E700BFBE
:1072B000402E0020426873B504460D466AB3244B45
:1072C000D9688A4229D31B699A4226D812F003034F
:1072D00023D120490089098988421ED120689168FC
:1072E00088421AD11C494868824203D900F580506F
:1072F00082420DD389698A420CD901F580518A42B4
:1073000008D201222A80B3FA83F0400902B070BD8E
:107310001A46F7E748F20963F5E700232B801E467B
:107320000196288801A9FFF799FF30B92B8801330E
:107330009BB2012B2B80F3D9E8E7019B2268996867
:107340009142EED16360034B1B892381DEE700BFCE
:10735000D02B0020242E0020402E00202DE9F843C1
:107360001C461D4B1B7806460F46154673B382B369
:107370007CB3DFF86C804FF01409A388012B02D98D
:1073800048F2096020E009FB03F318F803302BB939
:10739000A0882146FFF762FF20B92060A38801334F
:1073A000A380EAE723681EB1998832889142EFD121
:1073B0001FB119883A889142EAD19A68C5E9002339
:1073C000064B1B892B810020BDE8F88348F2016041
:1073D000FAE748F20460F7E71C2E0020242E002074
:1073E000402E002008B5074B5888191DFFF736FFBF
:1073F00018B1BDE80840FFF7A7BEBDE80840FFF799
:1074000043BE00BF242E00202DE9F04FA44FDFF82B
:10741000B49289B00646B8463B6823B9A1484946AC
:1074200000F0D9FD3860D8F8005029784B1E052BA4
:1074300007D8DFE813F022007C007C000E010E016B
:10744000660148F20E641422002103A80BF0E6FE48
:1074500041F61D539C4208BF0024D8F80030049424
:107460001A78013A052A00F2F881DFE812F0E40107
:10747000E8010802180224022E022EB18A4B0022D3
:107480005A604FF40644DEE72B79032B1DD8DFE862
:1074900003F015022B3685490B78022B08461AD0CB
:1074A0000B7D022B4FF0010317D114225343C21856
:1074B0000020C8545068FFF71BFE03E001232B7126
:1074C000FFF702FE002800F0BE80774B00225A60D2
:1074D00048F20D64B7E70023E7E7734A137000230F
:1074E000536041F61D54AEE77149724800230222F1
:1074F0002B718A800968012201F05CF9E2E76C4C8B
:1075000000262E712068694DFFF7F2FD6A4BD4F812
:1075100000C05A8814235343EA18EE54516821607E
:10752000A188C2F804C011810222A280CAE7B5F87E
:1075300014A0AA7DDFF874B1AEB1022AEB8806D997
:10754000142101FB0AB1DA1C088902440A811422C1
:1075500002FB0ABAC3F57F43BAF80A20FD3313448D
:10756000AAF80A308DE7142303FB0AB318895C6874
:1075700004EB8004062A69D8DFE802F0274E36447F
:107580001D5A040041F61D54AA7DEB88022A06D933
:10759000142101FB0AB1DA1C088902440A81142271
:1075A00002FB0ABAC3F57F43BAF80A20FD3313443D
:1075B000AAF80A3047E74148414900234360AB69D4
:1075C0000360FFF777FE00285BD00223AB75002332
:1075D00000930423EA182146364801F055F80028A4
:1075E00031D048F20D64CFE72B69002B14BF032381
:1075F0000123AB750023009305F10C02042304F171
:107600000801E9E70123AB750022EB8800922A69A3
:107610009B0004F10C01DFE703290CBF05230623BF
:10762000AB7500230093042305F10802E118D3E7AA
:107630000623AB75224B1988204B5868FFF768FD6D
:1076400004460028A0D109B0BDE8F08F48F20E64CE
:107650009AE7002E7FF415AF2B79012B34D0022B43
:107660003FF43FAF002B7FF4ECAE02232B710DF102
:107670000A01EB68039303A8CDE90466FFF71AFE3D
:1076800010B948F20964DEE60498BDF80A10838850
:10769000EB8003882B81FFF73BFD044627E000BF0A
:1076A0003C2E0020F42E00201C2E0020402E002016
:1076B000082F0020D02B0020242E0020002E002098
:1076C000142F0020342E0020814B03AA3146A81D20
:1076D000FFF744FE7E4B044668B999880498FFF78B
:1076E00017FD044648F209639C423FF4FAAE002CB1
:1076F0007FF4A9AEA7E70822314618460BF08EFDAD
:10770000F0E7002E7FF4BDAE724B1A7BB2B11E7350
:107710001A78013A062A3FF694AE01A151F822F0F8
:10772000CB770200F17702000F7802001578020093
:10773000437402001B7802002D7802001A78072A91
:10774000E6D801A151F822F0697702001177020012
:10775000117702008F770200A3770200C77702003B
:10776000C77702008B7702001A895B4901321A81C0
:1077700000225A801A730A78B2FA82F252099A7277
:107780000A7DB2FA82F25209DA72012207E0534905
:1077900058688A884088033202448A8002221A701C
:1077A000B6E74D4C5A884D49142505FB024208683E
:1077B000546850608888108102200C608880002105
:1077C00011740622EBE70722E9E79A7A32B9DA7AEE
:1077D0008AB900221A705A805A6082E63E49002215
:1077E0009A72CA68002AF2D1097C0029EFD05A8027
:1077F000FFF7F8FD51E70022DA72374A116A0029D3
:10780000E7D192F82420002AE3D00122EFE7FFF726
:107810009BFC42E7FFF738FC3FE72F4A5B881421C7
:1078200001FB03235868FFF763FC36E700225A6028
:10783000FFF74AFC31E700238DF80C300DE0012200
:107840008DF80C201A89ADF818209A88DB6805930A
:10785000ADF81A2000238DF81C3003A8FFF7D4FBE5
:10786000002649461E48C8F8006000F0DFFB1D48AE
:10787000012100F095FC00287FF4CEADE3E6022262
:107880008DF80C201A89ADF818209A88ADF81A20C6
:10789000DA689B7D05929A1F53425341DBE703222E
:1078A0008DF80C20DA88ADF818201A89DB68ADF85D
:1078B0001A200593D1E704228DF80C20DB88ADF85F
:1078C00018300023ADF81A30F3E70523B4E700BF02
:1078D000182F0020242E0020402E0020082F0020EA
:1078E000F42E0020042F00204068FFF78DBD00001B
:1078F00008B50548012100F03BFC18B9BDE8084077
:10790000FFF782BD08BD00BF042F00202DE9F34121
:107910009846374B1B7806460D46002B5CD0002955
:107920005DD009884FF6FF7399425BD06B88002BBE
:1079300058D06B689B0758D14AB92F890DF10201C5
:107940003846FFF771FB30B102B0BDE8F081138813
:107950005788ADF8023001A8FFF712FC044660B961
:10796000BDF80230234A142101FB03235889033850
:10797000C01B588148F20760E6E780F800800023CA
:107980008375BDF8023083826B68036101211A4858
:1079900000F0FAFB2B882381B8F1030F6B88A380DA
:1079A00004BF0423A3754FF0000508BF3368E060EF
:1079B00008BFA3611148E780658101A900F0FBFAC7
:1079C00036B1E36833600E4B75601B89B572338145
:1079D000FFF78EFF0020B7E748F20160B4E748F2F6
:1079E0000460B1E748F20360AEE748F20260ABE73B
:1079F0001C2E0020402E0020382E0020F42E0020C7
:107A0000242E002008B5034607480268042A08D03F
:107A10000168064A42F82130012100F0B5FB002040
:107A200008BD48F20B60FBE7102F00200C2E002051
:107A30002DE9F04F89B01422002103A80BF0EEFBD2
:107A4000794A137803F0FF01009190463BB103A8F7
:107A5000FFF7DAFA0027384609B0BDE8F08F101DAD
:107A600000F0AAFB0028F5D140F6F8734FF08052E1
:107A70001B685C1C08BF6D4B6D4C08BF1B6811690F
:107A80005269581C08BF02FB01F323616949A3F541
:107A9000405300222046E36000F0C4FD01940746F5
:107AA0000028D8D164496548DFF8A4B11C238C2292
:107AB00000F022FABA463D464FF003093C46019BCE
:107AC000DE6856443046FFF769FB012862D0032880
:107AD00017D000283DD15A494FF0140C0CFB04FC80
:107AE00001EB0C0201F80C0056600CF110020CF1D5
:107AF000080C0A4430466144FFF77EFB45F002055E
:107B000045E03268531C02D04E4B9A4234D1321DAC
:107B100006F58051106801302ED104329142F9D11E
:107B2000DBF800203AB902220123CBF80060ABF861
:107B3000042000930BE014226243414B0220991869
:107B40009854414A4E60548001340881A4B245F0F3
:107B500001050AF5805ABAF5405FB0D1B9F1010FBD
:107B600098BF0025EDB2022D03D0062D31D0002D97
:107B700039D148F20A676EE7314914226243881806
:107B800009F1FF394660032088541FFA89F901344E
:107B9000A4B2DEE7009B6BB1294B14226243991813
:107BA00002209854DBF800204A60274A088154805C
:107BB0000134A4B200222549CBF800603046FFF71B
:107BC0001BFBBBF80420022A0CBF04220822154329
:107BD000BFE7012388F8003003A80023C8F8043069
:107BE000FFF712FA37E702A8FFF7CAFAC8B1012374
:107BF000013D03700A2D09D8DFE805F006080608E4
:107C0000070807080F110F000023037102A90B4892
:107C100000F0D1F9FFF76CFE1DE70323F5E702231F
:107C2000F3E748F2076716E71C2E00201410001037
:107C3000D02B002030600300682E0020F42E00209E
:107C4000402E0020DEC0ADDE242E00200C2F0020B0
:107C5000082F002073B50D460446C8B1C1B10DF11F
:107C60000601FFF727FBB0B10C4BBDF806006668B4
:107C7000142202FB003001210C3000F085FA636809
:107C80002E600C336B600123A372002002B070BD24
:107C900048F20460FAE748F20960F7E7402E002056
:107CA00013B50446A8B10DF10601FFF703FB98B127
:107CB0000C4ABDF80630142101FB0323DA6872B1C7
:107CC000A27A62B1DA680020013ADA60A07202B0EA
:107CD00010BD48F20460FAE748F20960F7E748F29D
:107CE0000560F4E7402E002002230022FFF70EBEBD
:107CF00018B103230022FFF709BE48F20460704761
:107D0000114B1B7813B50446ABB14FF6FF73984285
:107D100014D001A8FFF734FA98B1052303700123AA
:107D20000371C48001A9094800F045F9FFF7E0FD9F
:107D3000002002B010BD48F20160FAE748F203608B
:107D4000F7E748F20760F4E71C2E0020F42E00202D
:107D50000F4B1B7807B5A3B101A8FFF711FA98B133
:107D60000623037001A90B4800F025F90A4B1A7885
:107D70000AB101221A73FFF7BBFD002003B05DF8C2
:107D800004FB48F20160F9E748F20760F6E700BF3C
:107D90001C2E0020F42E0020242E002007B5ADF864
:107DA0000600ADF804100DF1060001A9FFF7D6FAA0
:107DB00003B05DF804FB07B51346ADF806000A46AC
:107DC00000200DF10601FFF7C9FA03B05DF804FBCE
:107DD00007B51346ADF806000A460DF1060000216E
:107DE000FFF7BCFA03B05DF804FB20B119B10368DA
:107DF0000B600020704748F2046070472DE9F84F8F
:107E00003B4B1B780446002B6CD000286DD0DFF86C
:107E1000E4A0122200210BF001FA032323804FF08B
:107E2000000BD04614274FF00109DAF80410BAF815
:107E30000A50BAF808600846FFF7B0F9032808BFEF
:107E40002388628804BF03F1FF33238007FB0B8381
:107E50002E44DB681344638023891D446389258194
:107E6000B6B233446381C6F58066A389B6B2B34225
:107E700001F1080538BFA68101F58051A94229D931
:107E80002B68013326D02846FFF7A0F901280AD035
:107E9000022815D00028F1D1A3880133A3800AE07D
:107EA0004FF0010BC1E7E3880133E380E3896A887F
:107EB00003331344E3816B88033305EB8305DDE76C
:107EC000E38884F810900133E380E389491B03EBD6
:107ED000A101E1810AF1140ABBF1000FE0D00020FA
:107EE000BDE8F88F48F20160FAE748F20460F7E76E
:107EF0001C2E0020402E002010B561B1B2FBF3F41F
:107F000003FB1424A4B244B9C0E900148460828144
:107F1000C381204610BD0E20FCE70920FAE782B09D
:107F200050E8022FC188B2EB324F4FF0000317BF69
:107F300092B241EA014142EA014104E04268B2EBF7
:107F4000324F08BF012340E80212002AE8D18DF821
:107F500007309DF80730002B0CBF1120002002B025
:107F6000704737B550E8013F9DB2C48925448489E4
:107F7000A54228BF2D1B0489A54202BFBFF32F8F46
:107F8000002207E0C5EA030540E80154002CE9D1CE
:107F90004FF001028DF803200193019B9DF803200F
:107FA0000B6002F0FF0322B10B880068184403B095
:107FB00030BD1846FBE70A884B889A4209D150E841
:107FC000012FC2EA024240E80123002BF7D1012031
:107FD00070470020704737B550E8023F1FFAA3F5FD
:107FE000C488A54202BFBFF32F8F00220DE0C489D1
:107FF00025448489A54228BF2D1BC3EA054540E8D6
:108000000254002CE8D14FF001028DF803200193B7
:10801000019B9DF803200B6002F0FF0322B14B8807
:108020000068184403B030BD1846FBE70A884B8847
:108030009A4209D150E8022FC2EA224240E80223C4
:10804000002BF7D1012070470020704701F01F027C
:108050004B090121914000EB830000F065B84B090A
:1080600010B501F01F040121A14000EB830000F0D6
:108070004FF8E04000F0010010BD01F01F030122A5
:108080009A404B0900EB8300D14300F065B84B09DF
:1080900001F01F0150F82300C84000F001007047B4
:1080A0002DE9F0474F1E7F0980460E460137002517
:1080B00058F8254008EB8509E44394FAA4F4B4FA8F
:1080C00084F44FEA451A202C06D10135AF42EFD88F
:1080D00034462046BDE8F0875444A642F5D92146EF
:1080E0004046FFF7BCFF0028F3D0D9F80040E44336
:1080F00094FAA4F4B4FA84F4E5E710B5034653E81F
:10810000000F0A4643E8002494F0000FF7D110BD99
:1081100010B5034653E8000F40EA010243E800248B
:1081200094F0000FF6D110BD10B5034653E8002FB0
:1081300042EA010043E8000494F0000FF6D110BDBC
:1081400010B5034653E8000F00EA010243E800249B
:1081500094F0000FF6D110BD10B5034653E8002F80
:1081600002EA010043E8000494F0000FF6D110BDCC
:1081700010B5034653E8000F00EB010243E800246A
:1081800094F0000FF6D110BD10B5034653E8002F50
:1081900002EB010043E8000494F0000FF6D110BD9B
:1081A00010B5034653E8002FA2EB010043E800049A
:1081B00094F0000FF6D110BD0121FFF7A9BF0121F6
:1081C000FFF7B2BF0021FFF7BBBF10B590B1D0E9F8
:1081D000012301689B1ADBB20A60013BDBB2FF2B73
:1081E000026802D10020107110BD11684C1C14608F
:1081F0000B70F2E70E20F7E737B5054600240DF1C6
:1082000007008DF80740FEF7C5FE2A686B68116805
:1082100099420ED9481E106011F8014CEB68298A6A
:1082200001FB0434AB6811791B1ADBB2994238BFE9
:1082300013719DF80700FEF7D1FE204603B030BD54
:1082400037B5054600230DF107000C468DF80730C1
:10825000FEF7A0FE2A681368591C1160E968641AC9
:10826000298AB4FBF1F41C709DF80700FEF7B6FEF6
:1082700003B030BD826810B504462AB14369016875
:10828000006998470023A36010BD0EB403B503999D
:1082900021B104AB01AA019300F076F802B05DF8B9
:1082A00004EB03B070470A2938B504460D4602D1E5
:1082B0000D21FFF7F8FFA3682268591CA160D5546F
:1082C000D4E901329A4204D32046BDE83840FFF792
:1082D000D1BF38BD2DE9F84F9846DDE90A43154670
:1082E00082460F460A464FF00109AA420FD2C14505
:1082F00038BFC14613F0010B01D16CB9002401262F
:10830000B8F1010F1BD908F1FF386E43F8E709F106
:108310000109B2FBF5F2E8E79B070ED5B8F1000FB3
:108320000CBF30262026A145E9D2013C31465046FB
:10833000FFF7B9FF002CF6D1E0E72026F3E7B7FB03
:10834000F6F39D42E1D9DFF83C80B7FBF6F35046E7
:1083500018F8031006FB1377FFF7A5FF3346AB426F
:10836000B6FBF5F6F1D2BBF1000F02D00CB1A1457E
:1083700001D3BDE8F88F20215046013CFFF793FF61
:10838000F4E700BF455E03002DE9F74F05461746A9
:108390008846002900F0428118F8011B49B92B7B5F
:1083A000002B00F03B81284603B0BDE8F04FFFF7FB
:1083B00061BF252940F0B780002698F800302D2BAA
:1083C000424608F1010823D0302B24D02B2B25D096
:1083D00000242A2B02F1010123D13B681A1D1B68DE
:1083E0003A601C440A4613782E2B26D101324FF0F6
:1083F000000A104610F8011BA1F1300CBCF1090F66
:108400001DD80A2303FB0A13A3F1300A0246F0E742
:1084100046F00106D1E746F00206CEE746F0040634
:10842000CBE711F8013CA3F130000928DBD80A2280
:1084300002FB0434303C0A46CBE74FF0000A12F846
:10844000011B01F0FB0068289046F8D0782909D874
:108450006F290CD8632962D022D8252963D05829E6
:1084600000F0888098F80030002B95D197E770399C
:108470000829F7D801A353F821F000BFF7850200BF
:10848000658402006584020085850200658402001F
:108490006385020065840200658402007585020020
:1084A000642901D06929DDD13A68D2F80090111D04
:1084B00089EAE9723960A2EBE9724FF0010B092AEF
:1084C00035DCD34538BFD3462CB1B9F1000F01DB01
:1084D000720700D5013CB30702D5BAF1000F03D0F3
:1084E000F00701D44CBB0024B9F1000F2DDAC9F11B
:1084F00000092D212846FFF7D6FE06F00302022AC6
:1085000004D1BAF1000F01D11CBB0024CDE9004613
:1085100053460A2249462846FFF7DCFEA2E73B689D
:108520001A1D19783A602846FFF7BDFE9AE70A231C
:108530000BF1010BB2FBF3F2C1E7A345D4D220212A
:108540002846013CFFF7AFFECCE77107D5D52B21BC
:10855000D0E7A345DAD230212846013CFFF7A3FE3D
:10856000D2E73968CDE900460A1D3A6053460A222F
:108570000968D0E739680A1D3A60CDE900465346DC
:108580001022F5E73B681A1D3A6016F00106D3F891
:10859000009028D1B9F1000F03D048460AF093FEAD
:1085A0000646B44200D904BB09F1FF3919F8011F8E
:1085B00000293FF457AF2846FFF775FEF6E7284637
:1085C0000136FFF770FE19F806100029F7D1A64210
:1085D000BFF448AF002C3FF445AF20212846013CB2
:1085E000FFF761FEF3E70026EDE720212846013C76
:1085F000FFF759FED5E73B681A1D3A60302128463F
:108600001C68FFF750FE78212846FFF74CFE002239
:108610000823CDE90032214610227CE703B0BDE8F3
:10862000F08F00BF13B50B46114680B9104B1148AF
:10863000114AC01A0E23C0080093104B00041049C1
:1086400040F0010002F033FD0E2002B010BD4BB926
:10865000074B08480B4AC01AC0080E2300930004B9
:10866000064BECE703601B6802B0BDE810401847FA
:10867000D85C0300485D0300555E0300EB5F030018
:108680005A5E0300895E03002DE9F34188B93D4B32
:108690003D483E4AC01AC0080E243D4B00940004D9
:1086A0003C4940F0010002F002FD204602B0BDE866
:1086B000F0814AB9334B3448374AC01AC0080E24F7
:1086C000334B00940004EBE7D0F800E0BEF1000F5C
:1086D00009D12C4B2C48314AC01AC00808242C4B15
:1086E00000940004DCE74BB9264B27482C4AC01AFB
:1086F000C0080924264B00940004D1E74568D5F84A
:108700000480B3FBF8F508FB15354DB11D4B1E4831
:10871000244AC01AC00809241D4B00940004BFE776
:108720008D0709D0174B18481F4AC01AC0081024DB
:10873000174B00940004B3E712F0030F09D0114B5C
:1087400011481A4AC01AC0081024114B00940004A2
:10875000A6E7C568A9420BD34D1EEC180569AC42CB
:1087600006D8DEF80C40A44602B0BDE8F0416047F0
:10877000044B05480E4AC01AC0081024044B00944C
:1087800000048DE7D85C0300485D0300555E0300DC
:10879000FD5F03005A5E0300D75E0300835E0300A3
:1087A000965E0300DD5E0300075F03001F5F0300AA
:1087B000425F0300F7B580B92A4B2B482B4AC01AF9
:1087C000C0080E242A4B009400042A4940F00100FE
:1087D00002F06DFC204603B0F0BDD0F800C0BCF143
:1087E000000F09D11F4B2048234AC01AC008082493
:1087F0001F4B00940004E8E74AB91A4B1A481F4A75
:10880000C01AC00809241A4B00940004DDE7476829
:10881000D7F800E00EF1FF370F4209D0114B124894
:10882000174AC01AC0081024114B00940004CCE76A
:10883000C768B9420CD304694D1E0EFB0255A54210
:1088400006D8DCF81040A44603B0BDE8F04060470D
:10885000044B05480B4AC01AC0081024044B00946E
:108860000004B2E7D85C0300485D0300555E0300D6
:10887000106003005A5E0300835E0300965E0300EF
:10888000695F03008F5F030029DF704728DF7047AF
:1088900070B503689E6886B004460D466EB114221A
:1088A000002168460AF0BAFCA36805932379019574
:1088B0002BB1012B0DD06846B04706B070BD012327
:1088C0008DF8003023690293E3680393636904938E
:1088D000F1E702238DF80030E3681B030293F5E70C
:1088E0000846704700207047024B187A003818BFBE
:1088F00001207047BC2F0020034B187A0122B0FAE8
:1089000080F05A7440097047BC2F002008B510460B
:108910001A460AF05AFC002008BD000008B51422CF
:10892000002104480AF07AFC0348FFF7F8FA002017
:1089300008BD00BFBC2F0020AC2F002010B5094C93
:10894000094B43602046FFF737FC40B909F0AAFE07
:10895000064920741C2306488C22FFF7CDFA00201C
:1089600010BD00BFBC2F002024600300202F00207A
:10897000AC2F002070B5244C244E237A25463BB9F9
:1089800023492448FFF727FB306008B9606070BDB9
:10899000022334682B72237973B1012B24D0204633
:1089A0000321FFF775FF00232B726B6018491948EC
:1089B000BDE87040FFF73ABBD4E90523D21AB2F5FF
:1089C000805FD4E9031028BF4FF480529208012A37
:1089D00038BF012219441844FFF756FF50B111283F
:1089E000DDD101232B72D2E7D4E903031844FFF74A
:1089F0004DFFF3E72B7C002BC9D10146BDE8704049
:108A0000022000F009B800BFBC2F0020D42F0020A6
:108A1000D02F0020AC2F002038B5831E012B45D865
:108A2000234C237A002B41D0022B09D1032830D0CC
:108A3000204B00221B68E2601A793AB1012A22D049
:108A4000637C7BBBBDE83840FFF794BFD3E90512D8
:108A50008D1AB5F5805F94BF521902F580529A6164
:108A60009142EDD102284FF0000308BF194623724E
:108A7000104B18BF0D211868FFF70AFF0E490F4869
:108A8000FFF7D4FADCE71A6901321A615B699A428E
:108A9000E7E7E3680133082B01D8E360D0E7002360
:108AA000E360DFE7BDE8384009F0ECBD38BD00BF4A
:108AB000BC2F0020D42F0020D02F0020AC2F00206E
:108AC00000F0FD03012B08D1044B00225A74421E12
:108AD000504250411874FFF74DBF7047BC2F002023
:108AE00010B5064C201DFFF767FB28B9637C1BB946
:108AF000BDE81040FFF73EBF10BD00BFBC2F0020F7
:108B00002DE9F34180460D460F4801A916461F4640
:108B1000FFF727FA0446A8B11C2200210AF07EFBC9
:108B20002D0B0123237101A90748C4F80080A76019
:108B3000E5606661FFF73FFAFFF7D2FF002002B061
:108B4000BDE8F0810420FAE7AC2F00202DE9F743BF
:108B500081468846104801A917461E46FFF701FACC
:108B60000446B0B11C2200210AF058FB00250A9BE4
:108B7000A36001A9C4E9037807482571C4F80090EF
:108B80006661FFF718FAFFF7ABFF284603B0BDE8B0
:108B9000F0830420FAE700BFAC2F00202DE9F84F46
:108BA000B0F806A04579D2F800B09DF828900AFBED
:108BB00005F5043D88460BEB0301A94203F10404CB
:108BC00088BFA5EB030BB4FBFAF607460AFB164475
:108BD000C2F800B04EB9AAEB04055D4528BF5D465A
:108BE000BBF1000F04D1BDE8F88F3F68013EF1E70B
:108BF000043408EB06003C442A46B9F1000F0DD0BE
:108C00002146ABEB050B0AF0E0FADA452E443F684B
:108C100055464FF0000428BF5D46E1E70146204677
:108C2000EFE7FFF7D2BAF8B546790146721E05465E
:108C3000002393422D6803D30024A64202D8F8BD36
:108C40000133F6E70F682846FFF7FAFA0134394690
:108C5000F3E72DE9F843068ACD1C0746FFF7CCFA67
:108C6000043E35440446B5FBF6F5F0B14FF480738D
:108C7000EDB28380C680013D076081464FF0000859
:108C8000A84512D23846FFF7B7FA064648B16379CD
:108C90000133637108F10108C9F8000007608146DB
:108CA000EEE72046FFF7BFFF34462046BDE8F883D5
:108CB00001210430FFF768BA10B5012104460430E1
:108CC000FFF76EFA10F0FF0F04D12046BDE8104008
:108CD000FFF7A9BF10BD1FB503920022009203AA9F
:108CE000FFF75CFF05B05DF804FB1FB5039201229E
:108CF000009203AAFFF752FF05B05DF804FB41DFC5
:108D000070470000064B10B500241C70054B1C601A
:108D1000BFF35F8F0449054800F00DF9204610BDF0
:108D2000E02F0020E42F00205C600300D82F0020FB
:108D300007B500230DF107008DF80730FEF72AF97B
:108D4000F1EE103A23F09F03E1EE103ABFF35F8F8C
:108D5000094B4022C3F884219DF80700FEF73EF935
:108D600009F0A0FC20B1FFF7CAFF03B05DF804FBD7
:108D700020BF40BF20BFF8E700E100E002681368B1
:108D80005268934291BFD01A80680130801888BF22
:108D9000C01A704703682DE9F0411F681E68154628
:108DA0005A68964286BF83680133961B8846C2681C
:108DB000416888BF9E1BB542044607FB02110CD8D0
:108DC0006A4340460AF001FAA3683D449D4288BFC9
:108DD000002523681D60BDE8F08106FB02F73A46D6
:108DE00040460AF0F2F9E2686168AD1B6A4308EB9D
:108DF00007000AF0EAF9ECE7036881681A685B6823
:108E00008B4234BF01330023D31A58425841704774
:108E1000F7B5002304460DF107000D468DF8073025
:108E2000FEF7B8F82046FFF7E7FF10B1237C002BD0
:108E30003CD12268A66853685168B14234BF013101
:108E40000021516030B11168A068814234BF013106
:108E500000211160E2686068511E072920D8DFE810
:108E600001F004101F141F1F1F182A78C254204637
:108E7000FFF784FF23689A68824200D2986000243A
:108E800015E02A8820F81320F1E72A6840F823200B
:108E9000EDE7D5E9006700EBC300C0E90067E6E74E
:108EA000294602FB03000AF090F9E0E704249DF84C
:108EB0000700FEF793F8204603B0F0BD7FB50546E6
:108EC00001911446AAB10DF10F0000268DF80F6034
:108ED000FEF760F82846FFF751FFA04201990BD337
:108EE00022462846FFF756FF34469DF80F00FEF74E
:108EF00075F8204604B070BD0524F6E737B5044682
:108F000000250DF107008DF80750FEF743F80C22FD
:108F1000294620680AF082F99DF80700FEF75EF8FE
:108F200003B030BD836800225A60C3E904229A600E
:108F3000DA601A6070470B684A684360934208BF62
:108F40000023016008BF43607047436843B1026873
:108F5000916852680B449342436004BF002343600E
:108F60007047000010B50D49A1F59472914201D8E7
:108F700000200FE08C1AE30F03EBE4035B1002EB1D
:108F8000C30452F83330834205D802D204F10802F8
:108F9000ECE7606810BD2146E8E700BF60650300AC
:108FA00008B5FFF7DFFF024B002808BF184608BDD1
:108FB000226403000B7B23B14B6803600023037121
:108FC00070470B6803600123F9E703684A68896802
:108FD00010B5D41A8C428BBF5B180023036002606B
:108FE00098BF037110BD03680A68896810B59C1AA0
:108FF0008C428BBF5B1A01230360026098BF037130
:1090000010BD037910B504461BB1FFF7DEFF2068E1
:1090100010BDFFF7E8FFFAE738B5074C051E04F16D
:10902000080318BF1C4623682BB11A6822605B68CE
:1090300028469847F7E738BDF02F002020B9054BA8
:1090400001225A70FFF7E8BF012802D1014A90704F
:10905000F8E77047E82F002020B9034B01225A702F
:10906000FFF7DABF704700BFE82F002038B50E4C7D
:109070002378B3B90D486360A3602361E36000F017
:10908000C5F9054609F00EFB08B900F0CBF901233C
:109090002370074BD3F800340BB10123A37028468B
:1090A00038BD8525F5E700BFE82F00203D90020080
:1090B0000000014037B50D4C00230DF107008DF87D
:1090C0000730FDF767FFE368013BE360E36833B90E
:1090D000074BD3F8005415B900F0B6F9A5709DF808
:1090E0000700FDF77BFF03B030BD00BFE82F002075
:1090F00000000140012813B50CD0032820D038B956
:10910000124B0122C3F88020BFF34F8FBFF36F8F44
:1091100002B010BD0E4C00230DF107008DF8073092
:10912000FDF738FF23780BB9FFF7A0FFE3689DF840
:1091300007000133E3600123A370FDF74FFFE7E76A
:1091400000F070F9FFF7B6FFE2E700BF00E100E0D2
:10915000E82F002031DF70471FB500238DF807008E
:109160000DF10F008DF80F30FDF714FF09F09AFA9A
:1091700050B909480DF10701FFF74AFE0648FFF70D
:109180003BFE08B100F0E4FB9DF80F00FDF726FF61
:1091900005B05DF804FB00BF785C030007B520B1A3
:1091A00003280BD003B05DF804FB0F4B1B78012B99
:1091B000F8D100F0CDFB00F0D3FBF3E700230DF175
:1091C00007008DF80730FDF7E5FE07480378012B0F
:1091D00005D10649013000F07BFB00F0A7FB9DF8AC
:1091E0000700FDF7FBFEDDE74C300020599102003F
:1091F00013B5124C2378FBB9114A8DF807300028BB
:1092000008BF10460288A4F801200DF10700FDF701
:10921000C1FE09F047FA30B90A49601C00F058FB5A
:1092200040B900F083FB9DF8070001232370FDF790
:10923000D5FE002002B010BD8520FBE74C30002099
:109240006A6503005991020007B500230DF107007C
:109250008DF80730FDF79EFE09F024FA18B900F0EA
:1092600077FB00F07DFB9DF80700FDF7B7FE044893
:10927000FFF744FE034B00221A7003B05DF804FBB5
:10928000785C03004C3000202DE9F7430024DFF820
:10929000589005460E46A0460DF107008DF8078050
:1092A000FDF778FE09F0FEF9074638B9324629463F
:1092B0004846FFF703FE044600F038FB9DF8070020
:1092C000FDF78CFE47B131462846FFF743FF42F2D7
:1092D00007039842044605D0022CDDD0204603B097
:1092E000BDE8F0830524F9E7785C0300F8B505468E
:1092F0000C4604B9F8BD402C264628BF4026F7B2DC
:1093000039462846FFF7C0FF0028F9D1A41B354491
:10931000EFE700001FB503788DF800304368019334
:1093200083688DF80830C368054A0393054B684687
:1093300053F8213052F82110984705B05DF804FB2E
:1093400050300020543000201FB503788DF80030D5
:109350004368019383688DF80830C368054A039316
:10936000054B684653F8213052F82110984705B054
:109370005DF804FB5030002054300020F0B5194B4C
:1093800090F800C091F81DE043F82C20164B1646CB
:109390000A6943F82C20154B03F80CE00C460746ED
:1093A0000FCC89B06D460FC594E80F0085E80F001B
:1093B000CDF810C0BEF1000F09D0002E0C4A69464E
:1093C00008BF3246381D00F0DFFD09B0F0BD002EA9
:1093D000084A694608BF324607F10C0000F0CAFB94
:1093E000F3E700BF543000205030002058300020F8
:1093F000159302004993020000F18040002382B0DF
:10940000036003680193019B02B07047044A13791B
:1094100023B901211060918018467047852070475C
:109420005C300020074B1A68D20704D4C02283F8AE
:10943000002301221A604FF080430122C3F818254F
:10944000704700BF00E100E04FF0804208B5022302
:10945000C2F808334FF48270FFF7CEFF034B0121AF
:109460001960D2F81834DB03FBD408BD0C000040AF
:10947000124B1B6810B573B14FF48070FFF7BCFF3F
:109480004FF080430122C3F808230D4B587910B9DF
:109490005A711B6898470B4B1B6873B14FF482706D
:1094A000FFF7AAFF4FF080430222C3F80823044BC2
:1094B000BDE810401B680120184710BD00010040A6
:1094C0005C3000200401004000F1804000F5C04005
:1094D000002382B0036003680193019B02B07047D0
:1094E000800000F1A040D0F8002722F44032C0F8FC
:1094F0000027D0F8003743EA0141C0F80017704751
:10950000054B4FF0FF32072843F8202084BFC018D6
:1095100080F84820704700BF6430002010B51A4C16
:1095200094F858306BBB4FF0FF3222FA03F1C907B1
:1095300048BFE11803F1010348BF81F83020202B18
:10954000F3D10021C8B2FFF7DBFF01310C29F9D1BB
:10955000042200210D4809F061FE0D4BC02283F862
:10956000062340221A604FF4BE70FFF7ADFF094B8F
:109570004FF00042C3F80423012384F85830002040
:1095800010BD0820FCE700BF64300020B830002088
:1095900000E100E000600040034B93F85800003801
:1095A00018BF0120704700BF64300020F0B5364D71
:1095B0002C1894F93040002C64DA8C78C4F3400401
:1095C000002C0BBF082300230C260826B34201D130
:1095D0000420F0BD55F8237001373FD12E1845F80F
:1095E000232086F8303014B9EA1882F848008A78C7
:1095F000540713D4D60733D5820002F1A042D2F823
:10960000004724F00204C2F80047204EC20800F0D0
:1096100007070124BC40B75C3C43B4548A780C78FB
:1096200012F0020225D09B0003F1804303F5C043F2
:109630000202D3F8101521F4473121F44071C3F828
:1096400010152404D3F8101502F4F85204F4403431
:1096500022430A43C3F810250020BAE70133B5E7D7
:109660004C7800F5E0724FF0A046A40046F8224086
:10967000CBE7083B2B4493F8501041EA841483F85D
:109680005040E9E70820A4E764300020B83000200B
:1096900038B51F4C251895F93020072A16DD2244CD
:1096A00092F848309B09032B0BD14FF0A043D3F81D
:1096B0001015C14001F001010231BDE83840FFF74B
:1096C0000FBF012B0CBF02210321F6E7D3B2072BFA
:1096D0001CD8930003F1804303F5C043D3F8100571
:1096E00040F00100C3F8100502F14000800080B294
:1096F000FFF7EAFE51B195F9303054F823302BB121
:10970000012303FA02F2034BC3F8042338BD00BF60
:1097100064300020006000402DE9F74F00244E4DDA
:1097200001944FF48072012102F1804303F5C0439C
:1097300090B21B68012B06D1D5F804330B4202D03E
:10974000FFF7C2FE0C430432B2F5907F4FEA4101AD
:10975000EAD1424B1B68012B0CD14FF4BE70FFF7CE
:10976000B3FE4FF0A04344F00044D3F8202501920B
:10977000C3F8202514F0FF0F1AD0394F0025012619
:10978000344210D0AB0003F1804303F5C043D3F85B
:109790001005D3F8101557F8253023B1C1F3014156
:1097A000C0F3042098470135082D4FEA4606E7D15B
:1097B000002C48DA2A4D4FF0A0482A4E4FF00009FD
:1097C000012716F9013B5A1C31D0C3F3C20202A98A
:1097D0000A44DCB212F8042C03F03F0A03F007033A
:1097E00007FA03F31A4222D00AF5E073504658F8FC
:1097F0002330C3F3014BBBF1020F0CBF0321022145
:10980000FFF76EFE07FA0AF3C8F8203505EB0A03E6
:1098100093F9303055F823304BB1A109032904D016
:10982000BBF1020F12D1012901D15046984709F12D
:109830000109B9F1040FC4D1D8F820350193C8F853
:109840002035002BB9D103B0BDE8F08FBBF1030F79
:10985000EDD10229E8E700BF006000407C610040D4
:1098600064300020B4300020014B1B68184700BF53
:10987000C03000200E4B984237B50C4602D0002075
:1098800003B030BD00230DF107008DF80730FDF760
:1098900081FB084B1D7915B901221C601A719DF8D6
:1098A0000700FDF79BFB002DE9D01120E8E700BF82
:1098B00000200040C0300020034B984201BF034B02
:1098C00000221A601A71704700200040C03000204A
:1098D00010B5124C2278FAB9114B1960037813F0C5
:1098E000010F104B1EBFD3F8042542F00102C3F84C
:1098F0000425D3F8002222F00102C3F800224378A5
:10990000094A5B01DBB282F80D334FF40053136058
:1099100001232370002010BD8520FCE7CC300020FF
:10992000C830002000D0004000E100E0064B0022DB
:109930001A6082B01B680193019B044B0122C3F89B
:1099400004231A6002B0704700D1004000D00040EC
:10995000024A0123C2F808335360704700D0004028
:10996000084A0123C2F808335360074B4FF40052F2
:10997000C3F88020BFF34F8FBFF36F8F034B0022DC
:109980001A70704700D0004000E100E0CC300020A9
:10999000074B00221A6082B01B680193019B054BA4
:1099A000D3F80805044B1B68C0B202B0184700BFCB
:1099B00000D1004000D00040C830002000234350B8
:1099C00082B043580193019B02B070470A4610B51C
:1099D0004FF48E71FFF7F2FF136A9168C95C136A46
:1099E00001331362C0F81C1510BD8B690A4610B50F
:1099F0004FF4847123B9FFF7E1FFD0F8183510BD9B
:109A0000FFF7DCFF536AD168D0F81805C854536AD1
:109A100001335362F3E700001FB501238DF80030D6
:109A2000044BCDE90110D3E900126846904705B018
:109A30005DF804FBD030002030B54C48D0F804333A
:109A400013F4007F85B005464DD0D0F82431002BAB
:109A500049D04FF49271FFF7B1FF4FF40173C0F892
:109A60000833434B93F829200AB9012242603F4949
:109A700002228DF80020D1F88024C1F880240392BE
:109A80009A690292DA6801920022C3E906226846C6
:109A9000D3E9001290473548D0F81C315BB1344906
:109AA0004A690B6A9A420A464AD991F82830002B33
:109AB00046D1FFF78BFF2D48D0F844318BB14FF4DE
:109AC000A271FFF77BFF2A4B93F829200AB10122EC
:109AD00002609A692AB10022586AD9689A61FFF730
:109AE0009BFF05B030BDD5F804335B07D3D5D5F85F
:109AF0000831002BCFD01E4C1C482146FFF775FFC4
:109B0000636AA2699A422346C5D1E269E1684AB113
:109B10002369E3600023606AA261E3616362FFF787
:109B20007BFFB8E794F829200AB901226A600F4A3E
:109B30004FF40170C2F808030022586A9A61EEE7F8
:109B40000A484FF48E71FFF739FF5369002BB2D0EA
:109B500051690291002391688DF8003001915361A1
:109B60006846D2E900139847A5E700BF00200040EF
:109B7000D03000202DE9F843544B057991462C2232
:109B800002FB0532064692F82A200C469846002A27
:109B900040F098804E490068FFF76CFE07460028A9
:109BA00040F0928021683368481C0BD04FF0A040F1
:109BB00001228A40C0F8082501F5E0724FF0030C3D
:109BC00040F822C06068421C1FBF00F5E0724FF0F1
:109BD000A04C4FF0000E4CF822E0A269C3F82425F7
:109BE00094F814C0627DBCF1010F4CEA0202C3F884
:109BF0006C25C3F81405C3F80C151DD1A1684A1CC7
:109C00001FBF01F5E0724FF0A0404FF0000C40F88C
:109C100022C0E268501C0BD04FF0A04C01209040B5
:109C2000CCF8080502F5E0704FF0030E4CF820E088
:109C3000C3F80825C3F810152C236B4308EB030267
:109C4000C2F80490226948F80320B9F1000F21D02E
:109C50003068247F4FF48E71FFF7B0FE4FF4A2718D
:109C60003068FFF7ABFE32681A4BC2F80433110BB1
:109C700042F307326301002ADBB21EDB1648841868
:109C800084F800330123520901F01F0103FA01F1A6
:109C900040F8221033680422C3F800252C2303FB6C
:109CA00005830022C3E9062283F829205A61012294
:109CB00083F82A203846BDE8F883084A01F00F01EE
:109CC0005354E7E70827F5E71127F3E7D0300020E2
:109CD000399A02008000020000E100E014ED00E08B
:109CE000F8B503680479304D0022C3F800252C2212
:109CF00002FB04525268A2B12C4AC3F808231A0B83
:109D000043F30733002B0CDB02F01F015B09012238
:109D10008A402033264941F82320BFF34F8FBFF3F9
:109D20006F8F0068D0F80C65D0F81415D0F808359E
:109D3000D0F810254FF0FF37BE42C0F8147518BF99
:109D400006F5E076C0F80C75C0F80875C0F8107517
:109D50001EBF4FF0A0474FF0020C47F826C04E1C24
:109D60001FBF4FF0A04601F5E071022746F82170B1
:109D7000511C1FBF4FF0A04102F5E072022641F8CE
:109D800022605A1C1FBF03F5E0734FF0A04202216E
:109D900042F82310FFF790FD2C2303FB045400230B
:109DA00084F82A306360F8BDD030002084020200BD
:109DB00000E100E02DE9F047204F90F804904FF0CB
:109DC0002C0808FB097405466669002E34D16261CF
:109DD0000068A16026624FF48E7184F82860FFF756
:109DE000EDFD2868012383602146FFF7EFFD6368DE
:109DF000A0468BB92868D4F814A0236A9A4511D8D4
:109E00002A68D2F81C31002BFBD00123D3602C230D
:109E100003FB097300225A613046BDE8F08794F8CD
:109E200028303BB9D0F81C31002BF8D04146FFF761
:109E3000CDFDE2E70F26EAE71126EDE7D03000205E
:109E40000023435082B043580193019B02B07047F6
:109E50001FB501238DF80030044BCDE90110D3E983
:109E600000126846904705B05DF804FBFC30002006
:109E70007FB5434AD2F82461002E60D010464FF4DB
:109E80009271FFF7DDFF02238DF80030D2F88034A5
:109E9000C2F880340393D2F83C350293394BDA6828
:109EA00001920022C3E906226846D3E900129047D6
:109EB0003348D0F8443173B14FF4A271FFF7C0FFBB
:109EC000304B9A693AB10022C3E90622D968D0F82A
:109ED0003C05FFF7BDFF2A48D0F82031ABB14FF465
:109EE0009071FFF7ADFF0123C360264B5A6962B141
:109EF000D0F84C150291002299688DF8002001914C
:109F00005A616846D3E9001290471D48D0F858318D
:109F10009BB14FF4AC71FFF793FF1A4B5A6962B1D2
:109F2000D0F84C150291002299688DF8002001911B
:109F30005A616846D3E90012904704B070BDD2F868
:109F40001031002BB4D04FF488711046FFF778FF22
:109F50000C4BD2F83C0599698842A9D1DC69D968D3
:109F600064B1D2F8005225F02005C2F800521A69F7
:109F70009C61DA60DE61FFF76BFF99E79C61FAE7AD
:109F800000200040FC3000202DE9F8435B4B0679AF
:109F90009146242202FB0632044692F820200D4608
:109FA0009846002A40F0A58055490068FFF762FCFA
:109FB0000746002840F09F8029682368481C0BD082
:109FC0004FF0A04001228A40C0F8082501F5E07258
:109FD0004FF0030C40F822C06868421C1FBF00F518
:109FE000E0724FF0A04C4FF0000E4CF822E0AA694E
:109FF000C3F8242595F814C06A7DBCF1010F4CEA22
:10A000000202C3F86C25C3F80C15C3F814051DD162
:10A01000A9684A1C1FBF01F5E0724FF0A0404FF045
:10A02000000C40F822C0EA68501C0BD04FF0A04C46
:10A0300001209040CCF8080502F5E0704FF0030EC7
:10A040004CF820E0C3F80825C3F810152423734307
:10A0500008EB0302C2F804902A6948F80320B9F11A
:10A06000000F30D020682A7F4FF48871FFF7E8FE98
:10A0700020684FF49071FFF7E3FE20684FF492716F
:10A08000FFF7DEFE20684FF4A271FFF7D9FE4FF410
:10A09000AC712068FFF7D4FE23681A49C3F8041393
:10A0A000190B43F307335201002BD2B21CDB1648C5
:10A0B000C51885F8002301225B0901F01F0102FA8F
:10A0C00001F140F8231023680822C3F80025242357
:10A0D00003FB06830022C3E906225A61012283F8AA
:10A0E00020203846BDE8F883084B01F00F015A5490
:10A0F000E9E70827F5E71127F3E700BFFC30002068
:10A10000719E02001003420000E100E014ED00E047
:10A11000F8B5444D0479242303FB045302465B68DD
:10A120000068ABB1404BC0F8083340F30733002B55
:10A130004FEA10310CDB01F01F065B090121B14031
:10A1400020333A4E46F82310BFF34F8FBFF36F8F83
:10A15000D0F8003223F02003C0F80032242303FBA0
:10A1600004539B692BB14FF4A271FFF769FE0123E1
:10A1700043604FF4AC71FFF763FE0123C3602423F7
:10A1800003FB0453D0F858110029FBD0996919B189
:10A19000D0F844110029F5D00023C0F80035136829
:10A1A000D3F80C75D3F81465D3F80825D3F8101537
:10A1B0004FF0FF3C6745C3F80CC518BF07F5E077C3
:10A1C000C3F814C5C3F808C5C3F810C51EBF4FF0C7
:10A1D000A0434FF0020C43F827C0771C1FBF4FF07D
:10A1E000A04306F5E076022743F826704E1C1FBFF9
:10A1F00001F5E0714FF0A043022643F82160531CA3
:10A200001FBF4FF0A04302F5E072022143F8221075
:10A21000FFF752FB242303FB0454002384F820306F
:10A220006360F8BDFC3000201003420000E100E054
:10A2300001F06043B3F1005F2DE9F041064638D1EB
:10A240001E4B0779242505FB073598466C69002CC1
:10A2500031D16A610068A9604FF49071FFF7F0FD99
:10A260004FF4AC713068FFF7EBFD33686A69A96899
:10A27000C3F84415C3F8482501229A606A68AAB950
:10A28000D3F82021D3F858411AB9002CF8D00F2464
:10A2900007E0002CFBD10122DA60D3F85821002A14
:10A2A000FBD0242303FB078700237B612046BDE806
:10A2B000F0811024FAE71124F8E700BFFC300020F9
:10A2C0000023435082B043580193019B02B0704772
:10A2D0000B7B032B2AD8DFE803F022261A028B68B7
:10A2E0005A0304D5D0F84C350A699A4207D18B68D5
:10A2F0005B031BD4D0F84C354A699A4216D0002330
:10A300000622C0F80035C0F8002518467047D0F87E
:10A310004C350A699A42F2D1D0F83C35ECE7D0F8D6
:10A320004C350A69E9E7D0F83C35FAE70120704777
:10A33000F0B55A485A4CD0F8243187B00546F3B1ED
:10A340004FF49271FFF7BCFFD0F80431BBB9A3689A
:10A35000C0F808330223A360A368C0F80433D0F820
:10A3600060311BB1D0F800329F0503D44B4B012262
:10A370001A625A61012384F82E3007B0F0BDD5F877
:10A380000431002B52D045484FF48271FFF798FFFB
:10A39000236A5E060AD494F82E303BB940493F4800
:10A3A000FFF796FF80F0010084F82E00236A5D0716
:10A3B00021D43C4E0FCE01AD0FC5336837482B601A
:10A3C0004FF4B071FFF77CFF34484FF4AE71FFF7E4
:10A3D00077FF94F8303013B194F82E305BB12F4BE7
:10A3E0000022C3F80022A2602F4AC3F808232F4B93
:10A3F0000822C3F88021294AD2F8C434C2F8C434F0
:10A4000098073DD501238DF8003094F830300BB912
:10A4100084F82F30236A5B0703D594F82E30002B85
:10A42000ABD0D4E9003168469847A6E71B484FF403
:10A43000A471FFF745FF237B83B91A4F0FCF01AEFD
:10A440000FC63B68336094F83030002BD3D1C5F889
:10A450000032A360144BC5F80833C8E74FF400730B
:10A46000C5F8003240F20223A36003F1CE73C5F8B1
:10A470000833A368C5F804330123AB602B627CE783
:10A48000590701D50223BEE7DA0701D50323BAE74E
:10A4900094F82E30002BB6D00423B4E700300040EF
:10A4A000203100202C31002002029C0100E100E05C
:10A4B0002DE9F84F0679304D4FF0340A0AFB06FAC1
:10A4C00005EB0A079B4697F82D3080460C469146CF
:10A4D000002B4DD129490068FFF7CCF9002849D15C
:10A4E0002168637B87F8323001F5E0724FF0A043BA
:10A4F000B860C7F804B087F82F0087F8300040F242
:10A500000C6745F80A9043F82270626802F5E07C17
:10A5100043F82C70D8F80030C3F80815C3F80C25A0
:10A52000A268C3F82425B9F1000F14D0227B43F3AD
:10A53000073152010029C3F30733D2B213DB104CA9
:10A54000671887F800230122490903F01F0302FA64
:10A5500003F344F82130342303FB0655012385F827
:10A560002D30BDE8F88F074903F00F03CA54F2E716
:10A570000820F6E71120F4E72031002031A3020083
:10A5800000E100E014ED00E0026803790621C2F862
:10A590000015044A342101FB0323022283F82D20F5
:10A5A000704700BF203100202DE9F843B14F90F8EB
:10A5B00004900468342606FB0976002386F82E30C2
:10A5C000CB6803F06043B3F1005F0D46904603D0C3
:10A5D00010263046BDE8F883A74BC4F8083396F838
:10A5E0002F3023B1B368C4F804331126F1E712F019
:10A5F000140F0CBF0123002386F82F308E46BEE8CF
:10A600000F0006F10C0CACE80F00DEF80030CCF8BF
:10A610000030C8F3001386F83030C6F820806B781D
:10A62000C4F8883520464FF48271FFF749FE4FF495
:10A630009271FFF745FE4FF4B071FFF741FE4FF402
:10A64000A471FFF73DFE18F0010318BF0123C4F801
:10A65000503518F0020318BF0123C4F840352B7899
:10A66000032B00F2B480DFE803F0839F68022B69BC
:10A6700003F06043B3F1005FAAD14FF48073C4F8D4
:10A680000032EA686B68C4F844254FF4A871C4F836
:10A690004835FFF715FE01232362A360D4F850313B
:10A6A000002BFBD04FF4A8712046FFF709FEAB68E2
:10A6B0002A69C4F84425C4F84835342303FB0973D8
:10A6C0004FF480229A600823002618F0080F04D166
:10A6D0002A78032A1CBF0122E250342303FB09F32A
:10A6E000FA18FB58002B75D10125D4F84821D4F86D
:10A6F0000431002B40F08880003A18BF0122D4F8C2
:10A700002431002B00F087804FF492712046FFF730
:10A71000D7FDD4F86011D4F8003209B1980504D4FB
:10A72000256265610029E0D00022DB0573D54FF476
:10A73000A4712046FFF7C4FDD7E76B68EA68C4F848
:10A740004425C4F848352B6903F06042B2F1005F3C
:10A750007FF43EAFAA68C4F834354FF48453C4F88C
:10A760003825C4F80032342303FB0973022212E0B7
:10A770006B68EA68C4F8442518F0200FC4F848351F
:10A780004FF034030BD04FF48072C4F8002203FB67
:10A7900009734FF480229A600123236293E74FF4F8
:10A7A0000072C4F80022DFE76B68EA68C4F8342559
:10A7B000C4F838354FF48053C4F80032342303FB17
:10A7C000097302229A600123236200237CE7082395
:10A7D00007267AE718F0040F1CBF0023936018F0D7
:10A7E000400F06D1342303FB09739A6842F002023A
:10A7F0009A60342303FB0977BB6843F40073BB60A2
:10A80000BB68C4F80433E4E64FF482712046FFF7D6
:10A8100057FD012273E7002A3FF467AF3421D4F8D3
:10A82000C434C4F8C43401FB0972002082F82F003C
:10A8300093B113F0010F14BF4FF40246032648F200
:10A84000012213F0020F18BF164613F0040F48F24E
:10A85000022318BF1E46BCE618F0400F7FF4B9AEC5
:10A8600009FB01712046FFF733FD002808BF0326CE
:10A87000AFE600BF2031002002029C0110B586B077
:10A880000024CDE902349DF820308DF80510A34254
:10A89000CDE9042401A914BF202222468DF80440EA
:10A8A000FFF782FE06B010BD10B586B001240293FA
:10A8B0000023CDE903328DF805101A4601A98DF861
:10A8C00004400593FFF770FE06B010BD054A4FF037
:10A8D000A043105CD3F8043523FA00F0C04300F025
:10A8E0000100704795650300044B1A5C01239340F7
:10A8F0004FF0A042C2F80C35704700BF95650300C9
:10A90000044B1A5C012393404FF0A042C2F8083573
:10A91000704700BF9565030008B50020FFF7F0FF02
:10A920000120FFF7EDFF0220FFF7EAFFBDE8084036
:10A930000320FFF7E5BF08B50020FFF7D5FF012092
:10A94000FFF7D2FF0220FFF7CFFFBDE8084003204A
:10A95000FFF7CABF074A4FF0A041105CD1F8043599
:10A960000122824022EA03001340C1F80805C1F821
:10A970000C35704795650300014B185C704700BFAC
:10A98000916503007047000007B5044B0093044A2B
:10A99000402300F032F803B05DF804FBA5A90200E3
:10A9A000553100202DE9F84388461446B2B10F4BCB
:10A9B0000F4E0325002743F00109224608EB07014B
:10A9C000002002F02FFB0744241A48B933782BB13A
:10A9D0004FF47A40C847013D02D13570BDE8F88395
:10A9E00001233370002CE8D1F8E700BFA065030015
:10A9F00054310020704702F049BBF0B595B01D46B8
:10AA0000164608460C46FEF753F91A9B0D93CDE9FE
:10AA1000086500252B46082205A920460A958DF8D1
:10AA20002C500C95FEF761F9079B0293069B03934C
:10AA30009DF814308DF8115003F00302012A1DD146
:10AA4000BDF81420059DC3F3C203C2F383168DF82D
:10AA50001030B20008230EA92046FEF746F9C5F3D0
:10AA6000952508AB0093324602AB0EA9284600F0AC
:10AA7000DFFB2046FEF720F915B0F0BD022AF8D121
:10AA8000BDF81650C3F3C203C5F389158DF8103015
:10AA90000827082D2E4628BF08263B4632460EA919
:10AAA0002046FEF722F9AD1B08AB02AA31460EA8DC
:10AAB000374400F021FC002DEBD1DAE7014B0122F5
:10AAC0001A707047D63100207047000070B5124DE3
:10AAD00006460FCD88B06C460FC495E80F00002ED7
:10AAE00084E80F004FF0FF334FF00602CDE900235A
:10AAF000CDE90233094A0A484FF0EB7308BF002240
:10AB000069460693FEF73AFC08B1FBF783FE054B56
:10AB10001E7008B070BD00BFB4650300BDAA02007E
:10AB2000E42B00209531002007B5044B0093044A24
:10AB30004023FFF762FF03B05DF804FB45AB020062
:10AB40009631002038B50D4B0D4D002018700D4882
:10AB500004782D5DD2B21C4665B10430FFF768FB66
:10AB600008B1FBF757FE084B1A7812B12378002B77
:10AB7000FBD038BD0C30FFF71DF9F1E7D6310020CE
:10AB800058300020E42B00209531002008B50848FB
:10AB9000084A0378D35C3BB10430FFF7B9FABDE84B
:10ABA00008400020FFF792BF0C30FFF799F8F6E756
:10ABB000E42B0020583000200120FFF787BF000061
:10ABC00038B50A4DFFF717FF0421284600F09AFA1E
:10ABD000074B01245C71FFF7EFFF042105F1100022
:10ABE00000F090FA034B5C7138BD00BFC85D0300F4
:10ABF000F82B0020002C0020037813F0040216D05C
:10AC000003F00303012B03D0022B09D0012070476E
:10AC10000A6800880232C0F3831002440A60F5E734
:10AC20000B684288023303EB92130B60EEE7104689
:10AC3000704700002DE9F04F87B000230446861CC2
:10AC40000DF107000F4615468DF80730FCF7A2F905
:10AC5000404A51683960936803F580735B1A9246E5
:10AC600002F21C4702F5836902F21448B3421AD378
:10AC70000020002D69D004F00F039B0143F0050371
:10AC800063F30F00DAF80430DAB203321E444AF8F4
:10AC900022009DF80700CAF80460FCF79FF9012024
:10ACA00007B0BDE8F08F01213846FDF76DFA484640
:10ACB000FDF785FA4046FDF782FADAF808000290BF
:10ACC000C0B203300AEB800002A9FFF795FF029B98
:10ACD00030BBDAB20AEB8202D16803919A1C0133CD
:10ACE000DBB20AEB83030292D3F80CB001F003034A
:10ACF000012B22D0022B15D083464046FDF762FA85
:10AD000010B1029BCAF8083059463846FDF73CFAA4
:10AD1000DAF80830DAF8042003F580739B1AA5E707
:10AD2000D8B2CEE7BDF80E30C3F3891303334FEA30
:10AD30001B4B02EB93030293DFE7BDF80C30C3F328
:10AD400083134FEA1B4B1344F5E7A40544F00600B8
:10AD500098E700BFA8320020064B074810B5002234
:10AD60001A70FDF75EFF044610B90448FEF7DAF8E2
:10AD7000204610BDA8320020BC5C0300186603000A
:10AD800030B50A4C71B10A4A0A49121BD208002395
:10AD90009A4201D1002030BD31F82350854202D0C3
:10ADA0000133F5E7034654F83300F4E7D85C0300B9
:10ADB000C85D0300E42B0020094B013903EBC00000
:10ADC000032909D8DFE801F00A02040604207047CD
:10ADD0000079704740797047002070470220704723
:10ADE000D85C0300034BD3E90130C31A58425841E1
:10ADF000704700BFA83200202DE9F04186B0FFF770
:10AE0000F1FF0546002840F0E680744CC4F81804B1
:10AE1000BFF34F8FA3680293DBB2033304EB8300CD
:10AE200002A9FFF7E9FE029B18B1D4F81824002A02
:10AE300055D0DAB2991C013304EB8202DBB204EB89
:10AE40008303D268DB68049302F00303022B0392AE
:10AE500002914FD1BDF80E306148C3F38917502FCE
:10AE60003E4628BF502666F38F1306F10801ADF861
:10AE70000E30FDF7EEFE0546002800F09780FDF746
:10AE800017FF002303A908222846FDF724FF029993
:10AE9000CB43DBB20133C9B20331B6EB830F4FEAC8
:10AEA000830804EB810122D908234246A6EB080659
:10AEB0002846FDF710FFF6B24A4908F1080332466A
:10AEC0002846FDF708FF029B033703EB970702971D
:10AED000D4F81834002B41D1D4F8106451E06268E2
:10AEE0009A4299D8A260284606B0BDE8F0810823AE
:10AEF0003246E5E7012B59D1BDF80C303848C3F391
:10AF00008311062928BF062161F3891302318900C4
:10AF1000ADF80C30FDF79DFE0546002846D0FDF744
:10AF2000C7FE0023082203A92846FDF7D4FE002609
:10AF3000BDF80C20C2F38312B300964203F108035C
:10AF4000C6D202994A1CC9B20331029204EB8101B4
:10AF500004222846FDF7BFFE0136E9E72846FDF743
:10AF6000ABFEFFF73FFF80F00100C5B2BBE7F3681F
:10AF70005B7923B1336829461B6830469847F368EC
:10AF80001E68002EF3D12846FDF796FE0DF107004E
:10AF90008DF80760FBF7FEFFD4F818340BB9029B5D
:10AFA000A3609DF80700FCF719F8DAE7D4F810441D
:10AFB00054B90D4B0D480E49C01AC008000440F0AA
:10AFC000020000F05DF8CCE7236820469B689847B4
:10AFD000E3681C68ECE7002585E700BFA832002085
:10AFE000BC5C0300B4320020D85C0300105D030099
:10AFF000016603002DE9F34704460E46924601A977
:10B00000012218469946FFF715FE1B4F10B3019D0C
:10B010004FF00008AA1CC84508EB020123D11748CD
:10B020000021FDF76AF880F31000000440EA1440A4
:10B03000E4006B1C04F03804DBB2EDB244F0010410
:10B0400007EB8303033544EA881444EA8624D86076
:10B0500047F825403B781BB1FFF7CEFE0028FBD117
:10B0600002B0BDE8F087C9B207EB81015AF8283079
:10B07000CB6008F10108CEE7A8320020C4360020DA
:10B0800000231A46FFF7B6BF07B50123019201AAB4
:10B09000FFF7B0FF03B05DF804FB07B5CDE900236F
:10B0A00002236A46FFF7A6FF03B05DF804FB1FB555
:10B0B000CDE90123069B039301AA0323FFF79AFF1F
:10B0C00005B05DF804FB1FB5CDE90023069B029394
:10B0D000079B03936A460423FFF78CFF05B05DF8D6
:10B0E00004FB7FB5CDE90123089B0393099B0493DF
:10B0F0000A9B059301AA0523FFF77CFF07B05DF8C3
:10B1000004FB000030B50F49D1F81024034600209D
:10B11000144634B9DC6820714AB9C1F81034226091
:10B1200030BDE4682579854206D02468F1E7D2680D
:10B13000116821601360F3E701300A28E8D14FF06D
:10B14000FF30EDE7A8320020084A38B50123D2F8D5
:10B15000104413701D4604B938BDE3685D7123685F
:10B1600020465B689847E3681C68F4E7A832002033
:10B1700007B503460846197A052911D05B7A2BB129
:10B18000094A0A490190FDF780F8019808490190A1
:10B19000FDF77BF8019803B05DF804EBFDF76AB8A2
:10B1A000002AF8D0F2E700BF24660300939B030057
:10B1B000E2A6030030B5C38885B004460D4633B11E
:10B1C000144A00921449154A2846FDF75EF8217A80
:10B1D00005291DD0637A4BB1A088FFF7EDFD104B18
:10B1E000104953F820202846FDF74FF8227A0E4BDD
:10B1F000A08853F8222003920021FFF7C1FD039A93
:10B200000A490346284605B0BDE83040FDF73DB881
:10B2100005B030BD246603003166030029660300D3
:10B22000B0660300939B0300D466030049660300E5
:10B230002DE9F04385B01F460C9D002395F80C9036
:10B240002B7306460C46904629463846FFF7B2FF58
:10B25000B8F1060F09D8DFE808F00412181F2833E8
:10B26000400031462846FDF710F8002229463846AE
:10B27000FFF77EFF85F80C9005B0BDE8F0832268EB
:10B2800031462846FDF701F8EFE7D4E900233146BF
:10B290002846FCF7FAFFE8E7A36800933146D4E9B3
:10B2A00000232846FCF7F1FFDFE7E3680193A3687A
:10B2B00000933146D4E900232846FCF7E6FFD4E7A3
:10B2C00023690293E3680193A36800933146D4E9AC
:10B2D00000232846FCF7D9FFC7E763690393236976
:10B2E0000293E3680193A36800933146D4E90023F5
:10B2F0002846FCF7CAFFB8E708292DE9F74F804632
:10B300000E4617461C463CD8002593F80C901D733A
:10B3100019461046FFF74EFFDFF888A0DFF888B027
:10B32000AE4231D918F8052059462046FCF7ADFF4A
:10B330000135082DF4D11949194DDFF870A02046C8
:10B34000FCF7A3FF4FF0000B5E4522D918F80B2045
:10B350007E2A05D81046019207F0E2FE019A00B954
:10B360002E2251462046FCF790FF0BF1010BBBF15A
:10B37000080FE9D1012221463846FFF7F9FE84F88B
:10B380000C9003B0BDE8F08F51462046FCF77DFFDE
:10B39000CEE729462046FCF778FFE6E75D66030026
:10B3A0005B66030059660300536603005F66030093
:10B3B0004FF48C72002107F031BF18B14FF48C713B
:10B3C00000F0C4BE70470000C02AF0B541D0B2F50D
:10B3D000807F40D0802A40F0C5800A230446036065
:10B3E00000F10803520944F8043F01EB82028A424B
:10B3F00033D103680C2B3ED00E2B6CD00A2B26D1F8
:10B400005A4D5B4900F1A006426955F8044B876824
:10B41000C2F307237C40CB5C6340140E10300C5DFC
:10B4200083EA0443D4B20C5D83EA0463C2F30744A5
:10B430000C5D83EA042350F8044C83606340046885
:10B44000C36063400361534043618642DCD1002006
:10B450008AE00C23C2E70E23C0E78B784D781B04EB
:10B4600043EA05230D782B43CD7843EA056344F87E
:10B47000043F0431BBE73D4C3D4900F1C005C269C2
:10B4800054F8046B8768C2F307237E40CB5C73409B
:10B49000160E18308E5D83EA0643D6B28E5D83EABF
:10B4A0000663C2F307468E5D83EA062350F80C6CF0
:10B4B0008360734050F8086CC360734050F8046CAC
:10B4C0000361734006684361734083615340C36105
:10B4D0008542D4D1BBE7254D254900F1E006446AF9
:10B4E00055F8042B8768C4F307237A40CB5C87693F
:10B4F0005340220E20308A5C83EA0243E2B28A5C27
:10B5000083EA0263C4F307428A5C83EA022350F8A9
:10B51000142C8360534050F8102CC360534050F8F3
:10B520000C2C03615340DAB243618A5C7A401F0EEF
:10B53000CF5D82EA0762C3F30727C3F30743CF5DFA
:10B54000CB5C82EA072282EA034350F8042C836131
:10B5500053400268C36153400362634043628642C2
:10B56000BDD174E76FF01F00F0BD00BFE8770300A6
:10B57000E86603002DE9F04F97B043680D680E951B
:10B580001C68A84FA84E6C400E945D684C686C40D7
:10B590000F949D688C68C9686C40109403F1100486
:10B5A000DB68A24D00944B40119303680D945B102F
:10B5B0000393013B04930193002320460293DDE9AA
:10B5C0000E91C1F30723DDF840C057F823300693EE
:10B5D000CCF30743CCF3072E56F823300793119B87
:10B5E00057F82E400894C3F3074E4FEA1C6856F8EC
:10B5F0002E400994C3F3072E5FFA8CFC57F82E40B7
:10B600000A94C9F3074E203056F82E400B94C9F324
:10B61000072E57F82E400594C1F3074E844C56F878
:10B620002EB054F828A055F82C805FFA83FE55F808
:10B630002EE08EEA0A0A4FEA116EC9B254F82EE0E3
:10B6400055F8211088EA0E084FEA196E5FFA89F959
:10B6500054F82EC081EA0C014FEA136C55F82930DA
:10B6600054F82C9083EA0909019B002BDDE906348C
:10B6700083EA0403089CA446099C8CEA040C0A9CF7
:10B68000A6460B9C8EEA040E00F3D680039C049819
:10B69000002C009C4FEA4010D8BF002004442046F4
:10B6A000029C04B10D900D9E3068B56874684340EB
:10B6B00083EA0907F36812978BEA0A0B8BEA030BFC
:10B6C000059B8EEA050E8BEA030B5A4DCDF854B05C
:10B6D000FBB28CEA040CEC5C33695C404FEA1B6300
:10B6E0008CEA0101EB5C139184EA0364C1F3072344
:10B6F0008EEA0808EB5CCDF8508084EA0324C8F396
:10B700000743C7F30729EB5C84EA0344CBB20E94EA
:10B71000E85C736958403B0EEB5C80EA0360C8F359
:10B720000723EB5C80EA0320CBF30743EB5C80EA62
:10B7300003405FFA88F34FEA186815F803A0B3696D
:10B740000F908AEA030A0B0EC1F30741EB5C8AEA09
:10B75000036ACBF307235FFA8BFBEB5C8AEA032ACD
:10B76000C7F30743EB5C8AEA034A06F120030D9313
:10B77000F66915F80B30CDF840A0734015F8086055
:10B7800083EA066315F80960695C147083EA06238E
:10B7900083EA0143210A5170210C9170010A517111
:10B7A000010C91714FEA1A2151724FEA1A419172BC
:10B7B0004FEA1A61D172190A107113735173119300
:10B7C000190C240E1B0E000ED0719173D47082F8E8
:10B7D00008A0D3730EA8042100F0B8FC0FA8042120
:10B7E00000F0B4FC10A8042100F0B0FC11A8042162
:10B7F00000F0ACFC12A8042100F0A8FC13A804215E
:10B8000000F0A4FC14A8042100F0A0FC15A8042159
:10B8100000F09CFC0DA8042100F098FC002017B05B
:10B82000BDE8F08FE86B0300E86F0300E8670300F2
:10B83000E8730300E866030050F8204C634083EA95
:10B840000903129350F81C4C8CEA040C8CEA010C8E
:10B85000CDF84CC050F8181C059C8EEA010181EA15
:10B860000801149184EA0B0B50F8144C8BEA040B7A
:10B870008BEA0A0A3C4CCDF854A05FFA83F84FEAF1
:10B880001A6E55F8288054F82EE050F8104C88EACB
:10B890000E0ECCF307288EEA040E57F82880324C9F
:10B8A0008EEA080EC1F3074856F828808EEA080E83
:10B8B000CDF838E05FFA8CF84FEA136E55F828801F
:10B8C00054F82EE050F80C4C88EA0E0EC1F307280D
:10B8D0008EEA040E57F82880234C8EEA080ECAF32D
:10B8E000074856F828808EEA080ECDF83CE05FFA4B
:10B8F00081F84FEA1C6E55F8288054F82EE050F875
:10B90000084C88EA0E0ECAF307288EEA040E57F890
:10B910002880154C8EEA080EC3F307485FFA8AFAAE
:10B9200056F828808EEA080E4FEA1168CDF840E0FC
:10B9300055F82A1054F828E0C3F3072381EA0E0EC5
:10B9400050F8041C57F82330CCF3074C8EEA010161
:10B95000594056F82C3059401191019B013B0193FD
:10B96000012302932BE600BFE87303002DE9F04F9B
:10B9700097B043680D680E951C68DFF8A8E2DFF801
:10B98000A8C2A54F6C400E945D684C686C400F9443
:10B990009D688C68C9686C40109403F11004DB68E2
:10B9A00000944B40119303680D945B100393013B8B
:10B9B00004930193002325460293119C10980E993D
:10B9C000C4F30723C1F307285EF823300693C0F3BE
:10B9D00007435EF828605CF823300793C4F30748F8
:10B9E0000F9B08965CF828600996C3F307284FEA76
:10B9F00011695EF828600A96C1F30748C9B25CF87D
:10BA000028600B96C0F3072820355EF8286005965D
:10BA1000C3F30748814E5CF828B056F829A05FFAB6
:10BA200084F8240E57F8288056F8244088EA0A0A39
:10BA30005FFA80F8000E57F8288056F8200088EA50
:10BA40000408DCB257F8244084EA00091C0E57F8B9
:10BA5000213056F824005840019B002BDDE90631C7
:10BA600083EA0103DDE9081481EA0404DDE90A162A
:10BA700081EA060100F3DA80039E049D002E009EF9
:10BA80004FEA4515D8BF00252E443546029E06B123
:10BA90000D95DDF834C0DCF80050DCF80870DCF8F7
:10BAA00004605D40DCF80C308BEA0A0B8BEA030B78
:10BAB000059B45408BEA030B7940EBB2584FCDF81C
:10BAC00054B017F803E0DCF810301295664086EAAF
:10BAD00009068EEA030E330E81EA0804FB5C139616
